{
  "_format": "hh-sol-artifact-1",
  "contractName": "ERC20Mock",
  "sourceName": "contracts/mocks/ERC20Mock.sol",
  "abi": [
    {
      "inputs": [],
      "stateMutability": "nonpayable",
      "type": "constructor"
    },
    {
      "anonymous": false,
      "inputs": [
        {
          "indexed": true,
          "internalType": "address",
          "name": "owner",
          "type": "address"
        },
        {
          "indexed": true,
          "internalType": "address",
          "name": "spender",
          "type": "address"
        },
        {
          "indexed": false,
          "internalType": "uint256",
          "name": "value",
          "type": "uint256"
        }
      ],
      "name": "Approval",
      "type": "event"
    },
    {
      "anonymous": false,
      "inputs": [
        {
          "indexed": true,
          "internalType": "address",
          "name": "from",
          "type": "address"
        },
        {
          "indexed": true,
          "internalType": "address",
          "name": "to",
          "type": "address"
        },
        {
          "indexed": false,
          "internalType": "uint256",
          "name": "value",
          "type": "uint256"
        }
      ],
      "name": "Transfer",
      "type": "event"
    },
    {
      "inputs": [
        {
          "internalType": "address",
          "name": "owner",
          "type": "address"
        },
        {
          "internalType": "address",
          "name": "spender",
          "type": "address"
        }
      ],
      "name": "allowance",
      "outputs": [
        {
          "internalType": "uint256",
          "name": "",
          "type": "uint256"
        }
      ],
      "stateMutability": "view",
      "type": "function"
    },
    {
      "inputs": [
        {
          "internalType": "address",
          "name": "spender",
          "type": "address"
        },
        {
          "internalType": "uint256",
          "name": "value",
          "type": "uint256"
        }
      ],
      "name": "approve",
      "outputs": [
        {
          "internalType": "bool",
          "name": "",
          "type": "bool"
        }
      ],
      "stateMutability": "nonpayable",
      "type": "function"
    },
    {
      "inputs": [
        {
          "internalType": "address",
          "name": "owner",
          "type": "address"
        }
      ],
      "name": "balanceOf",
      "outputs": [
        {
          "internalType": "uint256",
          "name": "",
          "type": "uint256"
        }
      ],
      "stateMutability": "view",
      "type": "function"
    },
    {
      "inputs": [
        {
          "internalType": "address[]",
          "name": "_tokens",
          "type": "address[]"
        },
        {
          "internalType": "address",
          "name": "_to",
          "type": "address"
        },
        {
          "internalType": "uint256[]",
          "name": "_amounts",
          "type": "uint256[]"
        }
      ],
      "name": "batchTransfer",
      "outputs": [],
      "stateMutability": "nonpayable",
      "type": "function"
    },
    {
      "inputs": [
        {
          "internalType": "address",
          "name": "spender",
          "type": "address"
        },
        {
          "internalType": "uint256",
          "name": "subtractedValue",
          "type": "uint256"
        }
      ],
      "name": "decreaseAllowance",
      "outputs": [
        {
          "internalType": "bool",
          "name": "",
          "type": "bool"
        }
      ],
      "stateMutability": "nonpayable",
      "type": "function"
    },
    {
      "inputs": [
        {
          "internalType": "address",
          "name": "spender",
          "type": "address"
        },
        {
          "internalType": "uint256",
          "name": "addedValue",
          "type": "uint256"
        }
      ],
      "name": "increaseAllowance",
      "outputs": [
        {
          "internalType": "bool",
          "name": "",
          "type": "bool"
        }
      ],
      "stateMutability": "nonpayable",
      "type": "function"
    },
    {
      "inputs": [
        {
          "internalType": "address",
          "name": "_address",
          "type": "address"
        },
        {
          "internalType": "uint256",
          "name": "_amount",
          "type": "uint256"
        }
      ],
      "name": "mockMint",
      "outputs": [],
      "stateMutability": "nonpayable",
      "type": "function"
    },
    {
      "inputs": [],
      "name": "totalSupply",
      "outputs": [
        {
          "internalType": "uint256",
          "name": "",
          "type": "uint256"
        }
      ],
      "stateMutability": "view",
      "type": "function"
    },
    {
      "inputs": [
        {
          "internalType": "address",
          "name": "to",
          "type": "address"
        },
        {
          "internalType": "uint256",
          "name": "value",
          "type": "uint256"
        }
      ],
      "name": "transfer",
      "outputs": [
        {
          "internalType": "bool",
          "name": "",
          "type": "bool"
        }
      ],
      "stateMutability": "nonpayable",
      "type": "function"
    },
    {
      "inputs": [
        {
          "internalType": "address",
          "name": "from",
          "type": "address"
        },
        {
          "internalType": "address",
          "name": "to",
          "type": "address"
        },
        {
          "internalType": "uint256",
          "name": "value",
          "type": "uint256"
        }
      ],
      "name": "transferFrom",
      "outputs": [
        {
          "internalType": "bool",
          "name": "",
          "type": "bool"
        }
      ],
      "stateMutability": "nonpayable",
      "type": "function"
    }
  ],
  "bytecode": "0x608060405234801561001057600080fd5b5061094d806100206000396000f3fe608060405234801561001057600080fd5b50600436106100be5760003560e01c80633950935111610076578063a457c2d71161005b578063a457c2d714610181578063a9059cbb14610194578063dd62ed3e146101a757600080fd5b8063395093511461013857806370a082311461014b57600080fd5b806323b872dd116100a757806323b872dd146100fd5780632e72102f14610110578063378934b41461012557600080fd5b8063095ea7b3146100c357806318160ddd146100eb575b600080fd5b6100d66100d13660046106ae565b6101ed565b60405190151581526020015b60405180910390f35b6002545b6040519081526020016100e2565b6100d661010b3660046106d8565b610204565b61012361011e366004610760565b610263565b005b6101236101333660046106ae565b61037b565b6100d66101463660046106ae565b610389565b6100ef6101593660046107e4565b73ffffffffffffffffffffffffffffffffffffffff1660009081526020819052604090205490565b6100d661018f3660046106ae565b6103cd565b6100d66101a23660046106ae565b610411565b6100ef6101b5366004610806565b73ffffffffffffffffffffffffffffffffffffffff918216600090815260016020908152604080832093909416825291909152205490565b60006101fa33848461041e565b5060015b92915050565b60006102118484846104cd565b73ffffffffffffffffffffffffffffffffffffffff8416600090815260016020908152604080832033808552925290912054610259918691610254908690610868565b61041e565b5060019392505050565b60005b81811015610373578585828181106102805761028061087b565b905060200201602081019061029591906107e4565b73ffffffffffffffffffffffffffffffffffffffff1663a9059cbb858585858181106102c3576102c361087b565b6040517fffffffff0000000000000000000000000000000000000000000000000000000060e087901b16815273ffffffffffffffffffffffffffffffffffffffff909416600485015260200291909101356024830152506044016020604051808303816000875af115801561033c573d6000803e3d6000fd5b505050506040513d601f19601f8201168201806040525081019061036091906108aa565b508061036b816108cc565b915050610266565b505050505050565b61038582826105c2565b5050565b33600081815260016020908152604080832073ffffffffffffffffffffffffffffffffffffffff8716845290915281205490916101fa918590610254908690610904565b33600081815260016020908152604080832073ffffffffffffffffffffffffffffffffffffffff8716845290915281205490916101fa918590610254908690610868565b60006101fa3384846104cd565b73ffffffffffffffffffffffffffffffffffffffff821661043e57600080fd5b73ffffffffffffffffffffffffffffffffffffffff831661045e57600080fd5b73ffffffffffffffffffffffffffffffffffffffff83811660008181526001602090815260408083209487168084529482529182902085905590518481527f8c5be1e5ebec7d5bd14f71427d1e84f3dd0314c0f7b2291e5b200ac8c7c3b92591015b60405180910390a3505050565b73ffffffffffffffffffffffffffffffffffffffff82166104ed57600080fd5b73ffffffffffffffffffffffffffffffffffffffff831660009081526020819052604081208054839290610522908490610868565b909155505073ffffffffffffffffffffffffffffffffffffffff82166000908152602081905260408120805483929061055c908490610904565b925050819055508173ffffffffffffffffffffffffffffffffffffffff168373ffffffffffffffffffffffffffffffffffffffff167fddf252ad1be2c89b69c2b068fc378daa952ba7f163c4a11628f55a4df523b3ef836040516104c091815260200190565b73ffffffffffffffffffffffffffffffffffffffff82166105e257600080fd5b80600260008282546105f49190610904565b909155505073ffffffffffffffffffffffffffffffffffffffff82166000908152602081905260408120805483929061062e908490610904565b909155505060405181815273ffffffffffffffffffffffffffffffffffffffff8316906000907fddf252ad1be2c89b69c2b068fc378daa952ba7f163c4a11628f55a4df523b3ef9060200160405180910390a35050565b803573ffffffffffffffffffffffffffffffffffffffff811681146106a957600080fd5b919050565b600080604083850312156106c157600080fd5b6106ca83610685565b946020939093013593505050565b6000806000606084860312156106ed57600080fd5b6106f684610685565b925061070460208501610685565b9150604084013590509250925092565b60008083601f84011261072657600080fd5b50813567ffffffffffffffff81111561073e57600080fd5b6020830191508360208260051b850101111561075957600080fd5b9250929050565b60008060008060006060868803121561077857600080fd5b853567ffffffffffffffff8082111561079057600080fd5b61079c89838a01610714565b90975095508591506107b060208901610685565b945060408801359150808211156107c657600080fd5b506107d388828901610714565b969995985093965092949392505050565b6000602082840312156107f657600080fd5b6107ff82610685565b9392505050565b6000806040838503121561081957600080fd5b61082283610685565b915061083060208401610685565b90509250929050565b7f4e487b7100000000000000000000000000000000000000000000000000000000600052601160045260246000fd5b818103818111156101fe576101fe610839565b7f4e487b7100000000000000000000000000000000000000000000000000000000600052603260045260246000fd5b6000602082840312156108bc57600080fd5b815180151581146107ff57600080fd5b60007fffffffffffffffffffffffffffffffffffffffffffffffffffffffffffffffff82036108fd576108fd610839565b5060010190565b808201808211156101fe576101fe61083956fea2646970667358221220121c90e1b5286285789a8100cdc0cd6292c333b5275fcfa9552ce6b109c9763b64736f6c63430008120033",
  "linkReferences": {},
  "deployedLinkReferences": {}
}