{
  "_format": "hh-sol-artifact-1",
  "contractName": "ERC1155Meta",
  "sourceName": "contracts/tokens/ERC1155/ERC1155Meta.sol",
  "abi": [
    {
      "anonymous": false,
      "inputs": [
        {
          "indexed": true,
          "internalType": "address",
          "name": "_owner",
          "type": "address"
        },
        {
          "indexed": true,
          "internalType": "address",
          "name": "_operator",
          "type": "address"
        },
        {
          "indexed": false,
          "internalType": "bool",
          "name": "_approved",
          "type": "bool"
        }
      ],
      "name": "ApprovalForAll",
      "type": "event"
    },
    {
      "anonymous": false,
      "inputs": [
        {
          "indexed": true,
          "internalType": "address",
          "name": "signer",
          "type": "address"
        },
        {
          "indexed": false,
          "internalType": "uint256",
          "name": "newNonce",
          "type": "uint256"
        }
      ],
      "name": "NonceChange",
      "type": "event"
    },
    {
      "anonymous": false,
      "inputs": [
        {
          "indexed": true,
          "internalType": "address",
          "name": "_operator",
          "type": "address"
        },
        {
          "indexed": true,
          "internalType": "address",
          "name": "_from",
          "type": "address"
        },
        {
          "indexed": true,
          "internalType": "address",
          "name": "_to",
          "type": "address"
        },
        {
          "indexed": false,
          "internalType": "uint256[]",
          "name": "_ids",
          "type": "uint256[]"
        },
        {
          "indexed": false,
          "internalType": "uint256[]",
          "name": "_amounts",
          "type": "uint256[]"
        }
      ],
      "name": "TransferBatch",
      "type": "event"
    },
    {
      "anonymous": false,
      "inputs": [
        {
          "indexed": true,
          "internalType": "address",
          "name": "_operator",
          "type": "address"
        },
        {
          "indexed": true,
          "internalType": "address",
          "name": "_from",
          "type": "address"
        },
        {
          "indexed": true,
          "internalType": "address",
          "name": "_to",
          "type": "address"
        },
        {
          "indexed": false,
          "internalType": "uint256",
          "name": "_id",
          "type": "uint256"
        },
        {
          "indexed": false,
          "internalType": "uint256",
          "name": "_amount",
          "type": "uint256"
        }
      ],
      "name": "TransferSingle",
      "type": "event"
    },
    {
      "inputs": [
        {
          "internalType": "address",
          "name": "_owner",
          "type": "address"
        },
        {
          "internalType": "uint256",
          "name": "_id",
          "type": "uint256"
        }
      ],
      "name": "balanceOf",
      "outputs": [
        {
          "internalType": "uint256",
          "name": "",
          "type": "uint256"
        }
      ],
      "stateMutability": "view",
      "type": "function"
    },
    {
      "inputs": [
        {
          "internalType": "address[]",
          "name": "_owners",
          "type": "address[]"
        },
        {
          "internalType": "uint256[]",
          "name": "_ids",
          "type": "uint256[]"
        }
      ],
      "name": "balanceOfBatch",
      "outputs": [
        {
          "internalType": "uint256[]",
          "name": "",
          "type": "uint256[]"
        }
      ],
      "stateMutability": "view",
      "type": "function"
    },
    {
      "inputs": [
        {
          "internalType": "address",
          "name": "_signer",
          "type": "address"
        }
      ],
      "name": "getNonce",
      "outputs": [
        {
          "internalType": "uint256",
          "name": "nonce",
          "type": "uint256"
        }
      ],
      "stateMutability": "view",
      "type": "function"
    },
    {
      "inputs": [
        {
          "internalType": "address",
          "name": "_owner",
          "type": "address"
        },
        {
          "internalType": "address",
          "name": "_operator",
          "type": "address"
        }
      ],
      "name": "isApprovedForAll",
      "outputs": [
        {
          "internalType": "bool",
          "name": "isOperator",
          "type": "bool"
        }
      ],
      "stateMutability": "view",
      "type": "function"
    },
    {
      "inputs": [
        {
          "internalType": "address",
          "name": "_signerAddress",
          "type": "address"
        },
        {
          "internalType": "bytes32",
          "name": "_hash",
          "type": "bytes32"
        },
        {
          "internalType": "bytes",
          "name": "_data",
          "type": "bytes"
        },
        {
          "internalType": "bytes",
          "name": "_sig",
          "type": "bytes"
        }
      ],
      "name": "isValidSignature",
      "outputs": [
        {
          "internalType": "bool",
          "name": "isValid",
          "type": "bool"
        }
      ],
      "stateMutability": "view",
      "type": "function"
    },
    {
      "inputs": [
        {
          "internalType": "address",
          "name": "_from",
          "type": "address"
        },
        {
          "internalType": "address",
          "name": "_to",
          "type": "address"
        },
        {
          "internalType": "uint256[]",
          "name": "_ids",
          "type": "uint256[]"
        },
        {
          "internalType": "uint256[]",
          "name": "_amounts",
          "type": "uint256[]"
        },
        {
          "internalType": "bool",
          "name": "_isGasFee",
          "type": "bool"
        },
        {
          "internalType": "bytes",
          "name": "_data",
          "type": "bytes"
        }
      ],
      "name": "metaSafeBatchTransferFrom",
      "outputs": [],
      "stateMutability": "nonpayable",
      "type": "function"
    },
    {
      "inputs": [
        {
          "internalType": "address",
          "name": "_from",
          "type": "address"
        },
        {
          "internalType": "address",
          "name": "_to",
          "type": "address"
        },
        {
          "internalType": "uint256",
          "name": "_id",
          "type": "uint256"
        },
        {
          "internalType": "uint256",
          "name": "_amount",
          "type": "uint256"
        },
        {
          "internalType": "bool",
          "name": "_isGasFee",
          "type": "bool"
        },
        {
          "internalType": "bytes",
          "name": "_data",
          "type": "bytes"
        }
      ],
      "name": "metaSafeTransferFrom",
      "outputs": [],
      "stateMutability": "nonpayable",
      "type": "function"
    },
    {
      "inputs": [
        {
          "internalType": "address",
          "name": "_owner",
          "type": "address"
        },
        {
          "internalType": "address",
          "name": "_operator",
          "type": "address"
        },
        {
          "internalType": "bool",
          "name": "_approved",
          "type": "bool"
        },
        {
          "internalType": "bool",
          "name": "_isGasFee",
          "type": "bool"
        },
        {
          "internalType": "bytes",
          "name": "_data",
          "type": "bytes"
        }
      ],
      "name": "metaSetApprovalForAll",
      "outputs": [],
      "stateMutability": "nonpayable",
      "type": "function"
    },
    {
      "inputs": [
        {
          "internalType": "address",
          "name": "_from",
          "type": "address"
        },
        {
          "internalType": "address",
          "name": "_to",
          "type": "address"
        },
        {
          "internalType": "uint256[]",
          "name": "_ids",
          "type": "uint256[]"
        },
        {
          "internalType": "uint256[]",
          "name": "_amounts",
          "type": "uint256[]"
        },
        {
          "internalType": "bytes",
          "name": "_data",
          "type": "bytes"
        }
      ],
      "name": "safeBatchTransferFrom",
      "outputs": [],
      "stateMutability": "nonpayable",
      "type": "function"
    },
    {
      "inputs": [
        {
          "internalType": "address",
          "name": "_from",
          "type": "address"
        },
        {
          "internalType": "address",
          "name": "_to",
          "type": "address"
        },
        {
          "internalType": "uint256",
          "name": "_id",
          "type": "uint256"
        },
        {
          "internalType": "uint256",
          "name": "_amount",
          "type": "uint256"
        },
        {
          "internalType": "bytes",
          "name": "_data",
          "type": "bytes"
        }
      ],
      "name": "safeTransferFrom",
      "outputs": [],
      "stateMutability": "nonpayable",
      "type": "function"
    },
    {
      "inputs": [
        {
          "internalType": "address",
          "name": "_operator",
          "type": "address"
        },
        {
          "internalType": "bool",
          "name": "_approved",
          "type": "bool"
        }
      ],
      "name": "setApprovalForAll",
      "outputs": [],
      "stateMutability": "nonpayable",
      "type": "function"
    },
    {
      "inputs": [
        {
          "internalType": "bytes4",
          "name": "_interfaceID",
          "type": "bytes4"
        }
      ],
      "name": "supportsInterface",
      "outputs": [
        {
          "internalType": "bool",
          "name": "",
          "type": "bool"
        }
      ],
      "stateMutability": "pure",
      "type": "function"
    }
  ],
  "bytecode": "0x608060405234801561001057600080fd5b50613170806100206000396000f3fe608060405234801561001057600080fd5b50600436106100d35760003560e01c8063a3d4926e11610081578063f242432a1161005b578063f242432a1461020e578063f5d4c82014610221578063fa4e12d71461023457600080fd5b8063a3d4926e1461019f578063ce0b514b146101b2578063e985e9c5146101c557600080fd5b80632eb2c2d6116100b25780632eb2c2d6146101575780634e1273f41461016c578063a22cb4651461018c57600080fd5b8062fdd58e146100d857806301ffc9a7146100fe5780632d0335ab14610121575b600080fd5b6100eb6100e6366004612509565b610247565b6040519081526020015b60405180910390f35b61011161010c366004612563565b61027d565b60405190151581526020016100f5565b6100eb61012f366004612580565b73ffffffffffffffffffffffffffffffffffffffff1660009081526002602052604090205490565b61016a610165366004612741565b61031a565b005b61017f61017a3660046127ef565b6104c3565b6040516100f591906128ec565b61016a61019a36600461290d565b610663565b61016a6101ad366004612946565b6106fa565b61016a6101c0366004612a07565b61092c565b6101116101d3366004612a81565b73ffffffffffffffffffffffffffffffffffffffff918216600090815260016020908152604080832093909416825291909152205460ff1690565b61016a61021c366004612aaf565b610a9a565b61016a61022f366004612b18565b610c37565b610111610242366004612b87565b610d8e565b73ffffffffffffffffffffffffffffffffffffffff82166000908152602081815260408083208484529091529020545b92915050565b60007f264985da000000000000000000000000000000000000000000000000000000007fffffffff000000000000000000000000000000000000000000000000000000008316016102d057506001919050565b7f01ffc9a7000000000000000000000000000000000000000000000000000000007fffffffff00000000000000000000000000000000000000000000000000000000831614610277565b3373ffffffffffffffffffffffffffffffffffffffff8616148061036e575073ffffffffffffffffffffffffffffffffffffffff8516600090815260016020908152604080832033845290915290205460ff165b6103ff576040517f08c379a000000000000000000000000000000000000000000000000000000000815260206004820152602f60248201527f45524331313535237361666542617463685472616e7366657246726f6d3a204960448201527f4e56414c49445f4f50455241544f52000000000000000000000000000000000060648201526084015b60405180910390fd5b73ffffffffffffffffffffffffffffffffffffffff84166104a2576040517f08c379a000000000000000000000000000000000000000000000000000000000815260206004820152603060248201527f45524331313535237361666542617463685472616e7366657246726f6d3a204960448201527f4e56414c49445f524543495049454e540000000000000000000000000000000060648201526084016103f6565b6104ae858585856115d7565b6104bc858585855a8661183c565b5050505050565b60608151835114610556576040517f08c379a000000000000000000000000000000000000000000000000000000000815260206004820152602c60248201527f455243313135352362616c616e63654f6642617463683a20494e56414c49445f60448201527f41525241595f4c454e475448000000000000000000000000000000000000000060648201526084016103f6565b6000835167ffffffffffffffff8111156105725761057261259d565b60405190808252806020026020018201604052801561059b578160200160208202803683370190505b50905060005b845181101561065b576000808683815181106105bf576105bf612c07565b602002602001015173ffffffffffffffffffffffffffffffffffffffff1673ffffffffffffffffffffffffffffffffffffffff168152602001908152602001600020600085838151811061061557610615612c07565b602002602001015181526020019081526020016000205482828151811061063e5761063e612c07565b60209081029190910101528061065381612c65565b9150506105a1565b509392505050565b33600081815260016020908152604080832073ffffffffffffffffffffffffffffffffffffffff87168085529083529281902080547fffffffffffffffffffffffffffffffffffffffffffffffffffffffffffffff001686151590811790915590519081529192917f17307eab39ab6107e8899845ad3d59bd9653f200f220920489ca2b5937696c31910160405180910390a35050565b73ffffffffffffffffffffffffffffffffffffffff851661079d576040517f08c379a000000000000000000000000000000000000000000000000000000000815260206004820152603860248201527f455243313135354d657461236d6574615361666542617463685472616e73666560448201527f7246726f6d3a20494e56414c49445f524543495049454e54000000000000000060648201526084016103f6565b60606107e060405180608001604052806000815260200160008152602001600073ffffffffffffffffffffffffffffffffffffffff168152602001606081525090565b60006108c289857fa3d4926e8cf8fe8e020cd29f514c256bc2eec62aa2337e415f1a33a4828af5a060001b8c8c8c60405160200161081e9190612c9d565b604051602081830303815290604052805190602001208c6040516020016108459190612c9d565b604051602081830303815290604052805190602001208c61086757600061086a565b60015b60408051602081019790975273ffffffffffffffffffffffffffffffffffffffff95861690870152939092166060850152608084015260a083015260c082015260e0015b6040516020818303038152906040526119bb565b90506108d0898989896115d7565b841561091357808060200190518101906108ea9190612dcb565b80945081935050506109048989898986602001518861183c565b61090e8983611c4b565b610921565b610921898989895a8661183c565b505050505050505050565b73ffffffffffffffffffffffffffffffffffffffff85166109cf576040517f08c379a000000000000000000000000000000000000000000000000000000000815260206004820152603360248201527f455243313135354d657461236d657461536166655472616e7366657246726f6d60448201527f3a20494e56414c49445f524543495049454e540000000000000000000000000060648201526084016103f6565b6060610a1260405180608001604052806000815260200160008152602001600073ffffffffffffffffffffffffffffffffffffffff168152602001606081525090565b6000610a4a89857fce0b514b3931bdbe4d5d44e4f035afe7113767b7db71949271f6a62d9c60f558828c8c8c8c61086757600061086a565b9050610a5889898989611fbe565b8415610a8c5780806020019051810190610a729190612dcb565b8094508193505050610904898989898660200151886120a2565b610921898989895a866120a2565b3373ffffffffffffffffffffffffffffffffffffffff86161480610aee575073ffffffffffffffffffffffffffffffffffffffff8516600090815260016020908152604080832033845290915290205460ff165b610b7a576040517f08c379a000000000000000000000000000000000000000000000000000000000815260206004820152602a60248201527f4552433131353523736166655472616e7366657246726f6d3a20494e56414c4960448201527f445f4f50455241544f520000000000000000000000000000000000000000000060648201526084016103f6565b73ffffffffffffffffffffffffffffffffffffffff8416610c1d576040517f08c379a000000000000000000000000000000000000000000000000000000000815260206004820152602b60248201527f4552433131353523736166655472616e7366657246726f6d3a20494e56414c4960448201527f445f524543495049454e5400000000000000000000000000000000000000000060648201526084016103f6565b610c2985858585611fbe565b6104bc858585855a866120a2565b6000610cc286837ff5d4c820494c8595de274c7ff619bead38aac4fbc3d143b5bf956aa4b84fa524828989610c6d576000610c70565b60015b89610c7c576000610c7f565b60015b60408051602081019690965273ffffffffffffffffffffffffffffffffffffffff94851690860152929091166060840152608083015260a082015260c0016108ae565b73ffffffffffffffffffffffffffffffffffffffff8781166000818152600160209081526040808320948b168084529482529182902080547fffffffffffffffffffffffffffffffffffffffffffffffffffffffffffffff00168a15159081179091559151918252939450919290917f17307eab39ab6107e8899845ad3d59bd9653f200f220920489ca2b5937696c31910160405180910390a38215610d8657600081806020019051810190610d789190612e25565b9050610d848782611c4b565b505b505050505050565b600080825111610e46576040517f08c379a000000000000000000000000000000000000000000000000000000000815260206004820152604360248201527f5369676e617475726556616c696461746f7223697356616c69645369676e617460448201527f7572653a204c454e4754485f475245415445525f5448414e5f305f524551554960648201527f5245440000000000000000000000000000000000000000000000000000000000608482015260a4016103f6565b73ffffffffffffffffffffffffffffffffffffffff8516610ee9576040517f08c379a000000000000000000000000000000000000000000000000000000000815260206004820152603360248201527f5369676e617475726556616c696461746f7223697356616c69645369676e617460448201527f7572653a20494e56414c49445f5349474e45520000000000000000000000000060648201526084016103f6565b6000610ef483612221565b60f81c905060058110610f89576040517f08c379a000000000000000000000000000000000000000000000000000000000815260206004820152603a60248201527f5369676e617475726556616c696461746f7223697356616c69645369676e617460448201527f7572653a20554e535550504f525445445f5349474e415455524500000000000060648201526084016103f6565b60008160ff166005811115610fa057610fa0612e5a565b9050600080808080856005811115610fba57610fba612e5a565b03611047576040517f08c379a000000000000000000000000000000000000000000000000000000000815260206004820152603660248201527f5369676e617475726556616c696461746f7223697356616c69645369676e617460448201527f7572653a20494c4c4547414c5f5349474e41545552450000000000000000000060648201526084016103f6565b600185600581111561105b5761105b612e5a565b036111cd5787516061146110f1576040517f08c379a000000000000000000000000000000000000000000000000000000000815260206004820152603760248201527f5369676e617475726556616c696461746f7223697356616c69645369676e617460448201527f7572653a204c454e4754485f39375f524551554952454400000000000000000060648201526084016103f6565b6110fc886000612324565b9250611109886020612324565b91508760408151811061111e5761111e612c07565b0160209081015160408051600081529283018082528d905260f89190911c9082018190526060820185905260808201849052945060019060a0015b6020604051602081039080840390855afa15801561117b573d6000803e3d6000fd5b50506040517fffffffffffffffffffffffffffffffffffffffffffffffffffffffffffffffe0015173ffffffffffffffffffffffffffffffffffffffff8d811691161497506115cf9650505050505050565b60028560058111156111e1576111e1612e5a565b03611347578751606114611277576040517f08c379a000000000000000000000000000000000000000000000000000000000815260206004820152603760248201527f5369676e617475726556616c696461746f7223697356616c69645369676e617460448201527f7572653a204c454e4754485f39375f524551554952454400000000000000000060648201526084016103f6565b611282886000612324565b925061128f886020612324565b9150876040815181106112a4576112a4612c07565b016020908101516040517f19457468657265756d205369676e6564204d6573736167653a0a33320000000092810192909252603c82018c905260f81c9450600190605c01604080517fffffffffffffffffffffffffffffffffffffffffffffffffffffffffffffffe08184030181528282528051602091820120600084529083018083525260ff871690820152606081018590526080810184905260a001611159565b600385600581111561135b5761135b612e5a565b03611447576040517f20c13b0b00000000000000000000000000000000000000000000000000000000815273ffffffffffffffffffffffffffffffffffffffff8c16906320c13b0b906113b4908c908c90600401612ed3565b602060405180830381865afa1580156113d1573d6000803e3d6000fd5b505050506040513d601f19601f820116820180604052508101906113f59190612f01565b7fffffffff00000000000000000000000000000000000000000000000000000000167f20c13b0b000000000000000000000000000000000000000000000000000000001496506115cf95505050505050565b600485600581111561145b5761145b612e5a565b03611547576040517f1626ba7e00000000000000000000000000000000000000000000000000000000815273ffffffffffffffffffffffffffffffffffffffff8c1690631626ba7e906114b4908d908c90600401612f1e565b602060405180830381865afa1580156114d1573d6000803e3d6000fd5b505050506040513d601f19601f820116820180604052508101906114f59190612f01565b7fffffffff00000000000000000000000000000000000000000000000000000000167f1626ba7e000000000000000000000000000000000000000000000000000000001496506115cf95505050505050565b6040517f08c379a000000000000000000000000000000000000000000000000000000000815260206004820152603a60248201527f5369676e617475726556616c696461746f7223697356616c69645369676e617460448201527f7572653a20554e535550504f525445445f5349474e415455524500000000000060648201526084016103f6565b949350505050565b8051825114611668576040517f08c379a000000000000000000000000000000000000000000000000000000000815260206004820152603560248201527f45524331313535235f7361666542617463685472616e7366657246726f6d3a2060448201527f494e56414c49445f4152524159535f4c454e475448000000000000000000000060648201526084016103f6565b815160005b818110156117b65782818151811061168757611687612c07565b60200260200101516000808873ffffffffffffffffffffffffffffffffffffffff1673ffffffffffffffffffffffffffffffffffffffff16815260200190815260200160002060008684815181106116e1576116e1612c07565b6020026020010151815260200190815260200160002060008282546117069190612f37565b9250508190555082818151811061171f5761171f612c07565b60200260200101516000808773ffffffffffffffffffffffffffffffffffffffff1673ffffffffffffffffffffffffffffffffffffffff168152602001908152602001600020600086848151811061177957611779612c07565b60200260200101518152602001908152602001600020600082825461179e9190612f4a565b909155508190506117ae81612c65565b91505061166d565b508373ffffffffffffffffffffffffffffffffffffffff168573ffffffffffffffffffffffffffffffffffffffff163373ffffffffffffffffffffffffffffffffffffffff167f4a39dc06d4c0dbc64b70af90fd698a233a518aa5d07e595d983b8c0526c8f7fb868660405161182d929190612f5d565b60405180910390a45050505050565b61185b8573ffffffffffffffffffffffffffffffffffffffff166123d7565b15610d865760008573ffffffffffffffffffffffffffffffffffffffff1663bc197c8184338a8989886040518763ffffffff1660e01b81526004016118a4959493929190612f82565b60206040518083038160008887f11580156118c3573d6000803e3d6000fd5b50505050506040513d601f19601f820116820180604052508101906118e89190612f01565b90507fffffffff0000000000000000000000000000000000000000000000000000000081167fbc197c810000000000000000000000000000000000000000000000000000000014610d84576040517f08c379a000000000000000000000000000000000000000000000000000000000815260206004820152603f60248201527f45524331313535235f63616c6c6f6e455243313135354261746368526563656960448201527f7665643a20494e56414c49445f4f4e5f524543454956455f4d4553534147450060648201526084016103f6565b606080838060200190518101906119d29190612fed565b73ffffffffffffffffffffffffffffffffffffffff871660009081526002602052604081205491945091925090611a0a836041612324565b9050818110801590611a255750611a22826064612f4a565b81105b611ab1576040517f08c379a000000000000000000000000000000000000000000000000000000000815260206004820152602f60248201527f455243313135354d657461235f7369676e617475726556616c69646174696f6e60448201527f3a20494e56414c49445f4e4f4e4345000000000000000000000000000000000060648201526084016103f6565b6000611aed86838780519060200120604051602001611ad293929190613024565b60405160208183030381529060405280519060200120612411565b90506000868387604051602001611b069392919061304b565b604080517fffffffffffffffffffffffffffffffffffffffffffffffffffffffffffffffe08184030181529190529050611b41836001612f4a565b73ffffffffffffffffffffffffffffffffffffffff8a166000818152600260205260409020919091557fb861b7bdbe611a846ab271b8d2810391bc8b5a968f390c322438ecab66bccf59611b96856001612f4a565b60405190815260200160405180910390a2611bb389838388610d8e565b611c3f576040517f08c379a000000000000000000000000000000000000000000000000000000000815260206004820152603360248201527f455243313135354d657461235f7369676e617475726556616c69646174696f6e60448201527f3a20494e56414c49445f5349474e41545552450000000000000000000000000060648201526084016103f6565b50505050509392505050565b6000611c5a8260600151612221565b60f81c905060028110611cef576040517f08c379a000000000000000000000000000000000000000000000000000000000815260206004820152602e60248201527f455243313135354d657461235f7472616e736665724761734665653a20554e5360448201527f5550504f525445445f544f4b454e00000000000000000000000000000000000060648201526084016103f6565b60008160ff166002811115611d0657611d06612e5a565b835160408501519192506000918291829173ffffffffffffffffffffffffffffffffffffffff1615611d3c578660400151611d3e565b335b92506000856002811115611d5457611d54612e5a565b03611e6b578660600151806020019051810190611d719190613082565b90945091503073ffffffffffffffffffffffffffffffffffffffff851603611dc157611d9f88848484611fbe565b611dbc8884845a85604051806020016040528060008152506120a2565b611fb4565b6040517ff242432a00000000000000000000000000000000000000000000000000000000815273ffffffffffffffffffffffffffffffffffffffff89811660048301528481166024830152604482018490526064820183905260a06084830152600060a483015285169063f242432a9060c401600060405180830381600087803b158015611e4e57600080fd5b505af1158015611e62573d6000803e3d6000fd5b50505050611fb4565b8660600151806020019051810190611e8391906130b0565b6040517f23b872dd00000000000000000000000000000000000000000000000000000000815273ffffffffffffffffffffffffffffffffffffffff8a81166004830152858116602483015260448201849052919550908516906323b872dd906064016020604051808303816000875af1158015611f04573d6000803e3d6000fd5b505050506040513d601f19601f82011682018060405250810190611f2891906130cd565b611fb4576040517f08c379a000000000000000000000000000000000000000000000000000000000815260206004820152603260248201527f455243313135354d657461235f7472616e736665724761734665653a2045524360448201527f32305f5452414e534645525f4641494c4544000000000000000000000000000060648201526084016103f6565b5050505050505050565b73ffffffffffffffffffffffffffffffffffffffff841660009081526020818152604080832085845290915281208054839290611ffc908490612f37565b909155505073ffffffffffffffffffffffffffffffffffffffff83166000908152602081815260408083208584529091528120805483929061203f908490612f4a565b9091555050604080518381526020810183905273ffffffffffffffffffffffffffffffffffffffff808616929087169133917fc3d58168c5ae7397731d063d5bbf3d657854427343f4c083240f7aacaa2d0f62910160405180910390a450505050565b6120c18573ffffffffffffffffffffffffffffffffffffffff166123d7565b15610d865760008573ffffffffffffffffffffffffffffffffffffffff1663f23a6e6184338a8989886040518763ffffffff1660e01b815260040161210a9594939291906130ea565b60206040518083038160008887f1158015612129573d6000803e3d6000fd5b50505050506040513d601f19601f8201168201806040525081019061214e9190612f01565b90507fffffffff0000000000000000000000000000000000000000000000000000000081167ff23a6e610000000000000000000000000000000000000000000000000000000014610d84576040517f08c379a000000000000000000000000000000000000000000000000000000000815260206004820152603a60248201527f45524331313535235f63616c6c6f6e4552433131353552656365697665643a2060448201527f494e56414c49445f4f4e5f524543454956455f4d45535341474500000000000060648201526084016103f6565b6000808251116122b3576040517f08c379a000000000000000000000000000000000000000000000000000000000815260206004820152603760248201527f4c6962427974657323706f704c617374427974653a20475245415445525f544860448201527f414e5f5a45524f5f4c454e4754485f524551554952454400000000000000000060648201526084016103f6565b81600183516122c29190612f37565b815181106122d2576122d2612c07565b016020015182517fffffffffffffffffffffffffffffffffffffffffffffffffffffffffffffffff01909252507fff000000000000000000000000000000000000000000000000000000000000001690565b6000612331826020612f4a565b835110156123c1576040517f08c379a000000000000000000000000000000000000000000000000000000000815260206004820152603c60248201527f4c696242797465732372656164427974657333323a20475245415445525f4f5260448201527f5f455155414c5f544f5f33325f4c454e4754485f52455155495245440000000060648201526084016103f6565b6123cc602083612f4a565b929092015192915050565b6000813f801580159061240a57507fc5d2460186f7233c927e7db2dcc703c0e500b653ca82273b7bfad8045d85a4708114155b9392505050565b60006040518060400160405280600281526020017f19010000000000000000000000000000000000000000000000000000000000008152507f035aff83d86937d35b32e04f0ddc6ff469290eef2f1b692d8a815c89404d474960001b3060405160200161249e92919091825273ffffffffffffffffffffffffffffffffffffffff16602082015260400190565b60405160208183030381529060405280519060200120836040516020016124c793929190613024565b604051602081830303815290604052805190602001209050919050565b73ffffffffffffffffffffffffffffffffffffffff8116811461250657600080fd5b50565b6000806040838503121561251c57600080fd5b8235612527816124e4565b946020939093013593505050565b7fffffffff000000000000000000000000000000000000000000000000000000008116811461250657600080fd5b60006020828403121561257557600080fd5b813561240a81612535565b60006020828403121561259257600080fd5b813561240a816124e4565b7f4e487b7100000000000000000000000000000000000000000000000000000000600052604160045260246000fd5b604051601f82017fffffffffffffffffffffffffffffffffffffffffffffffffffffffffffffffe016810167ffffffffffffffff811182821017156126135761261361259d565b604052919050565b600067ffffffffffffffff8211156126355761263561259d565b5060051b60200190565b600082601f83011261265057600080fd5b813560206126656126608361261b565b6125cc565b82815260059290921b8401810191818101908684111561268457600080fd5b8286015b8481101561269f5780358352918301918301612688565b509695505050505050565b600067ffffffffffffffff8211156126c4576126c461259d565b50601f017fffffffffffffffffffffffffffffffffffffffffffffffffffffffffffffffe01660200190565b600082601f83011261270157600080fd5b813561270f612660826126aa565b81815284602083860101111561272457600080fd5b816020850160208301376000918101602001919091529392505050565b600080600080600060a0868803121561275957600080fd5b8535612764816124e4565b94506020860135612774816124e4565b9350604086013567ffffffffffffffff8082111561279157600080fd5b61279d89838a0161263f565b945060608801359150808211156127b357600080fd5b6127bf89838a0161263f565b935060808801359150808211156127d557600080fd5b506127e2888289016126f0565b9150509295509295909350565b6000806040838503121561280257600080fd5b823567ffffffffffffffff8082111561281a57600080fd5b818501915085601f83011261282e57600080fd5b8135602061283e6126608361261b565b82815260059290921b8401810191818101908984111561285d57600080fd5b948201945b83861015612884578535612875816124e4565b82529482019490820190612862565b9650508601359250508082111561289a57600080fd5b506128a78582860161263f565b9150509250929050565b600081518084526020808501945080840160005b838110156128e1578151875295820195908201906001016128c5565b509495945050505050565b60208152600061240a60208301846128b1565b801515811461250657600080fd5b6000806040838503121561292057600080fd5b823561292b816124e4565b9150602083013561293b816128ff565b809150509250929050565b60008060008060008060c0878903121561295f57600080fd5b863561296a816124e4565b9550602087013561297a816124e4565b9450604087013567ffffffffffffffff8082111561299757600080fd5b6129a38a838b0161263f565b955060608901359150808211156129b957600080fd5b6129c58a838b0161263f565b9450608089013591506129d7826128ff565b90925060a088013590808211156129ed57600080fd5b506129fa89828a016126f0565b9150509295509295509295565b60008060008060008060c08789031215612a2057600080fd5b8635612a2b816124e4565b95506020870135612a3b816124e4565b945060408701359350606087013592506080870135612a59816128ff565b915060a087013567ffffffffffffffff811115612a7557600080fd5b6129fa89828a016126f0565b60008060408385031215612a9457600080fd5b8235612a9f816124e4565b9150602083013561293b816124e4565b600080600080600060a08688031215612ac757600080fd5b8535612ad2816124e4565b94506020860135612ae2816124e4565b93506040860135925060608601359150608086013567ffffffffffffffff811115612b0c57600080fd5b6127e2888289016126f0565b600080600080600060a08688031215612b3057600080fd5b8535612b3b816124e4565b94506020860135612b4b816124e4565b93506040860135612b5b816128ff565b92506060860135612b6b816128ff565b9150608086013567ffffffffffffffff811115612b0c57600080fd5b60008060008060808587031215612b9d57600080fd5b8435612ba8816124e4565b935060208501359250604085013567ffffffffffffffff80821115612bcc57600080fd5b612bd8888389016126f0565b93506060870135915080821115612bee57600080fd5b50612bfb878288016126f0565b91505092959194509250565b7f4e487b7100000000000000000000000000000000000000000000000000000000600052603260045260246000fd5b7f4e487b7100000000000000000000000000000000000000000000000000000000600052601160045260246000fd5b60007fffffffffffffffffffffffffffffffffffffffffffffffffffffffffffffffff8203612c9657612c96612c36565b5060010190565b815160009082906020808601845b83811015612cc757815185529382019390820190600101612cab565b50929695505050505050565b60005b83811015612cee578181015183820152602001612cd6565b50506000910152565b600082601f830112612d0857600080fd5b8151612d16612660826126aa565b818152846020838601011115612d2b57600080fd5b6115cf826020830160208701612cd3565b600060808284031215612d4e57600080fd5b6040516080810167ffffffffffffffff8282108183111715612d7257612d7261259d565b81604052829350845183526020850151602084015260408501519150612d97826124e4565b8160408401526060850151915080821115612db157600080fd5b50612dbe85828601612cf7565b6060830152505092915050565b60008060408385031215612dde57600080fd5b825167ffffffffffffffff80821115612df657600080fd5b612e0286838701612d3c565b93506020850151915080821115612e1857600080fd5b506128a785828601612cf7565b600060208284031215612e3757600080fd5b815167ffffffffffffffff811115612e4e57600080fd5b6115cf84828501612d3c565b7f4e487b7100000000000000000000000000000000000000000000000000000000600052602160045260246000fd5b60008151808452612ea1816020860160208601612cd3565b601f017fffffffffffffffffffffffffffffffffffffffffffffffffffffffffffffffe0169290920160200192915050565b604081526000612ee66040830185612e89565b8281036020840152612ef88185612e89565b95945050505050565b600060208284031215612f1357600080fd5b815161240a81612535565b8281526040602082015260006115cf6040830184612e89565b8181038181111561027757610277612c36565b8082018082111561027757610277612c36565b604081526000612f7060408301856128b1565b8281036020840152612ef881856128b1565b600073ffffffffffffffffffffffffffffffffffffffff808816835280871660208401525060a06040830152612fbb60a08301866128b1565b8281036060840152612fcd81866128b1565b90508281036080840152612fe18185612e89565b98975050505050505050565b6000806040838503121561300057600080fd5b825167ffffffffffffffff8082111561301857600080fd5b612e0286838701612cf7565b60008451613036818460208901612cd3565b91909101928352506020820152604001919050565b6000845161305d818460208901612cd3565b82018481528351613075816020808501908801612cd3565b0160200195945050505050565b6000806040838503121561309557600080fd5b82516130a0816124e4565b6020939093015192949293505050565b6000602082840312156130c257600080fd5b815161240a816124e4565b6000602082840312156130df57600080fd5b815161240a816128ff565b600073ffffffffffffffffffffffffffffffffffffffff808816835280871660208401525084604083015283606083015260a0608083015261312f60a0830184612e89565b97965050505050505056fea264697066735822122086a3f35157d4900c572b2aa788c7a477ce84e47257fd2a5ad0fa61917c44f41264736f6c63430008120033",
  "linkReferences": {},
  "deployedLinkReferences": {}
}