{
  "_format": "hh-sol-artifact-1",
  "contractName": "ERC1155MintBurnPackedBalanceMock",
  "sourceName": "contracts/mocks/ERC1155MintBurnPackedBalanceMock.sol",
  "abi": [
    {
      "anonymous": false,
      "inputs": [
        {
          "indexed": true,
          "internalType": "address",
          "name": "_owner",
          "type": "address"
        },
        {
          "indexed": true,
          "internalType": "address",
          "name": "_operator",
          "type": "address"
        },
        {
          "indexed": false,
          "internalType": "bool",
          "name": "_approved",
          "type": "bool"
        }
      ],
      "name": "ApprovalForAll",
      "type": "event"
    },
    {
      "anonymous": false,
      "inputs": [
        {
          "indexed": true,
          "internalType": "address",
          "name": "_operator",
          "type": "address"
        },
        {
          "indexed": true,
          "internalType": "address",
          "name": "_from",
          "type": "address"
        },
        {
          "indexed": true,
          "internalType": "address",
          "name": "_to",
          "type": "address"
        },
        {
          "indexed": false,
          "internalType": "uint256[]",
          "name": "_ids",
          "type": "uint256[]"
        },
        {
          "indexed": false,
          "internalType": "uint256[]",
          "name": "_amounts",
          "type": "uint256[]"
        }
      ],
      "name": "TransferBatch",
      "type": "event"
    },
    {
      "anonymous": false,
      "inputs": [
        {
          "indexed": true,
          "internalType": "address",
          "name": "_operator",
          "type": "address"
        },
        {
          "indexed": true,
          "internalType": "address",
          "name": "_from",
          "type": "address"
        },
        {
          "indexed": true,
          "internalType": "address",
          "name": "_to",
          "type": "address"
        },
        {
          "indexed": false,
          "internalType": "uint256",
          "name": "_id",
          "type": "uint256"
        },
        {
          "indexed": false,
          "internalType": "uint256",
          "name": "_amount",
          "type": "uint256"
        }
      ],
      "name": "TransferSingle",
      "type": "event"
    },
    {
      "anonymous": false,
      "inputs": [
        {
          "indexed": false,
          "internalType": "string",
          "name": "_uri",
          "type": "string"
        },
        {
          "indexed": true,
          "internalType": "uint256",
          "name": "_id",
          "type": "uint256"
        }
      ],
      "name": "URI",
      "type": "event"
    },
    {
      "stateMutability": "nonpayable",
      "type": "fallback"
    },
    {
      "inputs": [
        {
          "internalType": "address",
          "name": "_owner",
          "type": "address"
        },
        {
          "internalType": "uint256",
          "name": "_id",
          "type": "uint256"
        }
      ],
      "name": "balanceOf",
      "outputs": [
        {
          "internalType": "uint256",
          "name": "",
          "type": "uint256"
        }
      ],
      "stateMutability": "view",
      "type": "function"
    },
    {
      "inputs": [
        {
          "internalType": "address[]",
          "name": "_owners",
          "type": "address[]"
        },
        {
          "internalType": "uint256[]",
          "name": "_ids",
          "type": "uint256[]"
        }
      ],
      "name": "balanceOfBatch",
      "outputs": [
        {
          "internalType": "uint256[]",
          "name": "",
          "type": "uint256[]"
        }
      ],
      "stateMutability": "view",
      "type": "function"
    },
    {
      "inputs": [
        {
          "internalType": "address",
          "name": "_from",
          "type": "address"
        },
        {
          "internalType": "uint256[]",
          "name": "_ids",
          "type": "uint256[]"
        },
        {
          "internalType": "uint256[]",
          "name": "_values",
          "type": "uint256[]"
        }
      ],
      "name": "batchBurnMock",
      "outputs": [],
      "stateMutability": "nonpayable",
      "type": "function"
    },
    {
      "inputs": [
        {
          "internalType": "address",
          "name": "_to",
          "type": "address"
        },
        {
          "internalType": "uint256[]",
          "name": "_ids",
          "type": "uint256[]"
        },
        {
          "internalType": "uint256[]",
          "name": "_values",
          "type": "uint256[]"
        },
        {
          "internalType": "bytes",
          "name": "_data",
          "type": "bytes"
        }
      ],
      "name": "batchMintMock",
      "outputs": [],
      "stateMutability": "nonpayable",
      "type": "function"
    },
    {
      "inputs": [
        {
          "internalType": "address",
          "name": "_from",
          "type": "address"
        },
        {
          "internalType": "uint256",
          "name": "_id",
          "type": "uint256"
        },
        {
          "internalType": "uint256",
          "name": "_value",
          "type": "uint256"
        }
      ],
      "name": "burnMock",
      "outputs": [],
      "stateMutability": "nonpayable",
      "type": "function"
    },
    {
      "inputs": [
        {
          "internalType": "uint256",
          "name": "_id",
          "type": "uint256"
        }
      ],
      "name": "getIDBinIndex",
      "outputs": [
        {
          "internalType": "uint256",
          "name": "bin",
          "type": "uint256"
        },
        {
          "internalType": "uint256",
          "name": "index",
          "type": "uint256"
        }
      ],
      "stateMutability": "pure",
      "type": "function"
    },
    {
      "inputs": [
        {
          "internalType": "uint256",
          "name": "_binValues",
          "type": "uint256"
        },
        {
          "internalType": "uint256",
          "name": "_index",
          "type": "uint256"
        }
      ],
      "name": "getValueInBin",
      "outputs": [
        {
          "internalType": "uint256",
          "name": "",
          "type": "uint256"
        }
      ],
      "stateMutability": "pure",
      "type": "function"
    },
    {
      "inputs": [
        {
          "internalType": "address",
          "name": "_owner",
          "type": "address"
        },
        {
          "internalType": "address",
          "name": "_operator",
          "type": "address"
        }
      ],
      "name": "isApprovedForAll",
      "outputs": [
        {
          "internalType": "bool",
          "name": "isOperator",
          "type": "bool"
        }
      ],
      "stateMutability": "view",
      "type": "function"
    },
    {
      "inputs": [
        {
          "internalType": "address",
          "name": "_to",
          "type": "address"
        },
        {
          "internalType": "uint256",
          "name": "_id",
          "type": "uint256"
        },
        {
          "internalType": "uint256",
          "name": "_value",
          "type": "uint256"
        },
        {
          "internalType": "bytes",
          "name": "_data",
          "type": "bytes"
        }
      ],
      "name": "mintMock",
      "outputs": [],
      "stateMutability": "nonpayable",
      "type": "function"
    },
    {
      "inputs": [
        {
          "internalType": "address",
          "name": "_from",
          "type": "address"
        },
        {
          "internalType": "address",
          "name": "_to",
          "type": "address"
        },
        {
          "internalType": "uint256[]",
          "name": "_ids",
          "type": "uint256[]"
        },
        {
          "internalType": "uint256[]",
          "name": "_amounts",
          "type": "uint256[]"
        },
        {
          "internalType": "bytes",
          "name": "_data",
          "type": "bytes"
        }
      ],
      "name": "safeBatchTransferFrom",
      "outputs": [],
      "stateMutability": "nonpayable",
      "type": "function"
    },
    {
      "inputs": [
        {
          "internalType": "address",
          "name": "_from",
          "type": "address"
        },
        {
          "internalType": "address",
          "name": "_to",
          "type": "address"
        },
        {
          "internalType": "uint256",
          "name": "_id",
          "type": "uint256"
        },
        {
          "internalType": "uint256",
          "name": "_amount",
          "type": "uint256"
        },
        {
          "internalType": "bytes",
          "name": "_data",
          "type": "bytes"
        }
      ],
      "name": "safeTransferFrom",
      "outputs": [],
      "stateMutability": "nonpayable",
      "type": "function"
    },
    {
      "inputs": [
        {
          "internalType": "address",
          "name": "_operator",
          "type": "address"
        },
        {
          "internalType": "bool",
          "name": "_approved",
          "type": "bool"
        }
      ],
      "name": "setApprovalForAll",
      "outputs": [],
      "stateMutability": "nonpayable",
      "type": "function"
    },
    {
      "inputs": [
        {
          "internalType": "bytes4",
          "name": "_interfaceID",
          "type": "bytes4"
        }
      ],
      "name": "supportsInterface",
      "outputs": [
        {
          "internalType": "bool",
          "name": "",
          "type": "bool"
        }
      ],
      "stateMutability": "pure",
      "type": "function"
    },
    {
      "inputs": [
        {
          "internalType": "uint256",
          "name": "_id",
          "type": "uint256"
        }
      ],
      "name": "uri",
      "outputs": [
        {
          "internalType": "string",
          "name": "",
          "type": "string"
        }
      ],
      "stateMutability": "view",
      "type": "function"
    }
  ],
  "bytecode": "0x608060405234801561001057600080fd5b50612379806100206000396000f3fe608060405234801561001057600080fd5b50600436106100e95760003560e01c8063a3f091f51161008c578063db90e83c11610066578063db90e83c14610207578063e985e9c514610228578063eaec5f811461023b578063f242432a1461024e576100e9565b8063a3f091f5146101ce578063bd7a6c41146101e1578063d7a0ad90146101f4576100e9565b80632eb2c2d6116100c85780632eb2c2d614610173578063437ecbe9146101885780634e1273f41461019b578063a22cb465146101bb576100e9565b8062fdd58e1461010a57806301ffc9a7146101335780630e89341c14610153575b60405162461bcd60e51b815260040161010190611f3c565b60405180910390fd5b61011d610118366004611c94565b610261565b60405161012a9190611f99565b60405180910390f35b610146610141366004611e03565b6102a9565b60405161012a9190611ec0565b610166610161366004611e43565b6102bc565b60405161012a9190611ecb565b610186610181366004611a4b565b61040f565b005b610186610196366004611cbd565b6104cc565b6101ae6101a9366004611d42565b6104dc565b60405161012a9190611e7c565b6101866101c9366004611c5a565b6106f3565b6101866101dc366004611cef565b61077f565b6101866101ef366004611b54565b610791565b610186610202366004611bc5565b61079c565b61021a610215366004611e43565b6107a8565b60405161012a929190611fa2565b610146610236366004611a19565b6107b5565b61011d610249366004611e5b565b6107e3565b61018661025c366004611af1565b6107f6565b600080600061026f846107a8565b6001600160a01b03871660009081526020818152604080832085845290915290205491935091506102a090826107e3565b95945050505050565b60006102b4826108ac565b90505b919050565b606060026102c983610909565b60405160200180838054600181600116156101000203166002900480156103275780601f10610305576101008083540402835291820191610327565b820191906000526020600020905b815481529060010190602001808311610313575b5050825160208401908083835b6020831061037157805182527fffffffffffffffffffffffffffffffffffffffffffffffffffffffffffffffe09092019160209182019101610334565b5181516020939093036101000a7fffffffffffffffffffffffffffffffffffffffffffffffffffffffffffffffff01801990911692169190911790527f2e6a736f6e000000000000000000000000000000000000000000000000000000920191825250604080518083037fffffffffffffffffffffffffffffffffffffffffffffffffffffffffffffffe50181526005909201905295945050505050565b336001600160a01b038616148061042b575061042b85336107b5565b6104665760405162461bcd60e51b815260040180806020018281038252603c815260200180612161603c913960400191505060405180910390fd5b6001600160a01b0384166104ab5760405162461bcd60e51b815260040180806020018281038252603d81526020018061202c603d913960400191505060405180910390fd5b6104b785858585610a35565b6104c5858585855a86610d99565b5050505050565b6104d7838383610fc2565b505050565b815181516060919081146105215760405162461bcd60e51b8152600401808060200182810382526039815260200180611ff36039913960400191505060405180910390fd5b6000806105418560008151811061053457fe5b60200260200101516107a8565b9150915060008060008860008151811061055757fe5b60200260200101516001600160a01b03166001600160a01b031681526020019081526020016000206000848152602001908152602001600020549050600083905060608567ffffffffffffffff811180156105b157600080fd5b506040519080825280602002602001820160405280156105db578160200160208202803683370190505b5090506105e883856107e3565b816000815181106105f557fe5b602090810291909101015260015b868110156106e65761061a89828151811061053457fe5b90965094508286141580610669575089818151811061063557fe5b60200260200101516001600160a01b03168a600183038151811061065557fe5b60200260200101516001600160a01b031614155b156106bd576000808b838151811061067d57fe5b60200260200101516001600160a01b03166001600160a01b0316815260200190815260200160002060008781526020019081526020016000205493508592505b6106c784866107e3565b8282815181106106d357fe5b6020908102919091010152600101610603565b5098975050505050505050565b3360008181526001602090815260408083206001600160a01b0387168085529083529281902080547fffffffffffffffffffffffffffffffffffffffffffffffffffffffffffffff0016861515908117909155815190815290519293927f17307eab39ab6107e8899845ad3d59bd9653f200f220920489ca2b5937696c31929181900390910190a35050565b61078b8484848461101f565b50505050565b6104d7838383611086565b61078b848484846111ee565b6008810491600790911690565b6001600160a01b03918216600090815260016020908152604080832093909416825291909152205460ff1690565b6020810282901c63ffffffff1692915050565b336001600160a01b0386161480610812575061081285336107b5565b61084d5760405162461bcd60e51b815260040180806020018281038252603781526020018061209c6037913960400191505060405180910390fd5b6001600160a01b0384166108925760405162461bcd60e51b81526004018080602001828103825260388152602001806122576038913960400191505060405180910390fd5b61089e85858585611410565b6104c5858585855a8661148d565b60007fffffffff0000000000000000000000000000000000000000000000000000000082167f0e89341c000000000000000000000000000000000000000000000000000000001415610900575060016102b7565b6102b482611630565b60608161094a575060408051808201909152600181527f300000000000000000000000000000000000000000000000000000000000000060208201526102b7565b818060005b821561096357600101600a8304925061094f565b60608167ffffffffffffffff8111801561097c57600080fd5b506040519080825280601f01601f1916602001820160405280156109a7576020820181803683370190505b5090507fffffffffffffffffffffffffffffffffffffffffffffffffffffffffffffffff82015b8315610a2b57600a840660300160f81b828280600190039350815181106109f157fe5b60200101907effffffffffffffffffffffffffffffffffffffffffffffffffffffffffffff1916908160001a905350600a840493506109ce565b5095945050505050565b815181518114610a765760405162461bcd60e51b81526004018080602001828103825260428152602001806120d36042913960600191505060405180910390fd5b836001600160a01b0316856001600160a01b031614158015610a985750600081115b15610c3657600080610ab08560008151811061053457fe5b6001600160a01b038916600090815260208181526040808320858452909152812054875193955091935091610afb9190849088908590610aec57fe5b6020026020010151600161168d565b6001600160a01b03881660009081526020818152604080832087845290915281205487519293509091610b449190859089908590610b3557fe5b6020026020010151600061168d565b90508360015b86811015610bf157610b6189828151811061053457fe5b9096509450818614610bc3576001600160a01b038b811660009081526020818152604080832086845280835281842098909855928d16825281815282822094825284815282822095909555878152948452808520549290935291909220549084905b610bd484868a8481518110610aec57fe5b9350610be783868a8481518110610b3557fe5b9250600101610b4a565b50506001600160a01b03808a16600090815260208181526040808320888452825280832095909555918a16815280825283812095815294905292209190915550610cb9565b60005b81811015610cb757828181518110610c4d57fe5b6020026020010151610c7287868481518110610c6557fe5b6020026020010151610261565b1015610caf5760405162461bcd60e51b81526004018080602001828103825260368152602001806121da6036913960400191505060405180910390fd5b600101610c39565b505b836001600160a01b0316856001600160a01b0316336001600160a01b03167f4a39dc06d4c0dbc64b70af90fd698a233a518aa5d07e595d983b8c0526c8f7fb8686604051808060200180602001838103835285818151815260200191508051906020019060200280838360005b83811015610d3e578181015183820152602001610d26565b50505050905001838103825284818151815260200191508051906020019060200280838360005b83811015610d7d578181015183820152602001610d65565b5050505090500194505050505060405180910390a45050505050565b610dab856001600160a01b031661181e565b15610fba576000856001600160a01b031663bc197c8184338a8989886040518763ffffffff1660e01b815260040180866001600160a01b03168152602001856001600160a01b03168152602001806020018060200180602001848103845287818151815260200191508051906020019060200280838360005b83811015610e3c578181015183820152602001610e24565b50505050905001848103835286818151815260200191508051906020019060200280838360005b83811015610e7b578181015183820152602001610e63565b50505050905001848103825285818151815260200191508051906020019080838360005b83811015610eb7578181015183820152602001610e9f565b50505050905090810190601f168015610ee45780820380516001836020036101000a031916815260200191505b5098505050505050505050602060405180830381600088803b158015610f0957600080fd5b5087f1158015610f1d573d6000803e3d6000fd5b50505050506040513d6020811015610f3457600080fd5b505190507fffffffff0000000000000000000000000000000000000000000000000000000081167fbc197c810000000000000000000000000000000000000000000000000000000014610fb85760405162461bcd60e51b815260040180806020018281038252604c815260200180612115604c913960600191505060405180910390fd5b505b505050505050565b610fcf8383836001611858565b604080518381526020810183905281516000926001600160a01b0387169233927fc3d58168c5ae7397731d063d5bbf3d657854427343f4c083240f7aacaa2d0f62929181900390910190a4505050565b61102c8484846000611858565b604080518481526020810184905281516001600160a01b0387169260009233927fc3d58168c5ae7397731d063d5bbf3d657854427343f4c083240f7aacaa2d0f62929181900390910190a461078b60008585855a8661148d565b8151815181146110c75760405162461bcd60e51b815260040180806020018281038252603d81526020018061219d603d913960400191505060405180910390fd5b60005b8181101561110d57611105858583815181106110e257fe5b60200260200101518584815181106110f657fe5b60200260200101516001611858565b6001016110ca565b5060006001600160a01b0316846001600160a01b0316336001600160a01b03167f4a39dc06d4c0dbc64b70af90fd698a233a518aa5d07e595d983b8c0526c8f7fb8686604051808060200180602001838103835285818151815260200191508051906020019060200280838360005b8381101561119457818101518382015260200161117c565b50505050905001838103825284818151815260200191508051906020019060200280838360005b838110156111d35781810151838201526020016111bb565b5050505090500194505050505060405180910390a450505050565b815183511461122e5760405162461bcd60e51b815260040180806020018281038252603e8152602001806122d4603e913960400191505060405180910390fd5b825115611327576000806112488560008151811061053457fe5b6001600160a01b0388166000908152602081815260408083208584529091528120548751939550919350916112849190849088908590610b3557fe5b86519091508360015b828110156112fb576112a489828151811061053457fe5b90965094508186146112e0576001600160a01b038a16600090815260208181526040808320948352939052828120949094558584529220549184905b6112f184868a8481518110610b3557fe5b935060010161128d565b5050506001600160a01b0387166000908152602081815260408083209583529490529290922091909155505b836001600160a01b031660006001600160a01b0316336001600160a01b03167f4a39dc06d4c0dbc64b70af90fd698a233a518aa5d07e595d983b8c0526c8f7fb8686604051808060200180602001838103835285818151815260200191508051906020019060200280838360005b838110156113ad578181015183820152602001611395565b50505050905001838103825284818151815260200191508051906020019060200280838360005b838110156113ec5781810151838201526020016113d4565b5050505090500194505050505060405180910390a461078b60008585855a86610d99565b61141d8483836001611858565b61142a8383836000611858565b826001600160a01b0316846001600160a01b0316336001600160a01b03167fc3d58168c5ae7397731d063d5bbf3d657854427343f4c083240f7aacaa2d0f628585604051808381526020018281526020019250505060405180910390a450505050565b61149f856001600160a01b031661181e565b15610fba576000856001600160a01b031663f23a6e6184338a8989886040518763ffffffff1660e01b815260040180866001600160a01b03168152602001856001600160a01b0316815260200184815260200183815260200180602001828103825283818151815260200191508051906020019080838360005b83811015611531578181015183820152602001611519565b50505050905090810190601f16801561155e5780820380516001836020036101000a031916815260200191505b509650505050505050602060405180830381600088803b15801561158157600080fd5b5087f1158015611595573d6000803e3d6000fd5b50505050506040513d60208110156115ac57600080fd5b505190507fffffffff0000000000000000000000000000000000000000000000000000000081167ff23a6e610000000000000000000000000000000000000000000000000000000014610fb85760405162461bcd60e51b81526004018080602001828103825260478152602001806122106047913960600191505060405180910390fd5b60007fffffffff0000000000000000000000000000000000000000000000000000000082167fd9b67a26000000000000000000000000000000000000000000000000000000001415611684575060016102b7565b6102b4826118c5565b60006020840263ffffffff828460018111156116a557fe5b141561173f5784821b87019250868310156116f15760405162461bcd60e51b81526004018080602001828103825260328152602001806123126032913960400191505060405180910390fd5b64010000000087831c821686011061173a5760405162461bcd60e51b81526004018080602001828103825260328152602001806123126032913960400191505060405180910390fd5b611814565b600184600181111561174d57fe5b14156117dd5784821b87039250868311156117995760405162461bcd60e51b81526004018080602001828103825260338152602001806120696033913960400191505060405180910390fd5b84818389901c16101561173a5760405162461bcd60e51b81526004018080602001828103825260338152602001806120696033913960400191505060405180910390fd5b60405162461bcd60e51b815260040180806020018281038252604581526020018061228f6045913960600191505060405180910390fd5b5050949350505050565b6000813f801580159061185157507fc5d2460186f7233c927e7db2dcc703c0e500b653ca82273b7bfad8045d85a4708114155b9392505050565b600080611864856107a8565b6001600160a01b03881660009081526020818152604080832085845290915290205491935091506118979082868661168d565b6001600160a01b03909616600090815260208181526040808320948352939052919091209490945550505050565b7fffffffff0000000000000000000000000000000000000000000000000000000081167f01ffc9a70000000000000000000000000000000000000000000000000000000014919050565b80356001600160a01b03811681146102b757600080fd5b600082601f830112611936578081fd5b813561194961194482611fd4565b611fb0565b81815291506020808301908481018184028601820187101561196a57600080fd5b60005b848110156119895781358452928201929082019060010161196d565b505050505092915050565b600082601f8301126119a4578081fd5b813567ffffffffffffffff8111156119b857fe5b6119e960207fffffffffffffffffffffffffffffffffffffffffffffffffffffffffffffffe0601f84011601611fb0565b9150808252836020828501011115611a0057600080fd5b8060208401602084013760009082016020015292915050565b60008060408385031215611a2b578182fd5b611a348361190f565b9150611a426020840161190f565b90509250929050565b600080600080600060a08688031215611a62578081fd5b611a6b8661190f565b9450611a796020870161190f565b9350604086013567ffffffffffffffff80821115611a95578283fd5b611aa189838a01611926565b94506060880135915080821115611ab6578283fd5b611ac289838a01611926565b93506080880135915080821115611ad7578283fd5b50611ae488828901611994565b9150509295509295909350565b600080600080600060a08688031215611b08578081fd5b611b118661190f565b9450611b1f6020870161190f565b93506040860135925060608601359150608086013567ffffffffffffffff811115611b48578182fd5b611ae488828901611994565b600080600060608486031215611b68578283fd5b611b718461190f565b9250602084013567ffffffffffffffff80821115611b8d578384fd5b611b9987838801611926565b93506040860135915080821115611bae578283fd5b50611bbb86828701611926565b9150509250925092565b60008060008060808587031215611bda578384fd5b611be38561190f565b9350602085013567ffffffffffffffff80821115611bff578485fd5b611c0b88838901611926565b94506040870135915080821115611c20578384fd5b611c2c88838901611926565b93506060870135915080821115611c41578283fd5b50611c4e87828801611994565b91505092959194509250565b60008060408385031215611c6c578182fd5b611c758361190f565b915060208301358015158114611c89578182fd5b809150509250929050565b60008060408385031215611ca6578182fd5b611caf8361190f565b946020939093013593505050565b600080600060608486031215611cd1578283fd5b611cda8461190f565b95602085013595506040909401359392505050565b60008060008060808587031215611d04578384fd5b611d0d8561190f565b93506020850135925060408501359150606085013567ffffffffffffffff811115611d36578182fd5b611c4e87828801611994565b60008060408385031215611d54578081fd5b823567ffffffffffffffff80821115611d6b578283fd5b818501915085601f830112611d7e578283fd5b8135611d8c61194482611fd4565b80828252602080830192508086018a828387028901011115611dac578788fd5b8796505b84871015611dd557611dc18161190f565b845260019690960195928101928101611db0565b509096508701359350505080821115611dec578283fd5b50611df985828601611926565b9150509250929050565b600060208284031215611e14578081fd5b81357fffffffff0000000000000000000000000000000000000000000000000000000081168114611851578182fd5b600060208284031215611e54578081fd5b5035919050565b60008060408385031215611e6d578182fd5b50508035926020909101359150565b6020808252825182820181905260009190848201906040850190845b81811015611eb457835183529284019291840191600101611e98565b50909695505050505050565b901515815260200190565b6000602080835283518082850152825b81811015611ef757858101830151858201604001528201611edb565b81811115611f085783604083870101525b50601f017fffffffffffffffffffffffffffffffffffffffffffffffffffffffffffffffe016929092016040019392505050565b60208082526034908201527f455243313135354d6574614d696e744275726e5061636b656442616c616e636560408201527f4d6f636b3a20494e56414c49445f4d4554484f44000000000000000000000000606082015260800190565b90815260200190565b918252602082015260400190565b60405181810167ffffffffffffffff81118282101715611fcc57fe5b604052919050565b600067ffffffffffffffff821115611fe857fe5b506020908102019056fe455243313135355061636b656442616c616e63652362616c616e63654f6642617463683a20494e56414c49445f41525241595f4c454e475448455243313135355061636b656442616c616e6365237361666542617463685472616e7366657246726f6d3a20494e56414c49445f524543495049454e54455243313135355061636b656442616c616e6365235f7669657755706461746542696e56616c75653a20554e444552464c4f57455243313135355061636b656442616c616e636523736166655472616e7366657246726f6d3a20494e56414c49445f4f50455241544f52455243313135355061636b656442616c616e6365235f7361666542617463685472616e7366657246726f6d3a20494e56414c49445f4152524159535f4c454e475448455243313135355061636b656442616c616e6365235f63616c6c6f6e45524331313535426174636852656365697665643a20494e56414c49445f4f4e5f524543454956455f4d455353414745455243313135355061636b656442616c616e6365237361666542617463685472616e7366657246726f6d3a20494e56414c49445f4f50455241544f52455243313135354d696e744275726e5061636b656442616c616e63652362617463684275726e3a20494e56414c49445f4152524159535f4c454e475448455243313135355061636b656442616c616e6365235f7361666542617463685472616e7366657246726f6d3a20554e444552464c4f57455243313135355061636b656442616c616e6365235f63616c6c6f6e4552433131353552656365697665643a20494e56414c49445f4f4e5f524543454956455f4d455353414745455243313135355061636b656442616c616e636523736166655472616e7366657246726f6d3a20494e56414c49445f524543495049454e54455243313135355061636b656442616c616e6365235f7669657755706461746542696e56616c75653a20494e56414c49445f42494e5f57524954455f4f5045524154494f4e455243313135354d696e744275726e5061636b656442616c616e6365235f62617463684d696e743a20494e56414c49445f4152524159535f4c454e475448455243313135355061636b656442616c616e6365235f7669657755706461746542696e56616c75653a204f564552464c4f57a26469706673582212200e9003f99ac87aecae16c799ed3755701758832114249eb6431dc52485958cd364736f6c63430007040033",
  "linkReferences": {},
  "deployedLinkReferences": {}
}