{
  "_format": "hh-sol-artifact-1",
  "contractName": "ERC1155MetaMintBurnPackedBalanceMock",
  "sourceName": "contracts/mocks/ERC1155MetaMintBurnPackedBalanceMock.sol",
  "abi": [
    {
      "inputs": [
        {
          "internalType": "uint256",
          "name": "_idsBitsSize",
          "type": "uint256"
        }
      ],
      "stateMutability": "nonpayable",
      "type": "constructor"
    },
    {
      "anonymous": false,
      "inputs": [
        {
          "indexed": true,
          "internalType": "address",
          "name": "_owner",
          "type": "address"
        },
        {
          "indexed": true,
          "internalType": "address",
          "name": "_operator",
          "type": "address"
        },
        {
          "indexed": false,
          "internalType": "bool",
          "name": "_approved",
          "type": "bool"
        }
      ],
      "name": "ApprovalForAll",
      "type": "event"
    },
    {
      "anonymous": false,
      "inputs": [
        {
          "indexed": true,
          "internalType": "address",
          "name": "signer",
          "type": "address"
        },
        {
          "indexed": false,
          "internalType": "uint256",
          "name": "newNonce",
          "type": "uint256"
        }
      ],
      "name": "NonceChange",
      "type": "event"
    },
    {
      "anonymous": false,
      "inputs": [
        {
          "indexed": true,
          "internalType": "address",
          "name": "_operator",
          "type": "address"
        },
        {
          "indexed": true,
          "internalType": "address",
          "name": "_from",
          "type": "address"
        },
        {
          "indexed": true,
          "internalType": "address",
          "name": "_to",
          "type": "address"
        },
        {
          "indexed": false,
          "internalType": "uint256[]",
          "name": "_ids",
          "type": "uint256[]"
        },
        {
          "indexed": false,
          "internalType": "uint256[]",
          "name": "_amounts",
          "type": "uint256[]"
        }
      ],
      "name": "TransferBatch",
      "type": "event"
    },
    {
      "anonymous": false,
      "inputs": [
        {
          "indexed": true,
          "internalType": "address",
          "name": "_operator",
          "type": "address"
        },
        {
          "indexed": true,
          "internalType": "address",
          "name": "_from",
          "type": "address"
        },
        {
          "indexed": true,
          "internalType": "address",
          "name": "_to",
          "type": "address"
        },
        {
          "indexed": false,
          "internalType": "uint256",
          "name": "_id",
          "type": "uint256"
        },
        {
          "indexed": false,
          "internalType": "uint256",
          "name": "_amount",
          "type": "uint256"
        }
      ],
      "name": "TransferSingle",
      "type": "event"
    },
    {
      "anonymous": false,
      "inputs": [
        {
          "indexed": false,
          "internalType": "string",
          "name": "_uri",
          "type": "string"
        },
        {
          "indexed": true,
          "internalType": "uint256",
          "name": "_id",
          "type": "uint256"
        }
      ],
      "name": "URI",
      "type": "event"
    },
    {
      "stateMutability": "nonpayable",
      "type": "fallback"
    },
    {
      "inputs": [],
      "name": "IDS_BITS_SIZE",
      "outputs": [
        {
          "internalType": "uint256",
          "name": "",
          "type": "uint256"
        }
      ],
      "stateMutability": "view",
      "type": "function"
    },
    {
      "inputs": [
        {
          "internalType": "address",
          "name": "_owner",
          "type": "address"
        },
        {
          "internalType": "uint256",
          "name": "_id",
          "type": "uint256"
        }
      ],
      "name": "balanceOf",
      "outputs": [
        {
          "internalType": "uint256",
          "name": "",
          "type": "uint256"
        }
      ],
      "stateMutability": "view",
      "type": "function"
    },
    {
      "inputs": [
        {
          "internalType": "address[]",
          "name": "_owners",
          "type": "address[]"
        },
        {
          "internalType": "uint256[]",
          "name": "_ids",
          "type": "uint256[]"
        }
      ],
      "name": "balanceOfBatch",
      "outputs": [
        {
          "internalType": "uint256[]",
          "name": "",
          "type": "uint256[]"
        }
      ],
      "stateMutability": "view",
      "type": "function"
    },
    {
      "inputs": [
        {
          "internalType": "address",
          "name": "_from",
          "type": "address"
        },
        {
          "internalType": "uint256[]",
          "name": "_ids",
          "type": "uint256[]"
        },
        {
          "internalType": "uint256[]",
          "name": "_values",
          "type": "uint256[]"
        }
      ],
      "name": "batchBurnMock",
      "outputs": [],
      "stateMutability": "nonpayable",
      "type": "function"
    },
    {
      "inputs": [
        {
          "internalType": "address",
          "name": "_to",
          "type": "address"
        },
        {
          "internalType": "uint256[]",
          "name": "_ids",
          "type": "uint256[]"
        },
        {
          "internalType": "uint256[]",
          "name": "_values",
          "type": "uint256[]"
        },
        {
          "internalType": "bytes",
          "name": "_data",
          "type": "bytes"
        }
      ],
      "name": "batchMintMock",
      "outputs": [],
      "stateMutability": "nonpayable",
      "type": "function"
    },
    {
      "inputs": [
        {
          "internalType": "address",
          "name": "_from",
          "type": "address"
        },
        {
          "internalType": "uint256",
          "name": "_id",
          "type": "uint256"
        },
        {
          "internalType": "uint256",
          "name": "_value",
          "type": "uint256"
        }
      ],
      "name": "burnMock",
      "outputs": [],
      "stateMutability": "nonpayable",
      "type": "function"
    },
    {
      "inputs": [
        {
          "internalType": "uint256",
          "name": "_id",
          "type": "uint256"
        }
      ],
      "name": "getIDBinIndex",
      "outputs": [
        {
          "internalType": "uint256",
          "name": "bin",
          "type": "uint256"
        },
        {
          "internalType": "uint256",
          "name": "index",
          "type": "uint256"
        }
      ],
      "stateMutability": "view",
      "type": "function"
    },
    {
      "inputs": [
        {
          "internalType": "address",
          "name": "_signer",
          "type": "address"
        }
      ],
      "name": "getNonce",
      "outputs": [
        {
          "internalType": "uint256",
          "name": "nonce",
          "type": "uint256"
        }
      ],
      "stateMutability": "view",
      "type": "function"
    },
    {
      "inputs": [
        {
          "internalType": "uint256",
          "name": "_binValues",
          "type": "uint256"
        },
        {
          "internalType": "uint256",
          "name": "_index",
          "type": "uint256"
        }
      ],
      "name": "getValueInBin",
      "outputs": [
        {
          "internalType": "uint256",
          "name": "",
          "type": "uint256"
        }
      ],
      "stateMutability": "view",
      "type": "function"
    },
    {
      "inputs": [
        {
          "internalType": "address",
          "name": "_owner",
          "type": "address"
        },
        {
          "internalType": "address",
          "name": "_operator",
          "type": "address"
        }
      ],
      "name": "isApprovedForAll",
      "outputs": [
        {
          "internalType": "bool",
          "name": "isOperator",
          "type": "bool"
        }
      ],
      "stateMutability": "view",
      "type": "function"
    },
    {
      "inputs": [
        {
          "internalType": "address",
          "name": "_signerAddress",
          "type": "address"
        },
        {
          "internalType": "bytes32",
          "name": "_hash",
          "type": "bytes32"
        },
        {
          "internalType": "bytes",
          "name": "_data",
          "type": "bytes"
        },
        {
          "internalType": "bytes",
          "name": "_sig",
          "type": "bytes"
        }
      ],
      "name": "isValidSignature",
      "outputs": [
        {
          "internalType": "bool",
          "name": "isValid",
          "type": "bool"
        }
      ],
      "stateMutability": "view",
      "type": "function"
    },
    {
      "inputs": [
        {
          "internalType": "address",
          "name": "_from",
          "type": "address"
        },
        {
          "internalType": "address",
          "name": "_to",
          "type": "address"
        },
        {
          "internalType": "uint256[]",
          "name": "_ids",
          "type": "uint256[]"
        },
        {
          "internalType": "uint256[]",
          "name": "_amounts",
          "type": "uint256[]"
        },
        {
          "internalType": "bool",
          "name": "_isGasFee",
          "type": "bool"
        },
        {
          "internalType": "bytes",
          "name": "_data",
          "type": "bytes"
        }
      ],
      "name": "metaSafeBatchTransferFrom",
      "outputs": [],
      "stateMutability": "nonpayable",
      "type": "function"
    },
    {
      "inputs": [
        {
          "internalType": "address",
          "name": "_from",
          "type": "address"
        },
        {
          "internalType": "address",
          "name": "_to",
          "type": "address"
        },
        {
          "internalType": "uint256",
          "name": "_id",
          "type": "uint256"
        },
        {
          "internalType": "uint256",
          "name": "_amount",
          "type": "uint256"
        },
        {
          "internalType": "bool",
          "name": "_isGasFee",
          "type": "bool"
        },
        {
          "internalType": "bytes",
          "name": "_data",
          "type": "bytes"
        }
      ],
      "name": "metaSafeTransferFrom",
      "outputs": [],
      "stateMutability": "nonpayable",
      "type": "function"
    },
    {
      "inputs": [
        {
          "internalType": "address",
          "name": "_owner",
          "type": "address"
        },
        {
          "internalType": "address",
          "name": "_operator",
          "type": "address"
        },
        {
          "internalType": "bool",
          "name": "_approved",
          "type": "bool"
        },
        {
          "internalType": "bool",
          "name": "_isGasFee",
          "type": "bool"
        },
        {
          "internalType": "bytes",
          "name": "_data",
          "type": "bytes"
        }
      ],
      "name": "metaSetApprovalForAll",
      "outputs": [],
      "stateMutability": "nonpayable",
      "type": "function"
    },
    {
      "inputs": [
        {
          "internalType": "address",
          "name": "_to",
          "type": "address"
        },
        {
          "internalType": "uint256",
          "name": "_id",
          "type": "uint256"
        },
        {
          "internalType": "uint256",
          "name": "_value",
          "type": "uint256"
        },
        {
          "internalType": "bytes",
          "name": "_data",
          "type": "bytes"
        }
      ],
      "name": "mintMock",
      "outputs": [],
      "stateMutability": "nonpayable",
      "type": "function"
    },
    {
      "inputs": [
        {
          "internalType": "address",
          "name": "_from",
          "type": "address"
        },
        {
          "internalType": "address",
          "name": "_to",
          "type": "address"
        },
        {
          "internalType": "uint256[]",
          "name": "_ids",
          "type": "uint256[]"
        },
        {
          "internalType": "uint256[]",
          "name": "_amounts",
          "type": "uint256[]"
        },
        {
          "internalType": "bytes",
          "name": "_data",
          "type": "bytes"
        }
      ],
      "name": "safeBatchTransferFrom",
      "outputs": [],
      "stateMutability": "nonpayable",
      "type": "function"
    },
    {
      "inputs": [
        {
          "internalType": "address",
          "name": "_from",
          "type": "address"
        },
        {
          "internalType": "address",
          "name": "_to",
          "type": "address"
        },
        {
          "internalType": "uint256",
          "name": "_id",
          "type": "uint256"
        },
        {
          "internalType": "uint256",
          "name": "_amount",
          "type": "uint256"
        },
        {
          "internalType": "bytes",
          "name": "_data",
          "type": "bytes"
        }
      ],
      "name": "safeTransferFrom",
      "outputs": [],
      "stateMutability": "nonpayable",
      "type": "function"
    },
    {
      "inputs": [
        {
          "internalType": "address",
          "name": "_operator",
          "type": "address"
        },
        {
          "internalType": "bool",
          "name": "_approved",
          "type": "bool"
        }
      ],
      "name": "setApprovalForAll",
      "outputs": [],
      "stateMutability": "nonpayable",
      "type": "function"
    },
    {
      "inputs": [
        {
          "internalType": "bytes4",
          "name": "_interfaceID",
          "type": "bytes4"
        }
      ],
      "name": "supportsInterface",
      "outputs": [
        {
          "internalType": "bool",
          "name": "",
          "type": "bool"
        }
      ],
      "stateMutability": "pure",
      "type": "function"
    },
    {
      "inputs": [
        {
          "internalType": "uint256",
          "name": "_id",
          "type": "uint256"
        }
      ],
      "name": "uri",
      "outputs": [
        {
          "internalType": "string",
          "name": "",
          "type": "string"
        }
      ],
      "stateMutability": "view",
      "type": "function"
    }
  ],
  "bytecode": "0x60c06040523480156200001157600080fd5b5060405162004715380380620047158339810160408190526200003491620000c8565b80806101008110801562000052575080610100816200004f57fe5b06155b620000a9576040517f08c379a0000000000000000000000000000000000000000000000000000000008152600401808060200182810382526037815260200180620046de6037913960400191505060405180910390fd5b60808190528061010081620000ba57fe5b0460a05250620000e1915050565b600060208284031215620000da578081fd5b5051919050565b60805160a0516145c56200011960003980610bfb5280610c27525080610c585280610cb95280612cc35280612d8152506145c56000f3fe608060405234801561001057600080fd5b506004361061016b5760003560e01c8063bd7a6c41116100cd578063e985e9c511610081578063f242432a11610066578063f242432a1461032b578063f5d4c8201461033e578063fa4e12d7146103515761016b565b8063e985e9c514610305578063eaec5f81146103185761016b565b8063d7a0ad90116100b2578063d7a0ad90146102c9578063db90e83c146102dc578063ddcc74ab146102fd5761016b565b8063bd7a6c41146102a3578063ce0b514b146102b65761016b565b8063437ecbe911610124578063a22cb46511610109578063a22cb4651461026a578063a3d4926e1461027d578063a3f091f5146102905761016b565b8063437ecbe9146102375780634e1273f41461024a5761016b565b80630e89341c116101555780630e89341c146101ef5780632d0335ab1461020f5780632eb2c2d6146102225761016b565b8062fdd58e146101a657806301ffc9a7146101cf575b6040517f08c379a000000000000000000000000000000000000000000000000000000000815260040161019d90613f59565b60405180910390fd5b6101b96101b4366004613811565b610364565b6040516101c69190613fb6565b60405180910390f35b6101e26101dd3660046139a4565b6103b9565b6040516101c69190613c2a565b6102026101fd366004613aa3565b6103cc565b6040516101c69190613cb2565b6101b961021d36600461333b565b61051f565b610235610230366004613495565b610547565b005b61023561024536600461383c565b610652565b61025d6102583660046138c5565b610662565b6040516101c69190613be6565b610235610278366004613795565b6108e1565b61023561028b3660046133d8565b61097a565b61023561029e366004613870565b610aee565b6102356102b136600461368b565b610b00565b6102356102c43660046135b8565b610b0b565b6102356102d73660046136fe565b610bea565b6102ef6102ea366004613aa3565b610bf6565b6040516101c6929190613fbf565b6101b9610c56565b6101e26103133660046133a0565b610c7a565b6101b9610326366004613abb565b610cb5565b610235610339366004613630565b610d07565b61023561034c36600461353f565b610e0b565b6101e261035f3660046137c2565b610f3b565b600080600061037284610bf6565b73ffffffffffffffffffffffffffffffffffffffff871660009081526020818152604080832085845290915290205491935091506103b09082610cb5565b95945050505050565b60006103c48261171c565b90505b919050565b606060036103d983611779565b60405160200180838054600181600116156101000203166002900480156104375780601f10610415576101008083540402835291820191610437565b820191906000526020600020905b815481529060010190602001808311610423575b5050825160208401908083835b6020831061048157805182527fffffffffffffffffffffffffffffffffffffffffffffffffffffffffffffffe09092019160209182019101610444565b5181516020939093036101000a7fffffffffffffffffffffffffffffffffffffffffffffffffffffffffffffffff01801990911692169190911790527f2e6a736f6e000000000000000000000000000000000000000000000000000000920191825250604080518083037fffffffffffffffffffffffffffffffffffffffffffffffffffffffffffffffe50181526005909201905295945050505050565b73ffffffffffffffffffffffffffffffffffffffff1660009081526002602052604090205490565b3373ffffffffffffffffffffffffffffffffffffffff8616148061057057506105708533610c7a565b6105c5576040517f08c379a000000000000000000000000000000000000000000000000000000000815260040180806020018281038252603c8152602001806142fb603c913960400191505060405180910390fd5b73ffffffffffffffffffffffffffffffffffffffff8416610631576040517f08c379a000000000000000000000000000000000000000000000000000000000815260040180806020018281038252603d8152602001806140e8603d913960400191505060405180910390fd5b61063d858585856118a5565b61064b858585855a86611cb2565b5050505050565b61065d838383611f1f565b505050565b815181516060919081146106c1576040517f08c379a00000000000000000000000000000000000000000000000000000000081526004018080602001828103825260398152602001806140af6039913960400191505060405180910390fd5b6000806106e1856000815181106106d457fe5b6020026020010151610bf6565b915091506000806000886000815181106106f757fe5b602002602001015173ffffffffffffffffffffffffffffffffffffffff1673ffffffffffffffffffffffffffffffffffffffff1681526020019081526020016000206000848152602001908152602001600020549050600083905060608567ffffffffffffffff8111801561076b57600080fd5b50604051908082528060200260200182016040528015610795578160200160208202803683370190505b5090506107a28385610cb5565b816000815181106107af57fe5b602090810291909101015260015b868110156108d4576107d48982815181106106d457fe5b9096509450828614158061083d57508981815181106107ef57fe5b602002602001015173ffffffffffffffffffffffffffffffffffffffff168a600183038151811061081c57fe5b602002602001015173ffffffffffffffffffffffffffffffffffffffff1614155b156108ab576000808b838151811061085157fe5b602002602001015173ffffffffffffffffffffffffffffffffffffffff1673ffffffffffffffffffffffffffffffffffffffff16815260200190815260200160002060008781526020019081526020016000205493508592505b6108b58486610cb5565b8282815181106108c157fe5b60209081029190910101526001016107bd565b5098975050505050505050565b33600081815260016020908152604080832073ffffffffffffffffffffffffffffffffffffffff87168085529083529281902080547fffffffffffffffffffffffffffffffffffffffffffffffffffffffffffffff0016861515908117909155815190815290519293927f17307eab39ab6107e8899845ad3d59bd9653f200f220920489ca2b5937696c31929181900390910190a35050565b73ffffffffffffffffffffffffffffffffffffffff85166109c7576040517f08c379a000000000000000000000000000000000000000000000000000000000815260040161019d90613e79565b60606109d161316c565b6060610a8489857fa3d4926e8cf8fe8e020cd29f514c256bc2eec62aa2337e415f1a33a4828af5a060001b8c8c8c604051602001610a0f9190613adc565b604051602081830303815290604052805190602001208c604051602001610a369190613adc565b604051602081830303815290604052805190602001208c610a58576000610a5b565b60015b604051602001610a7096959493929190613c35565b604051602081830303815290604052611f89565b9050610a92898989896118a5565b8415610ad55780806020019051810190610aac9190613a6e565b8094508193505050610ac689898989866020015188611cb2565b610ad08983612158565b610ae3565b610ae3898989895a86611cb2565b505050505050505050565b610afa84848484612401565b50505050565b61065d838383612475565b73ffffffffffffffffffffffffffffffffffffffff8516610b58576040517f08c379a000000000000000000000000000000000000000000000000000000000815260040161019d90613e1b565b6060610b6261316c565b6060610b9a89857fce0b514b3931bdbe4d5d44e4f035afe7113767b7db71949271f6a62d9c60f558828c8c8c8c610a58576000610a5b565b9050610ba88989898961261e565b8415610bdc5780806020019051810190610bc29190613a6e565b8094508193505050610ac6898989898660200151886126c2565b610ae3898989895a866126c2565b610afa848484846128b3565b6000807f00000000000000000000000000000000000000000000000000000000000000008381610c2257fe5b0491507f00000000000000000000000000000000000000000000000000000000000000008381610c4e57fe5b069050915091565b7f000000000000000000000000000000000000000000000000000000000000000081565b73ffffffffffffffffffffffffffffffffffffffff918216600090815260016020908152604080832093909416825291909152205460ff1690565b60017f000000000000000000000000000000000000000000000000000000000000000090811b7fffffffffffffffffffffffffffffffffffffffffffffffffffffffffffffffff0191029190911c1690565b3373ffffffffffffffffffffffffffffffffffffffff86161480610d305750610d308533610c7a565b610d85576040517f08c379a00000000000000000000000000000000000000000000000000000000081526004018080602001828103825260378152602001806141c96037913960400191505060405180910390fd5b73ffffffffffffffffffffffffffffffffffffffff8416610df1576040517f08c379a00000000000000000000000000000000000000000000000000000000081526004018080602001828103825260388152602001806144676038913960400191505060405180910390fd5b610dfd8585858561261e565b61064b858585855a866126c2565b6060610e6786837ff5d4c820494c8595de274c7ff619bead38aac4fbc3d143b5bf956aa4b84fa524828989610e41576000610e44565b60015b89610e50576000610e53565b60015b604051602001610a70959493929190613c76565b73ffffffffffffffffffffffffffffffffffffffff8781166000818152600160209081526040808320948b16808452949091529081902080547fffffffffffffffffffffffffffffffffffffffffffffffffffffffffffffff00168915151790555192935090917f17307eab39ab6107e8899845ad3d59bd9653f200f220920489ca2b5937696c3190610efb908890613c2a565b60405180910390a38215610f3357610f1161316c565b81806020019051810190610f259190613a3b565b9050610f318782612158565b505b505050505050565b600080825111610f96576040517f08c379a00000000000000000000000000000000000000000000000000000000081526004018080602001828103825260438152602001806144246043913960600191505060405180910390fd5b73ffffffffffffffffffffffffffffffffffffffff8516611002576040517f08c379a00000000000000000000000000000000000000000000000000000000081526004018080602001828103825260338152602001806143aa6033913960400191505060405180910390fd5b600061100d83612b3d565b60f81c90506005811061106b576040517f08c379a000000000000000000000000000000000000000000000000000000000815260040180806020018281038252603a81526020018061418f603a913960400191505060405180910390fd5b60008160ff16600581111561107c57fe5b905060008080808085600581111561109057fe5b14156110e7576040517f08c379a00000000000000000000000000000000000000000000000000000000081526004018080602001828103825260368152602001806142006036913960400191505060405180910390fd5b60018560058111156110f557fe5b1415611238578751606114611155576040517f08c379a00000000000000000000000000000000000000000000000000000000081526004018080602001828103825260378152602001806142c46037913960400191505060405180910390fd5b611160886000612bfa565b925061116d886020612bfa565b91508760408151811061117c57fe5b602001015160f81c60f81b60f81c935060018a85858560405160008152602001604052604051808581526020018460ff1681526020018381526020018281526020019450505050506020604051602081039080840390855afa1580156111e6573d6000803e3d6000fd5b50506040517fffffffffffffffffffffffffffffffffffffffffffffffffffffffffffffffe0015173ffffffffffffffffffffffffffffffffffffffff8d811691161497506117149650505050505050565b600285600581111561124657fe5b14156113965787516061146112a6576040517f08c379a00000000000000000000000000000000000000000000000000000000081526004018080602001828103825260378152602001806142c46037913960400191505060405180910390fd5b6112b1886000612bfa565b92506112be886020612bfa565b9150876040815181106112cd57fe5b01602090810151604080517f19457468657265756d205369676e6564204d6573736167653a0a33320000000081850152603c8082018f905282518083039091018152605c82018084528151918601919091206000909152607c82018084525260f89290921c609c830181905260bc830187905260dc8301869052905190965060019260fc8084019391927fffffffffffffffffffffffffffffffffffffffffffffffffffffffffffffffe081019281900390910190855afa1580156111e6573d6000803e3d6000fd5b60038560058111156113a457fe5b141561155c57604080517f20c13b0b000000000000000000000000000000000000000000000000000000008152600481019182528a5160448201528a5173ffffffffffffffffffffffffffffffffffffffff8e16926320c13b0b928d928d92918291602482019160640190602087019080838360005b8381101561143257818101518382015260200161141a565b50505050905090810190601f16801561145f5780820380516001836020036101000a031916815260200191505b50838103825284518152845160209182019186019080838360005b8381101561149257818101518382015260200161147a565b50505050905090810190601f1680156114bf5780820380516001836020036101000a031916815260200191505b5094505050505060206040518083038186803b1580156114de57600080fd5b505afa1580156114f2573d6000803e3d6000fd5b505050506040513d602081101561150857600080fd5b50517fffffffff00000000000000000000000000000000000000000000000000000000167f20c13b0b0000000000000000000000000000000000000000000000000000000014965061171495505050505050565b600485600581111561156a57fe5b14156116c357604080517f1626ba7e000000000000000000000000000000000000000000000000000000008152600481018c8152602482019283528a5160448301528a5173ffffffffffffffffffffffffffffffffffffffff8f1693631626ba7e938f938e9390929160640190602085019080838360005b838110156115fa5781810151838201526020016115e2565b50505050905090810190601f1680156116275780820380516001836020036101000a031916815260200191505b50935050505060206040518083038186803b15801561164557600080fd5b505afa158015611659573d6000803e3d6000fd5b505050506040513d602081101561166f57600080fd5b50517fffffffff00000000000000000000000000000000000000000000000000000000167f1626ba7e0000000000000000000000000000000000000000000000000000000014965061171495505050505050565b6040517f08c379a000000000000000000000000000000000000000000000000000000000815260040180806020018281038252603a81526020018061418f603a913960400191505060405180910390fd5b949350505050565b60007fffffffff0000000000000000000000000000000000000000000000000000000082167f0e89341c000000000000000000000000000000000000000000000000000000001415611770575060016103c7565b6103c482612c62565b6060816117ba575060408051808201909152600181527f300000000000000000000000000000000000000000000000000000000000000060208201526103c7565b818060005b82156117d357600101600a830492506117bf565b60608167ffffffffffffffff811180156117ec57600080fd5b506040519080825280601f01601f191660200182016040528015611817576020820181803683370190505b5090507fffffffffffffffffffffffffffffffffffffffffffffffffffffffffffffffff82015b831561189b57600a840660300160f81b8282806001900393508151811061186157fe5b60200101907effffffffffffffffffffffffffffffffffffffffffffffffffffffffffffff1916908160001a905350600a8404935061183e565b5095945050505050565b815181518114611900576040517f08c379a00000000000000000000000000000000000000000000000000000000081526004018080602001828103825260428152602001806142366042913960600191505060405180910390fd5b8373ffffffffffffffffffffffffffffffffffffffff168573ffffffffffffffffffffffffffffffffffffffff161415801561193c5750600081115b15611b0e57600080611954856000815181106106d457fe5b73ffffffffffffffffffffffffffffffffffffffff89166000908152602081815260408083208584529091528120548751939550919350916119ac919084908890859061199d57fe5b60200260200101516001612cbf565b73ffffffffffffffffffffffffffffffffffffffff881660009081526020818152604080832087845290915281205487519293509091611a0291908590899085906119f357fe5b60200260200101516000612cbf565b90508360015b86811015611abc57611a1f8982815181106106d457fe5b9096509450818614611a8e5773ffffffffffffffffffffffffffffffffffffffff8b811660009081526020818152604080832086845280835281842098909855928d16825281815282822094825284815282822095909555878152948452808520549290935291909220549084905b611a9f84868a848151811061199d57fe5b9350611ab283868a84815181106119f357fe5b9250600101611a08565b505073ffffffffffffffffffffffffffffffffffffffff808a16600090815260208181526040808320888452825280832095909555918a16815280825283812095815294905292209190915550611bab565b60005b81811015611ba957828181518110611b2557fe5b6020026020010151611b4a87868481518110611b3d57fe5b6020026020010151610364565b1015611ba1576040517f08c379a00000000000000000000000000000000000000000000000000000000081526004018080602001828103825260368152602001806143746036913960400191505060405180910390fd5b600101611b11565b505b8373ffffffffffffffffffffffffffffffffffffffff168573ffffffffffffffffffffffffffffffffffffffff163373ffffffffffffffffffffffffffffffffffffffff167f4a39dc06d4c0dbc64b70af90fd698a233a518aa5d07e595d983b8c0526c8f7fb8686604051808060200180602001838103835285818151815260200191508051906020019060200280838360005b83811015611c57578181015183820152602001611c3f565b50505050905001838103825284818151815260200191508051906020019060200280838360005b83811015611c96578181015183820152602001611c7e565b5050505090500194505050505060405180910390a45050505050565b611cd18573ffffffffffffffffffffffffffffffffffffffff16612f32565b15610f335760008573ffffffffffffffffffffffffffffffffffffffff1663bc197c8184338a8989886040518763ffffffff1660e01b8152600401808673ffffffffffffffffffffffffffffffffffffffff1681526020018573ffffffffffffffffffffffffffffffffffffffff168152602001806020018060200180602001848103845287818151815260200191508051906020019060200280838360005b83811015611d89578181015183820152602001611d71565b50505050905001848103835286818151815260200191508051906020019060200280838360005b83811015611dc8578181015183820152602001611db0565b50505050905001848103825285818151815260200191508051906020019080838360005b83811015611e04578181015183820152602001611dec565b50505050905090810190601f168015611e315780820380516001836020036101000a031916815260200191505b5098505050505050505050602060405180830381600088803b158015611e5657600080fd5b5087f1158015611e6a573d6000803e3d6000fd5b50505050506040513d6020811015611e8157600080fd5b505190507fffffffff0000000000000000000000000000000000000000000000000000000081167fbc197c810000000000000000000000000000000000000000000000000000000014610f31576040517f08c379a000000000000000000000000000000000000000000000000000000000815260040180806020018281038252604c815260200180614278604c913960600191505060405180910390fd5b611f2c8383836001612f6c565b6040805183815260208101839052815160009273ffffffffffffffffffffffffffffffffffffffff87169233927fc3d58168c5ae7397731d063d5bbf3d657854427343f4c083240f7aacaa2d0f62929181900390910190a4505050565b60608083806020019051810190611fa091906139e4565b73ffffffffffffffffffffffffffffffffffffffff871660009081526002602052604081205491945091925090611fd8836041612bfa565b9050818110801590611fec57508160640181105b612022576040517f08c379a000000000000000000000000000000000000000000000000000000000815260040161019d90613d60565b600061205e8683878051906020012060405160200161204393929190613b12565b60405160208183030381529060405280519060200120612ff3565b9050606086838760405160200161207793929190613b39565b604080517fffffffffffffffffffffffffffffffffffffffffffffffffffffffffffffffe081840301815282825273ffffffffffffffffffffffffffffffffffffffff8c166000818152600260205292909220600187019081905590935090917fb861b7bdbe611a846ab271b8d2810391bc8b5a968f390c322438ecab66bccf599161210291613fb6565b60405180910390a261211689838388610f3b565b61214c576040517f08c379a000000000000000000000000000000000000000000000000000000000815260040161019d90613dbd565b50505050509392505050565b60006121678260600151612b3d565b60f81c9050600281106121a6576040517f08c379a000000000000000000000000000000000000000000000000000000000815260040161019d90613efc565b60008160ff1660028111156121b757fe5b835160408501519192506000918291829173ffffffffffffffffffffffffffffffffffffffff16156121ed5786604001516121ef565b335b925060008560028111156121ff57fe5b14156122fe57866060015180602001905181019061221d9190613373565b909450915073ffffffffffffffffffffffffffffffffffffffff841630141561226e5761224c8884848461261e565b6122698884845a85604051806020016040528060008152506126c2565b6122f9565b6040517ff242432a00000000000000000000000000000000000000000000000000000000815273ffffffffffffffffffffffffffffffffffffffff85169063f242432a906122c6908b90879087908790600401613ba1565b600060405180830381600087803b1580156122e057600080fd5b505af11580156122f4573d6000803e3d6000fd5b505050505b6123f7565b86606001518060200190518101906123169190613357565b6040517f23b872dd00000000000000000000000000000000000000000000000000000000815290945073ffffffffffffffffffffffffffffffffffffffff8516906323b872dd9061236f908b9087908690600401613b70565b602060405180830381600087803b15801561238957600080fd5b505af115801561239d573d6000803e3d6000fd5b505050506040513d601f19601f820116820180604052508101906123c19190613988565b6123f7576040517f08c379a000000000000000000000000000000000000000000000000000000000815260040161019d90613d03565b5050505050505050565b61240e8484846000612f6c565b6040805184815260208101849052815173ffffffffffffffffffffffffffffffffffffffff87169260009233927fc3d58168c5ae7397731d063d5bbf3d657854427343f4c083240f7aacaa2d0f62929181900390910190a4610afa60008585855a866126c2565b8151815181146124d0576040517f08c379a000000000000000000000000000000000000000000000000000000000815260040180806020018281038252603d815260200180614337603d913960400191505060405180910390fd5b60005b818110156125165761250e858583815181106124eb57fe5b60200260200101518584815181106124ff57fe5b60200260200101516001612f6c565b6001016124d3565b50600073ffffffffffffffffffffffffffffffffffffffff168473ffffffffffffffffffffffffffffffffffffffff163373ffffffffffffffffffffffffffffffffffffffff167f4a39dc06d4c0dbc64b70af90fd698a233a518aa5d07e595d983b8c0526c8f7fb8686604051808060200180602001838103835285818151815260200191508051906020019060200280838360005b838110156125c45781810151838201526020016125ac565b50505050905001838103825284818151815260200191508051906020019060200280838360005b838110156126035781810151838201526020016125eb565b5050505090500194505050505060405180910390a450505050565b61262b8483836001612f6c565b6126388383836000612f6c565b8273ffffffffffffffffffffffffffffffffffffffff168473ffffffffffffffffffffffffffffffffffffffff163373ffffffffffffffffffffffffffffffffffffffff167fc3d58168c5ae7397731d063d5bbf3d657854427343f4c083240f7aacaa2d0f628585604051808381526020018281526020019250505060405180910390a450505050565b6126e18573ffffffffffffffffffffffffffffffffffffffff16612f32565b15610f335760008573ffffffffffffffffffffffffffffffffffffffff1663f23a6e6184338a8989886040518763ffffffff1660e01b8152600401808673ffffffffffffffffffffffffffffffffffffffff1681526020018573ffffffffffffffffffffffffffffffffffffffff16815260200184815260200183815260200180602001828103825283818151815260200191508051906020019080838360005b8381101561279a578181015183820152602001612782565b50505050905090810190601f1680156127c75780820380516001836020036101000a031916815260200191505b509650505050505050602060405180830381600088803b1580156127ea57600080fd5b5087f11580156127fe573d6000803e3d6000fd5b50505050506040513d602081101561281557600080fd5b505190507fffffffff0000000000000000000000000000000000000000000000000000000081167ff23a6e610000000000000000000000000000000000000000000000000000000014610f31576040517f08c379a00000000000000000000000000000000000000000000000000000000081526004018080602001828103825260478152602001806143dd6047913960600191505060405180910390fd5b815183511461290d576040517f08c379a000000000000000000000000000000000000000000000000000000000815260040180806020018281038252603e815260200180614520603e913960400191505060405180910390fd5b825115612a2d57600080612927856000815181106106d457fe5b73ffffffffffffffffffffffffffffffffffffffff881660009081526020818152604080832085845290915281205487519395509193509161297091908490889085906119f357fe5b86519091508360015b828110156129f4576129908982815181106106d457fe5b90965094508186146129d95773ffffffffffffffffffffffffffffffffffffffff8a16600090815260208181526040808320948352939052828120949094558584529220549184905b6129ea84868a84815181106119f357fe5b9350600101612979565b50505073ffffffffffffffffffffffffffffffffffffffff87166000908152602081815260408083209583529490529290922091909155505b8373ffffffffffffffffffffffffffffffffffffffff16600073ffffffffffffffffffffffffffffffffffffffff163373ffffffffffffffffffffffffffffffffffffffff167f4a39dc06d4c0dbc64b70af90fd698a233a518aa5d07e595d983b8c0526c8f7fb8686604051808060200180602001838103835285818151815260200191508051906020019060200280838360005b83811015612ada578181015183820152602001612ac2565b50505050905001838103825284818151815260200191508051906020019060200280838360005b83811015612b19578181015183820152602001612b01565b5050505090500194505050505060405180910390a4610afa60008585855a86611cb2565b600080825111612b98576040517f08c379a00000000000000000000000000000000000000000000000000000000081526004018080602001828103825260378152602001806141256037913960400191505060405180910390fd5b81600183510381518110612ba857fe5b016020015182517fffffffffffffffffffffffffffffffffffffffffffffffffffffffffffffffff01909252507fff000000000000000000000000000000000000000000000000000000000000001690565b60008160200183511015612c59576040517f08c379a000000000000000000000000000000000000000000000000000000000815260040180806020018281038252603c81526020018061449f603c913960400191505060405180910390fd5b50016020015190565b60007fffffffff0000000000000000000000000000000000000000000000000000000082167fd9b67a26000000000000000000000000000000000000000000000000000000001415612cb6575060016103c7565b6103c482613122565b60007f0000000000000000000000000000000000000000000000000000000000000000848102906001901b7fffffffffffffffffffffffffffffffffffffffffffffffffffffffffffffffff0182846001811115612d1957fe5b1415612e055784821b8701925086831015612d7f576040517f08c379a000000000000000000000000000000000000000000000000000000000815260040180806020018281038252603281526020018061455e6032913960400191505060405180910390fd5b7f000000000000000000000000000000000000000000000000000000000000000060020a87831c8216860110612e00576040517f08c379a000000000000000000000000000000000000000000000000000000000815260040180806020018281038252603281526020018061455e6032913960400191505060405180910390fd5b612f28565b6001846001811115612e1357fe5b1415612ed75784821b8703925086831115612e79576040517f08c379a000000000000000000000000000000000000000000000000000000000815260040180806020018281038252603381526020018061415c6033913960400191505060405180910390fd5b84818389901c161015612e00576040517f08c379a000000000000000000000000000000000000000000000000000000000815260040180806020018281038252603381526020018061415c6033913960400191505060405180910390fd5b6040517f08c379a00000000000000000000000000000000000000000000000000000000081526004018080602001828103825260458152602001806144db6045913960600191505060405180910390fd5b5050949350505050565b6000813f8015801590612f6557507fc5d2460186f7233c927e7db2dcc703c0e500b653ca82273b7bfad8045d85a4708114155b9392505050565b600080612f7885610bf6565b73ffffffffffffffffffffffffffffffffffffffff88166000908152602081815260408083208584529091529020549193509150612fb890828686612cbf565b73ffffffffffffffffffffffffffffffffffffffff909616600090815260208181526040808320948352939052919091209490945550505050565b604080518082018252600281527f1901000000000000000000000000000000000000000000000000000000000000602080830191825283517f035aff83d86937d35b32e04f0ddc6ff469290eef2f1b692d8a815c89404d47498183015230818601528451808203860181526060820190955284519490910193909320825160009491928692608001918291908083835b602083106130c057805182527fffffffffffffffffffffffffffffffffffffffffffffffffffffffffffffffe09092019160209182019101613083565b51815160209384036101000a7fffffffffffffffffffffffffffffffffffffffffffffffffffffffffffffffff018019909216911617905292019485525083810192909252506040805180840383018152928101905281519101209392505050565b7fffffffff0000000000000000000000000000000000000000000000000000000081167f01ffc9a70000000000000000000000000000000000000000000000000000000014919050565b60405180608001604052806000815260200160008152602001600073ffffffffffffffffffffffffffffffffffffffff168152602001606081525090565b600082601f8301126131ba578081fd5b81356131cd6131c882613ff1565b613fcd565b8181529150602080830190848101818402860182018710156131ee57600080fd5b60005b8481101561320d578135845292820192908201906001016131f1565b505050505092915050565b600082601f830112613228578081fd5b81356132366131c88261400f565b915080825283602082850101111561324d57600080fd5b8060208401602084013760009082016020015292915050565b600082601f830112613276578081fd5b81516132846131c88261400f565b915080825283602082850101111561329b57600080fd5b6132ac81602084016020860161404f565b5092915050565b6000608082840312156132c4578081fd5b6040516080810167ffffffffffffffff82821081831117156132e257fe5b816040528293508451835260208501516020840152604085015191506133078261407b565b816040840152606085015191508082111561332157600080fd5b5061332e85828601613266565b6060830152505092915050565b60006020828403121561334c578081fd5b8135612f658161407b565b600060208284031215613368578081fd5b8151612f658161407b565b60008060408385031215613385578081fd5b82516133908161407b565b6020939093015192949293505050565b600080604083850312156133b2578182fd5b82356133bd8161407b565b915060208301356133cd8161407b565b809150509250929050565b60008060008060008060c087890312156133f0578182fd5b86356133fb8161407b565b9550602087013561340b8161407b565b9450604087013567ffffffffffffffff80821115613427578384fd5b6134338a838b016131aa565b95506060890135915080821115613448578384fd5b6134548a838b016131aa565b945060808901359150613466826140a0565b90925060a0880135908082111561347b578283fd5b5061348889828a01613218565b9150509295509295509295565b600080600080600060a086880312156134ac578081fd5b85356134b78161407b565b945060208601356134c78161407b565b9350604086013567ffffffffffffffff808211156134e3578283fd5b6134ef89838a016131aa565b94506060880135915080821115613504578283fd5b61351089838a016131aa565b93506080880135915080821115613525578283fd5b5061353288828901613218565b9150509295509295909350565b600080600080600060a08688031215613556578081fd5b85356135618161407b565b945060208601356135718161407b565b93506040860135613581816140a0565b92506060860135613591816140a0565b9150608086013567ffffffffffffffff8111156135ac578182fd5b61353288828901613218565b60008060008060008060c087890312156135d0578384fd5b86356135db8161407b565b955060208701356135eb8161407b565b945060408701359350606087013592506080870135613609816140a0565b915060a087013567ffffffffffffffff811115613624578182fd5b61348889828a01613218565b600080600080600060a08688031215613647578283fd5b85356136528161407b565b945060208601356136628161407b565b93506040860135925060608601359150608086013567ffffffffffffffff8111156135ac578182fd5b60008060006060848603121561369f578081fd5b83356136aa8161407b565b9250602084013567ffffffffffffffff808211156136c6578283fd5b6136d2878388016131aa565b935060408601359150808211156136e7578283fd5b506136f4868287016131aa565b9150509250925092565b60008060008060808587031215613713578182fd5b843561371e8161407b565b9350602085013567ffffffffffffffff8082111561373a578384fd5b613746888389016131aa565b9450604087013591508082111561375b578384fd5b613767888389016131aa565b9350606087013591508082111561377c578283fd5b5061378987828801613218565b91505092959194509250565b600080604083850312156137a7578182fd5b82356137b28161407b565b915060208301356133cd816140a0565b600080600080608085870312156137d7578182fd5b84356137e28161407b565b935060208501359250604085013567ffffffffffffffff80821115613805578384fd5b61376788838901613218565b60008060408385031215613823578182fd5b823561382e8161407b565b946020939093013593505050565b600080600060608486031215613850578081fd5b833561385b8161407b565b95602085013595506040909401359392505050565b60008060008060808587031215613885578182fd5b84356138908161407b565b93506020850135925060408501359150606085013567ffffffffffffffff8111156138b9578182fd5b61378987828801613218565b600080604083850312156138d7578182fd5b823567ffffffffffffffff808211156138ee578384fd5b818501915085601f830112613901578384fd5b813561390f6131c882613ff1565b80828252602080830192508086018a82838702890101111561392f578889fd5b8896505b8487101561395a5780356139468161407b565b845260019690960195928101928101613933565b509096508701359350505080821115613971578283fd5b5061397e858286016131aa565b9150509250929050565b600060208284031215613999578081fd5b8151612f65816140a0565b6000602082840312156139b5578081fd5b81357fffffffff0000000000000000000000000000000000000000000000000000000081168114612f65578182fd5b600080604083850312156139f6578182fd5b825167ffffffffffffffff80821115613a0d578384fd5b613a1986838701613266565b93506020850151915080821115613a2e578283fd5b5061397e85828601613266565b600060208284031215613a4c578081fd5b815167ffffffffffffffff811115613a62578182fd5b611714848285016132b3565b60008060408385031215613a80578182fd5b825167ffffffffffffffff80821115613a97578384fd5b613a19868387016132b3565b600060208284031215613ab4578081fd5b5035919050565b60008060408385031215613acd578182fd5b50508035926020909101359150565b815160009082906020808601845b83811015613b0657815185529382019390820190600101613aea565b50929695505050505050565b60008451613b2481846020890161404f565b91909101928352506020820152604001919050565b60008451613b4b81846020890161404f565b82018481528351613b6381602080850190880161404f565b0160200195945050505050565b73ffffffffffffffffffffffffffffffffffffffff9384168152919092166020820152604081019190915260600190565b73ffffffffffffffffffffffffffffffffffffffff94851681529290931660208301526040820152606081019190915260a06080820181905260009082015260c00190565b6020808252825182820181905260009190848201906040850190845b81811015613c1e57835183529284019291840191600101613c02565b50909695505050505050565b901515815260200190565b95865273ffffffffffffffffffffffffffffffffffffffff94851660208701529290931660408501526060840152608083019190915260a082015260c00190565b94855273ffffffffffffffffffffffffffffffffffffffff93841660208601529190921660408401526060830191909152608082015260a00190565b6000602082528251806020840152613cd181604085016020870161404f565b601f017fffffffffffffffffffffffffffffffffffffffffffffffffffffffffffffffe0169190910160400192915050565b6020808252603f908201527f455243313135354d6574615061636b656442616c616e6365235f7472616e736660408201527f65724761734665653a2045524332305f5452414e534645525f4641494c454400606082015260800190565b6020808252603c908201527f455243313135354d6574615061636b656442616c616e6365235f7369676e617460408201527f75726556616c69646174696f6e3a20494e56414c49445f4e4f4e434500000000606082015260800190565b602080825260409082018190527f455243313135354d6574615061636b656442616c616e6365235f7369676e6174908201527f75726556616c69646174696f6e3a20494e56414c49445f5349474e4154555245606082015260800190565b602080825260409082018190527f455243313135354d6574615061636b656442616c616e6365236d657461536166908201527f655472616e7366657246726f6d3a20494e56414c49445f524543495049454e54606082015260800190565b60208082526045908201527f455243313135354d6574615061636b656442616c616e6365236d65746153616660408201527f6542617463685472616e7366657246726f6d3a20494e56414c49445f5245434960608201527f5049454e54000000000000000000000000000000000000000000000000000000608082015260a00190565b6020808252603b908201527f455243313135354d6574615061636b656442616c616e6365235f7472616e736660408201527f65724761734665653a20554e535550504f525445445f544f4b454e0000000000606082015260800190565b60208082526034908201527f455243313135354d6574614d696e744275726e5061636b656442616c616e636560408201527f4d6f636b3a20494e56414c49445f4d4554484f44000000000000000000000000606082015260800190565b90815260200190565b918252602082015260400190565b60405181810167ffffffffffffffff81118282101715613fe957fe5b604052919050565b600067ffffffffffffffff82111561400557fe5b5060209081020190565b600067ffffffffffffffff82111561402357fe5b50601f017fffffffffffffffffffffffffffffffffffffffffffffffffffffffffffffffe01660200190565b60005b8381101561406a578181015183820152602001614052565b83811115610afa5750506000910152565b73ffffffffffffffffffffffffffffffffffffffff8116811461409d57600080fd5b50565b801515811461409d57600080fdfe455243313135355061636b656442616c616e63652362616c616e63654f6642617463683a20494e56414c49445f41525241595f4c454e475448455243313135355061636b656442616c616e6365237361666542617463685472616e7366657246726f6d3a20494e56414c49445f524543495049454e544c6962427974657323706f704c617374427974653a20475245415445525f5448414e5f5a45524f5f4c454e4754485f5245515549524544455243313135355061636b656442616c616e6365235f7669657755706461746542696e56616c75653a20554e444552464c4f575369676e617475726556616c696461746f7223697356616c69645369676e61747572653a20554e535550504f525445445f5349474e4154555245455243313135355061636b656442616c616e636523736166655472616e7366657246726f6d3a20494e56414c49445f4f50455241544f525369676e617475726556616c696461746f7223697356616c69645369676e61747572653a20494c4c4547414c5f5349474e4154555245455243313135355061636b656442616c616e6365235f7361666542617463685472616e7366657246726f6d3a20494e56414c49445f4152524159535f4c454e475448455243313135355061636b656442616c616e6365235f63616c6c6f6e45524331313535426174636852656365697665643a20494e56414c49445f4f4e5f524543454956455f4d4553534147455369676e617475726556616c696461746f7223697356616c69645369676e61747572653a204c454e4754485f39375f5245515549524544455243313135355061636b656442616c616e6365237361666542617463685472616e7366657246726f6d3a20494e56414c49445f4f50455241544f52455243313135354d696e744275726e5061636b656442616c616e63652362617463684275726e3a20494e56414c49445f4152524159535f4c454e475448455243313135355061636b656442616c616e6365235f7361666542617463685472616e7366657246726f6d3a20554e444552464c4f575369676e617475726556616c696461746f7223697356616c69645369676e61747572653a20494e56414c49445f5349474e4552455243313135355061636b656442616c616e6365235f63616c6c6f6e4552433131353552656365697665643a20494e56414c49445f4f4e5f524543454956455f4d4553534147455369676e617475726556616c696461746f7223697356616c69645369676e61747572653a204c454e4754485f475245415445525f5448414e5f305f5245515549524544455243313135355061636b656442616c616e636523736166655472616e7366657246726f6d3a20494e56414c49445f524543495049454e544c696242797465732372656164427974657333323a20475245415445525f4f525f455155414c5f544f5f33325f4c454e4754485f5245515549524544455243313135355061636b656442616c616e6365235f7669657755706461746542696e56616c75653a20494e56414c49445f42494e5f57524954455f4f5045524154494f4e455243313135354d696e744275726e5061636b656442616c616e6365235f62617463684d696e743a20494e56414c49445f4152524159535f4c454e475448455243313135355061636b656442616c616e6365235f7669657755706461746542696e56616c75653a204f564552464c4f57a2646970667358221220b93982974cd4d959f0f4fbc62d1e794e237e7a37f6c49d9f46719f5cdb53c13164736f6c63430007040033455243313135355061636b656442616c616e636523636f6e7374727563746f723a20496e76616c6964204944535f424954535f53495a45",
  "linkReferences": {},
  "deployedLinkReferences": {}
}