{
  "_format": "hh-sol-artifact-1",
  "contractName": "ERC1155MetaMintBurnPackedBalanceMock",
  "sourceName": "contracts/mocks/ERC1155MetaMintBurnPackedBalanceMock.sol",
  "abi": [
    {
      "inputs": [
        {
          "internalType": "string",
          "name": "_name",
          "type": "string"
        },
        {
          "internalType": "string",
          "name": "_baseURI",
          "type": "string"
        }
      ],
      "stateMutability": "nonpayable",
      "type": "constructor"
    },
    {
      "anonymous": false,
      "inputs": [
        {
          "indexed": true,
          "internalType": "address",
          "name": "_owner",
          "type": "address"
        },
        {
          "indexed": true,
          "internalType": "address",
          "name": "_operator",
          "type": "address"
        },
        {
          "indexed": false,
          "internalType": "bool",
          "name": "_approved",
          "type": "bool"
        }
      ],
      "name": "ApprovalForAll",
      "type": "event"
    },
    {
      "anonymous": false,
      "inputs": [
        {
          "indexed": true,
          "internalType": "address",
          "name": "signer",
          "type": "address"
        },
        {
          "indexed": false,
          "internalType": "uint256",
          "name": "newNonce",
          "type": "uint256"
        }
      ],
      "name": "NonceChange",
      "type": "event"
    },
    {
      "anonymous": false,
      "inputs": [
        {
          "indexed": true,
          "internalType": "address",
          "name": "_operator",
          "type": "address"
        },
        {
          "indexed": true,
          "internalType": "address",
          "name": "_from",
          "type": "address"
        },
        {
          "indexed": true,
          "internalType": "address",
          "name": "_to",
          "type": "address"
        },
        {
          "indexed": false,
          "internalType": "uint256[]",
          "name": "_ids",
          "type": "uint256[]"
        },
        {
          "indexed": false,
          "internalType": "uint256[]",
          "name": "_amounts",
          "type": "uint256[]"
        }
      ],
      "name": "TransferBatch",
      "type": "event"
    },
    {
      "anonymous": false,
      "inputs": [
        {
          "indexed": true,
          "internalType": "address",
          "name": "_operator",
          "type": "address"
        },
        {
          "indexed": true,
          "internalType": "address",
          "name": "_from",
          "type": "address"
        },
        {
          "indexed": true,
          "internalType": "address",
          "name": "_to",
          "type": "address"
        },
        {
          "indexed": false,
          "internalType": "uint256",
          "name": "_id",
          "type": "uint256"
        },
        {
          "indexed": false,
          "internalType": "uint256",
          "name": "_amount",
          "type": "uint256"
        }
      ],
      "name": "TransferSingle",
      "type": "event"
    },
    {
      "anonymous": false,
      "inputs": [
        {
          "indexed": false,
          "internalType": "string",
          "name": "_uri",
          "type": "string"
        },
        {
          "indexed": true,
          "internalType": "uint256",
          "name": "_id",
          "type": "uint256"
        }
      ],
      "name": "URI",
      "type": "event"
    },
    {
      "stateMutability": "nonpayable",
      "type": "fallback"
    },
    {
      "inputs": [
        {
          "internalType": "address",
          "name": "_owner",
          "type": "address"
        },
        {
          "internalType": "uint256",
          "name": "_id",
          "type": "uint256"
        }
      ],
      "name": "balanceOf",
      "outputs": [
        {
          "internalType": "uint256",
          "name": "",
          "type": "uint256"
        }
      ],
      "stateMutability": "view",
      "type": "function"
    },
    {
      "inputs": [
        {
          "internalType": "address[]",
          "name": "_owners",
          "type": "address[]"
        },
        {
          "internalType": "uint256[]",
          "name": "_ids",
          "type": "uint256[]"
        }
      ],
      "name": "balanceOfBatch",
      "outputs": [
        {
          "internalType": "uint256[]",
          "name": "",
          "type": "uint256[]"
        }
      ],
      "stateMutability": "view",
      "type": "function"
    },
    {
      "inputs": [],
      "name": "baseURI",
      "outputs": [
        {
          "internalType": "string",
          "name": "",
          "type": "string"
        }
      ],
      "stateMutability": "view",
      "type": "function"
    },
    {
      "inputs": [
        {
          "internalType": "address",
          "name": "_from",
          "type": "address"
        },
        {
          "internalType": "uint256[]",
          "name": "_ids",
          "type": "uint256[]"
        },
        {
          "internalType": "uint256[]",
          "name": "_values",
          "type": "uint256[]"
        }
      ],
      "name": "batchBurnMock",
      "outputs": [],
      "stateMutability": "nonpayable",
      "type": "function"
    },
    {
      "inputs": [
        {
          "internalType": "address",
          "name": "_to",
          "type": "address"
        },
        {
          "internalType": "uint256[]",
          "name": "_ids",
          "type": "uint256[]"
        },
        {
          "internalType": "uint256[]",
          "name": "_values",
          "type": "uint256[]"
        },
        {
          "internalType": "bytes",
          "name": "_data",
          "type": "bytes"
        }
      ],
      "name": "batchMintMock",
      "outputs": [],
      "stateMutability": "nonpayable",
      "type": "function"
    },
    {
      "inputs": [
        {
          "internalType": "address",
          "name": "_from",
          "type": "address"
        },
        {
          "internalType": "uint256",
          "name": "_id",
          "type": "uint256"
        },
        {
          "internalType": "uint256",
          "name": "_value",
          "type": "uint256"
        }
      ],
      "name": "burnMock",
      "outputs": [],
      "stateMutability": "nonpayable",
      "type": "function"
    },
    {
      "inputs": [
        {
          "internalType": "uint256",
          "name": "_id",
          "type": "uint256"
        }
      ],
      "name": "getIDBinIndex",
      "outputs": [
        {
          "internalType": "uint256",
          "name": "bin",
          "type": "uint256"
        },
        {
          "internalType": "uint256",
          "name": "index",
          "type": "uint256"
        }
      ],
      "stateMutability": "pure",
      "type": "function"
    },
    {
      "inputs": [
        {
          "internalType": "address",
          "name": "_signer",
          "type": "address"
        }
      ],
      "name": "getNonce",
      "outputs": [
        {
          "internalType": "uint256",
          "name": "nonce",
          "type": "uint256"
        }
      ],
      "stateMutability": "view",
      "type": "function"
    },
    {
      "inputs": [
        {
          "internalType": "uint256",
          "name": "_binValues",
          "type": "uint256"
        },
        {
          "internalType": "uint256",
          "name": "_index",
          "type": "uint256"
        }
      ],
      "name": "getValueInBin",
      "outputs": [
        {
          "internalType": "uint256",
          "name": "",
          "type": "uint256"
        }
      ],
      "stateMutability": "pure",
      "type": "function"
    },
    {
      "inputs": [
        {
          "internalType": "address",
          "name": "_owner",
          "type": "address"
        },
        {
          "internalType": "address",
          "name": "_operator",
          "type": "address"
        }
      ],
      "name": "isApprovedForAll",
      "outputs": [
        {
          "internalType": "bool",
          "name": "isOperator",
          "type": "bool"
        }
      ],
      "stateMutability": "view",
      "type": "function"
    },
    {
      "inputs": [
        {
          "internalType": "address",
          "name": "_signerAddress",
          "type": "address"
        },
        {
          "internalType": "bytes32",
          "name": "_hash",
          "type": "bytes32"
        },
        {
          "internalType": "bytes",
          "name": "_data",
          "type": "bytes"
        },
        {
          "internalType": "bytes",
          "name": "_sig",
          "type": "bytes"
        }
      ],
      "name": "isValidSignature",
      "outputs": [
        {
          "internalType": "bool",
          "name": "isValid",
          "type": "bool"
        }
      ],
      "stateMutability": "view",
      "type": "function"
    },
    {
      "inputs": [
        {
          "internalType": "address",
          "name": "_from",
          "type": "address"
        },
        {
          "internalType": "address",
          "name": "_to",
          "type": "address"
        },
        {
          "internalType": "uint256[]",
          "name": "_ids",
          "type": "uint256[]"
        },
        {
          "internalType": "uint256[]",
          "name": "_amounts",
          "type": "uint256[]"
        },
        {
          "internalType": "bool",
          "name": "_isGasFee",
          "type": "bool"
        },
        {
          "internalType": "bytes",
          "name": "_data",
          "type": "bytes"
        }
      ],
      "name": "metaSafeBatchTransferFrom",
      "outputs": [],
      "stateMutability": "nonpayable",
      "type": "function"
    },
    {
      "inputs": [
        {
          "internalType": "address",
          "name": "_from",
          "type": "address"
        },
        {
          "internalType": "address",
          "name": "_to",
          "type": "address"
        },
        {
          "internalType": "uint256",
          "name": "_id",
          "type": "uint256"
        },
        {
          "internalType": "uint256",
          "name": "_amount",
          "type": "uint256"
        },
        {
          "internalType": "bool",
          "name": "_isGasFee",
          "type": "bool"
        },
        {
          "internalType": "bytes",
          "name": "_data",
          "type": "bytes"
        }
      ],
      "name": "metaSafeTransferFrom",
      "outputs": [],
      "stateMutability": "nonpayable",
      "type": "function"
    },
    {
      "inputs": [
        {
          "internalType": "address",
          "name": "_owner",
          "type": "address"
        },
        {
          "internalType": "address",
          "name": "_operator",
          "type": "address"
        },
        {
          "internalType": "bool",
          "name": "_approved",
          "type": "bool"
        },
        {
          "internalType": "bool",
          "name": "_isGasFee",
          "type": "bool"
        },
        {
          "internalType": "bytes",
          "name": "_data",
          "type": "bytes"
        }
      ],
      "name": "metaSetApprovalForAll",
      "outputs": [],
      "stateMutability": "nonpayable",
      "type": "function"
    },
    {
      "inputs": [
        {
          "internalType": "address",
          "name": "_to",
          "type": "address"
        },
        {
          "internalType": "uint256",
          "name": "_id",
          "type": "uint256"
        },
        {
          "internalType": "uint256",
          "name": "_value",
          "type": "uint256"
        },
        {
          "internalType": "bytes",
          "name": "_data",
          "type": "bytes"
        }
      ],
      "name": "mintMock",
      "outputs": [],
      "stateMutability": "nonpayable",
      "type": "function"
    },
    {
      "inputs": [],
      "name": "name",
      "outputs": [
        {
          "internalType": "string",
          "name": "",
          "type": "string"
        }
      ],
      "stateMutability": "view",
      "type": "function"
    },
    {
      "inputs": [
        {
          "internalType": "address",
          "name": "_from",
          "type": "address"
        },
        {
          "internalType": "address",
          "name": "_to",
          "type": "address"
        },
        {
          "internalType": "uint256[]",
          "name": "_ids",
          "type": "uint256[]"
        },
        {
          "internalType": "uint256[]",
          "name": "_amounts",
          "type": "uint256[]"
        },
        {
          "internalType": "bytes",
          "name": "_data",
          "type": "bytes"
        }
      ],
      "name": "safeBatchTransferFrom",
      "outputs": [],
      "stateMutability": "nonpayable",
      "type": "function"
    },
    {
      "inputs": [
        {
          "internalType": "address",
          "name": "_from",
          "type": "address"
        },
        {
          "internalType": "address",
          "name": "_to",
          "type": "address"
        },
        {
          "internalType": "uint256",
          "name": "_id",
          "type": "uint256"
        },
        {
          "internalType": "uint256",
          "name": "_amount",
          "type": "uint256"
        },
        {
          "internalType": "bytes",
          "name": "_data",
          "type": "bytes"
        }
      ],
      "name": "safeTransferFrom",
      "outputs": [],
      "stateMutability": "nonpayable",
      "type": "function"
    },
    {
      "inputs": [
        {
          "internalType": "address",
          "name": "_operator",
          "type": "address"
        },
        {
          "internalType": "bool",
          "name": "_approved",
          "type": "bool"
        }
      ],
      "name": "setApprovalForAll",
      "outputs": [],
      "stateMutability": "nonpayable",
      "type": "function"
    },
    {
      "inputs": [
        {
          "internalType": "bytes4",
          "name": "_interfaceID",
          "type": "bytes4"
        }
      ],
      "name": "supportsInterface",
      "outputs": [
        {
          "internalType": "bool",
          "name": "",
          "type": "bool"
        }
      ],
      "stateMutability": "pure",
      "type": "function"
    },
    {
      "inputs": [
        {
          "internalType": "uint256",
          "name": "_id",
          "type": "uint256"
        }
      ],
      "name": "uri",
      "outputs": [
        {
          "internalType": "string",
          "name": "",
          "type": "string"
        }
      ],
      "stateMutability": "view",
      "type": "function"
    }
  ],
  "bytecode": "0x60806040523480156200001157600080fd5b5060405162004b1d38038062004b1d833981016040819052620000349162000142565b818160046200004483826200023c565b5060036200005382826200023c565b505050505062000363565b634e487b7160e01b600052604160045260246000fd5b600082601f8301126200008657600080fd5b815167ffffffffffffffff80821115620000a457620000a46200005e565b604051601f83017fffffffffffffffffffffffffffffffffffffffffffffffffffffffffffffffe0908116603f01168101908282118183101715620000ed57620000ed6200005e565b816040528381526020925086838588010111156200010a57600080fd5b600091505b838210156200012e57858201830151818301840152908201906200010f565b600093810190920192909252949350505050565b600080604083850312156200015657600080fd5b825167ffffffffffffffff808211156200016f57600080fd5b6200017d8683870162000074565b935060208501519150808211156200019457600080fd5b50620001a38582860162000074565b9150509250929050565b600181811c90821680620001c257607f821691505b602082108103620001e357634e487b7160e01b600052602260045260246000fd5b50919050565b601f8211156200023757600081815260208120601f850160051c81016020861015620002125750805b601f850160051c820191505b8181101562000233578281556001016200021e565b5050505b505050565b815167ffffffffffffffff8111156200025957620002596200005e565b62000271816200026a8454620001ad565b84620001e9565b602080601f831160018114620002c75760008415620002905750858301515b7fffffffffffffffffffffffffffffffffffffffffffffffffffffffffffffffff600386901b1c1916600185901b17855562000233565b6000858152602081207fffffffffffffffffffffffffffffffffffffffffffffffffffffffffffffffe08616915b828110156200031657888601518255948401946001909101908401620002f5565b50858210156200035357878501517fffffffffffffffffffffffffffffffffffffffffffffffffffffffffffffffff600388901b60f8161c191681555b5050505050600190811b01905550565b6147aa80620003736000396000f3fe608060405234801561001057600080fd5b50600436106101765760003560e01c8063a3d4926e116100d8578063db90e83c1161008c578063f242432a11610066578063f242432a146103f0578063f5d4c82014610403578063fa4e12d71461041657610176565b8063db90e83c1461036c578063e985e9c514610394578063eaec5f81146103dd57610176565b8063bd7a6c41116100bd578063bd7a6c4114610333578063ce0b514b14610346578063d7a0ad901461035957610176565b8063a3d4926e1461030d578063a3f091f51461032057610176565b80632eb2c2d61161012f5780634e1273f4116101145780634e1273f4146102d25780636c0360eb146102f2578063a22cb465146102fa57610176565b80632eb2c2d6146102aa578063437ecbe9146102bf57610176565b806306fdde031161016057806306fdde031461024c5780630e89341c146102615780632d0335ab1461027457610176565b8062fdd58e1461020357806301ffc9a714610229575b6040517f08c379a000000000000000000000000000000000000000000000000000000000815260206004820152603460248201527f455243313135354d6574614d696e744275726e5061636b656442616c616e636560448201527f4d6f636b3a20494e56414c49445f4d4554484f4400000000000000000000000060648201526084015b60405180910390fd5b610216610211366004613645565b610429565b6040519081526020015b60405180910390f35b61023c61023736600461369f565b610480565b6040519015158152602001610220565b61025461048b565b604051610220919061372a565b61025461026f36600461373d565b610519565b610216610282366004613756565b73ffffffffffffffffffffffffffffffffffffffff1660009081526002602052604090205490565b6102bd6102b8366004613917565b61054d565b005b6102bd6102cd3660046139c5565b6106f1565b6102e56102e03660046139fa565b610701565b6040516102209190613af7565b6102546109fb565b6102bd610308366004613b18565b610a08565b6102bd61031b366004613b51565b610a9f565b6102bd61032e366004613c12565b610cf7565b6102bd610341366004613c75565b610d09565b6102bd610354366004613ceb565b610d14565b6102bd610367366004613d65565b610e84565b61037f61037a36600461373d565b610e90565b60408051928352602083019190915201610220565b61023c6103a2366004613df4565b73ffffffffffffffffffffffffffffffffffffffff918216600090815260016020908152604080832093909416825291909152205460ff1690565b6102166103eb366004613e22565b610eca565b6102bd6103fe366004613e44565b610ef8565b6102bd610411366004613ead565b611095565b61023c610424366004613f1c565b6111ec565b600080600061043784610e90565b73ffffffffffffffffffffffffffffffffffffffff871660009081526020818152604080832085845290915290205491935091506104759082610eca565b925050505b92915050565b600061047a82611a35565b6004805461049890613f6d565b80601f01602080910402602001604051908101604052809291908181526020018280546104c490613f6d565b80156105115780601f106104e657610100808354040283529160200191610511565b820191906000526020600020905b8154815290600101906020018083116104f457829003601f168201915b505050505081565b6060600361052683611a91565b604051602001610537929190613fdc565b6040516020818303038152906040529050919050565b3373ffffffffffffffffffffffffffffffffffffffff861614806105a1575073ffffffffffffffffffffffffffffffffffffffff8516600090815260016020908152604080832033845290915290205460ff165b61062d576040517f08c379a000000000000000000000000000000000000000000000000000000000815260206004820152603c60248201527f455243313135355061636b656442616c616e636523736166654261746368547260448201527f616e7366657246726f6d3a20494e56414c49445f4f50455241544f520000000060648201526084016101fa565b73ffffffffffffffffffffffffffffffffffffffff84166106d0576040517f08c379a000000000000000000000000000000000000000000000000000000000815260206004820152603d60248201527f455243313135355061636b656442616c616e636523736166654261746368547260448201527f616e7366657246726f6d3a20494e56414c49445f524543495049454e5400000060648201526084016101fa565b6106dc85858585611bde565b6106ea858585855a86612041565b5050505050565b6106fc8383836121e6565b505050565b81518151606091908114610797576040517f08c379a000000000000000000000000000000000000000000000000000000000815260206004820152603960248201527f455243313135355061636b656442616c616e63652362616c616e63654f66426160448201527f7463683a20494e56414c49445f41525241595f4c454e4754480000000000000060648201526084016101fa565b6000806107bd856000815181106107b0576107b06140e9565b6020026020010151610e90565b915091506000806000886000815181106107d9576107d96140e9565b602002602001015173ffffffffffffffffffffffffffffffffffffffff1673ffffffffffffffffffffffffffffffffffffffff1681526020019081526020016000206000848152602001908152602001600020549050600083905060008567ffffffffffffffff81111561084f5761084f613773565b604051908082528060200260200182016040528015610878578160200160208202803683370190505b5090506108858385610eca565b81600081518110610898576108986140e9565b602090810291909101015260015b868110156109ee576108c38982815181106107b0576107b06140e9565b9096509450828614158061094157508981815181106108e4576108e46140e9565b602002602001015173ffffffffffffffffffffffffffffffffffffffff168a6001836109109190614147565b81518110610920576109206140e9565b602002602001015173ffffffffffffffffffffffffffffffffffffffff1614155b156109b5576000808b838151811061095b5761095b6140e9565b602002602001015173ffffffffffffffffffffffffffffffffffffffff1673ffffffffffffffffffffffffffffffffffffffff16815260200190815260200160002060008781526020019081526020016000205493508592505b6109bf8486610eca565b8282815181106109d1576109d16140e9565b6020908102919091010152806109e68161415a565b9150506108a6565b5098975050505050505050565b6003805461049890613f6d565b33600081815260016020908152604080832073ffffffffffffffffffffffffffffffffffffffff87168085529083529281902080547fffffffffffffffffffffffffffffffffffffffffffffffffffffffffffffff001686151590811790915590519081529192917f17307eab39ab6107e8899845ad3d59bd9653f200f220920489ca2b5937696c31910160405180910390a35050565b73ffffffffffffffffffffffffffffffffffffffff8516610b68576040517f08c379a000000000000000000000000000000000000000000000000000000000815260206004820152604560248201527f455243313135354d6574615061636b656442616c616e6365236d65746153616660448201527f6542617463685472616e7366657246726f6d3a20494e56414c49445f5245434960648201527f5049454e54000000000000000000000000000000000000000000000000000000608482015260a4016101fa565b6060610bab60405180608001604052806000815260200160008152602001600073ffffffffffffffffffffffffffffffffffffffff168152602001606081525090565b6000610c8d89857fa3d4926e8cf8fe8e020cd29f514c256bc2eec62aa2337e415f1a33a4828af5a060001b8c8c8c604051602001610be99190614192565b604051602081830303815290604052805190602001208c604051602001610c109190614192565b604051602081830303815290604052805190602001208c610c32576000610c35565b60015b60408051602081019790975273ffffffffffffffffffffffffffffffffffffffff95861690870152939092166060850152608084015260a083015260c082015260e0015b60405160208183030381529060405261224e565b9050610c9b89898989611bde565b8415610cde5780806020019051810190610cb5919061429c565b8094508193505050610ccf89898989866020015188612041565b610cd989836124e0565b610cec565b610cec898989895a86612041565b505050505050505050565b610d0384848484612853565b50505050565b6106fc8383836128c5565b73ffffffffffffffffffffffffffffffffffffffff8516610db957604080517f08c379a00000000000000000000000000000000000000000000000000000000081526020600482015260248101919091527f455243313135354d6574615061636b656442616c616e6365236d65746153616660448201527f655472616e7366657246726f6d3a20494e56414c49445f524543495049454e5460648201526084016101fa565b6060610dfc60405180608001604052806000815260200160008152602001600073ffffffffffffffffffffffffffffffffffffffff168152602001606081525090565b6000610e3489857fce0b514b3931bdbe4d5d44e4f035afe7113767b7db71949271f6a62d9c60f558828c8c8c8c610c32576000610c35565b9050610e4289898989612a39565b8415610e765780806020019051810190610e5c919061429c565b8094508193505050610ccf89898989866020015188612aa8565b610cec898989895a86612aa8565b610d0384848484612c4d565b600080610ea06020610100614325565b610eaa9084614325565b9150610eb96020610100614325565b610ec39084614339565b9050915091565b600080610edd6001640100000000614147565b90506000610eec84602061434d565b9490941c169392505050565b3373ffffffffffffffffffffffffffffffffffffffff86161480610f4c575073ffffffffffffffffffffffffffffffffffffffff8516600090815260016020908152604080832033845290915290205460ff165b610fd8576040517f08c379a000000000000000000000000000000000000000000000000000000000815260206004820152603760248201527f455243313135355061636b656442616c616e636523736166655472616e73666560448201527f7246726f6d3a20494e56414c49445f4f50455241544f5200000000000000000060648201526084016101fa565b73ffffffffffffffffffffffffffffffffffffffff841661107b576040517f08c379a000000000000000000000000000000000000000000000000000000000815260206004820152603860248201527f455243313135355061636b656442616c616e636523736166655472616e73666560448201527f7246726f6d3a20494e56414c49445f524543495049454e54000000000000000060648201526084016101fa565b61108785858585612a39565b6106ea858585855a86612aa8565b600061112086837ff5d4c820494c8595de274c7ff619bead38aac4fbc3d143b5bf956aa4b84fa5248289896110cb5760006110ce565b60015b896110da5760006110dd565b60015b60408051602081019690965273ffffffffffffffffffffffffffffffffffffffff94851690860152929091166060840152608083015260a082015260c001610c79565b73ffffffffffffffffffffffffffffffffffffffff8781166000818152600160209081526040808320948b168084529482529182902080547fffffffffffffffffffffffffffffffffffffffffffffffffffffffffffffff00168a15159081179091559151918252939450919290917f17307eab39ab6107e8899845ad3d59bd9653f200f220920489ca2b5937696c31910160405180910390a382156111e4576000818060200190518101906111d69190614364565b90506111e287826124e0565b505b505050505050565b6000808251116112a4576040517f08c379a000000000000000000000000000000000000000000000000000000000815260206004820152604360248201527f5369676e617475726556616c696461746f7223697356616c69645369676e617460448201527f7572653a204c454e4754485f475245415445525f5448414e5f305f524551554960648201527f5245440000000000000000000000000000000000000000000000000000000000608482015260a4016101fa565b73ffffffffffffffffffffffffffffffffffffffff8516611347576040517f08c379a000000000000000000000000000000000000000000000000000000000815260206004820152603360248201527f5369676e617475726556616c696461746f7223697356616c69645369676e617460448201527f7572653a20494e56414c49445f5349474e45520000000000000000000000000060648201526084016101fa565b600061135283612eae565b60f81c9050600581106113e7576040517f08c379a000000000000000000000000000000000000000000000000000000000815260206004820152603a60248201527f5369676e617475726556616c696461746f7223697356616c69645369676e617460448201527f7572653a20554e535550504f525445445f5349474e415455524500000000000060648201526084016101fa565b60008160ff1660058111156113fe576113fe614399565b905060008080808085600581111561141857611418614399565b036114a5576040517f08c379a000000000000000000000000000000000000000000000000000000000815260206004820152603660248201527f5369676e617475726556616c696461746f7223697356616c69645369676e617460448201527f7572653a20494c4c4547414c5f5349474e41545552450000000000000000000060648201526084016101fa565b60018560058111156114b9576114b9614399565b0361162b57875160611461154f576040517f08c379a000000000000000000000000000000000000000000000000000000000815260206004820152603760248201527f5369676e617475726556616c696461746f7223697356616c69645369676e617460448201527f7572653a204c454e4754485f39375f524551554952454400000000000000000060648201526084016101fa565b61155a886000612fb1565b9250611567886020612fb1565b91508760408151811061157c5761157c6140e9565b0160209081015160408051600081529283018082528d905260f89190911c9082018190526060820185905260808201849052945060019060a0015b6020604051602081039080840390855afa1580156115d9573d6000803e3d6000fd5b50506040517fffffffffffffffffffffffffffffffffffffffffffffffffffffffffffffffe0015173ffffffffffffffffffffffffffffffffffffffff8d81169116149750611a2d9650505050505050565b600285600581111561163f5761163f614399565b036117a55787516061146116d5576040517f08c379a000000000000000000000000000000000000000000000000000000000815260206004820152603760248201527f5369676e617475726556616c696461746f7223697356616c69645369676e617460448201527f7572653a204c454e4754485f39375f524551554952454400000000000000000060648201526084016101fa565b6116e0886000612fb1565b92506116ed886020612fb1565b915087604081518110611702576117026140e9565b016020908101516040517f19457468657265756d205369676e6564204d6573736167653a0a33320000000092810192909252603c82018c905260f81c9450600190605c01604080517fffffffffffffffffffffffffffffffffffffffffffffffffffffffffffffffe08184030181528282528051602091820120600084529083018083525260ff871690820152606081018590526080810184905260a0016115b7565b60038560058111156117b9576117b9614399565b036118a5576040517f20c13b0b00000000000000000000000000000000000000000000000000000000815273ffffffffffffffffffffffffffffffffffffffff8c16906320c13b0b90611812908c908c906004016143c8565b602060405180830381865afa15801561182f573d6000803e3d6000fd5b505050506040513d601f19601f8201168201806040525081019061185391906143ed565b7fffffffff00000000000000000000000000000000000000000000000000000000167f20c13b0b00000000000000000000000000000000000000000000000000000000149650611a2d95505050505050565b60048560058111156118b9576118b9614399565b036119a5576040517f1626ba7e00000000000000000000000000000000000000000000000000000000815273ffffffffffffffffffffffffffffffffffffffff8c1690631626ba7e90611912908d908c9060040161440a565b602060405180830381865afa15801561192f573d6000803e3d6000fd5b505050506040513d601f19601f8201168201806040525081019061195391906143ed565b7fffffffff00000000000000000000000000000000000000000000000000000000167f1626ba7e00000000000000000000000000000000000000000000000000000000149650611a2d95505050505050565b6040517f08c379a000000000000000000000000000000000000000000000000000000000815260206004820152603a60248201527f5369676e617475726556616c696461746f7223697356616c69645369676e617460448201527f7572653a20554e535550504f525445445f5349474e415455524500000000000060648201526084016101fa565b949350505050565b60007ff176cbe4000000000000000000000000000000000000000000000000000000007fffffffff00000000000000000000000000000000000000000000000000000000831601611a8857506001919050565b61047a82613064565b606081600003611ad457505060408051808201909152600181527f3000000000000000000000000000000000000000000000000000000000000000602082015290565b818060005b8215611aff5780611ae98161415a565b9150611af89050600a84614325565b9250611ad9565b60008167ffffffffffffffff811115611b1a57611b1a613773565b6040519080825280601f01601f191660200182016040528015611b44576020820181803683370190505b5090506000611b54600184614147565b90505b8315611bd457611b68600a85614339565b611b73906030614423565b60f81b8282611b8181614436565b935081518110611b9357611b936140e9565b60200101907effffffffffffffffffffffffffffffffffffffffffffffffffffffffffffff1916908160001a905350611bcd600a85614325565b9350611b57565b5095945050505050565b815181518114611c96576040517f08c379a000000000000000000000000000000000000000000000000000000000815260206004820152604260248201527f455243313135355061636b656442616c616e6365235f7361666542617463685460448201527f72616e7366657246726f6d3a20494e56414c49445f4152524159535f4c454e4760648201527f5448000000000000000000000000000000000000000000000000000000000000608482015260a4016101fa565b8373ffffffffffffffffffffffffffffffffffffffff168573ffffffffffffffffffffffffffffffffffffffff1614158015611cd25750600081115b15611ed257600080611cf0856000815181106107b0576107b06140e9565b73ffffffffffffffffffffffffffffffffffffffff8916600090815260208181526040808320858452909152812054875193955091935091611d4e9190849088908590611d3f57611d3f6140e9565b60200260200101516001613101565b73ffffffffffffffffffffffffffffffffffffffff881660009081526020818152604080832087845290915281205487519293509091611daa9190859089908590611d9b57611d9b6140e9565b60200260200101516000613101565b90508360015b86811015611e8057611dcd8982815181106107b0576107b06140e9565b9096509450818614611e3c5773ffffffffffffffffffffffffffffffffffffffff8b811660009081526020818152604080832086845280835281842098909855928d16825281815282822094825284815282822095909555878152948452808520549290935291909220549084905b611e5384868a8481518110611d3f57611d3f6140e9565b9350611e6c83868a8481518110611d9b57611d9b6140e9565b925080611e788161415a565b915050611db0565b505073ffffffffffffffffffffffffffffffffffffffff808a16600090815260208181526040808320888452825280832095909555918a16815280825283812095815294905292209190915550611fbc565b60005b81811015611fba57828181518110611eef57611eef6140e9565b6020026020010151611f1a87868481518110611f0d57611f0d6140e9565b6020026020010151610429565b1015611fa8576040517f08c379a000000000000000000000000000000000000000000000000000000000815260206004820152603660248201527f455243313135355061636b656442616c616e6365235f7361666542617463685460448201527f72616e7366657246726f6d3a20554e444552464c4f570000000000000000000060648201526084016101fa565b80611fb28161415a565b915050611ed5565b505b8373ffffffffffffffffffffffffffffffffffffffff168573ffffffffffffffffffffffffffffffffffffffff163373ffffffffffffffffffffffffffffffffffffffff167f4a39dc06d4c0dbc64b70af90fd698a233a518aa5d07e595d983b8c0526c8f7fb868660405161203292919061446b565b60405180910390a45050505050565b6120608573ffffffffffffffffffffffffffffffffffffffff1661348c565b156111e45760008573ffffffffffffffffffffffffffffffffffffffff1663bc197c8184338a8989886040518763ffffffff1660e01b81526004016120a9959493929190614490565b60206040518083038160008887f11580156120c8573d6000803e3d6000fd5b50505050506040513d601f19601f820116820180604052508101906120ed91906143ed565b90507fffffffff0000000000000000000000000000000000000000000000000000000081167fbc197c8100000000000000000000000000000000000000000000000000000000146111e2576040517f08c379a000000000000000000000000000000000000000000000000000000000815260206004820152604c60248201527f455243313135355061636b656442616c616e6365235f63616c6c6f6e4552433160448201527f313535426174636852656365697665643a20494e56414c49445f4f4e5f52454360648201527f454956455f4d4553534147450000000000000000000000000000000000000000608482015260a4016101fa565b6121f383838360016134c6565b604080518381526020810183905260009173ffffffffffffffffffffffffffffffffffffffff86169133917fc3d58168c5ae7397731d063d5bbf3d657854427343f4c083240f7aacaa2d0f62910160405180910390a4505050565b6060808380602001905181019061226591906144fb565b73ffffffffffffffffffffffffffffffffffffffff87166000908152600260205260408120549194509192509061229d836041612fb1565b90508181108015906122b857506122b5826064614423565b81105b612344576040517f08c379a000000000000000000000000000000000000000000000000000000000815260206004820152603c60248201527f455243313135354d6574615061636b656442616c616e6365235f7369676e617460448201527f75726556616c69646174696f6e3a20494e56414c49445f4e4f4e43450000000060648201526084016101fa565b60006123808683878051906020012060405160200161236593929190614532565b6040516020818303038152906040528051906020012061354d565b9050600086838760405160200161239993929190614559565b604080517fffffffffffffffffffffffffffffffffffffffffffffffffffffffffffffffe081840301815291905290506123d4836001614423565b73ffffffffffffffffffffffffffffffffffffffff8a166000818152600260205260409020919091557fb861b7bdbe611a846ab271b8d2810391bc8b5a968f390c322438ecab66bccf59612429856001614423565b60405190815260200160405180910390a2612446898383886111ec565b6124d457604080517f08c379a00000000000000000000000000000000000000000000000000000000081526020600482015260248101919091527f455243313135354d6574615061636b656442616c616e6365235f7369676e617460448201527f75726556616c69646174696f6e3a20494e56414c49445f5349474e415455524560648201526084016101fa565b50505050509392505050565b60006124ef8260600151612eae565b60f81c905060028110612584576040517f08c379a000000000000000000000000000000000000000000000000000000000815260206004820152603b60248201527f455243313135354d6574615061636b656442616c616e6365235f7472616e736660448201527f65724761734665653a20554e535550504f525445445f544f4b454e000000000060648201526084016101fa565b60008160ff16600281111561259b5761259b614399565b835160408501519192506000918291829173ffffffffffffffffffffffffffffffffffffffff16156125d15786604001516125d3565b335b925060008560028111156125e9576125e9614399565b036127005786606001518060200190518101906126069190614590565b90945091503073ffffffffffffffffffffffffffffffffffffffff8516036126565761263488848484612a39565b6126518884845a8560405180602001604052806000815250612aa8565b612849565b6040517ff242432a00000000000000000000000000000000000000000000000000000000815273ffffffffffffffffffffffffffffffffffffffff89811660048301528481166024830152604482018490526064820183905260a06084830152600060a483015285169063f242432a9060c401600060405180830381600087803b1580156126e357600080fd5b505af11580156126f7573d6000803e3d6000fd5b50505050612849565b866060015180602001905181019061271891906145be565b6040517f23b872dd00000000000000000000000000000000000000000000000000000000815273ffffffffffffffffffffffffffffffffffffffff8a81166004830152858116602483015260448201849052919550908516906323b872dd906064016020604051808303816000875af1158015612799573d6000803e3d6000fd5b505050506040513d601f19601f820116820180604052508101906127bd91906145db565b612849576040517f08c379a000000000000000000000000000000000000000000000000000000000815260206004820152603f60248201527f455243313135354d6574615061636b656442616c616e6365235f7472616e736660448201527f65724761734665653a2045524332305f5452414e534645525f4641494c45440060648201526084016101fa565b5050505050505050565b61286084848460006134c6565b604080518481526020810184905273ffffffffffffffffffffffffffffffffffffffff86169160009133917fc3d58168c5ae7397731d063d5bbf3d657854427343f4c083240f7aacaa2d0f62910160405180910390a4610d0360008585855a86612aa8565b815181518114612957576040517f08c379a000000000000000000000000000000000000000000000000000000000815260206004820152603d60248201527f455243313135354d696e744275726e5061636b656442616c616e63652362617460448201527f63684275726e3a20494e56414c49445f4152524159535f4c454e47544800000060648201526084016101fa565b60005b818110156129b3576129a185858381518110612978576129786140e9565b6020026020010151858481518110612992576129926140e9565b602002602001015160016134c6565b806129ab8161415a565b91505061295a565b50600073ffffffffffffffffffffffffffffffffffffffff168473ffffffffffffffffffffffffffffffffffffffff163373ffffffffffffffffffffffffffffffffffffffff167f4a39dc06d4c0dbc64b70af90fd698a233a518aa5d07e595d983b8c0526c8f7fb8686604051612a2b92919061446b565b60405180910390a450505050565b612a4684838360016134c6565b612a5383838360006134c6565b604080518381526020810183905273ffffffffffffffffffffffffffffffffffffffff808616929087169133917fc3d58168c5ae7397731d063d5bbf3d657854427343f4c083240f7aacaa2d0f629101612a2b565b612ac78573ffffffffffffffffffffffffffffffffffffffff1661348c565b156111e45760008573ffffffffffffffffffffffffffffffffffffffff1663f23a6e6184338a8989886040518763ffffffff1660e01b8152600401612b109594939291906145f8565b60206040518083038160008887f1158015612b2f573d6000803e3d6000fd5b50505050506040513d601f19601f82011682018060405250810190612b5491906143ed565b90507fffffffff0000000000000000000000000000000000000000000000000000000081167ff23a6e6100000000000000000000000000000000000000000000000000000000146111e2576040517f08c379a000000000000000000000000000000000000000000000000000000000815260206004820152604760248201527f455243313135355061636b656442616c616e6365235f63616c6c6f6e4552433160448201527f31353552656365697665643a20494e56414c49445f4f4e5f524543454956455f60648201527f4d45535341474500000000000000000000000000000000000000000000000000608482015260a4016101fa565b8151835114612cde576040517f08c379a000000000000000000000000000000000000000000000000000000000815260206004820152603e60248201527f455243313135354d696e744275726e5061636b656442616c616e6365235f626160448201527f7463684d696e743a20494e56414c49445f4152524159535f4c454e475448000060648201526084016101fa565b825115612e2057600080612cfe856000815181106107b0576107b06140e9565b73ffffffffffffffffffffffffffffffffffffffff8816600090815260208181526040808320858452909152812054875193955091935091612d4d9190849088908590611d9b57611d9b6140e9565b86519091508360015b82811015612de757612d738982815181106107b0576107b06140e9565b9096509450818614612dbc5773ffffffffffffffffffffffffffffffffffffffff8a16600090815260208181526040808320948352939052828120949094558584529220549184905b612dd384868a8481518110611d9b57611d9b6140e9565b935080612ddf8161415a565b915050612d56565b50505073ffffffffffffffffffffffffffffffffffffffff87166000908152602081815260408083209583529490529290922091909155505b8373ffffffffffffffffffffffffffffffffffffffff16600073ffffffffffffffffffffffffffffffffffffffff163373ffffffffffffffffffffffffffffffffffffffff167f4a39dc06d4c0dbc64b70af90fd698a233a518aa5d07e595d983b8c0526c8f7fb8686604051612e9792919061446b565b60405180910390a4610d0360008585855a86612041565b600080825111612f40576040517f08c379a000000000000000000000000000000000000000000000000000000000815260206004820152603760248201527f4c6962427974657323706f704c617374427974653a20475245415445525f544860448201527f414e5f5a45524f5f4c454e4754485f524551554952454400000000000000000060648201526084016101fa565b8160018351612f4f9190614147565b81518110612f5f57612f5f6140e9565b016020015182517fffffffffffffffffffffffffffffffffffffffffffffffffffffffffffffffff01909252507fff000000000000000000000000000000000000000000000000000000000000001690565b6000612fbe826020614423565b8351101561304e576040517f08c379a000000000000000000000000000000000000000000000000000000000815260206004820152603c60248201527f4c696242797465732372656164427974657333323a20475245415445525f4f5260448201527f5f455155414c5f544f5f33325f4c454e4754485f52455155495245440000000060648201526084016101fa565b613059602083614423565b929092015192915050565b60007f264985da000000000000000000000000000000000000000000000000000000007fffffffff000000000000000000000000000000000000000000000000000000008316016130b757506001919050565b7f01ffc9a7000000000000000000000000000000000000000000000000000000007fffffffff0000000000000000000000000000000000000000000000000000000083161461047a565b60008061310f85602061434d565b905060006131236001640100000000614147565b9050600084600181111561313957613139614399565b036132885761314a85831b88614423565b9250868310156131dc576040517f08c379a000000000000000000000000000000000000000000000000000000000815260206004820152603260248201527f455243313135355061636b656442616c616e6365235f7669657755706461746560448201527f42696e56616c75653a204f564552464c4f57000000000000000000000000000060648201526084016101fa565b6131e860206002614768565b6131f68689851c8416614423565b10613283576040517f08c379a000000000000000000000000000000000000000000000000000000000815260206004820152603260248201527f455243313135355061636b656442616c616e6365235f7669657755706461746560448201527f42696e56616c75653a204f564552464c4f57000000000000000000000000000060648201526084016101fa565b613482565b600184600181111561329c5761329c614399565b036133d4576132ad85831b88614147565b92508683111561333f576040517f08c379a000000000000000000000000000000000000000000000000000000000815260206004820152603360248201527f455243313135355061636b656442616c616e6365235f7669657755706461746560448201527f42696e56616c75653a20554e444552464c4f570000000000000000000000000060648201526084016101fa565b84818389901c161015613283576040517f08c379a000000000000000000000000000000000000000000000000000000000815260206004820152603360248201527f455243313135355061636b656442616c616e6365235f7669657755706461746560448201527f42696e56616c75653a20554e444552464c4f570000000000000000000000000060648201526084016101fa565b6040517f08c379a000000000000000000000000000000000000000000000000000000000815260206004820152604560248201527f455243313135355061636b656442616c616e6365235f7669657755706461746560448201527f42696e56616c75653a20494e56414c49445f42494e5f57524954455f4f50455260648201527f4154494f4e000000000000000000000000000000000000000000000000000000608482015260a4016101fa565b5050949350505050565b6000813f80158015906134bf57507fc5d2460186f7233c927e7db2dcc703c0e500b653ca82273b7bfad8045d85a4708114155b9392505050565b6000806134d285610e90565b73ffffffffffffffffffffffffffffffffffffffff8816600090815260208181526040808320858452909152902054919350915061351290828686613101565b73ffffffffffffffffffffffffffffffffffffffff909616600090815260208181526040808320948352939052919091209490945550505050565b60006040518060400160405280600281526020017f19010000000000000000000000000000000000000000000000000000000000008152507f035aff83d86937d35b32e04f0ddc6ff469290eef2f1b692d8a815c89404d474960001b306040516020016135da92919091825273ffffffffffffffffffffffffffffffffffffffff16602082015260400190565b604051602081830303815290604052805190602001208360405160200161360393929190614532565b604051602081830303815290604052805190602001209050919050565b73ffffffffffffffffffffffffffffffffffffffff8116811461364257600080fd5b50565b6000806040838503121561365857600080fd5b823561366381613620565b946020939093013593505050565b7fffffffff000000000000000000000000000000000000000000000000000000008116811461364257600080fd5b6000602082840312156136b157600080fd5b81356134bf81613671565b60005b838110156136d75781810151838201526020016136bf565b50506000910152565b600081518084526136f88160208601602086016136bc565b601f017fffffffffffffffffffffffffffffffffffffffffffffffffffffffffffffffe0169290920160200192915050565b6020815260006134bf60208301846136e0565b60006020828403121561374f57600080fd5b5035919050565b60006020828403121561376857600080fd5b81356134bf81613620565b7f4e487b7100000000000000000000000000000000000000000000000000000000600052604160045260246000fd5b604051601f82017fffffffffffffffffffffffffffffffffffffffffffffffffffffffffffffffe016810167ffffffffffffffff811182821017156137e9576137e9613773565b604052919050565b600067ffffffffffffffff82111561380b5761380b613773565b5060051b60200190565b600082601f83011261382657600080fd5b8135602061383b613836836137f1565b6137a2565b82815260059290921b8401810191818101908684111561385a57600080fd5b8286015b84811015613875578035835291830191830161385e565b509695505050505050565b600067ffffffffffffffff82111561389a5761389a613773565b50601f017fffffffffffffffffffffffffffffffffffffffffffffffffffffffffffffffe01660200190565b600082601f8301126138d757600080fd5b81356138e561383682613880565b8181528460208386010111156138fa57600080fd5b816020850160208301376000918101602001919091529392505050565b600080600080600060a0868803121561392f57600080fd5b853561393a81613620565b9450602086013561394a81613620565b9350604086013567ffffffffffffffff8082111561396757600080fd5b61397389838a01613815565b9450606088013591508082111561398957600080fd5b61399589838a01613815565b935060808801359150808211156139ab57600080fd5b506139b8888289016138c6565b9150509295509295909350565b6000806000606084860312156139da57600080fd5b83356139e581613620565b95602085013595506040909401359392505050565b60008060408385031215613a0d57600080fd5b823567ffffffffffffffff80821115613a2557600080fd5b818501915085601f830112613a3957600080fd5b81356020613a49613836836137f1565b82815260059290921b84018101918181019089841115613a6857600080fd5b948201945b83861015613a8f578535613a8081613620565b82529482019490820190613a6d565b96505086013592505080821115613aa557600080fd5b50613ab285828601613815565b9150509250929050565b600081518084526020808501945080840160005b83811015613aec57815187529582019590820190600101613ad0565b509495945050505050565b6020815260006134bf6020830184613abc565b801515811461364257600080fd5b60008060408385031215613b2b57600080fd5b8235613b3681613620565b91506020830135613b4681613b0a565b809150509250929050565b60008060008060008060c08789031215613b6a57600080fd5b8635613b7581613620565b95506020870135613b8581613620565b9450604087013567ffffffffffffffff80821115613ba257600080fd5b613bae8a838b01613815565b95506060890135915080821115613bc457600080fd5b613bd08a838b01613815565b945060808901359150613be282613b0a565b90925060a08801359080821115613bf857600080fd5b50613c0589828a016138c6565b9150509295509295509295565b60008060008060808587031215613c2857600080fd5b8435613c3381613620565b93506020850135925060408501359150606085013567ffffffffffffffff811115613c5d57600080fd5b613c69878288016138c6565b91505092959194509250565b600080600060608486031215613c8a57600080fd5b8335613c9581613620565b9250602084013567ffffffffffffffff80821115613cb257600080fd5b613cbe87838801613815565b93506040860135915080821115613cd457600080fd5b50613ce186828701613815565b9150509250925092565b60008060008060008060c08789031215613d0457600080fd5b8635613d0f81613620565b95506020870135613d1f81613620565b945060408701359350606087013592506080870135613d3d81613b0a565b915060a087013567ffffffffffffffff811115613d5957600080fd5b613c0589828a016138c6565b60008060008060808587031215613d7b57600080fd5b8435613d8681613620565b9350602085013567ffffffffffffffff80821115613da357600080fd5b613daf88838901613815565b94506040870135915080821115613dc557600080fd5b613dd188838901613815565b93506060870135915080821115613de757600080fd5b50613c69878288016138c6565b60008060408385031215613e0757600080fd5b8235613e1281613620565b91506020830135613b4681613620565b60008060408385031215613e3557600080fd5b50508035926020909101359150565b600080600080600060a08688031215613e5c57600080fd5b8535613e6781613620565b94506020860135613e7781613620565b93506040860135925060608601359150608086013567ffffffffffffffff811115613ea157600080fd5b6139b8888289016138c6565b600080600080600060a08688031215613ec557600080fd5b8535613ed081613620565b94506020860135613ee081613620565b93506040860135613ef081613b0a565b92506060860135613f0081613b0a565b9150608086013567ffffffffffffffff811115613ea157600080fd5b60008060008060808587031215613f3257600080fd5b8435613f3d81613620565b935060208501359250604085013567ffffffffffffffff80821115613f6157600080fd5b613dd1888389016138c6565b600181811c90821680613f8157607f821691505b602082108103613fba577f4e487b7100000000000000000000000000000000000000000000000000000000600052602260045260246000fd5b50919050565b60008151613fd28185602086016136bc565b9290920192915050565b600080845481600182811c915080831680613ff857607f831692505b60208084108203614030577f4e487b710000000000000000000000000000000000000000000000000000000086526022600452602486fd5b8180156140445760018114614077576140a4565b7fffffffffffffffffffffffffffffffffffffffffffffffffffffffffffffff00861689528415158502890196506140a4565b60008b81526020902060005b8681101561409c5781548b820152908501908301614083565b505084890196505b5050505050506140e06140b78286613fc0565b7f2e6a736f6e000000000000000000000000000000000000000000000000000000815260050190565b95945050505050565b7f4e487b7100000000000000000000000000000000000000000000000000000000600052603260045260246000fd5b7f4e487b7100000000000000000000000000000000000000000000000000000000600052601160045260246000fd5b8181038181111561047a5761047a614118565b60007fffffffffffffffffffffffffffffffffffffffffffffffffffffffffffffffff820361418b5761418b614118565b5060010190565b815160009082906020808601845b838110156141bc578151855293820193908201906001016141a0565b50929695505050505050565b600082601f8301126141d957600080fd5b81516141e761383682613880565b8181528460208386010111156141fc57600080fd5b611a2d8260208301602087016136bc565b60006080828403121561421f57600080fd5b6040516080810167ffffffffffffffff828210818311171561424357614243613773565b8160405282935084518352602085015160208401526040850151915061426882613620565b816040840152606085015191508082111561428257600080fd5b5061428f858286016141c8565b6060830152505092915050565b600080604083850312156142af57600080fd5b825167ffffffffffffffff808211156142c757600080fd5b6142d38683870161420d565b935060208501519150808211156142e957600080fd5b50613ab2858286016141c8565b7f4e487b7100000000000000000000000000000000000000000000000000000000600052601260045260246000fd5b600082614334576143346142f6565b500490565b600082614348576143486142f6565b500690565b808202811582820484141761047a5761047a614118565b60006020828403121561437657600080fd5b815167ffffffffffffffff81111561438d57600080fd5b611a2d8482850161420d565b7f4e487b7100000000000000000000000000000000000000000000000000000000600052602160045260246000fd5b6040815260006143db60408301856136e0565b82810360208401526140e081856136e0565b6000602082840312156143ff57600080fd5b81516134bf81613671565b828152604060208201526000611a2d60408301846136e0565b8082018082111561047a5761047a614118565b60008161444557614445614118565b507fffffffffffffffffffffffffffffffffffffffffffffffffffffffffffffffff0190565b60408152600061447e6040830185613abc565b82810360208401526140e08185613abc565b600073ffffffffffffffffffffffffffffffffffffffff808816835280871660208401525060a060408301526144c960a0830186613abc565b82810360608401526144db8186613abc565b905082810360808401526144ef81856136e0565b98975050505050505050565b6000806040838503121561450e57600080fd5b825167ffffffffffffffff8082111561452657600080fd5b6142d3868387016141c8565b600084516145448184602089016136bc565b91909101928352506020820152604001919050565b6000845161456b8184602089016136bc565b820184815283516145838160208085019088016136bc565b0160200195945050505050565b600080604083850312156145a357600080fd5b82516145ae81613620565b6020939093015192949293505050565b6000602082840312156145d057600080fd5b81516134bf81613620565b6000602082840312156145ed57600080fd5b81516134bf81613b0a565b600073ffffffffffffffffffffffffffffffffffffffff808816835280871660208401525084604083015283606083015260a0608083015261463d60a08301846136e0565b979650505050505050565b600181815b808511156146a157817fffffffffffffffffffffffffffffffffffffffffffffffffffffffffffffffff0482111561468757614687614118565b8085161561469457918102915b93841c939080029061464d565b509250929050565b6000826146b85750600161047a565b816146c55750600061047a565b81600181146146db57600281146146e557614701565b600191505061047a565b60ff8411156146f6576146f6614118565b50506001821b61047a565b5060208310610133831016604e8410600b8410161715614724575081810a61047a565b61472e8383614648565b807fffffffffffffffffffffffffffffffffffffffffffffffffffffffffffffffff0482111561476057614760614118565b029392505050565b60006134bf83836146a956fea264697066735822122008bb7cbd74b628e5b19b8c41c1b05a9f8301e185fdfd3edead06ed266b99a6de64736f6c63430008120033",
  "linkReferences": {},
  "deployedLinkReferences": {}
}