{
  "_format": "hh-sol-artifact-1",
  "contractName": "ERC1155MetaMintBurnPackedBalanceMock",
  "sourceName": "contracts/mocks/ERC1155MetaMintBurnPackedBalanceMock.sol",
  "abi": [
    {
      "anonymous": false,
      "inputs": [
        {
          "indexed": true,
          "internalType": "address",
          "name": "_owner",
          "type": "address"
        },
        {
          "indexed": true,
          "internalType": "address",
          "name": "_operator",
          "type": "address"
        },
        {
          "indexed": false,
          "internalType": "bool",
          "name": "_approved",
          "type": "bool"
        }
      ],
      "name": "ApprovalForAll",
      "type": "event"
    },
    {
      "anonymous": false,
      "inputs": [
        {
          "indexed": true,
          "internalType": "address",
          "name": "signer",
          "type": "address"
        },
        {
          "indexed": false,
          "internalType": "uint256",
          "name": "newNonce",
          "type": "uint256"
        }
      ],
      "name": "NonceChange",
      "type": "event"
    },
    {
      "anonymous": false,
      "inputs": [
        {
          "indexed": true,
          "internalType": "address",
          "name": "_operator",
          "type": "address"
        },
        {
          "indexed": true,
          "internalType": "address",
          "name": "_from",
          "type": "address"
        },
        {
          "indexed": true,
          "internalType": "address",
          "name": "_to",
          "type": "address"
        },
        {
          "indexed": false,
          "internalType": "uint256[]",
          "name": "_ids",
          "type": "uint256[]"
        },
        {
          "indexed": false,
          "internalType": "uint256[]",
          "name": "_amounts",
          "type": "uint256[]"
        }
      ],
      "name": "TransferBatch",
      "type": "event"
    },
    {
      "anonymous": false,
      "inputs": [
        {
          "indexed": true,
          "internalType": "address",
          "name": "_operator",
          "type": "address"
        },
        {
          "indexed": true,
          "internalType": "address",
          "name": "_from",
          "type": "address"
        },
        {
          "indexed": true,
          "internalType": "address",
          "name": "_to",
          "type": "address"
        },
        {
          "indexed": false,
          "internalType": "uint256",
          "name": "_id",
          "type": "uint256"
        },
        {
          "indexed": false,
          "internalType": "uint256",
          "name": "_amount",
          "type": "uint256"
        }
      ],
      "name": "TransferSingle",
      "type": "event"
    },
    {
      "anonymous": false,
      "inputs": [
        {
          "indexed": false,
          "internalType": "string",
          "name": "_uri",
          "type": "string"
        },
        {
          "indexed": true,
          "internalType": "uint256",
          "name": "_id",
          "type": "uint256"
        }
      ],
      "name": "URI",
      "type": "event"
    },
    {
      "stateMutability": "nonpayable",
      "type": "fallback"
    },
    {
      "inputs": [
        {
          "internalType": "address",
          "name": "_owner",
          "type": "address"
        },
        {
          "internalType": "uint256",
          "name": "_id",
          "type": "uint256"
        }
      ],
      "name": "balanceOf",
      "outputs": [
        {
          "internalType": "uint256",
          "name": "",
          "type": "uint256"
        }
      ],
      "stateMutability": "view",
      "type": "function"
    },
    {
      "inputs": [
        {
          "internalType": "address[]",
          "name": "_owners",
          "type": "address[]"
        },
        {
          "internalType": "uint256[]",
          "name": "_ids",
          "type": "uint256[]"
        }
      ],
      "name": "balanceOfBatch",
      "outputs": [
        {
          "internalType": "uint256[]",
          "name": "",
          "type": "uint256[]"
        }
      ],
      "stateMutability": "view",
      "type": "function"
    },
    {
      "inputs": [
        {
          "internalType": "address",
          "name": "_from",
          "type": "address"
        },
        {
          "internalType": "uint256[]",
          "name": "_ids",
          "type": "uint256[]"
        },
        {
          "internalType": "uint256[]",
          "name": "_values",
          "type": "uint256[]"
        }
      ],
      "name": "batchBurnMock",
      "outputs": [],
      "stateMutability": "nonpayable",
      "type": "function"
    },
    {
      "inputs": [
        {
          "internalType": "address",
          "name": "_to",
          "type": "address"
        },
        {
          "internalType": "uint256[]",
          "name": "_ids",
          "type": "uint256[]"
        },
        {
          "internalType": "uint256[]",
          "name": "_values",
          "type": "uint256[]"
        },
        {
          "internalType": "bytes",
          "name": "_data",
          "type": "bytes"
        }
      ],
      "name": "batchMintMock",
      "outputs": [],
      "stateMutability": "nonpayable",
      "type": "function"
    },
    {
      "inputs": [
        {
          "internalType": "address",
          "name": "_from",
          "type": "address"
        },
        {
          "internalType": "uint256",
          "name": "_id",
          "type": "uint256"
        },
        {
          "internalType": "uint256",
          "name": "_value",
          "type": "uint256"
        }
      ],
      "name": "burnMock",
      "outputs": [],
      "stateMutability": "nonpayable",
      "type": "function"
    },
    {
      "inputs": [
        {
          "internalType": "uint256",
          "name": "_id",
          "type": "uint256"
        }
      ],
      "name": "getIDBinIndex",
      "outputs": [
        {
          "internalType": "uint256",
          "name": "bin",
          "type": "uint256"
        },
        {
          "internalType": "uint256",
          "name": "index",
          "type": "uint256"
        }
      ],
      "stateMutability": "pure",
      "type": "function"
    },
    {
      "inputs": [
        {
          "internalType": "address",
          "name": "_signer",
          "type": "address"
        }
      ],
      "name": "getNonce",
      "outputs": [
        {
          "internalType": "uint256",
          "name": "nonce",
          "type": "uint256"
        }
      ],
      "stateMutability": "view",
      "type": "function"
    },
    {
      "inputs": [
        {
          "internalType": "uint256",
          "name": "_binValues",
          "type": "uint256"
        },
        {
          "internalType": "uint256",
          "name": "_index",
          "type": "uint256"
        }
      ],
      "name": "getValueInBin",
      "outputs": [
        {
          "internalType": "uint256",
          "name": "",
          "type": "uint256"
        }
      ],
      "stateMutability": "pure",
      "type": "function"
    },
    {
      "inputs": [
        {
          "internalType": "address",
          "name": "_owner",
          "type": "address"
        },
        {
          "internalType": "address",
          "name": "_operator",
          "type": "address"
        }
      ],
      "name": "isApprovedForAll",
      "outputs": [
        {
          "internalType": "bool",
          "name": "isOperator",
          "type": "bool"
        }
      ],
      "stateMutability": "view",
      "type": "function"
    },
    {
      "inputs": [
        {
          "internalType": "address",
          "name": "_signerAddress",
          "type": "address"
        },
        {
          "internalType": "bytes32",
          "name": "_hash",
          "type": "bytes32"
        },
        {
          "internalType": "bytes",
          "name": "_data",
          "type": "bytes"
        },
        {
          "internalType": "bytes",
          "name": "_sig",
          "type": "bytes"
        }
      ],
      "name": "isValidSignature",
      "outputs": [
        {
          "internalType": "bool",
          "name": "isValid",
          "type": "bool"
        }
      ],
      "stateMutability": "view",
      "type": "function"
    },
    {
      "inputs": [
        {
          "internalType": "address",
          "name": "_from",
          "type": "address"
        },
        {
          "internalType": "address",
          "name": "_to",
          "type": "address"
        },
        {
          "internalType": "uint256[]",
          "name": "_ids",
          "type": "uint256[]"
        },
        {
          "internalType": "uint256[]",
          "name": "_amounts",
          "type": "uint256[]"
        },
        {
          "internalType": "bool",
          "name": "_isGasFee",
          "type": "bool"
        },
        {
          "internalType": "bytes",
          "name": "_data",
          "type": "bytes"
        }
      ],
      "name": "metaSafeBatchTransferFrom",
      "outputs": [],
      "stateMutability": "nonpayable",
      "type": "function"
    },
    {
      "inputs": [
        {
          "internalType": "address",
          "name": "_from",
          "type": "address"
        },
        {
          "internalType": "address",
          "name": "_to",
          "type": "address"
        },
        {
          "internalType": "uint256",
          "name": "_id",
          "type": "uint256"
        },
        {
          "internalType": "uint256",
          "name": "_amount",
          "type": "uint256"
        },
        {
          "internalType": "bool",
          "name": "_isGasFee",
          "type": "bool"
        },
        {
          "internalType": "bytes",
          "name": "_data",
          "type": "bytes"
        }
      ],
      "name": "metaSafeTransferFrom",
      "outputs": [],
      "stateMutability": "nonpayable",
      "type": "function"
    },
    {
      "inputs": [
        {
          "internalType": "address",
          "name": "_owner",
          "type": "address"
        },
        {
          "internalType": "address",
          "name": "_operator",
          "type": "address"
        },
        {
          "internalType": "bool",
          "name": "_approved",
          "type": "bool"
        },
        {
          "internalType": "bool",
          "name": "_isGasFee",
          "type": "bool"
        },
        {
          "internalType": "bytes",
          "name": "_data",
          "type": "bytes"
        }
      ],
      "name": "metaSetApprovalForAll",
      "outputs": [],
      "stateMutability": "nonpayable",
      "type": "function"
    },
    {
      "inputs": [
        {
          "internalType": "address",
          "name": "_to",
          "type": "address"
        },
        {
          "internalType": "uint256",
          "name": "_id",
          "type": "uint256"
        },
        {
          "internalType": "uint256",
          "name": "_value",
          "type": "uint256"
        },
        {
          "internalType": "bytes",
          "name": "_data",
          "type": "bytes"
        }
      ],
      "name": "mintMock",
      "outputs": [],
      "stateMutability": "nonpayable",
      "type": "function"
    },
    {
      "inputs": [
        {
          "internalType": "address",
          "name": "_from",
          "type": "address"
        },
        {
          "internalType": "address",
          "name": "_to",
          "type": "address"
        },
        {
          "internalType": "uint256[]",
          "name": "_ids",
          "type": "uint256[]"
        },
        {
          "internalType": "uint256[]",
          "name": "_amounts",
          "type": "uint256[]"
        },
        {
          "internalType": "bytes",
          "name": "_data",
          "type": "bytes"
        }
      ],
      "name": "safeBatchTransferFrom",
      "outputs": [],
      "stateMutability": "nonpayable",
      "type": "function"
    },
    {
      "inputs": [
        {
          "internalType": "address",
          "name": "_from",
          "type": "address"
        },
        {
          "internalType": "address",
          "name": "_to",
          "type": "address"
        },
        {
          "internalType": "uint256",
          "name": "_id",
          "type": "uint256"
        },
        {
          "internalType": "uint256",
          "name": "_amount",
          "type": "uint256"
        },
        {
          "internalType": "bytes",
          "name": "_data",
          "type": "bytes"
        }
      ],
      "name": "safeTransferFrom",
      "outputs": [],
      "stateMutability": "nonpayable",
      "type": "function"
    },
    {
      "inputs": [
        {
          "internalType": "address",
          "name": "_operator",
          "type": "address"
        },
        {
          "internalType": "bool",
          "name": "_approved",
          "type": "bool"
        }
      ],
      "name": "setApprovalForAll",
      "outputs": [],
      "stateMutability": "nonpayable",
      "type": "function"
    },
    {
      "inputs": [
        {
          "internalType": "bytes4",
          "name": "_interfaceID",
          "type": "bytes4"
        }
      ],
      "name": "supportsInterface",
      "outputs": [
        {
          "internalType": "bool",
          "name": "",
          "type": "bool"
        }
      ],
      "stateMutability": "pure",
      "type": "function"
    },
    {
      "inputs": [
        {
          "internalType": "uint256",
          "name": "_id",
          "type": "uint256"
        }
      ],
      "name": "uri",
      "outputs": [
        {
          "internalType": "string",
          "name": "",
          "type": "string"
        }
      ],
      "stateMutability": "view",
      "type": "function"
    }
  ],
  "bytecode": "0x608060405234801561001057600080fd5b5061448c806100206000396000f3fe608060405234801561001057600080fd5b50600436106101505760003560e01c8063a3f091f5116100cd578063e985e9c511610081578063f242432a11610066578063f242432a14610308578063f5d4c8201461031b578063fa4e12d71461032e57610150565b8063e985e9c5146102e2578063eaec5f81146102f557610150565b8063ce0b514b116100b2578063ce0b514b1461029b578063d7a0ad90146102ae578063db90e83c146102c157610150565b8063a3f091f514610275578063bd7a6c411461028857610150565b80632eb2c2d6116101245780634e1273f4116101095780634e1273f41461022f578063a22cb4651461024f578063a3d4926e1461026257610150565b80632eb2c2d614610207578063437ecbe91461021c57610150565b8062fdd58e1461018b57806301ffc9a7146101b45780630e89341c146101d45780632d0335ab146101f4575b6040517f08c379a000000000000000000000000000000000000000000000000000000000815260040161018290613e20565b60405180910390fd5b61019e6101993660046136d8565b610341565b6040516101ab9190613e7d565b60405180910390f35b6101c76101c236600461386b565b610396565b6040516101ab9190613af1565b6101e76101e236600461396a565b6103a9565b6040516101ab9190613b79565b61019e610202366004613202565b6104fc565b61021a61021536600461335c565b610524565b005b61021a61022a366004613703565b61062f565b61024261023d36600461378c565b61063f565b6040516101ab9190613aad565b61021a61025d36600461365c565b6108be565b61021a61027036600461329f565b610957565b61021a610283366004613737565b610acb565b61021a610296366004613552565b610add565b61021a6102a936600461347f565b610ae8565b61021a6102bc3660046135c5565b610bc7565b6102d46102cf36600461396a565b610bd3565b6040516101ab929190613e86565b6101c76102f0366004613267565b610be0565b61019e610303366004613982565b610c1b565b61021a6103163660046134f7565b610c2e565b61021a610329366004613406565b610d32565b6101c761033c366004613689565b610e62565b600080600061034f84610bd3565b73ffffffffffffffffffffffffffffffffffffffff8716600090815260208181526040808320858452909152902054919350915061038d9082610c1b565b95945050505050565b60006103a182611643565b90505b919050565b606060036103b6836116a0565b60405160200180838054600181600116156101000203166002900480156104145780601f106103f2576101008083540402835291820191610414565b820191906000526020600020905b815481529060010190602001808311610400575b5050825160208401908083835b6020831061045e57805182527fffffffffffffffffffffffffffffffffffffffffffffffffffffffffffffffe09092019160209182019101610421565b5181516020939093036101000a7fffffffffffffffffffffffffffffffffffffffffffffffffffffffffffffffff01801990911692169190911790527f2e6a736f6e000000000000000000000000000000000000000000000000000000920191825250604080518083037fffffffffffffffffffffffffffffffffffffffffffffffffffffffffffffffe50181526005909201905295945050505050565b73ffffffffffffffffffffffffffffffffffffffff1660009081526002602052604090205490565b3373ffffffffffffffffffffffffffffffffffffffff8616148061054d575061054d8533610be0565b6105a2576040517f08c379a000000000000000000000000000000000000000000000000000000000815260040180806020018281038252603c8152602001806141c2603c913960400191505060405180910390fd5b73ffffffffffffffffffffffffffffffffffffffff841661060e576040517f08c379a000000000000000000000000000000000000000000000000000000000815260040180806020018281038252603d815260200180613faf603d913960400191505060405180910390fd5b61061a858585856117cc565b610628858585855a86611bd9565b5050505050565b61063a838383611e46565b505050565b8151815160609190811461069e576040517f08c379a0000000000000000000000000000000000000000000000000000000008152600401808060200182810382526039815260200180613f766039913960400191505060405180910390fd5b6000806106be856000815181106106b157fe5b6020026020010151610bd3565b915091506000806000886000815181106106d457fe5b602002602001015173ffffffffffffffffffffffffffffffffffffffff1673ffffffffffffffffffffffffffffffffffffffff1681526020019081526020016000206000848152602001908152602001600020549050600083905060608567ffffffffffffffff8111801561074857600080fd5b50604051908082528060200260200182016040528015610772578160200160208202803683370190505b50905061077f8385610c1b565b8160008151811061078c57fe5b602090810291909101015260015b868110156108b1576107b18982815181106106b157fe5b9096509450828614158061081a57508981815181106107cc57fe5b602002602001015173ffffffffffffffffffffffffffffffffffffffff168a60018303815181106107f957fe5b602002602001015173ffffffffffffffffffffffffffffffffffffffff1614155b15610888576000808b838151811061082e57fe5b602002602001015173ffffffffffffffffffffffffffffffffffffffff1673ffffffffffffffffffffffffffffffffffffffff16815260200190815260200160002060008781526020019081526020016000205493508592505b6108928486610c1b565b82828151811061089e57fe5b602090810291909101015260010161079a565b5098975050505050505050565b33600081815260016020908152604080832073ffffffffffffffffffffffffffffffffffffffff87168085529083529281902080547fffffffffffffffffffffffffffffffffffffffffffffffffffffffffffffff0016861515908117909155815190815290519293927f17307eab39ab6107e8899845ad3d59bd9653f200f220920489ca2b5937696c31929181900390910190a35050565b73ffffffffffffffffffffffffffffffffffffffff85166109a4576040517f08c379a000000000000000000000000000000000000000000000000000000000815260040161018290613d40565b60606109ae613033565b6060610a6189857fa3d4926e8cf8fe8e020cd29f514c256bc2eec62aa2337e415f1a33a4828af5a060001b8c8c8c6040516020016109ec91906139a3565b604051602081830303815290604052805190602001208c604051602001610a1391906139a3565b604051602081830303815290604052805190602001208c610a35576000610a38565b60015b604051602001610a4d96959493929190613afc565b604051602081830303815290604052611eb0565b9050610a6f898989896117cc565b8415610ab25780806020019051810190610a899190613935565b8094508193505050610aa389898989866020015188611bd9565b610aad898361207f565b610ac0565b610ac0898989895a86611bd9565b505050505050505050565b610ad784848484612328565b50505050565b61063a83838361239c565b73ffffffffffffffffffffffffffffffffffffffff8516610b35576040517f08c379a000000000000000000000000000000000000000000000000000000000815260040161018290613ce2565b6060610b3f613033565b6060610b7789857fce0b514b3931bdbe4d5d44e4f035afe7113767b7db71949271f6a62d9c60f558828c8c8c8c610a35576000610a38565b9050610b8589898989612545565b8415610bb95780806020019051810190610b9f9190613935565b8094508193505050610aa3898989898660200151886125e9565b610ac0898989895a866125e9565b610ad7848484846127da565b6008810491600790911690565b73ffffffffffffffffffffffffffffffffffffffff918216600090815260016020908152604080832093909416825291909152205460ff1690565b6020810282901c63ffffffff1692915050565b3373ffffffffffffffffffffffffffffffffffffffff86161480610c575750610c578533610be0565b610cac576040517f08c379a00000000000000000000000000000000000000000000000000000000081526004018080602001828103825260378152602001806140906037913960400191505060405180910390fd5b73ffffffffffffffffffffffffffffffffffffffff8416610d18576040517f08c379a000000000000000000000000000000000000000000000000000000000815260040180806020018281038252603881526020018061432e6038913960400191505060405180910390fd5b610d2485858585612545565b610628858585855a866125e9565b6060610d8e86837ff5d4c820494c8595de274c7ff619bead38aac4fbc3d143b5bf956aa4b84fa524828989610d68576000610d6b565b60015b89610d77576000610d7a565b60015b604051602001610a4d959493929190613b3d565b73ffffffffffffffffffffffffffffffffffffffff8781166000818152600160209081526040808320948b16808452949091529081902080547fffffffffffffffffffffffffffffffffffffffffffffffffffffffffffffff00168915151790555192935090917f17307eab39ab6107e8899845ad3d59bd9653f200f220920489ca2b5937696c3190610e22908890613af1565b60405180910390a38215610e5a57610e38613033565b81806020019051810190610e4c9190613902565b9050610e58878261207f565b505b505050505050565b600080825111610ebd576040517f08c379a00000000000000000000000000000000000000000000000000000000081526004018080602001828103825260438152602001806142eb6043913960600191505060405180910390fd5b73ffffffffffffffffffffffffffffffffffffffff8516610f29576040517f08c379a00000000000000000000000000000000000000000000000000000000081526004018080602001828103825260338152602001806142716033913960400191505060405180910390fd5b6000610f3483612a64565b60f81c905060058110610f92576040517f08c379a000000000000000000000000000000000000000000000000000000000815260040180806020018281038252603a815260200180614056603a913960400191505060405180910390fd5b60008160ff166005811115610fa357fe5b9050600080808080856005811115610fb757fe5b141561100e576040517f08c379a00000000000000000000000000000000000000000000000000000000081526004018080602001828103825260368152602001806140c76036913960400191505060405180910390fd5b600185600581111561101c57fe5b141561115f57875160611461107c576040517f08c379a000000000000000000000000000000000000000000000000000000000815260040180806020018281038252603781526020018061418b6037913960400191505060405180910390fd5b611087886000612b21565b9250611094886020612b21565b9150876040815181106110a357fe5b602001015160f81c60f81b60f81c935060018a85858560405160008152602001604052604051808581526020018460ff1681526020018381526020018281526020019450505050506020604051602081039080840390855afa15801561110d573d6000803e3d6000fd5b50506040517fffffffffffffffffffffffffffffffffffffffffffffffffffffffffffffffe0015173ffffffffffffffffffffffffffffffffffffffff8d8116911614975061163b9650505050505050565b600285600581111561116d57fe5b14156112bd5787516061146111cd576040517f08c379a000000000000000000000000000000000000000000000000000000000815260040180806020018281038252603781526020018061418b6037913960400191505060405180910390fd5b6111d8886000612b21565b92506111e5886020612b21565b9150876040815181106111f457fe5b01602090810151604080517f19457468657265756d205369676e6564204d6573736167653a0a33320000000081850152603c8082018f905282518083039091018152605c82018084528151918601919091206000909152607c82018084525260f89290921c609c830181905260bc830187905260dc8301869052905190965060019260fc8084019391927fffffffffffffffffffffffffffffffffffffffffffffffffffffffffffffffe081019281900390910190855afa15801561110d573d6000803e3d6000fd5b60038560058111156112cb57fe5b141561148357604080517f20c13b0b000000000000000000000000000000000000000000000000000000008152600481019182528a5160448201528a5173ffffffffffffffffffffffffffffffffffffffff8e16926320c13b0b928d928d92918291602482019160640190602087019080838360005b83811015611359578181015183820152602001611341565b50505050905090810190601f1680156113865780820380516001836020036101000a031916815260200191505b50838103825284518152845160209182019186019080838360005b838110156113b95781810151838201526020016113a1565b50505050905090810190601f1680156113e65780820380516001836020036101000a031916815260200191505b5094505050505060206040518083038186803b15801561140557600080fd5b505afa158015611419573d6000803e3d6000fd5b505050506040513d602081101561142f57600080fd5b50517fffffffff00000000000000000000000000000000000000000000000000000000167f20c13b0b0000000000000000000000000000000000000000000000000000000014965061163b95505050505050565b600485600581111561149157fe5b14156115ea57604080517f1626ba7e000000000000000000000000000000000000000000000000000000008152600481018c8152602482019283528a5160448301528a5173ffffffffffffffffffffffffffffffffffffffff8f1693631626ba7e938f938e9390929160640190602085019080838360005b83811015611521578181015183820152602001611509565b50505050905090810190601f16801561154e5780820380516001836020036101000a031916815260200191505b50935050505060206040518083038186803b15801561156c57600080fd5b505afa158015611580573d6000803e3d6000fd5b505050506040513d602081101561159657600080fd5b50517fffffffff00000000000000000000000000000000000000000000000000000000167f1626ba7e0000000000000000000000000000000000000000000000000000000014965061163b95505050505050565b6040517f08c379a000000000000000000000000000000000000000000000000000000000815260040180806020018281038252603a815260200180614056603a913960400191505060405180910390fd5b949350505050565b60007fffffffff0000000000000000000000000000000000000000000000000000000082167f0e89341c000000000000000000000000000000000000000000000000000000001415611697575060016103a4565b6103a182612b89565b6060816116e1575060408051808201909152600181527f300000000000000000000000000000000000000000000000000000000000000060208201526103a4565b818060005b82156116fa57600101600a830492506116e6565b60608167ffffffffffffffff8111801561171357600080fd5b506040519080825280601f01601f19166020018201604052801561173e576020820181803683370190505b5090507fffffffffffffffffffffffffffffffffffffffffffffffffffffffffffffffff82015b83156117c257600a840660300160f81b8282806001900393508151811061178857fe5b60200101907effffffffffffffffffffffffffffffffffffffffffffffffffffffffffffff1916908160001a905350600a84049350611765565b5095945050505050565b815181518114611827576040517f08c379a00000000000000000000000000000000000000000000000000000000081526004018080602001828103825260428152602001806140fd6042913960600191505060405180910390fd5b8373ffffffffffffffffffffffffffffffffffffffff168573ffffffffffffffffffffffffffffffffffffffff16141580156118635750600081115b15611a355760008061187b856000815181106106b157fe5b73ffffffffffffffffffffffffffffffffffffffff89166000908152602081815260408083208584529091528120548751939550919350916118d391908490889085906118c457fe5b60200260200101516001612be6565b73ffffffffffffffffffffffffffffffffffffffff881660009081526020818152604080832087845290915281205487519293509091611929919085908990859061191a57fe5b60200260200101516000612be6565b90508360015b868110156119e3576119468982815181106106b157fe5b90965094508186146119b55773ffffffffffffffffffffffffffffffffffffffff8b811660009081526020818152604080832086845280835281842098909855928d16825281815282822094825284815282822095909555878152948452808520549290935291909220549084905b6119c684868a84815181106118c457fe5b93506119d983868a848151811061191a57fe5b925060010161192f565b505073ffffffffffffffffffffffffffffffffffffffff808a16600090815260208181526040808320888452825280832095909555918a16815280825283812095815294905292209190915550611ad2565b60005b81811015611ad057828181518110611a4c57fe5b6020026020010151611a7187868481518110611a6457fe5b6020026020010151610341565b1015611ac8576040517f08c379a000000000000000000000000000000000000000000000000000000000815260040180806020018281038252603681526020018061423b6036913960400191505060405180910390fd5b600101611a38565b505b8373ffffffffffffffffffffffffffffffffffffffff168573ffffffffffffffffffffffffffffffffffffffff163373ffffffffffffffffffffffffffffffffffffffff167f4a39dc06d4c0dbc64b70af90fd698a233a518aa5d07e595d983b8c0526c8f7fb8686604051808060200180602001838103835285818151815260200191508051906020019060200280838360005b83811015611b7e578181015183820152602001611b66565b50505050905001838103825284818151815260200191508051906020019060200280838360005b83811015611bbd578181015183820152602001611ba5565b5050505090500194505050505060405180910390a45050505050565b611bf88573ffffffffffffffffffffffffffffffffffffffff16612df9565b15610e5a5760008573ffffffffffffffffffffffffffffffffffffffff1663bc197c8184338a8989886040518763ffffffff1660e01b8152600401808673ffffffffffffffffffffffffffffffffffffffff1681526020018573ffffffffffffffffffffffffffffffffffffffff168152602001806020018060200180602001848103845287818151815260200191508051906020019060200280838360005b83811015611cb0578181015183820152602001611c98565b50505050905001848103835286818151815260200191508051906020019060200280838360005b83811015611cef578181015183820152602001611cd7565b50505050905001848103825285818151815260200191508051906020019080838360005b83811015611d2b578181015183820152602001611d13565b50505050905090810190601f168015611d585780820380516001836020036101000a031916815260200191505b5098505050505050505050602060405180830381600088803b158015611d7d57600080fd5b5087f1158015611d91573d6000803e3d6000fd5b50505050506040513d6020811015611da857600080fd5b505190507fffffffff0000000000000000000000000000000000000000000000000000000081167fbc197c810000000000000000000000000000000000000000000000000000000014610e58576040517f08c379a000000000000000000000000000000000000000000000000000000000815260040180806020018281038252604c81526020018061413f604c913960600191505060405180910390fd5b611e538383836001612e33565b6040805183815260208101839052815160009273ffffffffffffffffffffffffffffffffffffffff87169233927fc3d58168c5ae7397731d063d5bbf3d657854427343f4c083240f7aacaa2d0f62929181900390910190a4505050565b60608083806020019051810190611ec791906138ab565b73ffffffffffffffffffffffffffffffffffffffff871660009081526002602052604081205491945091925090611eff836041612b21565b9050818110801590611f1357508160640181105b611f49576040517f08c379a000000000000000000000000000000000000000000000000000000000815260040161018290613c27565b6000611f8586838780519060200120604051602001611f6a939291906139d9565b60405160208183030381529060405280519060200120612eba565b90506060868387604051602001611f9e93929190613a00565b604080517fffffffffffffffffffffffffffffffffffffffffffffffffffffffffffffffe081840301815282825273ffffffffffffffffffffffffffffffffffffffff8c166000818152600260205292909220600187019081905590935090917fb861b7bdbe611a846ab271b8d2810391bc8b5a968f390c322438ecab66bccf599161202991613e7d565b60405180910390a261203d89838388610e62565b612073576040517f08c379a000000000000000000000000000000000000000000000000000000000815260040161018290613c84565b50505050509392505050565b600061208e8260600151612a64565b60f81c9050600281106120cd576040517f08c379a000000000000000000000000000000000000000000000000000000000815260040161018290613dc3565b60008160ff1660028111156120de57fe5b835160408501519192506000918291829173ffffffffffffffffffffffffffffffffffffffff1615612114578660400151612116565b335b9250600085600281111561212657fe5b1415612225578660600151806020019051810190612144919061323a565b909450915073ffffffffffffffffffffffffffffffffffffffff84163014156121955761217388848484612545565b6121908884845a85604051806020016040528060008152506125e9565b612220565b6040517ff242432a00000000000000000000000000000000000000000000000000000000815273ffffffffffffffffffffffffffffffffffffffff85169063f242432a906121ed908b90879087908790600401613a68565b600060405180830381600087803b15801561220757600080fd5b505af115801561221b573d6000803e3d6000fd5b505050505b61231e565b866060015180602001905181019061223d919061321e565b6040517f23b872dd00000000000000000000000000000000000000000000000000000000815290945073ffffffffffffffffffffffffffffffffffffffff8516906323b872dd90612296908b9087908690600401613a37565b602060405180830381600087803b1580156122b057600080fd5b505af11580156122c4573d6000803e3d6000fd5b505050506040513d601f19601f820116820180604052508101906122e8919061384f565b61231e576040517f08c379a000000000000000000000000000000000000000000000000000000000815260040161018290613bca565b5050505050505050565b6123358484846000612e33565b6040805184815260208101849052815173ffffffffffffffffffffffffffffffffffffffff87169260009233927fc3d58168c5ae7397731d063d5bbf3d657854427343f4c083240f7aacaa2d0f62929181900390910190a4610ad760008585855a866125e9565b8151815181146123f7576040517f08c379a000000000000000000000000000000000000000000000000000000000815260040180806020018281038252603d8152602001806141fe603d913960400191505060405180910390fd5b60005b8181101561243d576124358585838151811061241257fe5b602002602001015185848151811061242657fe5b60200260200101516001612e33565b6001016123fa565b50600073ffffffffffffffffffffffffffffffffffffffff168473ffffffffffffffffffffffffffffffffffffffff163373ffffffffffffffffffffffffffffffffffffffff167f4a39dc06d4c0dbc64b70af90fd698a233a518aa5d07e595d983b8c0526c8f7fb8686604051808060200180602001838103835285818151815260200191508051906020019060200280838360005b838110156124eb5781810151838201526020016124d3565b50505050905001838103825284818151815260200191508051906020019060200280838360005b8381101561252a578181015183820152602001612512565b5050505090500194505050505060405180910390a450505050565b6125528483836001612e33565b61255f8383836000612e33565b8273ffffffffffffffffffffffffffffffffffffffff168473ffffffffffffffffffffffffffffffffffffffff163373ffffffffffffffffffffffffffffffffffffffff167fc3d58168c5ae7397731d063d5bbf3d657854427343f4c083240f7aacaa2d0f628585604051808381526020018281526020019250505060405180910390a450505050565b6126088573ffffffffffffffffffffffffffffffffffffffff16612df9565b15610e5a5760008573ffffffffffffffffffffffffffffffffffffffff1663f23a6e6184338a8989886040518763ffffffff1660e01b8152600401808673ffffffffffffffffffffffffffffffffffffffff1681526020018573ffffffffffffffffffffffffffffffffffffffff16815260200184815260200183815260200180602001828103825283818151815260200191508051906020019080838360005b838110156126c15781810151838201526020016126a9565b50505050905090810190601f1680156126ee5780820380516001836020036101000a031916815260200191505b509650505050505050602060405180830381600088803b15801561271157600080fd5b5087f1158015612725573d6000803e3d6000fd5b50505050506040513d602081101561273c57600080fd5b505190507fffffffff0000000000000000000000000000000000000000000000000000000081167ff23a6e610000000000000000000000000000000000000000000000000000000014610e58576040517f08c379a00000000000000000000000000000000000000000000000000000000081526004018080602001828103825260478152602001806142a46047913960600191505060405180910390fd5b8151835114612834576040517f08c379a000000000000000000000000000000000000000000000000000000000815260040180806020018281038252603e8152602001806143e7603e913960400191505060405180910390fd5b8251156129545760008061284e856000815181106106b157fe5b73ffffffffffffffffffffffffffffffffffffffff8816600090815260208181526040808320858452909152812054875193955091935091612897919084908890859061191a57fe5b86519091508360015b8281101561291b576128b78982815181106106b157fe5b90965094508186146129005773ffffffffffffffffffffffffffffffffffffffff8a16600090815260208181526040808320948352939052828120949094558584529220549184905b61291184868a848151811061191a57fe5b93506001016128a0565b50505073ffffffffffffffffffffffffffffffffffffffff87166000908152602081815260408083209583529490529290922091909155505b8373ffffffffffffffffffffffffffffffffffffffff16600073ffffffffffffffffffffffffffffffffffffffff163373ffffffffffffffffffffffffffffffffffffffff167f4a39dc06d4c0dbc64b70af90fd698a233a518aa5d07e595d983b8c0526c8f7fb8686604051808060200180602001838103835285818151815260200191508051906020019060200280838360005b83811015612a015781810151838201526020016129e9565b50505050905001838103825284818151815260200191508051906020019060200280838360005b83811015612a40578181015183820152602001612a28565b5050505090500194505050505060405180910390a4610ad760008585855a86611bd9565b600080825111612abf576040517f08c379a0000000000000000000000000000000000000000000000000000000008152600401808060200182810382526037815260200180613fec6037913960400191505060405180910390fd5b81600183510381518110612acf57fe5b016020015182517fffffffffffffffffffffffffffffffffffffffffffffffffffffffffffffffff01909252507fff000000000000000000000000000000000000000000000000000000000000001690565b60008160200183511015612b80576040517f08c379a000000000000000000000000000000000000000000000000000000000815260040180806020018281038252603c815260200180614366603c913960400191505060405180910390fd5b50016020015190565b60007fffffffff0000000000000000000000000000000000000000000000000000000082167fd9b67a26000000000000000000000000000000000000000000000000000000001415612bdd575060016103a4565b6103a182612fe9565b60006020840263ffffffff82846001811115612bfe57fe5b1415612ccc5784821b8701925086831015612c64576040517f08c379a00000000000000000000000000000000000000000000000000000000081526004018080602001828103825260328152602001806144256032913960400191505060405180910390fd5b64010000000087831c8216860110612cc7576040517f08c379a00000000000000000000000000000000000000000000000000000000081526004018080602001828103825260328152602001806144256032913960400191505060405180910390fd5b612def565b6001846001811115612cda57fe5b1415612d9e5784821b8703925086831115612d40576040517f08c379a00000000000000000000000000000000000000000000000000000000081526004018080602001828103825260338152602001806140236033913960400191505060405180910390fd5b84818389901c161015612cc7576040517f08c379a00000000000000000000000000000000000000000000000000000000081526004018080602001828103825260338152602001806140236033913960400191505060405180910390fd5b6040517f08c379a00000000000000000000000000000000000000000000000000000000081526004018080602001828103825260458152602001806143a26045913960600191505060405180910390fd5b5050949350505050565b6000813f8015801590612e2c57507fc5d2460186f7233c927e7db2dcc703c0e500b653ca82273b7bfad8045d85a4708114155b9392505050565b600080612e3f85610bd3565b73ffffffffffffffffffffffffffffffffffffffff88166000908152602081815260408083208584529091529020549193509150612e7f90828686612be6565b73ffffffffffffffffffffffffffffffffffffffff909616600090815260208181526040808320948352939052919091209490945550505050565b604080518082018252600281527f1901000000000000000000000000000000000000000000000000000000000000602080830191825283517f035aff83d86937d35b32e04f0ddc6ff469290eef2f1b692d8a815c89404d47498183015230818601528451808203860181526060820190955284519490910193909320825160009491928692608001918291908083835b60208310612f8757805182527fffffffffffffffffffffffffffffffffffffffffffffffffffffffffffffffe09092019160209182019101612f4a565b51815160209384036101000a7fffffffffffffffffffffffffffffffffffffffffffffffffffffffffffffffff018019909216911617905292019485525083810192909252506040805180840383018152928101905281519101209392505050565b7fffffffff0000000000000000000000000000000000000000000000000000000081167f01ffc9a70000000000000000000000000000000000000000000000000000000014919050565b60405180608001604052806000815260200160008152602001600073ffffffffffffffffffffffffffffffffffffffff168152602001606081525090565b600082601f830112613081578081fd5b813561309461308f82613eb8565b613e94565b8181529150602080830190848101818402860182018710156130b557600080fd5b60005b848110156130d4578135845292820192908201906001016130b8565b505050505092915050565b600082601f8301126130ef578081fd5b81356130fd61308f82613ed6565b915080825283602082850101111561311457600080fd5b8060208401602084013760009082016020015292915050565b600082601f83011261313d578081fd5b815161314b61308f82613ed6565b915080825283602082850101111561316257600080fd5b613173816020840160208601613f16565b5092915050565b60006080828403121561318b578081fd5b6040516080810167ffffffffffffffff82821081831117156131a957fe5b816040528293508451835260208501516020840152604085015191506131ce82613f42565b81604084015260608501519150808211156131e857600080fd5b506131f58582860161312d565b6060830152505092915050565b600060208284031215613213578081fd5b8135612e2c81613f42565b60006020828403121561322f578081fd5b8151612e2c81613f42565b6000806040838503121561324c578081fd5b825161325781613f42565b6020939093015192949293505050565b60008060408385031215613279578182fd5b823561328481613f42565b9150602083013561329481613f42565b809150509250929050565b60008060008060008060c087890312156132b7578182fd5b86356132c281613f42565b955060208701356132d281613f42565b9450604087013567ffffffffffffffff808211156132ee578384fd5b6132fa8a838b01613071565b9550606089013591508082111561330f578384fd5b61331b8a838b01613071565b94506080890135915061332d82613f67565b90925060a08801359080821115613342578283fd5b5061334f89828a016130df565b9150509295509295509295565b600080600080600060a08688031215613373578081fd5b853561337e81613f42565b9450602086013561338e81613f42565b9350604086013567ffffffffffffffff808211156133aa578283fd5b6133b689838a01613071565b945060608801359150808211156133cb578283fd5b6133d789838a01613071565b935060808801359150808211156133ec578283fd5b506133f9888289016130df565b9150509295509295909350565b600080600080600060a0868803121561341d578081fd5b853561342881613f42565b9450602086013561343881613f42565b9350604086013561344881613f67565b9250606086013561345881613f67565b9150608086013567ffffffffffffffff811115613473578182fd5b6133f9888289016130df565b60008060008060008060c08789031215613497578384fd5b86356134a281613f42565b955060208701356134b281613f42565b9450604087013593506060870135925060808701356134d081613f67565b915060a087013567ffffffffffffffff8111156134eb578182fd5b61334f89828a016130df565b600080600080600060a0868803121561350e578283fd5b853561351981613f42565b9450602086013561352981613f42565b93506040860135925060608601359150608086013567ffffffffffffffff811115613473578182fd5b600080600060608486031215613566578081fd5b833561357181613f42565b9250602084013567ffffffffffffffff8082111561358d578283fd5b61359987838801613071565b935060408601359150808211156135ae578283fd5b506135bb86828701613071565b9150509250925092565b600080600080608085870312156135da578182fd5b84356135e581613f42565b9350602085013567ffffffffffffffff80821115613601578384fd5b61360d88838901613071565b94506040870135915080821115613622578384fd5b61362e88838901613071565b93506060870135915080821115613643578283fd5b50613650878288016130df565b91505092959194509250565b6000806040838503121561366e578182fd5b823561367981613f42565b9150602083013561329481613f67565b6000806000806080858703121561369e578182fd5b84356136a981613f42565b935060208501359250604085013567ffffffffffffffff808211156136cc578384fd5b61362e888389016130df565b600080604083850312156136ea578182fd5b82356136f581613f42565b946020939093013593505050565b600080600060608486031215613717578081fd5b833561372281613f42565b95602085013595506040909401359392505050565b6000806000806080858703121561374c578182fd5b843561375781613f42565b93506020850135925060408501359150606085013567ffffffffffffffff811115613780578182fd5b613650878288016130df565b6000806040838503121561379e578182fd5b823567ffffffffffffffff808211156137b5578384fd5b818501915085601f8301126137c8578384fd5b81356137d661308f82613eb8565b80828252602080830192508086018a8283870289010111156137f6578889fd5b8896505b8487101561382157803561380d81613f42565b8452600196909601959281019281016137fa565b509096508701359350505080821115613838578283fd5b5061384585828601613071565b9150509250929050565b600060208284031215613860578081fd5b8151612e2c81613f67565b60006020828403121561387c578081fd5b81357fffffffff0000000000000000000000000000000000000000000000000000000081168114612e2c578182fd5b600080604083850312156138bd578182fd5b825167ffffffffffffffff808211156138d4578384fd5b6138e08683870161312d565b935060208501519150808211156138f5578283fd5b506138458582860161312d565b600060208284031215613913578081fd5b815167ffffffffffffffff811115613929578182fd5b61163b8482850161317a565b60008060408385031215613947578182fd5b825167ffffffffffffffff8082111561395e578384fd5b6138e08683870161317a565b60006020828403121561397b578081fd5b5035919050565b60008060408385031215613994578182fd5b50508035926020909101359150565b815160009082906020808601845b838110156139cd578151855293820193908201906001016139b1565b50929695505050505050565b600084516139eb818460208901613f16565b91909101928352506020820152604001919050565b60008451613a12818460208901613f16565b82018481528351613a2a816020808501908801613f16565b0160200195945050505050565b73ffffffffffffffffffffffffffffffffffffffff9384168152919092166020820152604081019190915260600190565b73ffffffffffffffffffffffffffffffffffffffff94851681529290931660208301526040820152606081019190915260a06080820181905260009082015260c00190565b6020808252825182820181905260009190848201906040850190845b81811015613ae557835183529284019291840191600101613ac9565b50909695505050505050565b901515815260200190565b95865273ffffffffffffffffffffffffffffffffffffffff94851660208701529290931660408501526060840152608083019190915260a082015260c00190565b94855273ffffffffffffffffffffffffffffffffffffffff93841660208601529190921660408401526060830191909152608082015260a00190565b6000602082528251806020840152613b98816040850160208701613f16565b601f017fffffffffffffffffffffffffffffffffffffffffffffffffffffffffffffffe0169190910160400192915050565b6020808252603f908201527f455243313135354d6574615061636b656442616c616e6365235f7472616e736660408201527f65724761734665653a2045524332305f5452414e534645525f4641494c454400606082015260800190565b6020808252603c908201527f455243313135354d6574615061636b656442616c616e6365235f7369676e617460408201527f75726556616c69646174696f6e3a20494e56414c49445f4e4f4e434500000000606082015260800190565b602080825260409082018190527f455243313135354d6574615061636b656442616c616e6365235f7369676e6174908201527f75726556616c69646174696f6e3a20494e56414c49445f5349474e4154555245606082015260800190565b602080825260409082018190527f455243313135354d6574615061636b656442616c616e6365236d657461536166908201527f655472616e7366657246726f6d3a20494e56414c49445f524543495049454e54606082015260800190565b60208082526045908201527f455243313135354d6574615061636b656442616c616e6365236d65746153616660408201527f6542617463685472616e7366657246726f6d3a20494e56414c49445f5245434960608201527f5049454e54000000000000000000000000000000000000000000000000000000608082015260a00190565b6020808252603b908201527f455243313135354d6574615061636b656442616c616e6365235f7472616e736660408201527f65724761734665653a20554e535550504f525445445f544f4b454e0000000000606082015260800190565b60208082526034908201527f455243313135354d6574614d696e744275726e5061636b656442616c616e636560408201527f4d6f636b3a20494e56414c49445f4d4554484f44000000000000000000000000606082015260800190565b90815260200190565b918252602082015260400190565b60405181810167ffffffffffffffff81118282101715613eb057fe5b604052919050565b600067ffffffffffffffff821115613ecc57fe5b5060209081020190565b600067ffffffffffffffff821115613eea57fe5b50601f017fffffffffffffffffffffffffffffffffffffffffffffffffffffffffffffffe01660200190565b60005b83811015613f31578181015183820152602001613f19565b83811115610ad75750506000910152565b73ffffffffffffffffffffffffffffffffffffffff81168114613f6457600080fd5b50565b8015158114613f6457600080fdfe455243313135355061636b656442616c616e63652362616c616e63654f6642617463683a20494e56414c49445f41525241595f4c454e475448455243313135355061636b656442616c616e6365237361666542617463685472616e7366657246726f6d3a20494e56414c49445f524543495049454e544c6962427974657323706f704c617374427974653a20475245415445525f5448414e5f5a45524f5f4c454e4754485f5245515549524544455243313135355061636b656442616c616e6365235f7669657755706461746542696e56616c75653a20554e444552464c4f575369676e617475726556616c696461746f7223697356616c69645369676e61747572653a20554e535550504f525445445f5349474e4154555245455243313135355061636b656442616c616e636523736166655472616e7366657246726f6d3a20494e56414c49445f4f50455241544f525369676e617475726556616c696461746f7223697356616c69645369676e61747572653a20494c4c4547414c5f5349474e4154555245455243313135355061636b656442616c616e6365235f7361666542617463685472616e7366657246726f6d3a20494e56414c49445f4152524159535f4c454e475448455243313135355061636b656442616c616e6365235f63616c6c6f6e45524331313535426174636852656365697665643a20494e56414c49445f4f4e5f524543454956455f4d4553534147455369676e617475726556616c696461746f7223697356616c69645369676e61747572653a204c454e4754485f39375f5245515549524544455243313135355061636b656442616c616e6365237361666542617463685472616e7366657246726f6d3a20494e56414c49445f4f50455241544f52455243313135354d696e744275726e5061636b656442616c616e63652362617463684275726e3a20494e56414c49445f4152524159535f4c454e475448455243313135355061636b656442616c616e6365235f7361666542617463685472616e7366657246726f6d3a20554e444552464c4f575369676e617475726556616c696461746f7223697356616c69645369676e61747572653a20494e56414c49445f5349474e4552455243313135355061636b656442616c616e6365235f63616c6c6f6e4552433131353552656365697665643a20494e56414c49445f4f4e5f524543454956455f4d4553534147455369676e617475726556616c696461746f7223697356616c69645369676e61747572653a204c454e4754485f475245415445525f5448414e5f305f5245515549524544455243313135355061636b656442616c616e636523736166655472616e7366657246726f6d3a20494e56414c49445f524543495049454e544c696242797465732372656164427974657333323a20475245415445525f4f525f455155414c5f544f5f33325f4c454e4754485f5245515549524544455243313135355061636b656442616c616e6365235f7669657755706461746542696e56616c75653a20494e56414c49445f42494e5f57524954455f4f5045524154494f4e455243313135354d696e744275726e5061636b656442616c616e6365235f62617463684d696e743a20494e56414c49445f4152524159535f4c454e475448455243313135355061636b656442616c616e6365235f7669657755706461746542696e56616c75653a204f564552464c4f57a26469706673582212209aa90f89d0c77cf45eedefad4fac74fdce9a4fdd51eb113b81839dce0d6c5a0764736f6c63430007040033",
  "linkReferences": {},
  "deployedLinkReferences": {}
}