{
  "_format": "hh-sol-artifact-1",
  "contractName": "ERC1155MintBurnMockOwned",
  "sourceName": "contracts/mocks/ERC1155MintBurnMockOwned.sol",
  "abi": [
    {
      "inputs": [
        {
          "internalType": "string",
          "name": "_name",
          "type": "string"
        },
        {
          "internalType": "string",
          "name": "_baseURI",
          "type": "string"
        }
      ],
      "stateMutability": "nonpayable",
      "type": "constructor"
    },
    {
      "anonymous": false,
      "inputs": [
        {
          "indexed": true,
          "internalType": "address",
          "name": "_owner",
          "type": "address"
        },
        {
          "indexed": true,
          "internalType": "address",
          "name": "_operator",
          "type": "address"
        },
        {
          "indexed": false,
          "internalType": "bool",
          "name": "_approved",
          "type": "bool"
        }
      ],
      "name": "ApprovalForAll",
      "type": "event"
    },
    {
      "anonymous": false,
      "inputs": [
        {
          "indexed": true,
          "internalType": "address",
          "name": "previousOwner",
          "type": "address"
        },
        {
          "indexed": true,
          "internalType": "address",
          "name": "newOwner",
          "type": "address"
        }
      ],
      "name": "OwnershipTransferred",
      "type": "event"
    },
    {
      "anonymous": false,
      "inputs": [
        {
          "indexed": true,
          "internalType": "address",
          "name": "_operator",
          "type": "address"
        },
        {
          "indexed": true,
          "internalType": "address",
          "name": "_from",
          "type": "address"
        },
        {
          "indexed": true,
          "internalType": "address",
          "name": "_to",
          "type": "address"
        },
        {
          "indexed": false,
          "internalType": "uint256[]",
          "name": "_ids",
          "type": "uint256[]"
        },
        {
          "indexed": false,
          "internalType": "uint256[]",
          "name": "_amounts",
          "type": "uint256[]"
        }
      ],
      "name": "TransferBatch",
      "type": "event"
    },
    {
      "anonymous": false,
      "inputs": [
        {
          "indexed": true,
          "internalType": "address",
          "name": "_operator",
          "type": "address"
        },
        {
          "indexed": true,
          "internalType": "address",
          "name": "_from",
          "type": "address"
        },
        {
          "indexed": true,
          "internalType": "address",
          "name": "_to",
          "type": "address"
        },
        {
          "indexed": false,
          "internalType": "uint256",
          "name": "_id",
          "type": "uint256"
        },
        {
          "indexed": false,
          "internalType": "uint256",
          "name": "_amount",
          "type": "uint256"
        }
      ],
      "name": "TransferSingle",
      "type": "event"
    },
    {
      "anonymous": false,
      "inputs": [
        {
          "indexed": false,
          "internalType": "string",
          "name": "_uri",
          "type": "string"
        },
        {
          "indexed": true,
          "internalType": "uint256",
          "name": "_id",
          "type": "uint256"
        }
      ],
      "name": "URI",
      "type": "event"
    },
    {
      "stateMutability": "nonpayable",
      "type": "fallback"
    },
    {
      "inputs": [
        {
          "internalType": "address",
          "name": "_owner",
          "type": "address"
        },
        {
          "internalType": "uint256",
          "name": "_id",
          "type": "uint256"
        }
      ],
      "name": "balanceOf",
      "outputs": [
        {
          "internalType": "uint256",
          "name": "",
          "type": "uint256"
        }
      ],
      "stateMutability": "view",
      "type": "function"
    },
    {
      "inputs": [
        {
          "internalType": "address[]",
          "name": "_owners",
          "type": "address[]"
        },
        {
          "internalType": "uint256[]",
          "name": "_ids",
          "type": "uint256[]"
        }
      ],
      "name": "balanceOfBatch",
      "outputs": [
        {
          "internalType": "uint256[]",
          "name": "",
          "type": "uint256[]"
        }
      ],
      "stateMutability": "view",
      "type": "function"
    },
    {
      "inputs": [],
      "name": "baseURI",
      "outputs": [
        {
          "internalType": "string",
          "name": "",
          "type": "string"
        }
      ],
      "stateMutability": "view",
      "type": "function"
    },
    {
      "inputs": [
        {
          "internalType": "uint256[]",
          "name": "_ids",
          "type": "uint256[]"
        },
        {
          "internalType": "uint256[]",
          "name": "_values",
          "type": "uint256[]"
        }
      ],
      "name": "batchBurn",
      "outputs": [],
      "stateMutability": "nonpayable",
      "type": "function"
    },
    {
      "inputs": [
        {
          "internalType": "address",
          "name": "_to",
          "type": "address"
        },
        {
          "internalType": "uint256[]",
          "name": "_ids",
          "type": "uint256[]"
        },
        {
          "internalType": "uint256[]",
          "name": "_values",
          "type": "uint256[]"
        },
        {
          "internalType": "bytes",
          "name": "_data",
          "type": "bytes"
        }
      ],
      "name": "batchMint",
      "outputs": [],
      "stateMutability": "nonpayable",
      "type": "function"
    },
    {
      "inputs": [
        {
          "internalType": "uint256",
          "name": "_id",
          "type": "uint256"
        },
        {
          "internalType": "uint256",
          "name": "_value",
          "type": "uint256"
        }
      ],
      "name": "burn",
      "outputs": [],
      "stateMutability": "nonpayable",
      "type": "function"
    },
    {
      "inputs": [
        {
          "internalType": "address",
          "name": "_owner",
          "type": "address"
        },
        {
          "internalType": "address",
          "name": "_operator",
          "type": "address"
        }
      ],
      "name": "isApprovedForAll",
      "outputs": [
        {
          "internalType": "bool",
          "name": "isOperator",
          "type": "bool"
        }
      ],
      "stateMutability": "view",
      "type": "function"
    },
    {
      "inputs": [
        {
          "internalType": "address",
          "name": "_to",
          "type": "address"
        },
        {
          "internalType": "uint256",
          "name": "_id",
          "type": "uint256"
        },
        {
          "internalType": "uint256",
          "name": "_value",
          "type": "uint256"
        },
        {
          "internalType": "bytes",
          "name": "_data",
          "type": "bytes"
        }
      ],
      "name": "mint",
      "outputs": [],
      "stateMutability": "nonpayable",
      "type": "function"
    },
    {
      "inputs": [],
      "name": "name",
      "outputs": [
        {
          "internalType": "string",
          "name": "",
          "type": "string"
        }
      ],
      "stateMutability": "view",
      "type": "function"
    },
    {
      "inputs": [],
      "name": "owner",
      "outputs": [
        {
          "internalType": "address",
          "name": "",
          "type": "address"
        }
      ],
      "stateMutability": "view",
      "type": "function"
    },
    {
      "inputs": [
        {
          "internalType": "address",
          "name": "_from",
          "type": "address"
        },
        {
          "internalType": "address",
          "name": "_to",
          "type": "address"
        },
        {
          "internalType": "uint256[]",
          "name": "_ids",
          "type": "uint256[]"
        },
        {
          "internalType": "uint256[]",
          "name": "_amounts",
          "type": "uint256[]"
        },
        {
          "internalType": "bytes",
          "name": "_data",
          "type": "bytes"
        }
      ],
      "name": "safeBatchTransferFrom",
      "outputs": [],
      "stateMutability": "nonpayable",
      "type": "function"
    },
    {
      "inputs": [
        {
          "internalType": "address",
          "name": "_from",
          "type": "address"
        },
        {
          "internalType": "address",
          "name": "_to",
          "type": "address"
        },
        {
          "internalType": "uint256",
          "name": "_id",
          "type": "uint256"
        },
        {
          "internalType": "uint256",
          "name": "_amount",
          "type": "uint256"
        },
        {
          "internalType": "bytes",
          "name": "_data",
          "type": "bytes"
        }
      ],
      "name": "safeTransferFrom",
      "outputs": [],
      "stateMutability": "nonpayable",
      "type": "function"
    },
    {
      "inputs": [
        {
          "internalType": "address",
          "name": "_operator",
          "type": "address"
        },
        {
          "internalType": "bool",
          "name": "_approved",
          "type": "bool"
        }
      ],
      "name": "setApprovalForAll",
      "outputs": [],
      "stateMutability": "nonpayable",
      "type": "function"
    },
    {
      "inputs": [
        {
          "internalType": "bytes4",
          "name": "_interfaceID",
          "type": "bytes4"
        }
      ],
      "name": "supportsInterface",
      "outputs": [
        {
          "internalType": "bool",
          "name": "",
          "type": "bool"
        }
      ],
      "stateMutability": "pure",
      "type": "function"
    },
    {
      "inputs": [
        {
          "internalType": "address",
          "name": "_newOwner",
          "type": "address"
        }
      ],
      "name": "transferOwnership",
      "outputs": [],
      "stateMutability": "nonpayable",
      "type": "function"
    },
    {
      "inputs": [
        {
          "internalType": "uint256",
          "name": "_id",
          "type": "uint256"
        }
      ],
      "name": "uri",
      "outputs": [
        {
          "internalType": "string",
          "name": "",
          "type": "string"
        }
      ],
      "stateMutability": "view",
      "type": "function"
    }
  ],
  "bytecode": "0x60806040523480156200001157600080fd5b50604051620029563803806200295683398101604081905262000034916200019c565b600280547fffffffffffffffffffffffff00000000000000000000000000000000000000001633908117909155604051839183916000907f8be0079c531659141344cd1fd0a4f28419497f9722a3daafe3b4186f6b6457e0908290a360046200009e838262000296565b506003620000ad828262000296565b5050505050620003bd565b634e487b7160e01b600052604160045260246000fd5b600082601f830112620000e057600080fd5b815167ffffffffffffffff80821115620000fe57620000fe620000b8565b604051601f83017fffffffffffffffffffffffffffffffffffffffffffffffffffffffffffffffe0908116603f01168101908282118183101715620001475762000147620000b8565b816040528381526020925086838588010111156200016457600080fd5b600091505b8382101562000188578582018301518183018401529082019062000169565b600093810190920192909252949350505050565b60008060408385031215620001b057600080fd5b825167ffffffffffffffff80821115620001c957600080fd5b620001d786838701620000ce565b93506020850151915080821115620001ee57600080fd5b50620001fd85828601620000ce565b9150509250929050565b600181811c908216806200021c57607f821691505b6020821081036200023d57634e487b7160e01b600052602260045260246000fd5b50919050565b601f8211156200029157600081815260208120601f850160051c810160208610156200026c5750805b601f850160051c820191505b818110156200028d5782815560010162000278565b5050505b505050565b815167ffffffffffffffff811115620002b357620002b3620000b8565b620002cb81620002c4845462000207565b8462000243565b602080601f831160018114620003215760008415620002ea5750858301515b7fffffffffffffffffffffffffffffffffffffffffffffffffffffffffffffffff600386901b1c1916600185901b1785556200028d565b6000858152602081207fffffffffffffffffffffffffffffffffffffffffffffffffffffffffffffffe08616915b8281101562000370578886015182559484019460019091019084016200034f565b5085821015620003ad57878501517fffffffffffffffffffffffffffffffffffffffffffffffffffffffffffffffff600388901b60f8161c191681555b5050505050600190811b01905550565b61258980620003cd6000396000f3fe608060405234801561001057600080fd5b50600436106100ff5760003560e01c8063731133e911610097578063b48ab8b611610066578063b48ab8b6146102ae578063e985e9c5146102c1578063f242432a1461030a578063f2fde38b1461031d576100ff565b8063731133e91461024d5780638da5cb5b14610260578063a22cb46514610288578063b390c0ab1461029b576100ff565b806320ec271b116100d357806320ec271b146101fd5780632eb2c2d6146102125780634e1273f4146102255780636c0360eb14610245576100ff565b8062fdd58e1461018c57806301ffc9a7146101b257806306fdde03146101d55780630e89341c146101ea575b6040517f08c379a000000000000000000000000000000000000000000000000000000000815260206004820152602860248201527f455243313135354d696e744275726e4d6f636b4f776e65643a20494e56414c4960448201527f445f4d4554484f4400000000000000000000000000000000000000000000000060648201526084015b60405180910390fd5b61019f61019a366004611b02565b610330565b6040519081526020015b60405180910390f35b6101c56101c0366004611b5d565b610366565b60405190151581526020016101a9565b6101dd610371565b6040516101a99190611be8565b6101dd6101f8366004611bfb565b6103ff565b61021061020b366004611d21565b610433565b005b610210610220366004611e13565b610442565b610238610233366004611ebd565b6105e6565b6040516101a99190611fa1565b6101dd610786565b61021061025b366004611fb4565b610793565b60025460405173ffffffffffffffffffffffffffffffffffffffff90911681526020016101a9565b610210610296366004612015565b61084c565b6102106102a9366004612051565b6108e3565b6102106102bc366004612073565b6108ee565b6101c56102cf366004612100565b73ffffffffffffffffffffffffffffffffffffffff918216600090815260016020908152604080832093909416825291909152205460ff1690565b610210610318366004612133565b6109a1565b61021061032b366004612198565b610b3e565b73ffffffffffffffffffffffffffffffffffffffff82166000908152602081815260408083208484529091529020545b92915050565b600061036082610d16565b6004805461037e906121b3565b80601f01602080910402602001604051908101604052809291908181526020018280546103aa906121b3565b80156103f75780601f106103cc576101008083540402835291602001916103f7565b820191906000526020600020905b8154815290600101906020018083116103da57829003601f168201915b505050505081565b6060600361040c83610d72565b60405160200161041d929190612222565b6040516020818303038152906040529050919050565b61043e338383610ed2565b5050565b3373ffffffffffffffffffffffffffffffffffffffff86161480610496575073ffffffffffffffffffffffffffffffffffffffff8516600090815260016020908152604080832033845290915290205460ff165b610522576040517f08c379a000000000000000000000000000000000000000000000000000000000815260206004820152602f60248201527f45524331313535237361666542617463685472616e7366657246726f6d3a204960448201527f4e56414c49445f4f50455241544f5200000000000000000000000000000000006064820152608401610183565b73ffffffffffffffffffffffffffffffffffffffff84166105c5576040517f08c379a000000000000000000000000000000000000000000000000000000000815260206004820152603060248201527f45524331313535237361666542617463685472616e7366657246726f6d3a204960448201527f4e56414c49445f524543495049454e54000000000000000000000000000000006064820152608401610183565b6105d18585858561109e565b6105df858585855a86611303565b5050505050565b60608151835114610679576040517f08c379a000000000000000000000000000000000000000000000000000000000815260206004820152602c60248201527f455243313135352362616c616e63654f6642617463683a20494e56414c49445f60448201527f41525241595f4c454e47544800000000000000000000000000000000000000006064820152608401610183565b6000835167ffffffffffffffff81111561069557610695611c14565b6040519080825280602002602001820160405280156106be578160200160208202803683370190505b50905060005b845181101561077e576000808683815181106106e2576106e261232f565b602002602001015173ffffffffffffffffffffffffffffffffffffffff1673ffffffffffffffffffffffffffffffffffffffff16815260200190815260200160002060008583815181106107385761073861232f565b60200260200101518152602001908152602001600020548282815181106107615761076161232f565b6020908102919091010152806107768161238d565b9150506106c4565b509392505050565b6003805461037e906121b3565b60025473ffffffffffffffffffffffffffffffffffffffff16331461083a576040517f08c379a000000000000000000000000000000000000000000000000000000000815260206004820152602660248201527f4f776e61626c65236f6e6c794f776e65723a2053454e4445525f49535f4e4f5460448201527f5f4f574e455200000000000000000000000000000000000000000000000000006064820152608401610183565b6108468484848461148c565b50505050565b33600081815260016020908152604080832073ffffffffffffffffffffffffffffffffffffffff87168085529083529281902080547fffffffffffffffffffffffffffffffffffffffffffffffffffffffffffffff001686151590811790915590519081529192917f17307eab39ab6107e8899845ad3d59bd9653f200f220920489ca2b5937696c31910160405180910390a35050565b61043e338383611534565b60025473ffffffffffffffffffffffffffffffffffffffff163314610995576040517f08c379a000000000000000000000000000000000000000000000000000000000815260206004820152602660248201527f4f776e61626c65236f6e6c794f776e65723a2053454e4445525f49535f4e4f5460448201527f5f4f574e455200000000000000000000000000000000000000000000000000006064820152608401610183565b610846848484846115d2565b3373ffffffffffffffffffffffffffffffffffffffff861614806109f5575073ffffffffffffffffffffffffffffffffffffffff8516600090815260016020908152604080832033845290915290205460ff165b610a81576040517f08c379a000000000000000000000000000000000000000000000000000000000815260206004820152602a60248201527f4552433131353523736166655472616e7366657246726f6d3a20494e56414c4960448201527f445f4f50455241544f52000000000000000000000000000000000000000000006064820152608401610183565b73ffffffffffffffffffffffffffffffffffffffff8416610b24576040517f08c379a000000000000000000000000000000000000000000000000000000000815260206004820152602b60248201527f4552433131353523736166655472616e7366657246726f6d3a20494e56414c4960448201527f445f524543495049454e540000000000000000000000000000000000000000006064820152608401610183565b610b30858585856117a8565b6105df858585855a86611883565b60025473ffffffffffffffffffffffffffffffffffffffff163314610be5576040517f08c379a000000000000000000000000000000000000000000000000000000000815260206004820152602660248201527f4f776e61626c65236f6e6c794f776e65723a2053454e4445525f49535f4e4f5460448201527f5f4f574e455200000000000000000000000000000000000000000000000000006064820152608401610183565b73ffffffffffffffffffffffffffffffffffffffff8116610c88576040517f08c379a000000000000000000000000000000000000000000000000000000000815260206004820152602a60248201527f4f776e61626c65237472616e736665724f776e6572736869703a20494e56414c60448201527f49445f41444452455353000000000000000000000000000000000000000000006064820152608401610183565b60025460405173ffffffffffffffffffffffffffffffffffffffff8084169216907f8be0079c531659141344cd1fd0a4f28419497f9722a3daafe3b4186f6b6457e090600090a3600280547fffffffffffffffffffffffff00000000000000000000000000000000000000001673ffffffffffffffffffffffffffffffffffffffff92909216919091179055565b60007ff176cbe4000000000000000000000000000000000000000000000000000000007fffffffff00000000000000000000000000000000000000000000000000000000831601610d6957506001919050565b61036082611a02565b606081600003610db557505060408051808201909152600181527f3000000000000000000000000000000000000000000000000000000000000000602082015290565b8160005b8115610ddf5780610dc98161238d565b9150610dd89050600a836123c5565b9150610db9565b60008167ffffffffffffffff811115610dfa57610dfa611c14565b6040519080825280601f01601f191660200182016040528015610e24576020820181803683370190505b509050815b8515610ec957610e3a600182612400565b90506000610e49600a886123c5565b610e5490600a612413565b610e5e9088612400565b610e6990603061242a565b905060008160f81b905080848481518110610e8657610e8661232f565b60200101907effffffffffffffffffffffffffffffffffffffffffffffffffffffffffffff1916908160001a905350610ec0600a896123c5565b97505050610e29565b50949350505050565b815181518114610f64576040517f08c379a000000000000000000000000000000000000000000000000000000000815260206004820152603060248201527f455243313135354d696e744275726e2362617463684275726e3a20494e56414c60448201527f49445f4152524159535f4c454e475448000000000000000000000000000000006064820152608401610183565b60005b8181101561101857828181518110610f8157610f8161232f565b60200260200101516000808773ffffffffffffffffffffffffffffffffffffffff1673ffffffffffffffffffffffffffffffffffffffff1681526020019081526020016000206000868481518110610fdb57610fdb61232f565b6020026020010151815260200190815260200160002060008282546110009190612400565b909155508190506110108161238d565b915050610f67565b50600073ffffffffffffffffffffffffffffffffffffffff168473ffffffffffffffffffffffffffffffffffffffff163373ffffffffffffffffffffffffffffffffffffffff167f4a39dc06d4c0dbc64b70af90fd698a233a518aa5d07e595d983b8c0526c8f7fb8686604051611090929190612443565b60405180910390a450505050565b805182511461112f576040517f08c379a000000000000000000000000000000000000000000000000000000000815260206004820152603560248201527f45524331313535235f7361666542617463685472616e7366657246726f6d3a2060448201527f494e56414c49445f4152524159535f4c454e47544800000000000000000000006064820152608401610183565b815160005b8181101561127d5782818151811061114e5761114e61232f565b60200260200101516000808873ffffffffffffffffffffffffffffffffffffffff1673ffffffffffffffffffffffffffffffffffffffff16815260200190815260200160002060008684815181106111a8576111a861232f565b6020026020010151815260200190815260200160002060008282546111cd9190612400565b925050819055508281815181106111e6576111e661232f565b60200260200101516000808773ffffffffffffffffffffffffffffffffffffffff1673ffffffffffffffffffffffffffffffffffffffff16815260200190815260200160002060008684815181106112405761124061232f565b6020026020010151815260200190815260200160002060008282546112659190612468565b909155508190506112758161238d565b915050611134565b508373ffffffffffffffffffffffffffffffffffffffff168573ffffffffffffffffffffffffffffffffffffffff163373ffffffffffffffffffffffffffffffffffffffff167f4a39dc06d4c0dbc64b70af90fd698a233a518aa5d07e595d983b8c0526c8f7fb86866040516112f4929190612443565b60405180910390a45050505050565b6113228573ffffffffffffffffffffffffffffffffffffffff16611a9f565b156114845760008573ffffffffffffffffffffffffffffffffffffffff1663bc197c8184338a8989886040518763ffffffff1660e01b815260040161136b95949392919061247b565b60206040518083038160008887f115801561138a573d6000803e3d6000fd5b50505050506040513d601f19601f820116820180604052508101906113af91906124e6565b90507fffffffff0000000000000000000000000000000000000000000000000000000081167fbc197c810000000000000000000000000000000000000000000000000000000014611482576040517f08c379a000000000000000000000000000000000000000000000000000000000815260206004820152603f60248201527f45524331313535235f63616c6c6f6e455243313135354261746368526563656960448201527f7665643a20494e56414c49445f4f4e5f524543454956455f4d455353414745006064820152608401610183565b505b505050505050565b73ffffffffffffffffffffffffffffffffffffffff8416600090815260208181526040808320868452909152812080548492906114ca908490612468565b9091555050604080518481526020810184905273ffffffffffffffffffffffffffffffffffffffff86169160009133917fc3d58168c5ae7397731d063d5bbf3d657854427343f4c083240f7aacaa2d0f62910160405180910390a461084660008585855a86611883565b73ffffffffffffffffffffffffffffffffffffffff831660009081526020818152604080832085845290915281208054839290611572908490612400565b9091555050604080518381526020810183905260009173ffffffffffffffffffffffffffffffffffffffff86169133917fc3d58168c5ae7397731d063d5bbf3d657854427343f4c083240f7aacaa2d0f62910160405180910390a4505050565b8151835114611663576040517f08c379a000000000000000000000000000000000000000000000000000000000815260206004820152603060248201527f455243313135354d696e744275726e2362617463684d696e743a20494e56414c60448201527f49445f4152524159535f4c454e475448000000000000000000000000000000006064820152608401610183565b825160005b81811015611719578381815181106116825761168261232f565b60200260200101516000808873ffffffffffffffffffffffffffffffffffffffff1673ffffffffffffffffffffffffffffffffffffffff16815260200190815260200160002060008784815181106116dc576116dc61232f565b6020026020010151815260200190815260200160002060008282546117019190612468565b909155508190506117118161238d565b915050611668565b508473ffffffffffffffffffffffffffffffffffffffff16600073ffffffffffffffffffffffffffffffffffffffff163373ffffffffffffffffffffffffffffffffffffffff167f4a39dc06d4c0dbc64b70af90fd698a233a518aa5d07e595d983b8c0526c8f7fb8787604051611791929190612443565b60405180910390a46105df60008686865a87611303565b73ffffffffffffffffffffffffffffffffffffffff8416600090815260208181526040808320858452909152812080548392906117e6908490612400565b909155505073ffffffffffffffffffffffffffffffffffffffff831660009081526020818152604080832085845290915281208054839290611829908490612468565b9091555050604080518381526020810183905273ffffffffffffffffffffffffffffffffffffffff808616929087169133917fc3d58168c5ae7397731d063d5bbf3d657854427343f4c083240f7aacaa2d0f629101611090565b6118a28573ffffffffffffffffffffffffffffffffffffffff16611a9f565b156114845760008573ffffffffffffffffffffffffffffffffffffffff1663f23a6e6184338a8989886040518763ffffffff1660e01b81526004016118eb959493929190612503565b60206040518083038160008887f115801561190a573d6000803e3d6000fd5b50505050506040513d601f19601f8201168201806040525081019061192f91906124e6565b90507fffffffff0000000000000000000000000000000000000000000000000000000081167ff23a6e610000000000000000000000000000000000000000000000000000000014611482576040517f08c379a000000000000000000000000000000000000000000000000000000000815260206004820152603a60248201527f45524331313535235f63616c6c6f6e4552433131353552656365697665643a2060448201527f494e56414c49445f4f4e5f524543454956455f4d4553534147450000000000006064820152608401610183565b60007f264985da000000000000000000000000000000000000000000000000000000007fffffffff00000000000000000000000000000000000000000000000000000000831601611a5557506001919050565b7f01ffc9a7000000000000000000000000000000000000000000000000000000007fffffffff00000000000000000000000000000000000000000000000000000000831614610360565b6000813f8015801590611ad257507fc5d2460186f7233c927e7db2dcc703c0e500b653ca82273b7bfad8045d85a4708114155b9392505050565b803573ffffffffffffffffffffffffffffffffffffffff81168114611afd57600080fd5b919050565b60008060408385031215611b1557600080fd5b611b1e83611ad9565b946020939093013593505050565b7fffffffff0000000000000000000000000000000000000000000000000000000081168114611b5a57600080fd5b50565b600060208284031215611b6f57600080fd5b8135611ad281611b2c565b60005b83811015611b95578181015183820152602001611b7d565b50506000910152565b60008151808452611bb6816020860160208601611b7a565b601f017fffffffffffffffffffffffffffffffffffffffffffffffffffffffffffffffe0169290920160200192915050565b602081526000611ad26020830184611b9e565b600060208284031215611c0d57600080fd5b5035919050565b7f4e487b7100000000000000000000000000000000000000000000000000000000600052604160045260246000fd5b604051601f82017fffffffffffffffffffffffffffffffffffffffffffffffffffffffffffffffe016810167ffffffffffffffff81118282101715611c8a57611c8a611c14565b604052919050565b600067ffffffffffffffff821115611cac57611cac611c14565b5060051b60200190565b600082601f830112611cc757600080fd5b81356020611cdc611cd783611c92565b611c43565b82815260059290921b84018101918181019086841115611cfb57600080fd5b8286015b84811015611d165780358352918301918301611cff565b509695505050505050565b60008060408385031215611d3457600080fd5b823567ffffffffffffffff80821115611d4c57600080fd5b611d5886838701611cb6565b93506020850135915080821115611d6e57600080fd5b50611d7b85828601611cb6565b9150509250929050565b600082601f830112611d9657600080fd5b813567ffffffffffffffff811115611db057611db0611c14565b611de160207fffffffffffffffffffffffffffffffffffffffffffffffffffffffffffffffe0601f84011601611c43565b818152846020838601011115611df657600080fd5b816020850160208301376000918101602001919091529392505050565b600080600080600060a08688031215611e2b57600080fd5b611e3486611ad9565b9450611e4260208701611ad9565b9350604086013567ffffffffffffffff80821115611e5f57600080fd5b611e6b89838a01611cb6565b94506060880135915080821115611e8157600080fd5b611e8d89838a01611cb6565b93506080880135915080821115611ea357600080fd5b50611eb088828901611d85565b9150509295509295909350565b60008060408385031215611ed057600080fd5b823567ffffffffffffffff80821115611ee857600080fd5b818501915085601f830112611efc57600080fd5b81356020611f0c611cd783611c92565b82815260059290921b84018101918181019089841115611f2b57600080fd5b948201945b83861015611f5057611f4186611ad9565b82529482019490820190611f30565b96505086013592505080821115611d6e57600080fd5b600081518084526020808501945080840160005b83811015611f9657815187529582019590820190600101611f7a565b509495945050505050565b602081526000611ad26020830184611f66565b60008060008060808587031215611fca57600080fd5b611fd385611ad9565b93506020850135925060408501359150606085013567ffffffffffffffff811115611ffd57600080fd5b61200987828801611d85565b91505092959194509250565b6000806040838503121561202857600080fd5b61203183611ad9565b91506020830135801515811461204657600080fd5b809150509250929050565b6000806040838503121561206457600080fd5b50508035926020909101359150565b6000806000806080858703121561208957600080fd5b61209285611ad9565b9350602085013567ffffffffffffffff808211156120af57600080fd5b6120bb88838901611cb6565b945060408701359150808211156120d157600080fd5b6120dd88838901611cb6565b935060608701359150808211156120f357600080fd5b5061200987828801611d85565b6000806040838503121561211357600080fd5b61211c83611ad9565b915061212a60208401611ad9565b90509250929050565b600080600080600060a0868803121561214b57600080fd5b61215486611ad9565b945061216260208701611ad9565b93506040860135925060608601359150608086013567ffffffffffffffff81111561218c57600080fd5b611eb088828901611d85565b6000602082840312156121aa57600080fd5b611ad282611ad9565b600181811c908216806121c757607f821691505b602082108103612200577f4e487b7100000000000000000000000000000000000000000000000000000000600052602260045260246000fd5b50919050565b60008151612218818560208601611b7a565b9290920192915050565b600080845481600182811c91508083168061223e57607f831692505b60208084108203612276577f4e487b710000000000000000000000000000000000000000000000000000000086526022600452602486fd5b81801561228a57600181146122bd576122ea565b7fffffffffffffffffffffffffffffffffffffffffffffffffffffffffffffff00861689528415158502890196506122ea565b60008b81526020902060005b868110156122e25781548b8201529085019083016122c9565b505084890196505b5050505050506123266122fd8286612206565b7f2e6a736f6e000000000000000000000000000000000000000000000000000000815260050190565b95945050505050565b7f4e487b7100000000000000000000000000000000000000000000000000000000600052603260045260246000fd5b7f4e487b7100000000000000000000000000000000000000000000000000000000600052601160045260246000fd5b60007fffffffffffffffffffffffffffffffffffffffffffffffffffffffffffffffff82036123be576123be61235e565b5060010190565b6000826123fb577f4e487b7100000000000000000000000000000000000000000000000000000000600052601260045260246000fd5b500490565b818103818111156103605761036061235e565b80820281158282048414176103605761036061235e565b60ff81811683821601908111156103605761036061235e565b6040815260006124566040830185611f66565b82810360208401526123268185611f66565b808201808211156103605761036061235e565b600073ffffffffffffffffffffffffffffffffffffffff808816835280871660208401525060a060408301526124b460a0830186611f66565b82810360608401526124c68186611f66565b905082810360808401526124da8185611b9e565b98975050505050505050565b6000602082840312156124f857600080fd5b8151611ad281611b2c565b600073ffffffffffffffffffffffffffffffffffffffff808816835280871660208401525084604083015283606083015260a0608083015261254860a0830184611b9e565b97965050505050505056fea2646970667358221220d434b7f3d8efff948a4ba927ed29c35b932037a49587441744d32cee77bbbc4964736f6c63430008120033",
  "linkReferences": {},
  "deployedLinkReferences": {}
}