{
  "_format": "hh-sol-artifact-1",
  "contractName": "ERC1155MintBurnMockOwned",
  "sourceName": "contracts/mocks/ERC1155MintBurnMockOwned.sol",
  "abi": [
    {
      "inputs": [
        {
          "internalType": "string",
          "name": "_name",
          "type": "string"
        },
        {
          "internalType": "string",
          "name": "_baseURI",
          "type": "string"
        }
      ],
      "stateMutability": "nonpayable",
      "type": "constructor"
    },
    {
      "anonymous": false,
      "inputs": [
        {
          "indexed": true,
          "internalType": "address",
          "name": "_owner",
          "type": "address"
        },
        {
          "indexed": true,
          "internalType": "address",
          "name": "_operator",
          "type": "address"
        },
        {
          "indexed": false,
          "internalType": "bool",
          "name": "_approved",
          "type": "bool"
        }
      ],
      "name": "ApprovalForAll",
      "type": "event"
    },
    {
      "anonymous": false,
      "inputs": [
        {
          "indexed": true,
          "internalType": "address",
          "name": "previousOwner",
          "type": "address"
        },
        {
          "indexed": true,
          "internalType": "address",
          "name": "newOwner",
          "type": "address"
        }
      ],
      "name": "OwnershipTransferred",
      "type": "event"
    },
    {
      "anonymous": false,
      "inputs": [
        {
          "indexed": true,
          "internalType": "address",
          "name": "_operator",
          "type": "address"
        },
        {
          "indexed": true,
          "internalType": "address",
          "name": "_from",
          "type": "address"
        },
        {
          "indexed": true,
          "internalType": "address",
          "name": "_to",
          "type": "address"
        },
        {
          "indexed": false,
          "internalType": "uint256[]",
          "name": "_ids",
          "type": "uint256[]"
        },
        {
          "indexed": false,
          "internalType": "uint256[]",
          "name": "_amounts",
          "type": "uint256[]"
        }
      ],
      "name": "TransferBatch",
      "type": "event"
    },
    {
      "anonymous": false,
      "inputs": [
        {
          "indexed": true,
          "internalType": "address",
          "name": "_operator",
          "type": "address"
        },
        {
          "indexed": true,
          "internalType": "address",
          "name": "_from",
          "type": "address"
        },
        {
          "indexed": true,
          "internalType": "address",
          "name": "_to",
          "type": "address"
        },
        {
          "indexed": false,
          "internalType": "uint256",
          "name": "_id",
          "type": "uint256"
        },
        {
          "indexed": false,
          "internalType": "uint256",
          "name": "_amount",
          "type": "uint256"
        }
      ],
      "name": "TransferSingle",
      "type": "event"
    },
    {
      "anonymous": false,
      "inputs": [
        {
          "indexed": false,
          "internalType": "string",
          "name": "_uri",
          "type": "string"
        },
        {
          "indexed": true,
          "internalType": "uint256",
          "name": "_id",
          "type": "uint256"
        }
      ],
      "name": "URI",
      "type": "event"
    },
    {
      "stateMutability": "nonpayable",
      "type": "fallback"
    },
    {
      "inputs": [
        {
          "internalType": "address",
          "name": "_owner",
          "type": "address"
        },
        {
          "internalType": "uint256",
          "name": "_id",
          "type": "uint256"
        }
      ],
      "name": "balanceOf",
      "outputs": [
        {
          "internalType": "uint256",
          "name": "",
          "type": "uint256"
        }
      ],
      "stateMutability": "view",
      "type": "function"
    },
    {
      "inputs": [
        {
          "internalType": "address[]",
          "name": "_owners",
          "type": "address[]"
        },
        {
          "internalType": "uint256[]",
          "name": "_ids",
          "type": "uint256[]"
        }
      ],
      "name": "balanceOfBatch",
      "outputs": [
        {
          "internalType": "uint256[]",
          "name": "",
          "type": "uint256[]"
        }
      ],
      "stateMutability": "view",
      "type": "function"
    },
    {
      "inputs": [],
      "name": "baseURI",
      "outputs": [
        {
          "internalType": "string",
          "name": "",
          "type": "string"
        }
      ],
      "stateMutability": "view",
      "type": "function"
    },
    {
      "inputs": [
        {
          "internalType": "address",
          "name": "_from",
          "type": "address"
        },
        {
          "internalType": "uint256[]",
          "name": "_ids",
          "type": "uint256[]"
        },
        {
          "internalType": "uint256[]",
          "name": "_values",
          "type": "uint256[]"
        }
      ],
      "name": "batchBurn",
      "outputs": [],
      "stateMutability": "nonpayable",
      "type": "function"
    },
    {
      "inputs": [
        {
          "internalType": "address",
          "name": "_to",
          "type": "address"
        },
        {
          "internalType": "uint256[]",
          "name": "_ids",
          "type": "uint256[]"
        },
        {
          "internalType": "uint256[]",
          "name": "_values",
          "type": "uint256[]"
        },
        {
          "internalType": "bytes",
          "name": "_data",
          "type": "bytes"
        }
      ],
      "name": "batchMint",
      "outputs": [],
      "stateMutability": "nonpayable",
      "type": "function"
    },
    {
      "inputs": [
        {
          "internalType": "address",
          "name": "_from",
          "type": "address"
        },
        {
          "internalType": "uint256",
          "name": "_id",
          "type": "uint256"
        },
        {
          "internalType": "uint256",
          "name": "_value",
          "type": "uint256"
        }
      ],
      "name": "burn",
      "outputs": [],
      "stateMutability": "nonpayable",
      "type": "function"
    },
    {
      "inputs": [
        {
          "internalType": "address",
          "name": "_owner",
          "type": "address"
        },
        {
          "internalType": "address",
          "name": "_operator",
          "type": "address"
        }
      ],
      "name": "isApprovedForAll",
      "outputs": [
        {
          "internalType": "bool",
          "name": "isOperator",
          "type": "bool"
        }
      ],
      "stateMutability": "view",
      "type": "function"
    },
    {
      "inputs": [
        {
          "internalType": "address",
          "name": "_to",
          "type": "address"
        },
        {
          "internalType": "uint256",
          "name": "_id",
          "type": "uint256"
        },
        {
          "internalType": "uint256",
          "name": "_value",
          "type": "uint256"
        },
        {
          "internalType": "bytes",
          "name": "_data",
          "type": "bytes"
        }
      ],
      "name": "mint",
      "outputs": [],
      "stateMutability": "nonpayable",
      "type": "function"
    },
    {
      "inputs": [],
      "name": "name",
      "outputs": [
        {
          "internalType": "string",
          "name": "",
          "type": "string"
        }
      ],
      "stateMutability": "view",
      "type": "function"
    },
    {
      "inputs": [],
      "name": "owner",
      "outputs": [
        {
          "internalType": "address",
          "name": "",
          "type": "address"
        }
      ],
      "stateMutability": "view",
      "type": "function"
    },
    {
      "inputs": [
        {
          "internalType": "address",
          "name": "_from",
          "type": "address"
        },
        {
          "internalType": "address",
          "name": "_to",
          "type": "address"
        },
        {
          "internalType": "uint256[]",
          "name": "_ids",
          "type": "uint256[]"
        },
        {
          "internalType": "uint256[]",
          "name": "_amounts",
          "type": "uint256[]"
        },
        {
          "internalType": "bytes",
          "name": "_data",
          "type": "bytes"
        }
      ],
      "name": "safeBatchTransferFrom",
      "outputs": [],
      "stateMutability": "nonpayable",
      "type": "function"
    },
    {
      "inputs": [
        {
          "internalType": "address",
          "name": "_from",
          "type": "address"
        },
        {
          "internalType": "address",
          "name": "_to",
          "type": "address"
        },
        {
          "internalType": "uint256",
          "name": "_id",
          "type": "uint256"
        },
        {
          "internalType": "uint256",
          "name": "_amount",
          "type": "uint256"
        },
        {
          "internalType": "bytes",
          "name": "_data",
          "type": "bytes"
        }
      ],
      "name": "safeTransferFrom",
      "outputs": [],
      "stateMutability": "nonpayable",
      "type": "function"
    },
    {
      "inputs": [
        {
          "internalType": "address",
          "name": "_operator",
          "type": "address"
        },
        {
          "internalType": "bool",
          "name": "_approved",
          "type": "bool"
        }
      ],
      "name": "setApprovalForAll",
      "outputs": [],
      "stateMutability": "nonpayable",
      "type": "function"
    },
    {
      "inputs": [
        {
          "internalType": "bytes4",
          "name": "_interfaceID",
          "type": "bytes4"
        }
      ],
      "name": "supportsInterface",
      "outputs": [
        {
          "internalType": "bool",
          "name": "",
          "type": "bool"
        }
      ],
      "stateMutability": "pure",
      "type": "function"
    },
    {
      "inputs": [
        {
          "internalType": "address",
          "name": "_newOwner",
          "type": "address"
        }
      ],
      "name": "transferOwnership",
      "outputs": [],
      "stateMutability": "nonpayable",
      "type": "function"
    },
    {
      "inputs": [
        {
          "internalType": "uint256",
          "name": "_id",
          "type": "uint256"
        }
      ],
      "name": "uri",
      "outputs": [
        {
          "internalType": "string",
          "name": "",
          "type": "string"
        }
      ],
      "stateMutability": "view",
      "type": "function"
    }
  ],
  "bytecode": "0x60806040523480156200001157600080fd5b5060405162002a5838038062002a5883398101604081905262000034916200024d565b600280547fffffffffffffffffffffffff0000000000000000000000000000000000000000163317908190556040518391839173ffffffffffffffffffffffffffffffffffffffff91909116906000907f8be0079c531659141344cd1fd0a4f28419497f9722a3daafe3b4186f6b6457e0908290a38151620000be906004906020850190620000df565b508051620000d4906003906020840190620000df565b5050505050620002b5565b828054600181600116156101000203166002900490600052602060002090601f01602090048101928262000117576000855562000162565b82601f106200013257805160ff191683800117855562000162565b8280016001018555821562000162579182015b828111156200016257825182559160200191906001019062000145565b506200017092915062000174565b5090565b5b8082111562000170576000815560010162000175565b600082601f8301126200019c578081fd5b815167ffffffffffffffff80821115620001b257fe5b6040516020601f84017fffffffffffffffffffffffffffffffffffffffffffffffffffffffffffffffe016820181018381118382101715620001f057fe5b806040525081945083825286818588010111156200020d57600080fd5b600092505b8383101562000231578583018101518284018201529182019162000212565b83831115620002435760008185840101525b5050505092915050565b6000806040838503121562000260578182fd5b825167ffffffffffffffff8082111562000278578384fd5b62000286868387016200018b565b935060208501519150808211156200029c578283fd5b50620002ab858286016200018b565b9150509250929050565b61279380620002c56000396000f3fe608060405234801561001057600080fd5b50600436106100ff5760003560e01c80638da5cb5b11610097578063f242432a11610066578063f242432a14610249578063f2fde38b1461025c578063f5298aca1461026f578063f6eb127a14610282576100ff565b80638da5cb5b146101fb578063a22cb46514610210578063b48ab8b614610223578063e985e9c514610236576100ff565b80632eb2c2d6116100d35780632eb2c2d6146101ab5780634e1273f4146101c05780636c0360eb146101e0578063731133e9146101e8576100ff565b8062fdd58e1461013a57806301ffc9a71461016357806306fdde03146101835780630e89341c14610198575b6040517f08c379a000000000000000000000000000000000000000000000000000000000815260040161013190612477565b60405180910390fd5b61014d6101483660046121cf565b610295565b60405161015a91906124d4565b60405180910390f35b61017661017136600461233e565b6102c8565b60405161015a91906123fb565b61018b6102db565b60405161015a9190612406565b61018b6101a636600461237e565b610387565b6101be6101b9366004611f86565b6104da565b005b6101d36101ce36600461227d565b6105e5565b60405161015a91906123b7565b61018b610731565b6101be6101f636600461222a565b6107aa565b61020361082c565b60405161015a9190612396565b6101be61021e366004612195565b610848565b6101be610231366004612100565b6108e1565b610176610244366004611f54565b61095d565b6101be61025736600461202c565b610998565b6101be61026a366004611f3a565b610a9c565b6101be61027d3660046121f8565b610c06565b6101be61029036600461208f565b610c16565b73ffffffffffffffffffffffffffffffffffffffff91909116600090815260208181526040808320938352929052205490565b60006102d382610c21565b90505b919050565b6004805460408051602060026001851615610100027fffffffffffffffffffffffffffffffffffffffffffffffffffffffffffffffff0190941693909304601f8101849004840282018401909252818152929183018282801561037f5780601f106103545761010080835404028352916020019161037f565b820191906000526020600020905b81548152906001019060200180831161036257829003601f168201915b505050505081565b6060600361039483610c7e565b60405160200180838054600181600116156101000203166002900480156103f25780601f106103d05761010080835404028352918201916103f2565b820191906000526020600020905b8154815290600101906020018083116103de575b5050825160208401908083835b6020831061043c57805182527fffffffffffffffffffffffffffffffffffffffffffffffffffffffffffffffe090920191602091820191016103ff565b5181516020939093036101000a7fffffffffffffffffffffffffffffffffffffffffffffffffffffffffffffffff01801990911692169190911790527f2e6a736f6e000000000000000000000000000000000000000000000000000000920191825250604080518083037fffffffffffffffffffffffffffffffffffffffffffffffffffffffffffffffe50181526005909201905295945050505050565b3373ffffffffffffffffffffffffffffffffffffffff861614806105035750610503853361095d565b610558576040517f08c379a000000000000000000000000000000000000000000000000000000000815260040180806020018281038252602f815260200180612660602f913960400191505060405180910390fd5b73ffffffffffffffffffffffffffffffffffffffff84166105c4576040517f08c379a00000000000000000000000000000000000000000000000000000000081526004018080602001828103825260308152602001806125d46030913960400191505060405180910390fd5b6105d085858585610daa565b6105de858585855a866110fe565b5050505050565b60608151835114610641576040517f08c379a000000000000000000000000000000000000000000000000000000000815260040180806020018281038252602c815260200180612634602c913960400191505060405180910390fd5b6060835167ffffffffffffffff8111801561065b57600080fd5b50604051908082528060200260200182016040528015610685578160200160208202803683370190505b50905060005b8451811015610729576000808683815181106106a357fe5b602002602001015173ffffffffffffffffffffffffffffffffffffffff1673ffffffffffffffffffffffffffffffffffffffff16815260200190815260200160002060008583815181106106f357fe5b602002602001015181526020019081526020016000205482828151811061071657fe5b602090810291909101015260010161068b565b509392505050565b6003805460408051602060026001851615610100027fffffffffffffffffffffffffffffffffffffffffffffffffffffffffffffffff0190941693909304601f8101849004840282018401909252818152929183018282801561037f5780601f106103545761010080835404028352916020019161037f565b60025473ffffffffffffffffffffffffffffffffffffffff16331461081a576040517f08c379a00000000000000000000000000000000000000000000000000000000081526004018080602001828103825260268152602001806127386026913960400191505060405180910390fd5b61082684848484611375565b50505050565b60025473ffffffffffffffffffffffffffffffffffffffff1690565b33600081815260016020908152604080832073ffffffffffffffffffffffffffffffffffffffff87168085529083529281902080547fffffffffffffffffffffffffffffffffffffffffffffffffffffffffffffff0016861515908117909155815190815290519293927f17307eab39ab6107e8899845ad3d59bd9653f200f220920489ca2b5937696c31929181900390910190a35050565b60025473ffffffffffffffffffffffffffffffffffffffff163314610951576040517f08c379a00000000000000000000000000000000000000000000000000000000081526004018080602001828103825260268152602001806127386026913960400191505060405180910390fd5b6108268484848461142a565b73ffffffffffffffffffffffffffffffffffffffff918216600090815260016020908152604080832093909416825291909152205460ff1690565b3373ffffffffffffffffffffffffffffffffffffffff861614806109c157506109c1853361095d565b610a16576040517f08c379a000000000000000000000000000000000000000000000000000000000815260040180806020018281038252602a81526020018061254b602a913960400191505060405180910390fd5b73ffffffffffffffffffffffffffffffffffffffff8416610a82576040517f08c379a000000000000000000000000000000000000000000000000000000000815260040180806020018281038252602b815260200180612520602b913960400191505060405180910390fd5b610a8e85858585611674565b6105de858585855a86611777565b60025473ffffffffffffffffffffffffffffffffffffffff163314610b0c576040517f08c379a00000000000000000000000000000000000000000000000000000000081526004018080602001828103825260268152602001806127386026913960400191505060405180910390fd5b73ffffffffffffffffffffffffffffffffffffffff8116610b78576040517f08c379a000000000000000000000000000000000000000000000000000000000815260040180806020018281038252602a8152602001806125aa602a913960400191505060405180910390fd5b60025460405173ffffffffffffffffffffffffffffffffffffffff8084169216907f8be0079c531659141344cd1fd0a4f28419497f9722a3daafe3b4186f6b6457e090600090a3600280547fffffffffffffffffffffffff00000000000000000000000000000000000000001673ffffffffffffffffffffffffffffffffffffffff92909216919091179055565b610c11838383611968565b505050565b610c11838383611a13565b60007fffffffff0000000000000000000000000000000000000000000000000000000082167f0e89341c000000000000000000000000000000000000000000000000000000001415610c75575060016102d6565b6102d382611c53565b606081610cbf575060408051808201909152600181527f300000000000000000000000000000000000000000000000000000000000000060208201526102d6565b818060005b8215610cd857600101600a83049250610cc4565b60608167ffffffffffffffff81118015610cf157600080fd5b506040519080825280601f01601f191660200182016040528015610d1c576020820181803683370190505b5090507fffffffffffffffffffffffffffffffffffffffffffffffffffffffffffffffff82015b8315610da057600a840660300160f81b82828060019003935081518110610d6657fe5b60200101907effffffffffffffffffffffffffffffffffffffffffffffffffffffffffffff1916908160001a905350600a84049350610d43565b5095945050505050565b8051825114610e04576040517f08c379a00000000000000000000000000000000000000000000000000000000081526004018080602001828103825260358152602001806125756035913960400191505060405180910390fd5b815160005b81811015610ff657610e99838281518110610e2057fe5b60200260200101516000808973ffffffffffffffffffffffffffffffffffffffff1673ffffffffffffffffffffffffffffffffffffffff1681526020019081526020016000206000878581518110610e7457fe5b6020026020010151815260200190815260200160002054611cb090919063ffffffff16565b6000808873ffffffffffffffffffffffffffffffffffffffff1673ffffffffffffffffffffffffffffffffffffffff1681526020019081526020016000206000868481518110610ee557fe5b6020026020010151815260200190815260200160002081905550610f87838281518110610f0e57fe5b60200260200101516000808873ffffffffffffffffffffffffffffffffffffffff1673ffffffffffffffffffffffffffffffffffffffff1681526020019081526020016000206000878581518110610f6257fe5b6020026020010151815260200190815260200160002054611d2790919063ffffffff16565b6000808773ffffffffffffffffffffffffffffffffffffffff1673ffffffffffffffffffffffffffffffffffffffff1681526020019081526020016000206000868481518110610fd357fe5b602090810291909101810151825281019190915260400160002055600101610e09565b508373ffffffffffffffffffffffffffffffffffffffff168573ffffffffffffffffffffffffffffffffffffffff163373ffffffffffffffffffffffffffffffffffffffff167f4a39dc06d4c0dbc64b70af90fd698a233a518aa5d07e595d983b8c0526c8f7fb8686604051808060200180602001838103835285818151815260200191508051906020019060200280838360005b838110156110a357818101518382015260200161108b565b50505050905001838103825284818151815260200191508051906020019060200280838360005b838110156110e25781810151838201526020016110ca565b5050505090500194505050505060405180910390a45050505050565b61111d8573ffffffffffffffffffffffffffffffffffffffff16611da2565b1561136d5760008573ffffffffffffffffffffffffffffffffffffffff1663bc197c8184338a8989886040518763ffffffff1660e01b8152600401808673ffffffffffffffffffffffffffffffffffffffff1681526020018573ffffffffffffffffffffffffffffffffffffffff168152602001806020018060200180602001848103845287818151815260200191508051906020019060200280838360005b838110156111d55781810151838201526020016111bd565b50505050905001848103835286818151815260200191508051906020019060200280838360005b838110156112145781810151838201526020016111fc565b50505050905001848103825285818151815260200191508051906020019080838360005b83811015611250578181015183820152602001611238565b50505050905090810190601f16801561127d5780820380516001836020036101000a031916815260200191505b5098505050505050505050602060405180830381600088803b1580156112a257600080fd5b5087f11580156112b6573d6000803e3d6000fd5b50505050506040513d60208110156112cd57600080fd5b505190507fffffffff0000000000000000000000000000000000000000000000000000000081167fbc197c81000000000000000000000000000000000000000000000000000000001461136b576040517f08c379a000000000000000000000000000000000000000000000000000000000815260040180806020018281038252603f8152602001806126bf603f913960400191505060405180910390fd5b505b505050505050565b73ffffffffffffffffffffffffffffffffffffffff84166000908152602081815260408083208684529091529020546113ae9083611d27565b73ffffffffffffffffffffffffffffffffffffffff8516600081815260208181526040808320888452825280832094909455835187815290810186905283519293919233927fc3d58168c5ae7397731d063d5bbf3d657854427343f4c083240f7aacaa2d0f62928290030190a461082660008585855a86611777565b8151835114611484576040517f08c379a000000000000000000000000000000000000000000000000000000000815260040180806020018281038252603081526020018061268f6030913960400191505060405180910390fd5b825160005b81811015611563576114f48482815181106114a057fe5b60200260200101516000808973ffffffffffffffffffffffffffffffffffffffff1673ffffffffffffffffffffffffffffffffffffffff1681526020019081526020016000206000888581518110610f6257fe5b6000808873ffffffffffffffffffffffffffffffffffffffff1673ffffffffffffffffffffffffffffffffffffffff168152602001908152602001600020600087848151811061154057fe5b602090810291909101810151825281019190915260400160002055600101611489565b508473ffffffffffffffffffffffffffffffffffffffff16600073ffffffffffffffffffffffffffffffffffffffff163373ffffffffffffffffffffffffffffffffffffffff167f4a39dc06d4c0dbc64b70af90fd698a233a518aa5d07e595d983b8c0526c8f7fb8787604051808060200180602001838103835285818151815260200191508051906020019060200280838360005b838110156116115781810151838201526020016115f9565b50505050905001838103825284818151815260200191508051906020019060200280838360005b83811015611650578181015183820152602001611638565b5050505090500194505050505060405180910390a46105de60008686865a876110fe565b73ffffffffffffffffffffffffffffffffffffffff84166000908152602081815260408083208584529091529020546116ad9082611cb0565b73ffffffffffffffffffffffffffffffffffffffff808616600090815260208181526040808320878452825280832094909455918616815280825282812085825290915220546116fd9082611d27565b73ffffffffffffffffffffffffffffffffffffffff808516600081815260208181526040808320888452825291829020949094558051868152938401859052805191939288169233927fc3d58168c5ae7397731d063d5bbf3d657854427343f4c083240f7aacaa2d0f62929181900390910190a450505050565b6117968573ffffffffffffffffffffffffffffffffffffffff16611da2565b1561136d5760008573ffffffffffffffffffffffffffffffffffffffff1663f23a6e6184338a8989886040518763ffffffff1660e01b8152600401808673ffffffffffffffffffffffffffffffffffffffff1681526020018573ffffffffffffffffffffffffffffffffffffffff16815260200184815260200183815260200180602001828103825283818151815260200191508051906020019080838360005b8381101561184f578181015183820152602001611837565b50505050905090810190601f16801561187c5780820380516001836020036101000a031916815260200191505b509650505050505050602060405180830381600088803b15801561189f57600080fd5b5087f11580156118b3573d6000803e3d6000fd5b50505050506040513d60208110156118ca57600080fd5b505190507fffffffff0000000000000000000000000000000000000000000000000000000081167ff23a6e61000000000000000000000000000000000000000000000000000000001461136b576040517f08c379a000000000000000000000000000000000000000000000000000000000815260040180806020018281038252603a8152602001806126fe603a913960400191505060405180910390fd5b73ffffffffffffffffffffffffffffffffffffffff83166000908152602081815260408083208584529091529020546119a19082611cb0565b73ffffffffffffffffffffffffffffffffffffffff841660008181526020818152604080832087845282528083209490945583518681529081018590528351919333927fc3d58168c5ae7397731d063d5bbf3d657854427343f4c083240f7aacaa2d0f629281900390910190a4505050565b815181518114611a6e576040517f08c379a00000000000000000000000000000000000000000000000000000000081526004018080602001828103825260308152602001806126046030913960400191505060405180910390fd5b60005b81811015611b4b57611adc838281518110611a8857fe5b60200260200101516000808873ffffffffffffffffffffffffffffffffffffffff1673ffffffffffffffffffffffffffffffffffffffff1681526020019081526020016000206000878581518110610e7457fe5b6000808773ffffffffffffffffffffffffffffffffffffffff1673ffffffffffffffffffffffffffffffffffffffff1681526020019081526020016000206000868481518110611b2857fe5b602090810291909101810151825281019190915260400160002055600101611a71565b50600073ffffffffffffffffffffffffffffffffffffffff168473ffffffffffffffffffffffffffffffffffffffff163373ffffffffffffffffffffffffffffffffffffffff167f4a39dc06d4c0dbc64b70af90fd698a233a518aa5d07e595d983b8c0526c8f7fb8686604051808060200180602001838103835285818151815260200191508051906020019060200280838360005b83811015611bf9578181015183820152602001611be1565b50505050905001838103825284818151815260200191508051906020019060200280838360005b83811015611c38578181015183820152602001611c20565b5050505090500194505050505060405180910390a450505050565b60007fffffffff0000000000000000000000000000000000000000000000000000000082167fd9b67a26000000000000000000000000000000000000000000000000000000001415611ca7575060016102d6565b6102d382611dd9565b600082821115611d2157604080517f08c379a000000000000000000000000000000000000000000000000000000000815260206004820152601760248201527f536166654d617468237375623a20554e444552464c4f57000000000000000000604482015290519081900360640190fd5b50900390565b600082820183811015611d9b57604080517f08c379a000000000000000000000000000000000000000000000000000000000815260206004820152601660248201527f536166654d617468236164643a204f564552464c4f5700000000000000000000604482015290519081900360640190fd5b9392505050565b6000813f8015801590611d9b57507fc5d2460186f7233c927e7db2dcc703c0e500b653ca82273b7bfad8045d85a470141592915050565b7fffffffff0000000000000000000000000000000000000000000000000000000081167f01ffc9a70000000000000000000000000000000000000000000000000000000014919050565b803573ffffffffffffffffffffffffffffffffffffffff811681146102d657600080fd5b600082601f830112611e57578081fd5b8135611e6a611e6582612501565b6124dd565b818152915060208083019084810181840286018201871015611e8b57600080fd5b60005b84811015611eaa57813584529282019290820190600101611e8e565b505050505092915050565b600082601f830112611ec5578081fd5b813567ffffffffffffffff811115611ed957fe5b611f0a60207fffffffffffffffffffffffffffffffffffffffffffffffffffffffffffffffe0601f840116016124dd565b9150808252836020828501011115611f2157600080fd5b8060208401602084013760009082016020015292915050565b600060208284031215611f4b578081fd5b611d9b82611e23565b60008060408385031215611f66578081fd5b611f6f83611e23565b9150611f7d60208401611e23565b90509250929050565b600080600080600060a08688031215611f9d578081fd5b611fa686611e23565b9450611fb460208701611e23565b9350604086013567ffffffffffffffff80821115611fd0578283fd5b611fdc89838a01611e47565b94506060880135915080821115611ff1578283fd5b611ffd89838a01611e47565b93506080880135915080821115612012578283fd5b5061201f88828901611eb5565b9150509295509295909350565b600080600080600060a08688031215612043578081fd5b61204c86611e23565b945061205a60208701611e23565b93506040860135925060608601359150608086013567ffffffffffffffff811115612083578182fd5b61201f88828901611eb5565b6000806000606084860312156120a3578283fd5b6120ac84611e23565b9250602084013567ffffffffffffffff808211156120c8578384fd5b6120d487838801611e47565b935060408601359150808211156120e9578283fd5b506120f686828701611e47565b9150509250925092565b60008060008060808587031215612115578384fd5b61211e85611e23565b9350602085013567ffffffffffffffff8082111561213a578485fd5b61214688838901611e47565b9450604087013591508082111561215b578384fd5b61216788838901611e47565b9350606087013591508082111561217c578283fd5b5061218987828801611eb5565b91505092959194509250565b600080604083850312156121a7578182fd5b6121b083611e23565b9150602083013580151581146121c4578182fd5b809150509250929050565b600080604083850312156121e1578182fd5b6121ea83611e23565b946020939093013593505050565b60008060006060848603121561220c578283fd5b61221584611e23565b95602085013595506040909401359392505050565b6000806000806080858703121561223f578384fd5b61224885611e23565b93506020850135925060408501359150606085013567ffffffffffffffff811115612271578182fd5b61218987828801611eb5565b6000806040838503121561228f578182fd5b823567ffffffffffffffff808211156122a6578384fd5b818501915085601f8301126122b9578384fd5b81356122c7611e6582612501565b80828252602080830192508086018a8283870289010111156122e7578889fd5b8896505b84871015612310576122fc81611e23565b8452600196909601959281019281016122eb565b509096508701359350505080821115612327578283fd5b5061233485828601611e47565b9150509250929050565b60006020828403121561234f578081fd5b81357fffffffff0000000000000000000000000000000000000000000000000000000081168114611d9b578182fd5b60006020828403121561238f578081fd5b5035919050565b73ffffffffffffffffffffffffffffffffffffffff91909116815260200190565b6020808252825182820181905260009190848201906040850190845b818110156123ef578351835292840192918401916001016123d3565b50909695505050505050565b901515815260200190565b6000602080835283518082850152825b8181101561243257858101830151858201604001528201612416565b818111156124435783604083870101525b50601f017fffffffffffffffffffffffffffffffffffffffffffffffffffffffffffffffe016929092016040019392505050565b60208082526028908201527f455243313135354d696e744275726e4d6f636b4f776e65643a20494e56414c4960408201527f445f4d4554484f44000000000000000000000000000000000000000000000000606082015260800190565b90815260200190565b60405181810167ffffffffffffffff811182821017156124f957fe5b604052919050565b600067ffffffffffffffff82111561251557fe5b506020908102019056fe4552433131353523736166655472616e7366657246726f6d3a20494e56414c49445f524543495049454e544552433131353523736166655472616e7366657246726f6d3a20494e56414c49445f4f50455241544f5245524331313535235f7361666542617463685472616e7366657246726f6d3a20494e56414c49445f4152524159535f4c454e4754484f776e61626c65237472616e736665724f776e6572736869703a20494e56414c49445f4144445245535345524331313535237361666542617463685472616e7366657246726f6d3a20494e56414c49445f524543495049454e54455243313135354d696e744275726e2362617463684275726e3a20494e56414c49445f4152524159535f4c454e475448455243313135352362616c616e63654f6642617463683a20494e56414c49445f41525241595f4c454e47544845524331313535237361666542617463685472616e7366657246726f6d3a20494e56414c49445f4f50455241544f52455243313135354d696e744275726e2362617463684d696e743a20494e56414c49445f4152524159535f4c454e47544845524331313535235f63616c6c6f6e45524331313535426174636852656365697665643a20494e56414c49445f4f4e5f524543454956455f4d45535341474545524331313535235f63616c6c6f6e4552433131353552656365697665643a20494e56414c49445f4f4e5f524543454956455f4d4553534147454f776e61626c65236f6e6c794f776e65723a2053454e4445525f49535f4e4f545f4f574e4552a26469706673582212209e985984e0a78f1dd0268df9077c3937e065c2559f40e4260786576480bbeea964736f6c63430007040033",
  "linkReferences": {},
  "deployedLinkReferences": {}
}