{
  "_format": "hh-sol-artifact-1",
  "contractName": "ERC1155MintBurnMockOwned",
  "sourceName": "contracts/mocks/ERC1155MintBurnMockOwned.sol",
  "abi": [
    {
      "inputs": [
        {
          "internalType": "string",
          "name": "_name",
          "type": "string"
        },
        {
          "internalType": "string",
          "name": "_baseURI",
          "type": "string"
        }
      ],
      "stateMutability": "nonpayable",
      "type": "constructor"
    },
    {
      "anonymous": false,
      "inputs": [
        {
          "indexed": true,
          "internalType": "address",
          "name": "_owner",
          "type": "address"
        },
        {
          "indexed": true,
          "internalType": "address",
          "name": "_operator",
          "type": "address"
        },
        {
          "indexed": false,
          "internalType": "bool",
          "name": "_approved",
          "type": "bool"
        }
      ],
      "name": "ApprovalForAll",
      "type": "event"
    },
    {
      "anonymous": false,
      "inputs": [
        {
          "indexed": true,
          "internalType": "address",
          "name": "previousOwner",
          "type": "address"
        },
        {
          "indexed": true,
          "internalType": "address",
          "name": "newOwner",
          "type": "address"
        }
      ],
      "name": "OwnershipTransferred",
      "type": "event"
    },
    {
      "anonymous": false,
      "inputs": [
        {
          "indexed": true,
          "internalType": "address",
          "name": "_operator",
          "type": "address"
        },
        {
          "indexed": true,
          "internalType": "address",
          "name": "_from",
          "type": "address"
        },
        {
          "indexed": true,
          "internalType": "address",
          "name": "_to",
          "type": "address"
        },
        {
          "indexed": false,
          "internalType": "uint256[]",
          "name": "_ids",
          "type": "uint256[]"
        },
        {
          "indexed": false,
          "internalType": "uint256[]",
          "name": "_amounts",
          "type": "uint256[]"
        }
      ],
      "name": "TransferBatch",
      "type": "event"
    },
    {
      "anonymous": false,
      "inputs": [
        {
          "indexed": true,
          "internalType": "address",
          "name": "_operator",
          "type": "address"
        },
        {
          "indexed": true,
          "internalType": "address",
          "name": "_from",
          "type": "address"
        },
        {
          "indexed": true,
          "internalType": "address",
          "name": "_to",
          "type": "address"
        },
        {
          "indexed": false,
          "internalType": "uint256",
          "name": "_id",
          "type": "uint256"
        },
        {
          "indexed": false,
          "internalType": "uint256",
          "name": "_amount",
          "type": "uint256"
        }
      ],
      "name": "TransferSingle",
      "type": "event"
    },
    {
      "anonymous": false,
      "inputs": [
        {
          "indexed": false,
          "internalType": "string",
          "name": "_uri",
          "type": "string"
        },
        {
          "indexed": true,
          "internalType": "uint256",
          "name": "_id",
          "type": "uint256"
        }
      ],
      "name": "URI",
      "type": "event"
    },
    {
      "stateMutability": "nonpayable",
      "type": "fallback"
    },
    {
      "inputs": [
        {
          "internalType": "address",
          "name": "_owner",
          "type": "address"
        },
        {
          "internalType": "uint256",
          "name": "_id",
          "type": "uint256"
        }
      ],
      "name": "balanceOf",
      "outputs": [
        {
          "internalType": "uint256",
          "name": "",
          "type": "uint256"
        }
      ],
      "stateMutability": "view",
      "type": "function"
    },
    {
      "inputs": [
        {
          "internalType": "address[]",
          "name": "_owners",
          "type": "address[]"
        },
        {
          "internalType": "uint256[]",
          "name": "_ids",
          "type": "uint256[]"
        }
      ],
      "name": "balanceOfBatch",
      "outputs": [
        {
          "internalType": "uint256[]",
          "name": "",
          "type": "uint256[]"
        }
      ],
      "stateMutability": "view",
      "type": "function"
    },
    {
      "inputs": [],
      "name": "baseURI",
      "outputs": [
        {
          "internalType": "string",
          "name": "",
          "type": "string"
        }
      ],
      "stateMutability": "view",
      "type": "function"
    },
    {
      "inputs": [
        {
          "internalType": "uint256[]",
          "name": "_ids",
          "type": "uint256[]"
        },
        {
          "internalType": "uint256[]",
          "name": "_values",
          "type": "uint256[]"
        }
      ],
      "name": "batchBurn",
      "outputs": [],
      "stateMutability": "nonpayable",
      "type": "function"
    },
    {
      "inputs": [
        {
          "internalType": "address",
          "name": "_to",
          "type": "address"
        },
        {
          "internalType": "uint256[]",
          "name": "_ids",
          "type": "uint256[]"
        },
        {
          "internalType": "uint256[]",
          "name": "_values",
          "type": "uint256[]"
        },
        {
          "internalType": "bytes",
          "name": "_data",
          "type": "bytes"
        }
      ],
      "name": "batchMint",
      "outputs": [],
      "stateMutability": "nonpayable",
      "type": "function"
    },
    {
      "inputs": [
        {
          "internalType": "uint256",
          "name": "_id",
          "type": "uint256"
        },
        {
          "internalType": "uint256",
          "name": "_value",
          "type": "uint256"
        }
      ],
      "name": "burn",
      "outputs": [],
      "stateMutability": "nonpayable",
      "type": "function"
    },
    {
      "inputs": [
        {
          "internalType": "address",
          "name": "_owner",
          "type": "address"
        },
        {
          "internalType": "address",
          "name": "_operator",
          "type": "address"
        }
      ],
      "name": "isApprovedForAll",
      "outputs": [
        {
          "internalType": "bool",
          "name": "isOperator",
          "type": "bool"
        }
      ],
      "stateMutability": "view",
      "type": "function"
    },
    {
      "inputs": [
        {
          "internalType": "address",
          "name": "_to",
          "type": "address"
        },
        {
          "internalType": "uint256",
          "name": "_id",
          "type": "uint256"
        },
        {
          "internalType": "uint256",
          "name": "_value",
          "type": "uint256"
        },
        {
          "internalType": "bytes",
          "name": "_data",
          "type": "bytes"
        }
      ],
      "name": "mint",
      "outputs": [],
      "stateMutability": "nonpayable",
      "type": "function"
    },
    {
      "inputs": [],
      "name": "name",
      "outputs": [
        {
          "internalType": "string",
          "name": "",
          "type": "string"
        }
      ],
      "stateMutability": "view",
      "type": "function"
    },
    {
      "inputs": [],
      "name": "owner",
      "outputs": [
        {
          "internalType": "address",
          "name": "",
          "type": "address"
        }
      ],
      "stateMutability": "view",
      "type": "function"
    },
    {
      "inputs": [
        {
          "internalType": "address",
          "name": "_from",
          "type": "address"
        },
        {
          "internalType": "address",
          "name": "_to",
          "type": "address"
        },
        {
          "internalType": "uint256[]",
          "name": "_ids",
          "type": "uint256[]"
        },
        {
          "internalType": "uint256[]",
          "name": "_amounts",
          "type": "uint256[]"
        },
        {
          "internalType": "bytes",
          "name": "_data",
          "type": "bytes"
        }
      ],
      "name": "safeBatchTransferFrom",
      "outputs": [],
      "stateMutability": "nonpayable",
      "type": "function"
    },
    {
      "inputs": [
        {
          "internalType": "address",
          "name": "_from",
          "type": "address"
        },
        {
          "internalType": "address",
          "name": "_to",
          "type": "address"
        },
        {
          "internalType": "uint256",
          "name": "_id",
          "type": "uint256"
        },
        {
          "internalType": "uint256",
          "name": "_amount",
          "type": "uint256"
        },
        {
          "internalType": "bytes",
          "name": "_data",
          "type": "bytes"
        }
      ],
      "name": "safeTransferFrom",
      "outputs": [],
      "stateMutability": "nonpayable",
      "type": "function"
    },
    {
      "inputs": [
        {
          "internalType": "address",
          "name": "_operator",
          "type": "address"
        },
        {
          "internalType": "bool",
          "name": "_approved",
          "type": "bool"
        }
      ],
      "name": "setApprovalForAll",
      "outputs": [],
      "stateMutability": "nonpayable",
      "type": "function"
    },
    {
      "inputs": [
        {
          "internalType": "bytes4",
          "name": "_interfaceID",
          "type": "bytes4"
        }
      ],
      "name": "supportsInterface",
      "outputs": [
        {
          "internalType": "bool",
          "name": "",
          "type": "bool"
        }
      ],
      "stateMutability": "pure",
      "type": "function"
    },
    {
      "inputs": [
        {
          "internalType": "address",
          "name": "_newOwner",
          "type": "address"
        }
      ],
      "name": "transferOwnership",
      "outputs": [],
      "stateMutability": "nonpayable",
      "type": "function"
    },
    {
      "inputs": [
        {
          "internalType": "uint256",
          "name": "_id",
          "type": "uint256"
        }
      ],
      "name": "uri",
      "outputs": [
        {
          "internalType": "string",
          "name": "",
          "type": "string"
        }
      ],
      "stateMutability": "view",
      "type": "function"
    }
  ],
  "bytecode": "0x60806040523480156200001157600080fd5b50604051620029643803806200296483398101604081905262000034916200019c565b600280547fffffffffffffffffffffffff00000000000000000000000000000000000000001633908117909155604051839183916000907f8be0079c531659141344cd1fd0a4f28419497f9722a3daafe3b4186f6b6457e0908290a360046200009e838262000296565b506003620000ad828262000296565b5050505050620003bd565b634e487b7160e01b600052604160045260246000fd5b600082601f830112620000e057600080fd5b815167ffffffffffffffff80821115620000fe57620000fe620000b8565b604051601f83017fffffffffffffffffffffffffffffffffffffffffffffffffffffffffffffffe0908116603f01168101908282118183101715620001475762000147620000b8565b816040528381526020925086838588010111156200016457600080fd5b600091505b8382101562000188578582018301518183018401529082019062000169565b600093810190920192909252949350505050565b60008060408385031215620001b057600080fd5b825167ffffffffffffffff80821115620001c957600080fd5b620001d786838701620000ce565b93506020850151915080821115620001ee57600080fd5b50620001fd85828601620000ce565b9150509250929050565b600181811c908216806200021c57607f821691505b6020821081036200023d57634e487b7160e01b600052602260045260246000fd5b50919050565b601f8211156200029157600081815260208120601f850160051c810160208610156200026c5750805b601f850160051c820191505b818110156200028d5782815560010162000278565b5050505b505050565b815167ffffffffffffffff811115620002b357620002b3620000b8565b620002cb81620002c4845462000207565b8462000243565b602080601f831160018114620003215760008415620002ea5750858301515b7fffffffffffffffffffffffffffffffffffffffffffffffffffffffffffffffff600386901b1c1916600185901b1785556200028d565b6000858152602081207fffffffffffffffffffffffffffffffffffffffffffffffffffffffffffffffe08616915b8281101562000370578886015182559484019460019091019084016200034f565b5085821015620003ad57878501517fffffffffffffffffffffffffffffffffffffffffffffffffffffffffffffffff600388901b60f8161c191681555b5050505050600190811b01905550565b61259780620003cd6000396000f3fe608060405234801561001057600080fd5b50600436106100ff5760003560e01c8063731133e911610097578063b48ab8b611610066578063b48ab8b6146102ae578063e985e9c5146102c1578063f242432a1461030a578063f2fde38b1461031d576100ff565b8063731133e91461024d5780638da5cb5b14610260578063a22cb46514610288578063b390c0ab1461029b576100ff565b806320ec271b116100d357806320ec271b146101fd5780632eb2c2d6146102125780634e1273f4146102255780636c0360eb14610245576100ff565b8062fdd58e1461018c57806301ffc9a7146101b257806306fdde03146101d55780630e89341c146101ea575b6040517f08c379a000000000000000000000000000000000000000000000000000000000815260206004820152602860248201527f455243313135354d696e744275726e4d6f636b4f776e65643a20494e56414c4960448201527f445f4d4554484f4400000000000000000000000000000000000000000000000060648201526084015b60405180910390fd5b61019f61019a366004611aef565b610330565b6040519081526020015b60405180910390f35b6101c56101c0366004611b4a565b610366565b60405190151581526020016101a9565b6101dd610371565b6040516101a99190611bd5565b6101dd6101f8366004611be8565b6103ff565b61021061020b366004611d0e565b610433565b005b610210610220366004611e00565b610442565b610238610233366004611eaa565b6105e6565b6040516101a99190611f8e565b6101dd610786565b61021061025b366004611fa1565b610793565b60025460405173ffffffffffffffffffffffffffffffffffffffff90911681526020016101a9565b610210610296366004612002565b61084c565b6102106102a936600461203e565b6108e3565b6102106102bc366004612060565b6108ee565b6101c56102cf3660046120ed565b73ffffffffffffffffffffffffffffffffffffffff918216600090815260016020908152604080832093909416825291909152205460ff1690565b610210610318366004612120565b6109a1565b61021061032b366004612185565b610b3e565b73ffffffffffffffffffffffffffffffffffffffff82166000908152602081815260408083208484529091529020545b92915050565b600061036082610d16565b6004805461037e906121a0565b80601f01602080910402602001604051908101604052809291908181526020018280546103aa906121a0565b80156103f75780601f106103cc576101008083540402835291602001916103f7565b820191906000526020600020905b8154815290600101906020018083116103da57829003601f168201915b505050505081565b6060600361040c83610d72565b60405160200161041d92919061220f565b6040516020818303038152906040529050919050565b61043e338383610ebf565b5050565b3373ffffffffffffffffffffffffffffffffffffffff86161480610496575073ffffffffffffffffffffffffffffffffffffffff8516600090815260016020908152604080832033845290915290205460ff165b610522576040517f08c379a000000000000000000000000000000000000000000000000000000000815260206004820152602f60248201527f45524331313535237361666542617463685472616e7366657246726f6d3a204960448201527f4e56414c49445f4f50455241544f5200000000000000000000000000000000006064820152608401610183565b73ffffffffffffffffffffffffffffffffffffffff84166105c5576040517f08c379a000000000000000000000000000000000000000000000000000000000815260206004820152603060248201527f45524331313535237361666542617463685472616e7366657246726f6d3a204960448201527f4e56414c49445f524543495049454e54000000000000000000000000000000006064820152608401610183565b6105d18585858561108b565b6105df858585855a866112f0565b5050505050565b60608151835114610679576040517f08c379a000000000000000000000000000000000000000000000000000000000815260206004820152602c60248201527f455243313135352362616c616e63654f6642617463683a20494e56414c49445f60448201527f41525241595f4c454e47544800000000000000000000000000000000000000006064820152608401610183565b6000835167ffffffffffffffff81111561069557610695611c01565b6040519080825280602002602001820160405280156106be578160200160208202803683370190505b50905060005b845181101561077e576000808683815181106106e2576106e261231c565b602002602001015173ffffffffffffffffffffffffffffffffffffffff1673ffffffffffffffffffffffffffffffffffffffff16815260200190815260200160002060008583815181106107385761073861231c565b60200260200101518152602001908152602001600020548282815181106107615761076161231c565b6020908102919091010152806107768161237a565b9150506106c4565b509392505050565b6003805461037e906121a0565b60025473ffffffffffffffffffffffffffffffffffffffff16331461083a576040517f08c379a000000000000000000000000000000000000000000000000000000000815260206004820152602660248201527f4f776e61626c65236f6e6c794f776e65723a2053454e4445525f49535f4e4f5460448201527f5f4f574e455200000000000000000000000000000000000000000000000000006064820152608401610183565b61084684848484611479565b50505050565b33600081815260016020908152604080832073ffffffffffffffffffffffffffffffffffffffff87168085529083529281902080547fffffffffffffffffffffffffffffffffffffffffffffffffffffffffffffff001686151590811790915590519081529192917f17307eab39ab6107e8899845ad3d59bd9653f200f220920489ca2b5937696c31910160405180910390a35050565b61043e338383611521565b60025473ffffffffffffffffffffffffffffffffffffffff163314610995576040517f08c379a000000000000000000000000000000000000000000000000000000000815260206004820152602660248201527f4f776e61626c65236f6e6c794f776e65723a2053454e4445525f49535f4e4f5460448201527f5f4f574e455200000000000000000000000000000000000000000000000000006064820152608401610183565b610846848484846115bf565b3373ffffffffffffffffffffffffffffffffffffffff861614806109f5575073ffffffffffffffffffffffffffffffffffffffff8516600090815260016020908152604080832033845290915290205460ff165b610a81576040517f08c379a000000000000000000000000000000000000000000000000000000000815260206004820152602a60248201527f4552433131353523736166655472616e7366657246726f6d3a20494e56414c4960448201527f445f4f50455241544f52000000000000000000000000000000000000000000006064820152608401610183565b73ffffffffffffffffffffffffffffffffffffffff8416610b24576040517f08c379a000000000000000000000000000000000000000000000000000000000815260206004820152602b60248201527f4552433131353523736166655472616e7366657246726f6d3a20494e56414c4960448201527f445f524543495049454e540000000000000000000000000000000000000000006064820152608401610183565b610b3085858585611795565b6105df858585855a86611870565b60025473ffffffffffffffffffffffffffffffffffffffff163314610be5576040517f08c379a000000000000000000000000000000000000000000000000000000000815260206004820152602660248201527f4f776e61626c65236f6e6c794f776e65723a2053454e4445525f49535f4e4f5460448201527f5f4f574e455200000000000000000000000000000000000000000000000000006064820152608401610183565b73ffffffffffffffffffffffffffffffffffffffff8116610c88576040517f08c379a000000000000000000000000000000000000000000000000000000000815260206004820152602a60248201527f4f776e61626c65237472616e736665724f776e6572736869703a20494e56414c60448201527f49445f41444452455353000000000000000000000000000000000000000000006064820152608401610183565b60025460405173ffffffffffffffffffffffffffffffffffffffff8084169216907f8be0079c531659141344cd1fd0a4f28419497f9722a3daafe3b4186f6b6457e090600090a3600280547fffffffffffffffffffffffff00000000000000000000000000000000000000001673ffffffffffffffffffffffffffffffffffffffff92909216919091179055565b60007ff176cbe4000000000000000000000000000000000000000000000000000000007fffffffff00000000000000000000000000000000000000000000000000000000831601610d6957506001919050565b610360826119ef565b606081600003610db557505060408051808201909152600181527f3000000000000000000000000000000000000000000000000000000000000000602082015290565b818060005b8215610de05780610dca8161237a565b9150610dd99050600a846123e1565b9250610dba565b60008167ffffffffffffffff811115610dfb57610dfb611c01565b6040519080825280601f01601f191660200182016040528015610e25576020820181803683370190505b5090506000610e356001846123f5565b90505b8315610eb557610e49600a85612408565b610e5490603061241c565b60f81b8282610e628161242f565b935081518110610e7457610e7461231c565b60200101907effffffffffffffffffffffffffffffffffffffffffffffffffffffffffffff1916908160001a905350610eae600a856123e1565b9350610e38565b5095945050505050565b815181518114610f51576040517f08c379a000000000000000000000000000000000000000000000000000000000815260206004820152603060248201527f455243313135354d696e744275726e2362617463684275726e3a20494e56414c60448201527f49445f4152524159535f4c454e475448000000000000000000000000000000006064820152608401610183565b60005b8181101561100557828181518110610f6e57610f6e61231c565b60200260200101516000808773ffffffffffffffffffffffffffffffffffffffff1673ffffffffffffffffffffffffffffffffffffffff1681526020019081526020016000206000868481518110610fc857610fc861231c565b602002602001015181526020019081526020016000206000828254610fed91906123f5565b90915550819050610ffd8161237a565b915050610f54565b50600073ffffffffffffffffffffffffffffffffffffffff168473ffffffffffffffffffffffffffffffffffffffff163373ffffffffffffffffffffffffffffffffffffffff167f4a39dc06d4c0dbc64b70af90fd698a233a518aa5d07e595d983b8c0526c8f7fb868660405161107d929190612464565b60405180910390a450505050565b805182511461111c576040517f08c379a000000000000000000000000000000000000000000000000000000000815260206004820152603560248201527f45524331313535235f7361666542617463685472616e7366657246726f6d3a2060448201527f494e56414c49445f4152524159535f4c454e47544800000000000000000000006064820152608401610183565b815160005b8181101561126a5782818151811061113b5761113b61231c565b60200260200101516000808873ffffffffffffffffffffffffffffffffffffffff1673ffffffffffffffffffffffffffffffffffffffff16815260200190815260200160002060008684815181106111955761119561231c565b6020026020010151815260200190815260200160002060008282546111ba91906123f5565b925050819055508281815181106111d3576111d361231c565b60200260200101516000808773ffffffffffffffffffffffffffffffffffffffff1673ffffffffffffffffffffffffffffffffffffffff168152602001908152602001600020600086848151811061122d5761122d61231c565b602002602001015181526020019081526020016000206000828254611252919061241c565b909155508190506112628161237a565b915050611121565b508373ffffffffffffffffffffffffffffffffffffffff168573ffffffffffffffffffffffffffffffffffffffff163373ffffffffffffffffffffffffffffffffffffffff167f4a39dc06d4c0dbc64b70af90fd698a233a518aa5d07e595d983b8c0526c8f7fb86866040516112e1929190612464565b60405180910390a45050505050565b61130f8573ffffffffffffffffffffffffffffffffffffffff16611a8c565b156114715760008573ffffffffffffffffffffffffffffffffffffffff1663bc197c8184338a8989886040518763ffffffff1660e01b8152600401611358959493929190612489565b60206040518083038160008887f1158015611377573d6000803e3d6000fd5b50505050506040513d601f19601f8201168201806040525081019061139c91906124f4565b90507fffffffff0000000000000000000000000000000000000000000000000000000081167fbc197c81000000000000000000000000000000000000000000000000000000001461146f576040517f08c379a000000000000000000000000000000000000000000000000000000000815260206004820152603f60248201527f45524331313535235f63616c6c6f6e455243313135354261746368526563656960448201527f7665643a20494e56414c49445f4f4e5f524543454956455f4d455353414745006064820152608401610183565b505b505050505050565b73ffffffffffffffffffffffffffffffffffffffff8416600090815260208181526040808320868452909152812080548492906114b790849061241c565b9091555050604080518481526020810184905273ffffffffffffffffffffffffffffffffffffffff86169160009133917fc3d58168c5ae7397731d063d5bbf3d657854427343f4c083240f7aacaa2d0f62910160405180910390a461084660008585855a86611870565b73ffffffffffffffffffffffffffffffffffffffff83166000908152602081815260408083208584529091528120805483929061155f9084906123f5565b9091555050604080518381526020810183905260009173ffffffffffffffffffffffffffffffffffffffff86169133917fc3d58168c5ae7397731d063d5bbf3d657854427343f4c083240f7aacaa2d0f62910160405180910390a4505050565b8151835114611650576040517f08c379a000000000000000000000000000000000000000000000000000000000815260206004820152603060248201527f455243313135354d696e744275726e2362617463684d696e743a20494e56414c60448201527f49445f4152524159535f4c454e475448000000000000000000000000000000006064820152608401610183565b825160005b818110156117065783818151811061166f5761166f61231c565b60200260200101516000808873ffffffffffffffffffffffffffffffffffffffff1673ffffffffffffffffffffffffffffffffffffffff16815260200190815260200160002060008784815181106116c9576116c961231c565b6020026020010151815260200190815260200160002060008282546116ee919061241c565b909155508190506116fe8161237a565b915050611655565b508473ffffffffffffffffffffffffffffffffffffffff16600073ffffffffffffffffffffffffffffffffffffffff163373ffffffffffffffffffffffffffffffffffffffff167f4a39dc06d4c0dbc64b70af90fd698a233a518aa5d07e595d983b8c0526c8f7fb878760405161177e929190612464565b60405180910390a46105df60008686865a876112f0565b73ffffffffffffffffffffffffffffffffffffffff8416600090815260208181526040808320858452909152812080548392906117d39084906123f5565b909155505073ffffffffffffffffffffffffffffffffffffffff83166000908152602081815260408083208584529091528120805483929061181690849061241c565b9091555050604080518381526020810183905273ffffffffffffffffffffffffffffffffffffffff808616929087169133917fc3d58168c5ae7397731d063d5bbf3d657854427343f4c083240f7aacaa2d0f62910161107d565b61188f8573ffffffffffffffffffffffffffffffffffffffff16611a8c565b156114715760008573ffffffffffffffffffffffffffffffffffffffff1663f23a6e6184338a8989886040518763ffffffff1660e01b81526004016118d8959493929190612511565b60206040518083038160008887f11580156118f7573d6000803e3d6000fd5b50505050506040513d601f19601f8201168201806040525081019061191c91906124f4565b90507fffffffff0000000000000000000000000000000000000000000000000000000081167ff23a6e61000000000000000000000000000000000000000000000000000000001461146f576040517f08c379a000000000000000000000000000000000000000000000000000000000815260206004820152603a60248201527f45524331313535235f63616c6c6f6e4552433131353552656365697665643a2060448201527f494e56414c49445f4f4e5f524543454956455f4d4553534147450000000000006064820152608401610183565b60007f264985da000000000000000000000000000000000000000000000000000000007fffffffff00000000000000000000000000000000000000000000000000000000831601611a4257506001919050565b7f01ffc9a7000000000000000000000000000000000000000000000000000000007fffffffff00000000000000000000000000000000000000000000000000000000831614610360565b6000813f8015801590611abf57507fc5d2460186f7233c927e7db2dcc703c0e500b653ca82273b7bfad8045d85a4708114155b9392505050565b803573ffffffffffffffffffffffffffffffffffffffff81168114611aea57600080fd5b919050565b60008060408385031215611b0257600080fd5b611b0b83611ac6565b946020939093013593505050565b7fffffffff0000000000000000000000000000000000000000000000000000000081168114611b4757600080fd5b50565b600060208284031215611b5c57600080fd5b8135611abf81611b19565b60005b83811015611b82578181015183820152602001611b6a565b50506000910152565b60008151808452611ba3816020860160208601611b67565b601f017fffffffffffffffffffffffffffffffffffffffffffffffffffffffffffffffe0169290920160200192915050565b602081526000611abf6020830184611b8b565b600060208284031215611bfa57600080fd5b5035919050565b7f4e487b7100000000000000000000000000000000000000000000000000000000600052604160045260246000fd5b604051601f82017fffffffffffffffffffffffffffffffffffffffffffffffffffffffffffffffe016810167ffffffffffffffff81118282101715611c7757611c77611c01565b604052919050565b600067ffffffffffffffff821115611c9957611c99611c01565b5060051b60200190565b600082601f830112611cb457600080fd5b81356020611cc9611cc483611c7f565b611c30565b82815260059290921b84018101918181019086841115611ce857600080fd5b8286015b84811015611d035780358352918301918301611cec565b509695505050505050565b60008060408385031215611d2157600080fd5b823567ffffffffffffffff80821115611d3957600080fd5b611d4586838701611ca3565b93506020850135915080821115611d5b57600080fd5b50611d6885828601611ca3565b9150509250929050565b600082601f830112611d8357600080fd5b813567ffffffffffffffff811115611d9d57611d9d611c01565b611dce60207fffffffffffffffffffffffffffffffffffffffffffffffffffffffffffffffe0601f84011601611c30565b818152846020838601011115611de357600080fd5b816020850160208301376000918101602001919091529392505050565b600080600080600060a08688031215611e1857600080fd5b611e2186611ac6565b9450611e2f60208701611ac6565b9350604086013567ffffffffffffffff80821115611e4c57600080fd5b611e5889838a01611ca3565b94506060880135915080821115611e6e57600080fd5b611e7a89838a01611ca3565b93506080880135915080821115611e9057600080fd5b50611e9d88828901611d72565b9150509295509295909350565b60008060408385031215611ebd57600080fd5b823567ffffffffffffffff80821115611ed557600080fd5b818501915085601f830112611ee957600080fd5b81356020611ef9611cc483611c7f565b82815260059290921b84018101918181019089841115611f1857600080fd5b948201945b83861015611f3d57611f2e86611ac6565b82529482019490820190611f1d565b96505086013592505080821115611d5b57600080fd5b600081518084526020808501945080840160005b83811015611f8357815187529582019590820190600101611f67565b509495945050505050565b602081526000611abf6020830184611f53565b60008060008060808587031215611fb757600080fd5b611fc085611ac6565b93506020850135925060408501359150606085013567ffffffffffffffff811115611fea57600080fd5b611ff687828801611d72565b91505092959194509250565b6000806040838503121561201557600080fd5b61201e83611ac6565b91506020830135801515811461203357600080fd5b809150509250929050565b6000806040838503121561205157600080fd5b50508035926020909101359150565b6000806000806080858703121561207657600080fd5b61207f85611ac6565b9350602085013567ffffffffffffffff8082111561209c57600080fd5b6120a888838901611ca3565b945060408701359150808211156120be57600080fd5b6120ca88838901611ca3565b935060608701359150808211156120e057600080fd5b50611ff687828801611d72565b6000806040838503121561210057600080fd5b61210983611ac6565b915061211760208401611ac6565b90509250929050565b600080600080600060a0868803121561213857600080fd5b61214186611ac6565b945061214f60208701611ac6565b93506040860135925060608601359150608086013567ffffffffffffffff81111561217957600080fd5b611e9d88828901611d72565b60006020828403121561219757600080fd5b611abf82611ac6565b600181811c908216806121b457607f821691505b6020821081036121ed577f4e487b7100000000000000000000000000000000000000000000000000000000600052602260045260246000fd5b50919050565b60008151612205818560208601611b67565b9290920192915050565b600080845481600182811c91508083168061222b57607f831692505b60208084108203612263577f4e487b710000000000000000000000000000000000000000000000000000000086526022600452602486fd5b81801561227757600181146122aa576122d7565b7fffffffffffffffffffffffffffffffffffffffffffffffffffffffffffffff00861689528415158502890196506122d7565b60008b81526020902060005b868110156122cf5781548b8201529085019083016122b6565b505084890196505b5050505050506123136122ea82866121f3565b7f2e6a736f6e000000000000000000000000000000000000000000000000000000815260050190565b95945050505050565b7f4e487b7100000000000000000000000000000000000000000000000000000000600052603260045260246000fd5b7f4e487b7100000000000000000000000000000000000000000000000000000000600052601160045260246000fd5b60007fffffffffffffffffffffffffffffffffffffffffffffffffffffffffffffffff82036123ab576123ab61234b565b5060010190565b7f4e487b7100000000000000000000000000000000000000000000000000000000600052601260045260246000fd5b6000826123f0576123f06123b2565b500490565b818103818111156103605761036061234b565b600082612417576124176123b2565b500690565b808201808211156103605761036061234b565b60008161243e5761243e61234b565b507fffffffffffffffffffffffffffffffffffffffffffffffffffffffffffffffff0190565b6040815260006124776040830185611f53565b82810360208401526123138185611f53565b600073ffffffffffffffffffffffffffffffffffffffff808816835280871660208401525060a060408301526124c260a0830186611f53565b82810360608401526124d48186611f53565b905082810360808401526124e88185611b8b565b98975050505050505050565b60006020828403121561250657600080fd5b8151611abf81611b19565b600073ffffffffffffffffffffffffffffffffffffffff808816835280871660208401525084604083015283606083015260a0608083015261255660a0830184611b8b565b97965050505050505056fea26469706673582212208a4eced5ebe722152e237df1959149c5e910145a93c1c186db4f08c441b5d4de64736f6c63430008120033",
  "linkReferences": {},
  "deployedLinkReferences": {}
}