{
  "_format": "hh-sol-artifact-1",
  "contractName": "ERC1271WalletValidationMock",
  "sourceName": "contracts/mocks/ERC1271WalletValidationMock.sol",
  "abi": [
    {
      "inputs": [
        {
          "internalType": "bytes32",
          "name": "domain_hash_1155",
          "type": "bytes32"
        }
      ],
      "stateMutability": "nonpayable",
      "type": "constructor"
    },
    {
      "inputs": [],
      "name": "ERC1271_INVALID",
      "outputs": [
        {
          "internalType": "bytes4",
          "name": "",
          "type": "bytes4"
        }
      ],
      "stateMutability": "view",
      "type": "function"
    },
    {
      "inputs": [],
      "name": "ERC1271_MAGICVALUE_BYTES32",
      "outputs": [
        {
          "internalType": "bytes4",
          "name": "",
          "type": "bytes4"
        }
      ],
      "stateMutability": "view",
      "type": "function"
    },
    {
      "inputs": [],
      "name": "ERC1271_MAGIC_VAL",
      "outputs": [
        {
          "internalType": "bytes4",
          "name": "",
          "type": "bytes4"
        }
      ],
      "stateMutability": "view",
      "type": "function"
    },
    {
      "inputs": [
        {
          "internalType": "bytes32",
          "name": "_hash",
          "type": "bytes32"
        },
        {
          "internalType": "bytes",
          "name": "_signature",
          "type": "bytes"
        }
      ],
      "name": "isValidSignature",
      "outputs": [
        {
          "internalType": "bytes4",
          "name": "magicValue",
          "type": "bytes4"
        }
      ],
      "stateMutability": "view",
      "type": "function"
    },
    {
      "inputs": [
        {
          "internalType": "bytes",
          "name": "_data",
          "type": "bytes"
        },
        {
          "internalType": "bytes",
          "name": "_signature",
          "type": "bytes"
        }
      ],
      "name": "isValidSignature",
      "outputs": [
        {
          "internalType": "bytes4",
          "name": "magicValue",
          "type": "bytes4"
        }
      ],
      "stateMutability": "view",
      "type": "function"
    },
    {
      "inputs": [
        {
          "internalType": "address",
          "name": "_operator",
          "type": "address"
        },
        {
          "internalType": "address",
          "name": "_from",
          "type": "address"
        },
        {
          "internalType": "uint256[]",
          "name": "_ids",
          "type": "uint256[]"
        },
        {
          "internalType": "uint256[]",
          "name": "_values",
          "type": "uint256[]"
        },
        {
          "internalType": "bytes",
          "name": "_data",
          "type": "bytes"
        }
      ],
      "name": "onERC1155BatchReceived",
      "outputs": [
        {
          "internalType": "bytes4",
          "name": "",
          "type": "bytes4"
        }
      ],
      "stateMutability": "nonpayable",
      "type": "function"
    },
    {
      "inputs": [
        {
          "internalType": "address",
          "name": "_operator",
          "type": "address"
        },
        {
          "internalType": "address",
          "name": "_from",
          "type": "address"
        },
        {
          "internalType": "uint256",
          "name": "_id",
          "type": "uint256"
        },
        {
          "internalType": "uint256",
          "name": "_value",
          "type": "uint256"
        },
        {
          "internalType": "bytes",
          "name": "_data",
          "type": "bytes"
        }
      ],
      "name": "onERC1155Received",
      "outputs": [
        {
          "internalType": "bytes4",
          "name": "",
          "type": "bytes4"
        }
      ],
      "stateMutability": "nonpayable",
      "type": "function"
    },
    {
      "inputs": [],
      "name": "owner",
      "outputs": [
        {
          "internalType": "address",
          "name": "",
          "type": "address"
        }
      ],
      "stateMutability": "view",
      "type": "function"
    }
  ],
  "bytecode": "0x608060405234801561001057600080fd5b506040516110963803806110968339818101604052602081101561003357600080fd5b5051600055600180547fffffffffffffffffffffffff00000000000000000000000000000000000000001633179055611025806100716000396000f3fe608060405234801561001057600080fd5b50600436106100885760003560e01c80638da5cb5b1161005b5780638da5cb5b1461020b578063a886100f1461023c578063bc197c8114610244578063f23a6e611461041857610088565b80630c0b5b8b1461008d5780631626ba7e146100ca57806320c13b0b146101415780632ec40aa414610203575b600080fd5b6100956104f0565b604080517fffffffff000000000000000000000000000000000000000000000000000000009092168252519081900360200190f35b610095600480360360408110156100e057600080fd5b8135919081019060408101602082013564010000000081111561010257600080fd5b82018360208201111561011457600080fd5b8035906020019184600183028401116401000000008311171561013657600080fd5b509092509050610514565b6100956004803603604081101561015757600080fd5b81019060208101813564010000000081111561017257600080fd5b82018360208201111561018457600080fd5b803590602001918460018302840111640100000000831117156101a657600080fd5b9193909290916020810190356401000000008111156101c457600080fd5b8201836020820111156101d657600080fd5b803590602001918460018302840111640100000000831117156101f857600080fd5b509092509050610723565b610095610b78565b610213610b9c565b6040805173ffffffffffffffffffffffffffffffffffffffff9092168252519081900360200190f35b610095610bb8565b610095600480360360a081101561025a57600080fd5b73ffffffffffffffffffffffffffffffffffffffff823581169260208101359091169181019060608101604082013564010000000081111561029b57600080fd5b8201836020820111156102ad57600080fd5b803590602001918460208302840111640100000000831117156102cf57600080fd5b919080806020026020016040519081016040528093929190818152602001838360200280828437600092019190915250929594936020810193503591505064010000000081111561031f57600080fd5b82018360208201111561033157600080fd5b8035906020019184602083028401116401000000008311171561035357600080fd5b91908080602002602001604051908101604052809392919081815260200183836020028082843760009201919091525092959493602081019350359150506401000000008111156103a357600080fd5b8201836020820111156103b557600080fd5b803590602001918460018302840111640100000000831117156103d757600080fd5b91908080601f016020809104026020016040519081016040528093929190818152602001838380828437600092019190915250929550610bdc945050505050565b610095600480360360a081101561042e57600080fd5b73ffffffffffffffffffffffffffffffffffffffff823581169260208101359091169160408201359160608101359181019060a08101608082013564010000000081111561047b57600080fd5b82018360208201111561048d57600080fd5b803590602001918460018302840111640100000000831117156104af57600080fd5b91908080601f016020809104026020016040519081016040528093929190818152602001838380828437600092019190915250929550610c06945050505050565b7f20c13b0b0000000000000000000000000000000000000000000000000000000081565b60008061055b600085858080601f0160208091040260200160405190810160405280939291908181526020018383808284376000920191909152509293925050610c309050565b905060006105a3602086868080601f0160208091040260200160405190810160405280939291908181526020018383808284376000920191909152509293925050610c309050565b90506000858560408181106105b457fe5b604080517f19457468657265756d205369676e6564204d6573736167653a0a333200000000602080830191909152603c8083018e905283518084039091018152605c8301808552815191830191909120600091829052607c840180865252959093013560f81c609c820181905260bc820189905260dc820188905291519195506001935060fc80820193927fffffffffffffffffffffffffffffffffffffffffffffffffffffffffffffffe081019281900390910190855afa15801561067e573d6000803e3d6000fd5b50506040517fffffffffffffffffffffffffffffffffffffffffffffffffffffffffffffffe0015160015490925073ffffffffffffffffffffffffffffffffffffffff80841691161490506106f3577fdeadbeef00000000000000000000000000000000000000000000000000000000610715565b7f1626ba7e000000000000000000000000000000000000000000000000000000005b9450505050505b9392505050565b60008061076a600087878080601f0160208091040260200160405190810160405280939291908181526020018383808284376000920191909152509293925050610c309050565b905060006060807fce0b514b3931bdbe4d5d44e4f035afe7113767b7db71949271f6a62d9c60f558841415610947576107db89898080601f0160208091040260200160405190810160405280939291908181526020018383808284376000920182905250925060e09150610c989050565b915060006107ea836060610c30565b905060006107f9846080610c30565b905060428214158061080b5750606481115b1561083f57507fdeadbeef000000000000000000000000000000000000000000000000000000009550610b70945050505050565b6108838b8b8080601f01602080910402602001604051908101604052809392919081815260200183838082843760009201919091525060e092508e9150610c989050565b925061093e8484805190602001206040516020018083805190602001908083835b602083106108e157805182527fffffffffffffffffffffffffffffffffffffffffffffffffffffffffffffffe090920191602091820191016108a4565b51815160209384036101000a7fffffffffffffffffffffffffffffffffffffffffffffffffffffffffffffffff0180199092169116179052920193845250604080518085038152938201905282519201919091209150610dde9050565b94505050610965565b88886040518083838082843760405192018290039091209650505050505b60006109ab600089898080601f0160208091040260200160405190810160405280939291908181526020018383808284376000920191909152509293925050610c309050565b905060006109f360208a8a8080601f0160208091040260200160405190810160405280939291908181526020018383808284376000920191909152509293925050610c309050565b9050600089896040818110610a0457fe5b604080517f19457468657265756d205369676e6564204d6573736167653a0a333200000000602080830191909152603c8083018d905283518084039091018152605c8301808552815191830191909120600091829052607c840180865252959093013560f81c609c820181905260bc820189905260dc820188905291519195506001935060fc80820193927fffffffffffffffffffffffffffffffffffffffffffffffffffffffffffffffe081019281900390910190855afa158015610ace573d6000803e3d6000fd5b50506040517fffffffffffffffffffffffffffffffffffffffffffffffffffffffffffffffe0015160015490925073ffffffffffffffffffffffffffffffffffffffff8084169116149050610b43577fdeadbeef00000000000000000000000000000000000000000000000000000000610b65565b7f20c13b0b000000000000000000000000000000000000000000000000000000005b985050505050505050505b949350505050565b7f1626ba7e0000000000000000000000000000000000000000000000000000000081565b60015473ffffffffffffffffffffffffffffffffffffffff1681565b7fdeadbeef0000000000000000000000000000000000000000000000000000000081565b7fbc197c810000000000000000000000000000000000000000000000000000000095945050505050565b7ff23a6e610000000000000000000000000000000000000000000000000000000095945050505050565b60008160200183511015610c8f576040517f08c379a000000000000000000000000000000000000000000000000000000000815260040180806020018281038252603c815260200180610fb4603c913960400191505060405180910390fd5b50016020015190565b606081831115610d0957604080517f08c379a000000000000000000000000000000000000000000000000000000000815260206004820152601e60248201527f4552433132373157616c6c65744d6f636b23736c6963653a204572726f720000604482015290519081900360640190fd5b8351821115610d7957604080517f08c379a000000000000000000000000000000000000000000000000000000000815260206004820152601e60248201527f4552433132373157616c6c65744d6f636b23736c6963653a204572726f720000604482015290519081900360640190fd5b82820367ffffffffffffffff81118015610d9257600080fd5b506040519080825280601f01601f191660200182016040528015610dbd576020820181803683370190505b50905061071c610dcc82610ecc565b84610dd687610ecc565b018351610ed2565b60006040518060400160405280600281526020017f1901000000000000000000000000000000000000000000000000000000000000815250600054836040516020018084805190602001908083835b60208310610e6a57805182527fffffffffffffffffffffffffffffffffffffffffffffffffffffffffffffffe09092019160209182019101610e2d565b51815160209384036101000a7fffffffffffffffffffffffffffffffffffffffffffffffffffffffffffffffff018019909216911617905292019485525083810192909252506040805180840383018152928101905281519101209392505050565b60200190565b6020811015610f19578151835160208390036101000a7fffffffffffffffffffffffffffffffffffffffffffffffffffffffffffffffff0180199092169116178352610fae565b82821415610f2657610fae565b82821115610f605760208103905080820181840181515b82851015610f58578451865260209586019590940193610f3d565b905250610fae565b60208103905080820181840183515b81861215610fa957825182527fffffffffffffffffffffffffffffffffffffffffffffffffffffffffffffffe09283019290910190610f6f565b855250505b50505056fe4c696242797465732372656164427974657333323a20475245415445525f4f525f455155414c5f544f5f33325f4c454e4754485f5245515549524544a264697066735822122099fb975968327a393f4f63ed37cefd272078d5cbef861bbdfcaa39f2a4cb611264736f6c63430007040033",
  "linkReferences": {},
  "deployedLinkReferences": {}
}