{
  "_format": "hh-sol-artifact-1",
  "contractName": "ERC1155OperatorMock",
  "sourceName": "contracts/mocks/ERC1155OperatorMock.sol",
  "abi": [
    {
      "inputs": [
        {
          "internalType": "address",
          "name": "_tokenAddress",
          "type": "address"
        },
        {
          "internalType": "address",
          "name": "_from",
          "type": "address"
        },
        {
          "internalType": "address",
          "name": "_to",
          "type": "address"
        },
        {
          "internalType": "uint256[]",
          "name": "_ids",
          "type": "uint256[]"
        },
        {
          "internalType": "uint256[]",
          "name": "_amounts",
          "type": "uint256[]"
        },
        {
          "internalType": "bool",
          "name": "_isGasFee",
          "type": "bool"
        },
        {
          "internalType": "bytes",
          "name": "_data",
          "type": "bytes"
        }
      ],
      "name": "metaSafeBatchTransferFrom",
      "outputs": [],
      "stateMutability": "nonpayable",
      "type": "function"
    },
    {
      "inputs": [
        {
          "internalType": "address",
          "name": "_tokenAddress",
          "type": "address"
        },
        {
          "internalType": "address",
          "name": "_from",
          "type": "address"
        },
        {
          "internalType": "address",
          "name": "_to",
          "type": "address"
        },
        {
          "internalType": "uint256",
          "name": "_id",
          "type": "uint256"
        },
        {
          "internalType": "uint256",
          "name": "_amount",
          "type": "uint256"
        },
        {
          "internalType": "bool",
          "name": "_isGasFee",
          "type": "bool"
        },
        {
          "internalType": "bytes",
          "name": "_data",
          "type": "bytes"
        }
      ],
      "name": "metaSafeTransferFrom",
      "outputs": [],
      "stateMutability": "nonpayable",
      "type": "function"
    },
    {
      "inputs": [
        {
          "internalType": "address",
          "name": "_tokenAddress",
          "type": "address"
        },
        {
          "internalType": "address",
          "name": "_owner",
          "type": "address"
        },
        {
          "internalType": "address",
          "name": "_operator",
          "type": "address"
        },
        {
          "internalType": "bool",
          "name": "_approved",
          "type": "bool"
        },
        {
          "internalType": "bool",
          "name": "_isGasFee",
          "type": "bool"
        },
        {
          "internalType": "bytes",
          "name": "_data",
          "type": "bytes"
        }
      ],
      "name": "metaSetApprovalForAll",
      "outputs": [],
      "stateMutability": "nonpayable",
      "type": "function"
    },
    {
      "inputs": [
        {
          "internalType": "address",
          "name": "_tokenAddress",
          "type": "address"
        },
        {
          "internalType": "address",
          "name": "_from",
          "type": "address"
        },
        {
          "internalType": "address",
          "name": "_to",
          "type": "address"
        },
        {
          "internalType": "uint256[]",
          "name": "_ids",
          "type": "uint256[]"
        },
        {
          "internalType": "uint256[]",
          "name": "_amounts",
          "type": "uint256[]"
        },
        {
          "internalType": "bytes",
          "name": "_data",
          "type": "bytes"
        }
      ],
      "name": "safeBatchTransferFrom",
      "outputs": [],
      "stateMutability": "nonpayable",
      "type": "function"
    },
    {
      "inputs": [
        {
          "internalType": "address",
          "name": "_tokenAddress",
          "type": "address"
        },
        {
          "internalType": "address",
          "name": "_from",
          "type": "address"
        },
        {
          "internalType": "address",
          "name": "_to",
          "type": "address"
        },
        {
          "internalType": "uint256",
          "name": "_id",
          "type": "uint256"
        },
        {
          "internalType": "uint256",
          "name": "_amount",
          "type": "uint256"
        },
        {
          "internalType": "bytes",
          "name": "_data",
          "type": "bytes"
        }
      ],
      "name": "safeTransferFrom",
      "outputs": [],
      "stateMutability": "nonpayable",
      "type": "function"
    }
  ],
  "bytecode": "0x608060405234801561001057600080fd5b50610a4e806100206000396000f3fe608060405234801561001057600080fd5b50600436106100675760003560e01c8063e7e4f05211610050578063e7e4f05214610094578063eb46c45b146100a7578063f06978b7146100ba57600080fd5b80637ee7f69b1461006c57806387fd22fc14610081575b600080fd5b61007f61007a3660046104bd565b6100cd565b005b61007f61008f366004610586565b610161565b61007f6100a2366004610619565b6101f8565b61007f6100b53660046106d5565b610254565b61007f6100c8366004610749565b6102ae565b6040517f2eb2c2d600000000000000000000000000000000000000000000000000000000815273ffffffffffffffffffffffffffffffffffffffff871690632eb2c2d690610127908890889088908890889060040161085e565b600060405180830381600087803b15801561014157600080fd5b505af1158015610155573d6000803e3d6000fd5b50505050505050505050565b6040517fce0b514b00000000000000000000000000000000000000000000000000000000815273ffffffffffffffffffffffffffffffffffffffff88169063ce0b514b906101bd908990899089908990899089906004016108c9565b600060405180830381600087803b1580156101d757600080fd5b505af11580156101eb573d6000803e3d6000fd5b5050505050505050505050565b6040517fa3d4926e00000000000000000000000000000000000000000000000000000000815273ffffffffffffffffffffffffffffffffffffffff88169063a3d4926e906101bd90899089908990899089908990600401610916565b6040517ff242432a00000000000000000000000000000000000000000000000000000000815273ffffffffffffffffffffffffffffffffffffffff87169063f242432a90610127908890889088908890889060040161098a565b6040517ff5d4c82000000000000000000000000000000000000000000000000000000000815273ffffffffffffffffffffffffffffffffffffffff87169063f5d4c8209061012790889088908890889088906004016109cf565b803573ffffffffffffffffffffffffffffffffffffffff8116811461032c57600080fd5b919050565b7f4e487b7100000000000000000000000000000000000000000000000000000000600052604160045260246000fd5b604051601f82017fffffffffffffffffffffffffffffffffffffffffffffffffffffffffffffffe016810167ffffffffffffffff811182821017156103a7576103a7610331565b604052919050565b600082601f8301126103c057600080fd5b8135602067ffffffffffffffff8211156103dc576103dc610331565b8160051b6103eb828201610360565b928352848101820192828101908785111561040557600080fd5b83870192505b848310156104245782358252918301919083019061040b565b979650505050505050565b600082601f83011261044057600080fd5b813567ffffffffffffffff81111561045a5761045a610331565b61048b60207fffffffffffffffffffffffffffffffffffffffffffffffffffffffffffffffe0601f84011601610360565b8181528460208386010111156104a057600080fd5b816020850160208301376000918101602001919091529392505050565b60008060008060008060c087890312156104d657600080fd5b6104df87610308565b95506104ed60208801610308565b94506104fb60408801610308565b9350606087013567ffffffffffffffff8082111561051857600080fd5b6105248a838b016103af565b9450608089013591508082111561053a57600080fd5b6105468a838b016103af565b935060a089013591508082111561055c57600080fd5b5061056989828a0161042f565b9150509295509295509295565b8035801515811461032c57600080fd5b600080600080600080600060e0888a0312156105a157600080fd5b6105aa88610308565b96506105b860208901610308565b95506105c660408901610308565b945060608801359350608088013592506105e260a08901610576565b915060c088013567ffffffffffffffff8111156105fe57600080fd5b61060a8a828b0161042f565b91505092959891949750929550565b600080600080600080600060e0888a03121561063457600080fd5b61063d88610308565b965061064b60208901610308565b955061065960408901610308565b9450606088013567ffffffffffffffff8082111561067657600080fd5b6106828b838c016103af565b955060808a013591508082111561069857600080fd5b6106a48b838c016103af565b94506106b260a08b01610576565b935060c08a01359150808211156106c857600080fd5b5061060a8a828b0161042f565b60008060008060008060c087890312156106ee57600080fd5b6106f787610308565b955061070560208801610308565b945061071360408801610308565b9350606087013592506080870135915060a087013567ffffffffffffffff81111561073d57600080fd5b61056989828a0161042f565b60008060008060008060c0878903121561076257600080fd5b61076b87610308565b955061077960208801610308565b945061078760408801610308565b935061079560608801610576565b92506107a360808801610576565b915060a087013567ffffffffffffffff81111561073d57600080fd5b600081518084526020808501945080840160005b838110156107ef578151875295820195908201906001016107d3565b509495945050505050565b6000815180845260005b8181101561082057602081850181015186830182015201610804565b5060006020828601015260207fffffffffffffffffffffffffffffffffffffffffffffffffffffffffffffffe0601f83011685010191505092915050565b600073ffffffffffffffffffffffffffffffffffffffff808816835280871660208401525060a0604083015261089760a08301866107bf565b82810360608401526108a981866107bf565b905082810360808401526108bd81856107fa565b98975050505050505050565b600073ffffffffffffffffffffffffffffffffffffffff8089168352808816602084015250856040830152846060830152831515608083015260c060a08301526108bd60c08301846107fa565b600073ffffffffffffffffffffffffffffffffffffffff808916835280881660208401525060c0604083015261094f60c08301876107bf565b828103606084015261096181876107bf565b9050841515608084015282810360a084015261097d81856107fa565b9998505050505050505050565b600073ffffffffffffffffffffffffffffffffffffffff808816835280871660208401525084604083015283606083015260a0608083015261042460a08301846107fa565b600073ffffffffffffffffffffffffffffffffffffffff80881683528087166020840152508415156040830152831515606083015260a0608083015261042460a08301846107fa56fea26469706673582212204702637dee61cf198d003822040fc048271e736386f329c9649097df0ec100b464736f6c63430008120033",
  "linkReferences": {},
  "deployedLinkReferences": {}
}