{
  "_format": "hh-sol-artifact-1",
  "contractName": "ERC1155MetadataMock",
  "sourceName": "contracts/mocks/ERC1155MetadataMock.sol",
  "abi": [
    {
      "anonymous": false,
      "inputs": [
        {
          "indexed": true,
          "internalType": "address",
          "name": "_owner",
          "type": "address"
        },
        {
          "indexed": true,
          "internalType": "address",
          "name": "_operator",
          "type": "address"
        },
        {
          "indexed": false,
          "internalType": "bool",
          "name": "_approved",
          "type": "bool"
        }
      ],
      "name": "ApprovalForAll",
      "type": "event"
    },
    {
      "anonymous": false,
      "inputs": [
        {
          "indexed": true,
          "internalType": "address",
          "name": "signer",
          "type": "address"
        },
        {
          "indexed": false,
          "internalType": "uint256",
          "name": "newNonce",
          "type": "uint256"
        }
      ],
      "name": "NonceChange",
      "type": "event"
    },
    {
      "anonymous": false,
      "inputs": [
        {
          "indexed": true,
          "internalType": "address",
          "name": "_operator",
          "type": "address"
        },
        {
          "indexed": true,
          "internalType": "address",
          "name": "_from",
          "type": "address"
        },
        {
          "indexed": true,
          "internalType": "address",
          "name": "_to",
          "type": "address"
        },
        {
          "indexed": false,
          "internalType": "uint256[]",
          "name": "_ids",
          "type": "uint256[]"
        },
        {
          "indexed": false,
          "internalType": "uint256[]",
          "name": "_amounts",
          "type": "uint256[]"
        }
      ],
      "name": "TransferBatch",
      "type": "event"
    },
    {
      "anonymous": false,
      "inputs": [
        {
          "indexed": true,
          "internalType": "address",
          "name": "_operator",
          "type": "address"
        },
        {
          "indexed": true,
          "internalType": "address",
          "name": "_from",
          "type": "address"
        },
        {
          "indexed": true,
          "internalType": "address",
          "name": "_to",
          "type": "address"
        },
        {
          "indexed": false,
          "internalType": "uint256",
          "name": "_id",
          "type": "uint256"
        },
        {
          "indexed": false,
          "internalType": "uint256",
          "name": "_amount",
          "type": "uint256"
        }
      ],
      "name": "TransferSingle",
      "type": "event"
    },
    {
      "anonymous": false,
      "inputs": [
        {
          "indexed": false,
          "internalType": "string",
          "name": "_uri",
          "type": "string"
        },
        {
          "indexed": true,
          "internalType": "uint256",
          "name": "_id",
          "type": "uint256"
        }
      ],
      "name": "URI",
      "type": "event"
    },
    {
      "stateMutability": "nonpayable",
      "type": "fallback"
    },
    {
      "inputs": [
        {
          "internalType": "address",
          "name": "_owner",
          "type": "address"
        },
        {
          "internalType": "uint256",
          "name": "_id",
          "type": "uint256"
        }
      ],
      "name": "balanceOf",
      "outputs": [
        {
          "internalType": "uint256",
          "name": "",
          "type": "uint256"
        }
      ],
      "stateMutability": "view",
      "type": "function"
    },
    {
      "inputs": [
        {
          "internalType": "address[]",
          "name": "_owners",
          "type": "address[]"
        },
        {
          "internalType": "uint256[]",
          "name": "_ids",
          "type": "uint256[]"
        }
      ],
      "name": "balanceOfBatch",
      "outputs": [
        {
          "internalType": "uint256[]",
          "name": "",
          "type": "uint256[]"
        }
      ],
      "stateMutability": "view",
      "type": "function"
    },
    {
      "inputs": [
        {
          "internalType": "address",
          "name": "_from",
          "type": "address"
        },
        {
          "internalType": "uint256[]",
          "name": "_ids",
          "type": "uint256[]"
        },
        {
          "internalType": "uint256[]",
          "name": "_values",
          "type": "uint256[]"
        }
      ],
      "name": "batchBurnMock",
      "outputs": [],
      "stateMutability": "nonpayable",
      "type": "function"
    },
    {
      "inputs": [
        {
          "internalType": "address",
          "name": "_to",
          "type": "address"
        },
        {
          "internalType": "uint256[]",
          "name": "_ids",
          "type": "uint256[]"
        },
        {
          "internalType": "uint256[]",
          "name": "_values",
          "type": "uint256[]"
        },
        {
          "internalType": "bytes",
          "name": "_data",
          "type": "bytes"
        }
      ],
      "name": "batchMintMock",
      "outputs": [],
      "stateMutability": "nonpayable",
      "type": "function"
    },
    {
      "inputs": [
        {
          "internalType": "address",
          "name": "_from",
          "type": "address"
        },
        {
          "internalType": "uint256",
          "name": "_id",
          "type": "uint256"
        },
        {
          "internalType": "uint256",
          "name": "_value",
          "type": "uint256"
        }
      ],
      "name": "burnMock",
      "outputs": [],
      "stateMutability": "nonpayable",
      "type": "function"
    },
    {
      "inputs": [
        {
          "internalType": "address",
          "name": "_signer",
          "type": "address"
        }
      ],
      "name": "getNonce",
      "outputs": [
        {
          "internalType": "uint256",
          "name": "nonce",
          "type": "uint256"
        }
      ],
      "stateMutability": "view",
      "type": "function"
    },
    {
      "inputs": [
        {
          "internalType": "address",
          "name": "_owner",
          "type": "address"
        },
        {
          "internalType": "address",
          "name": "_operator",
          "type": "address"
        }
      ],
      "name": "isApprovedForAll",
      "outputs": [
        {
          "internalType": "bool",
          "name": "isOperator",
          "type": "bool"
        }
      ],
      "stateMutability": "view",
      "type": "function"
    },
    {
      "inputs": [
        {
          "internalType": "address",
          "name": "_signerAddress",
          "type": "address"
        },
        {
          "internalType": "bytes32",
          "name": "_hash",
          "type": "bytes32"
        },
        {
          "internalType": "bytes",
          "name": "_data",
          "type": "bytes"
        },
        {
          "internalType": "bytes",
          "name": "_sig",
          "type": "bytes"
        }
      ],
      "name": "isValidSignature",
      "outputs": [
        {
          "internalType": "bool",
          "name": "isValid",
          "type": "bool"
        }
      ],
      "stateMutability": "view",
      "type": "function"
    },
    {
      "inputs": [
        {
          "internalType": "uint256[]",
          "name": "_tokenIDs",
          "type": "uint256[]"
        }
      ],
      "name": "logURIsMock",
      "outputs": [],
      "stateMutability": "nonpayable",
      "type": "function"
    },
    {
      "inputs": [
        {
          "internalType": "address",
          "name": "_from",
          "type": "address"
        },
        {
          "internalType": "address",
          "name": "_to",
          "type": "address"
        },
        {
          "internalType": "uint256[]",
          "name": "_ids",
          "type": "uint256[]"
        },
        {
          "internalType": "uint256[]",
          "name": "_amounts",
          "type": "uint256[]"
        },
        {
          "internalType": "bool",
          "name": "_isGasFee",
          "type": "bool"
        },
        {
          "internalType": "bytes",
          "name": "_data",
          "type": "bytes"
        }
      ],
      "name": "metaSafeBatchTransferFrom",
      "outputs": [],
      "stateMutability": "nonpayable",
      "type": "function"
    },
    {
      "inputs": [
        {
          "internalType": "address",
          "name": "_from",
          "type": "address"
        },
        {
          "internalType": "address",
          "name": "_to",
          "type": "address"
        },
        {
          "internalType": "uint256",
          "name": "_id",
          "type": "uint256"
        },
        {
          "internalType": "uint256",
          "name": "_amount",
          "type": "uint256"
        },
        {
          "internalType": "bool",
          "name": "_isGasFee",
          "type": "bool"
        },
        {
          "internalType": "bytes",
          "name": "_data",
          "type": "bytes"
        }
      ],
      "name": "metaSafeTransferFrom",
      "outputs": [],
      "stateMutability": "nonpayable",
      "type": "function"
    },
    {
      "inputs": [
        {
          "internalType": "address",
          "name": "_owner",
          "type": "address"
        },
        {
          "internalType": "address",
          "name": "_operator",
          "type": "address"
        },
        {
          "internalType": "bool",
          "name": "_approved",
          "type": "bool"
        },
        {
          "internalType": "bool",
          "name": "_isGasFee",
          "type": "bool"
        },
        {
          "internalType": "bytes",
          "name": "_data",
          "type": "bytes"
        }
      ],
      "name": "metaSetApprovalForAll",
      "outputs": [],
      "stateMutability": "nonpayable",
      "type": "function"
    },
    {
      "inputs": [
        {
          "internalType": "address",
          "name": "_to",
          "type": "address"
        },
        {
          "internalType": "uint256",
          "name": "_id",
          "type": "uint256"
        },
        {
          "internalType": "uint256",
          "name": "_value",
          "type": "uint256"
        },
        {
          "internalType": "bytes",
          "name": "_data",
          "type": "bytes"
        }
      ],
      "name": "mintMock",
      "outputs": [],
      "stateMutability": "nonpayable",
      "type": "function"
    },
    {
      "inputs": [
        {
          "internalType": "address",
          "name": "_from",
          "type": "address"
        },
        {
          "internalType": "address",
          "name": "_to",
          "type": "address"
        },
        {
          "internalType": "uint256[]",
          "name": "_ids",
          "type": "uint256[]"
        },
        {
          "internalType": "uint256[]",
          "name": "_amounts",
          "type": "uint256[]"
        },
        {
          "internalType": "bytes",
          "name": "_data",
          "type": "bytes"
        }
      ],
      "name": "safeBatchTransferFrom",
      "outputs": [],
      "stateMutability": "nonpayable",
      "type": "function"
    },
    {
      "inputs": [
        {
          "internalType": "address",
          "name": "_from",
          "type": "address"
        },
        {
          "internalType": "address",
          "name": "_to",
          "type": "address"
        },
        {
          "internalType": "uint256",
          "name": "_id",
          "type": "uint256"
        },
        {
          "internalType": "uint256",
          "name": "_amount",
          "type": "uint256"
        },
        {
          "internalType": "bytes",
          "name": "_data",
          "type": "bytes"
        }
      ],
      "name": "safeTransferFrom",
      "outputs": [],
      "stateMutability": "nonpayable",
      "type": "function"
    },
    {
      "inputs": [
        {
          "internalType": "address",
          "name": "_operator",
          "type": "address"
        },
        {
          "internalType": "bool",
          "name": "_approved",
          "type": "bool"
        }
      ],
      "name": "setApprovalForAll",
      "outputs": [],
      "stateMutability": "nonpayable",
      "type": "function"
    },
    {
      "inputs": [
        {
          "internalType": "string",
          "name": "_newBaseMetadataURI",
          "type": "string"
        }
      ],
      "name": "setBaseMetadataURI",
      "outputs": [],
      "stateMutability": "nonpayable",
      "type": "function"
    },
    {
      "inputs": [
        {
          "internalType": "bytes4",
          "name": "_interfaceID",
          "type": "bytes4"
        }
      ],
      "name": "supportsInterface",
      "outputs": [
        {
          "internalType": "bool",
          "name": "",
          "type": "bool"
        }
      ],
      "stateMutability": "pure",
      "type": "function"
    },
    {
      "inputs": [
        {
          "internalType": "uint256",
          "name": "_id",
          "type": "uint256"
        }
      ],
      "name": "uri",
      "outputs": [
        {
          "internalType": "string",
          "name": "",
          "type": "string"
        }
      ],
      "stateMutability": "view",
      "type": "function"
    }
  ],
  "bytecode": "0x608060405234801561001057600080fd5b50613bfc806100206000396000f3fe608060405234801561001057600080fd5b50600436106101505760003560e01c8063a22cb465116100cd578063d7a0ad9011610081578063f242432a11610066578063f242432a146102e0578063f5d4c820146102f3578063fa4e12d71461030657610150565b8063d7a0ad90146102ba578063e985e9c5146102cd57610150565b8063a3f091f5116100b2578063a3f091f514610281578063bd7a6c4114610294578063ce0b514b146102a757610150565b8063a22cb4651461025b578063a3d4926e1461026e57610150565b80632d0335ab11610124578063437ecbe911610109578063437ecbe9146102155780634e1273f4146102285780637e518ec81461024857610150565b80632d0335ab146101ef5780632eb2c2d61461020257610150565b8062fdd58e1461017157806301ffc9a71461019a5780630e89341c146101ba5780631ea430d4146101da575b60405162461bcd60e51b8152600401610168906135bb565b60405180910390fd5b61018461017f36600461301c565b610319565b604051610191919061378c565b60405180910390f35b6101ad6101a83660046131e2565b61033f565b6040516101919190613460565b6101cd6101c8366004613314565b610352565b60405161019191906134ce565b6101ed6101e8366004613193565b610469565b005b6101846101fd366004612b46565b610475565b6101ed610210366004612ca0565b610490565b6101ed610223366004613047565b61054d565b61023b6102363660046130d0565b61055d565b604051610191919061341c565b6101ed610256366004613279565b610675565b6101ed610269366004612fa0565b61067e565b6101ed61027c366004612be3565b61070a565b6101ed61028f36600461307b565b610857565b6101ed6102a2366004612e96565b610869565b6101ed6102b5366004612dc3565b610874565b6101ed6102c8366004612f09565b61092c565b6101ad6102db366004612bab565b610938565b6101ed6102ee366004612e3b565b610966565b6101ed610301366004612d4a565b610a1c565b6101ad610314366004612fcd565b610b3f565b6001600160a01b0391909116600090815260208181526040808320938352929052205490565b600061034a826111fa565b90505b919050565b6060600361035f83611257565b60405160200180838054600181600116156101000203166002900480156103bd5780601f1061039b5761010080835404028352918201916103bd565b820191906000526020600020905b8154815290600101906020018083116103a9575b5050825160208401908083835b602083106103e95780518252601f1990920191602091820191016103ca565b5181516020939093036101000a60001901801990911692169190911790527f2e6a736f6e000000000000000000000000000000000000000000000000000000920191825250604080518083037fffffffffffffffffffffffffffffffffffffffffffffffffffffffffffffffe50181526005909201905295945050505050565b61047281611365565b50565b6001600160a01b031660009081526002602052604090205490565b336001600160a01b03861614806104ac57506104ac8533610938565b6104e75760405162461bcd60e51b815260040180806020018281038252602f815260200180613a70602f913960400191505060405180910390fd5b6001600160a01b03841661052c5760405162461bcd60e51b81526004018080602001828103825260308152602001806139b16030913960400191505060405180910390fd5b610538858585856115b1565b610546858585855a8661185c565b5050505050565b610558838383611a7b565b505050565b6060815183511461059f5760405162461bcd60e51b815260040180806020018281038252602c815260200180613a11602c913960400191505060405180910390fd5b6060835167ffffffffffffffff811180156105b957600080fd5b506040519080825280602002602001820160405280156105e3578160200160208202803683370190505b50905060005b845181101561066d5760008086838151811061060157fe5b60200260200101516001600160a01b03166001600160a01b03168152602001908152602001600020600085838151811061063757fe5b602002602001015181526020019081526020016000205482828151811061065a57fe5b60209081029190910101526001016105e9565b509392505050565b61047281611b0c565b3360008181526001602090815260408083206001600160a01b0387168085529083529281902080547fffffffffffffffffffffffffffffffffffffffffffffffffffffffffffffff0016861515908117909155815190815290519293927f17307eab39ab6107e8899845ad3d59bd9653f200f220920489ca2b5937696c31929181900390910190a35050565b6001600160a01b0385166107305760405162461bcd60e51b815260040161016890613675565b606061073a6128e3565b60606107ed89857fa3d4926e8cf8fe8e020cd29f514c256bc2eec62aa2337e415f1a33a4828af5a060001b8c8c8c604051602001610778919061332c565b604051602081830303815290604052805190602001208c60405160200161079f919061332c565b604051602081830303815290604052805190602001208c6107c15760006107c4565b60015b6040516020016107d99695949392919061346b565b604051602081830303815290604052611b23565b90506107fb898989896115b1565b841561083e578080602001905181019061081591906132df565b809450819350505061082f8989898986602001518861185c565b6108398983611c86565b61084c565b61084c898989895a8661185c565b505050505050505050565b61086384848484611ec7565b50505050565b610558838383611f62565b6001600160a01b03851661089a5760405162461bcd60e51b815260040161016890613501565b60606108a46128e3565b60606108dc89857fce0b514b3931bdbe4d5d44e4f035afe7113767b7db71949271f6a62d9c60f558828c8c8c8c6107c15760006107c4565b90506108ea8989898961212d565b841561091e578080602001905181019061090491906132df565b809450819350505061082f89898989866020015188612209565b61084c898989895a86612209565b610863848484846123ac565b6001600160a01b03918216600090815260016020908152604080832093909416825291909152205460ff1690565b336001600160a01b038616148061098257506109828533610938565b6109bd5760405162461bcd60e51b815260040180806020018281038252602a8152602001806138ab602a913960400191505060405180910390fd5b6001600160a01b038416610a025760405162461bcd60e51b815260040180806020018281038252602b815260200180613849602b913960400191505060405180910390fd5b610a0e8585858561212d565b610546858585855a86612209565b6060610a7886837ff5d4c820494c8595de274c7ff619bead38aac4fbc3d143b5bf956aa4b84fa524828989610a52576000610a55565b60015b89610a61576000610a64565b60015b6040516020016107d995949392919061349f565b6001600160a01b038781166000818152600160209081526040808320948b16808452949091529081902080547fffffffffffffffffffffffffffffffffffffffffffffffffffffffffffffff00168915151790555192935090917f17307eab39ab6107e8899845ad3d59bd9653f200f220920489ca2b5937696c3190610aff908890613460565b60405180910390a38215610b3757610b156128e3565b81806020019051810190610b2991906132ac565b9050610b358782611c86565b505b505050505050565b600080825111610b805760405162461bcd60e51b8152600401808060200182810382526043815260200180613a9f6043913960600191505060405180910390fd5b6001600160a01b038516610bc55760405162461bcd60e51b8152600401808060200182810382526033815260200180613a3d6033913960400191505060405180910390fd5b6000610bd083612581565b60f81c905060058110610c145760405162461bcd60e51b815260040180806020018281038252603a81526020018061390a603a913960400191505060405180910390fd5b60008160ff166005811115610c2557fe5b9050600080808080856005811115610c3957fe5b1415610c765760405162461bcd60e51b81526004018080602001828103825260368152602001806139446036913960400191505060405180910390fd5b6001856005811115610c8457fe5b1415610d82578751606114610cca5760405162461bcd60e51b815260040180806020018281038252603781526020018061397a6037913960400191505060405180910390fd5b610cd5886000612606565b9250610ce2886020612606565b915087604081518110610cf157fe5b602001015160f81c60f81b60f81c935060018a85858560405160008152602001604052604051808581526020018460ff1681526020018381526020018281526020019450505050506020604051602081039080840390855afa158015610d5b573d6000803e3d6000fd5b5050604051601f1901516001600160a01b038d811691161497506111f29650505050505050565b6002856005811115610d9057fe5b1415610ea8578751606114610dd65760405162461bcd60e51b815260040180806020018281038252603781526020018061397a6037913960400191505060405180910390fd5b610de1886000612606565b9250610dee886020612606565b915087604081518110610dfd57fe5b01602090810151604080517f19457468657265756d205369676e6564204d6573736167653a0a33320000000081850152603c8082018f905282518083039091018152605c82018084528151918601919091206000909152607c82018084525260f89290921c609c830181905260bc830187905260dc8301869052905190965060019260fc808401939192601f1981019281900390910190855afa158015610d5b573d6000803e3d6000fd5b6003856005811115610eb657fe5b141561106157604080517f20c13b0b000000000000000000000000000000000000000000000000000000008152600481019182528a5160448201528a516001600160a01b038e16926320c13b0b928d928d92918291602482019160640190602087019080838360005b83811015610f37578181015183820152602001610f1f565b50505050905090810190601f168015610f645780820380516001836020036101000a031916815260200191505b50838103825284518152845160209182019186019080838360005b83811015610f97578181015183820152602001610f7f565b50505050905090810190601f168015610fc45780820380516001836020036101000a031916815260200191505b5094505050505060206040518083038186803b158015610fe357600080fd5b505afa158015610ff7573d6000803e3d6000fd5b505050506040513d602081101561100d57600080fd5b50517fffffffff00000000000000000000000000000000000000000000000000000000167f20c13b0b000000000000000000000000000000000000000000000000000000001496506111f295505050505050565b600485600581111561106f57fe5b14156111bb57604080517f1626ba7e000000000000000000000000000000000000000000000000000000008152600481018c8152602482019283528a5160448301528a516001600160a01b038f1693631626ba7e938f938e9390929160640190602085019080838360005b838110156110f25781810151838201526020016110da565b50505050905090810190601f16801561111f5780820380516001836020036101000a031916815260200191505b50935050505060206040518083038186803b15801561113d57600080fd5b505afa158015611151573d6000803e3d6000fd5b505050506040513d602081101561116757600080fd5b50517fffffffff00000000000000000000000000000000000000000000000000000000167f1626ba7e000000000000000000000000000000000000000000000000000000001496506111f295505050505050565b60405162461bcd60e51b815260040180806020018281038252603a81526020018061390a603a913960400191505060405180910390fd5b949350505050565b60007fffffffff0000000000000000000000000000000000000000000000000000000082167f0e89341c00000000000000000000000000000000000000000000000000000000141561124e5750600161034d565b61034a82612654565b606081611298575060408051808201909152600181527f3000000000000000000000000000000000000000000000000000000000000000602082015261034d565b818060005b82156112b157600101600a8304925061129d565b60608167ffffffffffffffff811180156112ca57600080fd5b506040519080825280601f01601f1916602001820160405280156112f5576020820181803683370190505b50905060001982015b831561135b57600a840660300160f81b8282806001900393508151811061132157fe5b60200101907effffffffffffffffffffffffffffffffffffffffffffffffffffffffffffff1916908160001a905350600a840493506112fe565b5095945050505050565b60038054604080516020601f60026000196101006001881615020190951694909404938401819004810282018101909252828152606093909290918301828280156113f15780601f106113c6576101008083540402835291602001916113f1565b820191906000526020600020905b8154815290600101906020018083116113d457829003601f168201915b50505050509050606060005b8351811015610863578261142385838151811061141657fe5b6020026020010151611257565b6040516020018083805190602001908083835b602083106114555780518252601f199092019160209182019101611436565b51815160209384036101000a600019018019909216911617905285519190930192850191508083835b6020831061149d5780518252601f19909201916020918201910161147e565b6001836020036101000a038019825116818451168082178552505050505050905001807f2e6a736f6e00000000000000000000000000000000000000000000000000000081525060050192505050604051602081830303815290604052915083818151811061150857fe5b60200260200101517f6bb7ff708619ba0610cba295a58592e0451dee2622938c8755667688daf3529b836040518080602001828103825283818151815260200191508051906020019080838360005b8381101561156f578181015183820152602001611557565b50505050905090810190601f16801561159c5780820380516001836020036101000a031916815260200191505b509250505060405180910390a26001016113fd565b80518251146115f15760405162461bcd60e51b81526004018080602001828103825260358152602001806138d56035913960400191505060405180910390fd5b815160005b8181101561177b5761166c83828151811061160d57fe5b6020026020010151600080896001600160a01b03166001600160a01b03168152602001908152602001600020600087858151811061164757fe5b60200260200101518152602001908152602001600020546126b190919063ffffffff16565b600080886001600160a01b03166001600160a01b03168152602001908152602001600020600086848151811061169e57fe5b60200260200101518152602001908152602001600020819055506117268382815181106116c757fe5b6020026020010151600080886001600160a01b03166001600160a01b03168152602001908152602001600020600087858151811061170157fe5b602002602001015181526020019081526020016000205461270e90919063ffffffff16565b600080876001600160a01b03166001600160a01b03168152602001908152602001600020600086848151811061175857fe5b6020908102919091018101518252810191909152604001600020556001016115f6565b50836001600160a01b0316856001600160a01b0316336001600160a01b03167f4a39dc06d4c0dbc64b70af90fd698a233a518aa5d07e595d983b8c0526c8f7fb8686604051808060200180602001838103835285818151815260200191508051906020019060200280838360005b838110156118015781810151838201526020016117e9565b50505050905001838103825284818151815260200191508051906020019060200280838360005b83811015611840578181015183820152602001611828565b5050505090500194505050505060405180910390a45050505050565b61186e856001600160a01b031661276f565b15610b37576000856001600160a01b031663bc197c8184338a8989886040518763ffffffff1660e01b815260040180866001600160a01b03168152602001856001600160a01b03168152602001806020018060200180602001848103845287818151815260200191508051906020019060200280838360005b838110156118ff5781810151838201526020016118e7565b50505050905001848103835286818151815260200191508051906020019060200280838360005b8381101561193e578181015183820152602001611926565b50505050905001848103825285818151815260200191508051906020019080838360005b8381101561197a578181015183820152602001611962565b50505050905090810190601f1680156119a75780820380516001836020036101000a031916815260200191505b5098505050505050505050602060405180830381600088803b1580156119cc57600080fd5b5087f11580156119e0573d6000803e3d6000fd5b50505050506040513d60208110156119f757600080fd5b505190507fffffffff0000000000000000000000000000000000000000000000000000000081167fbc197c810000000000000000000000000000000000000000000000000000000014610b355760405162461bcd60e51b815260040180806020018281038252603f815260200180613b12603f913960400191505060405180910390fd5b6001600160a01b038316600090815260208181526040808320858452909152902054611aa790826126b1565b6001600160a01b03841660008181526020818152604080832087845282528083209490945583518681529081018590528351919333927fc3d58168c5ae7397731d063d5bbf3d657854427343f4c083240f7aacaa2d0f629281900390910190a4505050565b8051611b1f906003906020840190612914565b5050565b60608083806020019051810190611b3a9190613222565b6001600160a01b03871660009081526002602052604081205491945091925090611b65836041612606565b9050818110801590611b7957508160640181105b611b955760405162461bcd60e51b8152600401610168906136d2565b6000611bd186838780519060200120604051602001611bb693929190613362565b604051602081830303815290604052805190602001206127a6565b90506060868387604051602001611bea93929190613389565b60408051601f198184030181528282526001600160a01b038c166000818152600260205292909220600187019081905590935090917fb861b7bdbe611a846ab271b8d2810391bc8b5a968f390c322438ecab66bccf5991611c4a9161378c565b60405180910390a2611c5e89838388610b3f565b611c7a5760405162461bcd60e51b81526004016101689061355e565b50505050509392505050565b6000611c958260600151612581565b60f81c905060028110611cba5760405162461bcd60e51b81526004016101689061372f565b60008160ff166002811115611ccb57fe5b83516040850151919250600091829182916001600160a01b031615611cf4578660400151611cf6565b335b92506000856002811115611d0657fe5b1415611deb578660600151806020019051810190611d249190612b7e565b90945091506001600160a01b038416301415611d6857611d468884848461212d565b611d638884845a8560405180602001604052806000815250612209565b611de6565b6040517ff242432a0000000000000000000000000000000000000000000000000000000081526001600160a01b0385169063f242432a90611db3908b908790879087906004016133e4565b600060405180830381600087803b158015611dcd57600080fd5b505af1158015611de1573d6000803e3d6000fd5b505050505b611ebd565b8660600151806020019051810190611e039190612b62565b6040517f23b872dd0000000000000000000000000000000000000000000000000000000081529094506001600160a01b038516906323b872dd90611e4f908b90879086906004016133c0565b602060405180830381600087803b158015611e6957600080fd5b505af1158015611e7d573d6000803e3d6000fd5b505050506040513d601f19601f82011682018060405250810190611ea191906131c6565b611ebd5760405162461bcd60e51b815260040161016890613618565b5050505050505050565b6001600160a01b038416600090815260208181526040808320868452909152902054611ef3908361270e565b6001600160a01b038516600081815260208181526040808320888452825280832094909455835187815290810186905283519293919233927fc3d58168c5ae7397731d063d5bbf3d657854427343f4c083240f7aacaa2d0f62928290030190a461086360008585855a86612209565b815181518114611fa35760405162461bcd60e51b81526004018080602001828103825260308152602001806139e16030913960400191505060405180910390fd5b60005b8181101561204c57611ff7838281518110611fbd57fe5b6020026020010151600080886001600160a01b03166001600160a01b03168152602001908152602001600020600087858151811061164757fe5b600080876001600160a01b03166001600160a01b03168152602001908152602001600020600086848151811061202957fe5b602090810291909101810151825281019190915260400160002055600101611fa6565b5060006001600160a01b0316846001600160a01b0316336001600160a01b03167f4a39dc06d4c0dbc64b70af90fd698a233a518aa5d07e595d983b8c0526c8f7fb8686604051808060200180602001838103835285818151815260200191508051906020019060200280838360005b838110156120d35781810151838201526020016120bb565b50505050905001838103825284818151815260200191508051906020019060200280838360005b838110156121125781810151838201526020016120fa565b5050505090500194505050505060405180910390a450505050565b6001600160a01b03841660009081526020818152604080832085845290915290205461215990826126b1565b6001600160a01b038086166000908152602081815260408083208784528252808320949094559186168152808252828120858252909152205461219c908261270e565b6001600160a01b03808516600081815260208181526040808320888452825291829020949094558051868152938401859052805191939288169233927fc3d58168c5ae7397731d063d5bbf3d657854427343f4c083240f7aacaa2d0f62929181900390910190a450505050565b61221b856001600160a01b031661276f565b15610b37576000856001600160a01b031663f23a6e6184338a8989886040518763ffffffff1660e01b815260040180866001600160a01b03168152602001856001600160a01b0316815260200184815260200183815260200180602001828103825283818151815260200191508051906020019080838360005b838110156122ad578181015183820152602001612295565b50505050905090810190601f1680156122da5780820380516001836020036101000a031916815260200191505b509650505050505050602060405180830381600088803b1580156122fd57600080fd5b5087f1158015612311573d6000803e3d6000fd5b50505050506040513d602081101561232857600080fd5b505190507fffffffff0000000000000000000000000000000000000000000000000000000081167ff23a6e610000000000000000000000000000000000000000000000000000000014610b355760405162461bcd60e51b815260040180806020018281038252603a815260200180613b51603a913960400191505060405180910390fd5b81518351146123ec5760405162461bcd60e51b8152600401808060200182810382526030815260200180613ae26030913960400191505060405180910390fd5b825160005b818110156124975761244284828151811061240857fe5b6020026020010151600080896001600160a01b03166001600160a01b03168152602001908152602001600020600088858151811061170157fe5b600080886001600160a01b03166001600160a01b03168152602001908152602001600020600087848151811061247457fe5b6020908102919091018101518252810191909152604001600020556001016123f1565b50846001600160a01b031660006001600160a01b0316336001600160a01b03167f4a39dc06d4c0dbc64b70af90fd698a233a518aa5d07e595d983b8c0526c8f7fb8787604051808060200180602001838103835285818151815260200191508051906020019060200280838360005b8381101561251e578181015183820152602001612506565b50505050905001838103825284818151815260200191508051906020019060200280838360005b8381101561255d578181015183820152602001612545565b5050505090500194505050505060405180910390a461054660008686865a8761185c565b6000808251116125c25760405162461bcd60e51b81526004018080602001828103825260378152602001806138746037913960400191505060405180910390fd5b816001835103815181106125d257fe5b0160200151825160001901909252507fff000000000000000000000000000000000000000000000000000000000000001690565b6000816020018351101561264b5760405162461bcd60e51b815260040180806020018281038252603c815260200180613b8b603c913960400191505060405180910390fd5b50016020015190565b60007fffffffff0000000000000000000000000000000000000000000000000000000082167fd9b67a260000000000000000000000000000000000000000000000000000000014156126a85750600161034d565b61034a82612899565b600082821115612708576040805162461bcd60e51b815260206004820152601760248201527f536166654d617468237375623a20554e444552464c4f57000000000000000000604482015290519081900360640190fd5b50900390565b600082820183811015612768576040805162461bcd60e51b815260206004820152601660248201527f536166654d617468236164643a204f564552464c4f5700000000000000000000604482015290519081900360640190fd5b9392505050565b6000813f801580159061276857507fc5d2460186f7233c927e7db2dcc703c0e500b653ca82273b7bfad8045d85a470141592915050565b604080518082018252600281527f1901000000000000000000000000000000000000000000000000000000000000602080830191825283517f035aff83d86937d35b32e04f0ddc6ff469290eef2f1b692d8a815c89404d47498183015230818601528451808203860181526060820190955284519490910193909320825160009491928692608001918291908083835b602083106128555780518252601f199092019160209182019101612836565b51815160209384036101000a600019018019909216911617905292019485525083810192909252506040805180840383018152928101905281519101209392505050565b7fffffffff0000000000000000000000000000000000000000000000000000000081167f01ffc9a70000000000000000000000000000000000000000000000000000000014919050565b6040518060800160405280600081526020016000815260200160006001600160a01b03168152602001606081525090565b828054600181600116156101000203166002900490600052602060002090601f01602090048101928261294a5760008555612990565b82601f1061296357805160ff1916838001178555612990565b82800160010185558215612990579182015b82811115612990578251825591602001919060010190612975565b5061299c9291506129a0565b5090565b5b8082111561299c57600081556001016129a1565b600082601f8301126129c5578081fd5b81356129d86129d3826137b9565b613795565b8181529150602080830190848101818402860182018710156129f957600080fd5b60005b84811015612a18578135845292820192908201906001016129fc565b505050505092915050565b600082601f830112612a33578081fd5b8135612a416129d3826137d7565b9150808252836020828501011115612a5857600080fd5b8060208401602084013760009082016020015292915050565b600082601f830112612a81578081fd5b8151612a8f6129d3826137d7565b9150808252836020828501011115612aa657600080fd5b612ab78160208401602086016137f9565b5092915050565b600060808284031215612acf578081fd5b6040516080810167ffffffffffffffff8282108183111715612aed57fe5b81604052829350845183526020850151602084015260408501519150612b1282613825565b8160408401526060850151915080821115612b2c57600080fd5b50612b3985828601612a71565b6060830152505092915050565b600060208284031215612b57578081fd5b813561276881613825565b600060208284031215612b73578081fd5b815161276881613825565b60008060408385031215612b90578081fd5b8251612b9b81613825565b6020939093015192949293505050565b60008060408385031215612bbd578182fd5b8235612bc881613825565b91506020830135612bd881613825565b809150509250929050565b60008060008060008060c08789031215612bfb578182fd5b8635612c0681613825565b95506020870135612c1681613825565b9450604087013567ffffffffffffffff80821115612c32578384fd5b612c3e8a838b016129b5565b95506060890135915080821115612c53578384fd5b612c5f8a838b016129b5565b945060808901359150612c718261383a565b90925060a08801359080821115612c86578283fd5b50612c9389828a01612a23565b9150509295509295509295565b600080600080600060a08688031215612cb7578081fd5b8535612cc281613825565b94506020860135612cd281613825565b9350604086013567ffffffffffffffff80821115612cee578283fd5b612cfa89838a016129b5565b94506060880135915080821115612d0f578283fd5b612d1b89838a016129b5565b93506080880135915080821115612d30578283fd5b50612d3d88828901612a23565b9150509295509295909350565b600080600080600060a08688031215612d61578283fd5b8535612d6c81613825565b94506020860135612d7c81613825565b93506040860135612d8c8161383a565b92506060860135612d9c8161383a565b9150608086013567ffffffffffffffff811115612db7578182fd5b612d3d88828901612a23565b60008060008060008060c08789031215612ddb578384fd5b8635612de681613825565b95506020870135612df681613825565b945060408701359350606087013592506080870135612e148161383a565b915060a087013567ffffffffffffffff811115612e2f578182fd5b612c9389828a01612a23565b600080600080600060a08688031215612e52578283fd5b8535612e5d81613825565b94506020860135612e6d81613825565b93506040860135925060608601359150608086013567ffffffffffffffff811115612db7578182fd5b600080600060608486031215612eaa578081fd5b8335612eb581613825565b9250602084013567ffffffffffffffff80821115612ed1578283fd5b612edd878388016129b5565b93506040860135915080821115612ef2578283fd5b50612eff868287016129b5565b9150509250925092565b60008060008060808587031215612f1e578182fd5b8435612f2981613825565b9350602085013567ffffffffffffffff80821115612f45578384fd5b612f51888389016129b5565b94506040870135915080821115612f66578384fd5b612f72888389016129b5565b93506060870135915080821115612f87578283fd5b50612f9487828801612a23565b91505092959194509250565b60008060408385031215612fb2578182fd5b8235612fbd81613825565b91506020830135612bd88161383a565b60008060008060808587031215612fe2578182fd5b8435612fed81613825565b935060208501359250604085013567ffffffffffffffff80821115613010578384fd5b612f7288838901612a23565b6000806040838503121561302e578182fd5b823561303981613825565b946020939093013593505050565b60008060006060848603121561305b578081fd5b833561306681613825565b95602085013595506040909401359392505050565b60008060008060808587031215613090578182fd5b843561309b81613825565b93506020850135925060408501359150606085013567ffffffffffffffff8111156130c4578182fd5b612f9487828801612a23565b600080604083850312156130e2578182fd5b823567ffffffffffffffff808211156130f9578384fd5b818501915085601f83011261310c578384fd5b813561311a6129d3826137b9565b80828252602080830192508086018a82838702890101111561313a578889fd5b8896505b8487101561316557803561315181613825565b84526001969096019592810192810161313e565b50909650870135935050508082111561317c578283fd5b50613189858286016129b5565b9150509250929050565b6000602082840312156131a4578081fd5b813567ffffffffffffffff8111156131ba578182fd5b6111f2848285016129b5565b6000602082840312156131d7578081fd5b81516127688161383a565b6000602082840312156131f3578081fd5b81357fffffffff0000000000000000000000000000000000000000000000000000000081168114612768578182fd5b60008060408385031215613234578182fd5b825167ffffffffffffffff8082111561324b578384fd5b61325786838701612a71565b9350602085015191508082111561326c578283fd5b5061318985828601612a71565b60006020828403121561328a578081fd5b813567ffffffffffffffff8111156132a0578182fd5b6111f284828501612a23565b6000602082840312156132bd578081fd5b815167ffffffffffffffff8111156132d3578182fd5b6111f284828501612abe565b600080604083850312156132f1578182fd5b825167ffffffffffffffff80821115613308578384fd5b61325786838701612abe565b600060208284031215613325578081fd5b5035919050565b815160009082906020808601845b838110156133565781518552938201939082019060010161333a565b50929695505050505050565b600084516133748184602089016137f9565b91909101928352506020820152604001919050565b6000845161339b8184602089016137f9565b820184815283516133b38160208085019088016137f9565b0160200195945050505050565b6001600160a01b039384168152919092166020820152604081019190915260600190565b6001600160a01b0394851681529290931660208301526040820152606081019190915260a06080820181905260009082015260c00190565b6020808252825182820181905260009190848201906040850190845b8181101561345457835183529284019291840191600101613438565b50909695505050505050565b901515815260200190565b9586526001600160a01b0394851660208701529290931660408501526060840152608083019190915260a082015260c00190565b9485526001600160a01b0393841660208601529190921660408401526060830191909152608082015260a00190565b60006020825282518060208401526134ed8160408501602087016137f9565b601f01601f19169190910160400192915050565b60208082526033908201527f455243313135354d657461236d657461536166655472616e7366657246726f6d60408201527f3a20494e56414c49445f524543495049454e5400000000000000000000000000606082015260800190565b60208082526033908201527f455243313135354d657461235f7369676e617475726556616c69646174696f6e60408201527f3a20494e56414c49445f5349474e415455524500000000000000000000000000606082015260800190565b60208082526023908201527f455243313135354d657461646174614d6f636b3a20494e56414c49445f4d455460408201527f484f440000000000000000000000000000000000000000000000000000000000606082015260800190565b60208082526032908201527f455243313135354d657461235f7472616e736665724761734665653a2045524360408201527f32305f5452414e534645525f4641494c45440000000000000000000000000000606082015260800190565b60208082526038908201527f455243313135354d657461236d6574615361666542617463685472616e73666560408201527f7246726f6d3a20494e56414c49445f524543495049454e540000000000000000606082015260800190565b6020808252602f908201527f455243313135354d657461235f7369676e617475726556616c69646174696f6e60408201527f3a20494e56414c49445f4e4f4e43450000000000000000000000000000000000606082015260800190565b6020808252602e908201527f455243313135354d657461235f7472616e736665724761734665653a20554e5360408201527f5550504f525445445f544f4b454e000000000000000000000000000000000000606082015260800190565b90815260200190565b60405181810167ffffffffffffffff811182821017156137b157fe5b604052919050565b600067ffffffffffffffff8211156137cd57fe5b5060209081020190565b600067ffffffffffffffff8211156137eb57fe5b50601f01601f191660200190565b60005b838110156138145781810151838201526020016137fc565b838111156108635750506000910152565b6001600160a01b038116811461047257600080fd5b801515811461047257600080fdfe4552433131353523736166655472616e7366657246726f6d3a20494e56414c49445f524543495049454e544c6962427974657323706f704c617374427974653a20475245415445525f5448414e5f5a45524f5f4c454e4754485f52455155495245444552433131353523736166655472616e7366657246726f6d3a20494e56414c49445f4f50455241544f5245524331313535235f7361666542617463685472616e7366657246726f6d3a20494e56414c49445f4152524159535f4c454e4754485369676e617475726556616c696461746f7223697356616c69645369676e61747572653a20554e535550504f525445445f5349474e41545552455369676e617475726556616c696461746f7223697356616c69645369676e61747572653a20494c4c4547414c5f5349474e41545552455369676e617475726556616c696461746f7223697356616c69645369676e61747572653a204c454e4754485f39375f524551554952454445524331313535237361666542617463685472616e7366657246726f6d3a20494e56414c49445f524543495049454e54455243313135354d696e744275726e2362617463684275726e3a20494e56414c49445f4152524159535f4c454e475448455243313135352362616c616e63654f6642617463683a20494e56414c49445f41525241595f4c454e4754485369676e617475726556616c696461746f7223697356616c69645369676e61747572653a20494e56414c49445f5349474e455245524331313535237361666542617463685472616e7366657246726f6d3a20494e56414c49445f4f50455241544f525369676e617475726556616c696461746f7223697356616c69645369676e61747572653a204c454e4754485f475245415445525f5448414e5f305f5245515549524544455243313135354d696e744275726e2362617463684d696e743a20494e56414c49445f4152524159535f4c454e47544845524331313535235f63616c6c6f6e45524331313535426174636852656365697665643a20494e56414c49445f4f4e5f524543454956455f4d45535341474545524331313535235f63616c6c6f6e4552433131353552656365697665643a20494e56414c49445f4f4e5f524543454956455f4d4553534147454c696242797465732372656164427974657333323a20475245415445525f4f525f455155414c5f544f5f33325f4c454e4754485f5245515549524544a264697066735822122072b2fea5df530ce56040d21e83f86fb135fbb7f102266fff3af59611810b008a64736f6c63430007040033",
  "linkReferences": {},
  "deployedLinkReferences": {}
}