{
  "_format": "hh-sol-artifact-1",
  "contractName": "ERC1155MetadataMock",
  "sourceName": "contracts/mocks/ERC1155MetadataMock.sol",
  "abi": [
    {
      "anonymous": false,
      "inputs": [
        {
          "indexed": true,
          "internalType": "address",
          "name": "_owner",
          "type": "address"
        },
        {
          "indexed": true,
          "internalType": "address",
          "name": "_operator",
          "type": "address"
        },
        {
          "indexed": false,
          "internalType": "bool",
          "name": "_approved",
          "type": "bool"
        }
      ],
      "name": "ApprovalForAll",
      "type": "event"
    },
    {
      "anonymous": false,
      "inputs": [
        {
          "indexed": true,
          "internalType": "address",
          "name": "signer",
          "type": "address"
        },
        {
          "indexed": false,
          "internalType": "uint256",
          "name": "newNonce",
          "type": "uint256"
        }
      ],
      "name": "NonceChange",
      "type": "event"
    },
    {
      "anonymous": false,
      "inputs": [
        {
          "indexed": true,
          "internalType": "address",
          "name": "_operator",
          "type": "address"
        },
        {
          "indexed": true,
          "internalType": "address",
          "name": "_from",
          "type": "address"
        },
        {
          "indexed": true,
          "internalType": "address",
          "name": "_to",
          "type": "address"
        },
        {
          "indexed": false,
          "internalType": "uint256[]",
          "name": "_ids",
          "type": "uint256[]"
        },
        {
          "indexed": false,
          "internalType": "uint256[]",
          "name": "_amounts",
          "type": "uint256[]"
        }
      ],
      "name": "TransferBatch",
      "type": "event"
    },
    {
      "anonymous": false,
      "inputs": [
        {
          "indexed": true,
          "internalType": "address",
          "name": "_operator",
          "type": "address"
        },
        {
          "indexed": true,
          "internalType": "address",
          "name": "_from",
          "type": "address"
        },
        {
          "indexed": true,
          "internalType": "address",
          "name": "_to",
          "type": "address"
        },
        {
          "indexed": false,
          "internalType": "uint256",
          "name": "_id",
          "type": "uint256"
        },
        {
          "indexed": false,
          "internalType": "uint256",
          "name": "_amount",
          "type": "uint256"
        }
      ],
      "name": "TransferSingle",
      "type": "event"
    },
    {
      "anonymous": false,
      "inputs": [
        {
          "indexed": false,
          "internalType": "string",
          "name": "_uri",
          "type": "string"
        },
        {
          "indexed": true,
          "internalType": "uint256",
          "name": "_id",
          "type": "uint256"
        }
      ],
      "name": "URI",
      "type": "event"
    },
    {
      "stateMutability": "nonpayable",
      "type": "fallback"
    },
    {
      "inputs": [
        {
          "internalType": "address",
          "name": "_owner",
          "type": "address"
        },
        {
          "internalType": "uint256",
          "name": "_id",
          "type": "uint256"
        }
      ],
      "name": "balanceOf",
      "outputs": [
        {
          "internalType": "uint256",
          "name": "",
          "type": "uint256"
        }
      ],
      "stateMutability": "view",
      "type": "function"
    },
    {
      "inputs": [
        {
          "internalType": "address[]",
          "name": "_owners",
          "type": "address[]"
        },
        {
          "internalType": "uint256[]",
          "name": "_ids",
          "type": "uint256[]"
        }
      ],
      "name": "balanceOfBatch",
      "outputs": [
        {
          "internalType": "uint256[]",
          "name": "",
          "type": "uint256[]"
        }
      ],
      "stateMutability": "view",
      "type": "function"
    },
    {
      "inputs": [
        {
          "internalType": "address",
          "name": "_from",
          "type": "address"
        },
        {
          "internalType": "uint256[]",
          "name": "_ids",
          "type": "uint256[]"
        },
        {
          "internalType": "uint256[]",
          "name": "_values",
          "type": "uint256[]"
        }
      ],
      "name": "batchBurnMock",
      "outputs": [],
      "stateMutability": "nonpayable",
      "type": "function"
    },
    {
      "inputs": [
        {
          "internalType": "address",
          "name": "_to",
          "type": "address"
        },
        {
          "internalType": "uint256[]",
          "name": "_ids",
          "type": "uint256[]"
        },
        {
          "internalType": "uint256[]",
          "name": "_values",
          "type": "uint256[]"
        },
        {
          "internalType": "bytes",
          "name": "_data",
          "type": "bytes"
        }
      ],
      "name": "batchMintMock",
      "outputs": [],
      "stateMutability": "nonpayable",
      "type": "function"
    },
    {
      "inputs": [
        {
          "internalType": "address",
          "name": "_from",
          "type": "address"
        },
        {
          "internalType": "uint256",
          "name": "_id",
          "type": "uint256"
        },
        {
          "internalType": "uint256",
          "name": "_value",
          "type": "uint256"
        }
      ],
      "name": "burnMock",
      "outputs": [],
      "stateMutability": "nonpayable",
      "type": "function"
    },
    {
      "inputs": [
        {
          "internalType": "address",
          "name": "_signer",
          "type": "address"
        }
      ],
      "name": "getNonce",
      "outputs": [
        {
          "internalType": "uint256",
          "name": "nonce",
          "type": "uint256"
        }
      ],
      "stateMutability": "view",
      "type": "function"
    },
    {
      "inputs": [
        {
          "internalType": "address",
          "name": "_owner",
          "type": "address"
        },
        {
          "internalType": "address",
          "name": "_operator",
          "type": "address"
        }
      ],
      "name": "isApprovedForAll",
      "outputs": [
        {
          "internalType": "bool",
          "name": "isOperator",
          "type": "bool"
        }
      ],
      "stateMutability": "view",
      "type": "function"
    },
    {
      "inputs": [
        {
          "internalType": "address",
          "name": "_signerAddress",
          "type": "address"
        },
        {
          "internalType": "bytes32",
          "name": "_hash",
          "type": "bytes32"
        },
        {
          "internalType": "bytes",
          "name": "_data",
          "type": "bytes"
        },
        {
          "internalType": "bytes",
          "name": "_sig",
          "type": "bytes"
        }
      ],
      "name": "isValidSignature",
      "outputs": [
        {
          "internalType": "bool",
          "name": "isValid",
          "type": "bool"
        }
      ],
      "stateMutability": "view",
      "type": "function"
    },
    {
      "inputs": [
        {
          "internalType": "uint256[]",
          "name": "_tokenIDs",
          "type": "uint256[]"
        }
      ],
      "name": "logURIsMock",
      "outputs": [],
      "stateMutability": "nonpayable",
      "type": "function"
    },
    {
      "inputs": [
        {
          "internalType": "address",
          "name": "_from",
          "type": "address"
        },
        {
          "internalType": "address",
          "name": "_to",
          "type": "address"
        },
        {
          "internalType": "uint256[]",
          "name": "_ids",
          "type": "uint256[]"
        },
        {
          "internalType": "uint256[]",
          "name": "_amounts",
          "type": "uint256[]"
        },
        {
          "internalType": "bool",
          "name": "_isGasFee",
          "type": "bool"
        },
        {
          "internalType": "bytes",
          "name": "_data",
          "type": "bytes"
        }
      ],
      "name": "metaSafeBatchTransferFrom",
      "outputs": [],
      "stateMutability": "nonpayable",
      "type": "function"
    },
    {
      "inputs": [
        {
          "internalType": "address",
          "name": "_from",
          "type": "address"
        },
        {
          "internalType": "address",
          "name": "_to",
          "type": "address"
        },
        {
          "internalType": "uint256",
          "name": "_id",
          "type": "uint256"
        },
        {
          "internalType": "uint256",
          "name": "_amount",
          "type": "uint256"
        },
        {
          "internalType": "bool",
          "name": "_isGasFee",
          "type": "bool"
        },
        {
          "internalType": "bytes",
          "name": "_data",
          "type": "bytes"
        }
      ],
      "name": "metaSafeTransferFrom",
      "outputs": [],
      "stateMutability": "nonpayable",
      "type": "function"
    },
    {
      "inputs": [
        {
          "internalType": "address",
          "name": "_owner",
          "type": "address"
        },
        {
          "internalType": "address",
          "name": "_operator",
          "type": "address"
        },
        {
          "internalType": "bool",
          "name": "_approved",
          "type": "bool"
        },
        {
          "internalType": "bool",
          "name": "_isGasFee",
          "type": "bool"
        },
        {
          "internalType": "bytes",
          "name": "_data",
          "type": "bytes"
        }
      ],
      "name": "metaSetApprovalForAll",
      "outputs": [],
      "stateMutability": "nonpayable",
      "type": "function"
    },
    {
      "inputs": [
        {
          "internalType": "address",
          "name": "_to",
          "type": "address"
        },
        {
          "internalType": "uint256",
          "name": "_id",
          "type": "uint256"
        },
        {
          "internalType": "uint256",
          "name": "_value",
          "type": "uint256"
        },
        {
          "internalType": "bytes",
          "name": "_data",
          "type": "bytes"
        }
      ],
      "name": "mintMock",
      "outputs": [],
      "stateMutability": "nonpayable",
      "type": "function"
    },
    {
      "inputs": [
        {
          "internalType": "address",
          "name": "_from",
          "type": "address"
        },
        {
          "internalType": "address",
          "name": "_to",
          "type": "address"
        },
        {
          "internalType": "uint256[]",
          "name": "_ids",
          "type": "uint256[]"
        },
        {
          "internalType": "uint256[]",
          "name": "_amounts",
          "type": "uint256[]"
        },
        {
          "internalType": "bytes",
          "name": "_data",
          "type": "bytes"
        }
      ],
      "name": "safeBatchTransferFrom",
      "outputs": [],
      "stateMutability": "nonpayable",
      "type": "function"
    },
    {
      "inputs": [
        {
          "internalType": "address",
          "name": "_from",
          "type": "address"
        },
        {
          "internalType": "address",
          "name": "_to",
          "type": "address"
        },
        {
          "internalType": "uint256",
          "name": "_id",
          "type": "uint256"
        },
        {
          "internalType": "uint256",
          "name": "_amount",
          "type": "uint256"
        },
        {
          "internalType": "bytes",
          "name": "_data",
          "type": "bytes"
        }
      ],
      "name": "safeTransferFrom",
      "outputs": [],
      "stateMutability": "nonpayable",
      "type": "function"
    },
    {
      "inputs": [
        {
          "internalType": "address",
          "name": "_operator",
          "type": "address"
        },
        {
          "internalType": "bool",
          "name": "_approved",
          "type": "bool"
        }
      ],
      "name": "setApprovalForAll",
      "outputs": [],
      "stateMutability": "nonpayable",
      "type": "function"
    },
    {
      "inputs": [
        {
          "internalType": "string",
          "name": "_newBaseMetadataURI",
          "type": "string"
        }
      ],
      "name": "setBaseMetadataURI",
      "outputs": [],
      "stateMutability": "nonpayable",
      "type": "function"
    },
    {
      "inputs": [
        {
          "internalType": "bytes4",
          "name": "_interfaceID",
          "type": "bytes4"
        }
      ],
      "name": "supportsInterface",
      "outputs": [
        {
          "internalType": "bool",
          "name": "",
          "type": "bool"
        }
      ],
      "stateMutability": "pure",
      "type": "function"
    },
    {
      "inputs": [
        {
          "internalType": "uint256",
          "name": "_id",
          "type": "uint256"
        }
      ],
      "name": "uri",
      "outputs": [
        {
          "internalType": "string",
          "name": "",
          "type": "string"
        }
      ],
      "stateMutability": "view",
      "type": "function"
    }
  ],
  "bytecode": "0x608060405234801561001057600080fd5b50614417806100206000396000f3fe608060405234801561001057600080fd5b50600436106101505760003560e01c8063a22cb465116100cd578063d7a0ad9011610081578063f242432a11610066578063f242432a146102fa578063f5d4c8201461030d578063fa4e12d71461032057610150565b8063d7a0ad90146102d4578063e985e9c5146102e757610150565b8063a3f091f5116100b2578063a3f091f51461029b578063bd7a6c41146102ae578063ce0b514b146102c157610150565b8063a22cb46514610275578063a3d4926e1461028857610150565b80632d0335ab11610124578063437ecbe911610109578063437ecbe91461022f5780634e1273f4146102425780637e518ec81461026257610150565b80632d0335ab146102095780632eb2c2d61461021c57610150565b8062fdd58e1461018b57806301ffc9a7146101b45780630e89341c146101d45780631ea430d4146101f4575b6040517f08c379a000000000000000000000000000000000000000000000000000000000815260040161018290613dab565b60405180910390fd5b61019e6101993660046137ba565b610333565b6040516101ab9190613f7c565b60405180910390f35b6101c76101c2366004613980565b610366565b6040516101ab9190613c18565b6101e76101e2366004613ab2565b610379565b6040516101ab9190613ca0565b610207610202366004613931565b6104cc565b005b61019e6102173660046132e4565b6104d8565b61020761022a36600461343e565b610500565b61020761023d3660046137e5565b61060b565b61025561025036600461386e565b61061b565b6040516101ab9190613bd4565b610207610270366004613a17565b610767565b61020761028336600461373e565b610770565b610207610296366004613381565b610809565b6102076102a9366004613819565b61097d565b6102076102bc366004613634565b61098f565b6102076102cf366004613561565b61099a565b6102076102e23660046136a7565b610a79565b6101c76102f5366004613349565b610a85565b6102076103083660046135d9565b610ac0565b61020761031b3660046134e8565b610bc4565b6101c761032e36600461376b565b610cf4565b73ffffffffffffffffffffffffffffffffffffffff91909116600090815260208181526040808320938352929052205490565b6000610371826114d5565b90505b919050565b6060600361038683611532565b60405160200180838054600181600116156101000203166002900480156103e45780601f106103c25761010080835404028352918201916103e4565b820191906000526020600020905b8154815290600101906020018083116103d0575b5050825160208401908083835b6020831061042e57805182527fffffffffffffffffffffffffffffffffffffffffffffffffffffffffffffffe090920191602091820191016103f1565b5181516020939093036101000a7fffffffffffffffffffffffffffffffffffffffffffffffffffffffffffffffff01801990911692169190911790527f2e6a736f6e000000000000000000000000000000000000000000000000000000920191825250604080518083037fffffffffffffffffffffffffffffffffffffffffffffffffffffffffffffffe50181526005909201905295945050505050565b6104d58161165e565b50565b73ffffffffffffffffffffffffffffffffffffffff1660009081526002602052604090205490565b3373ffffffffffffffffffffffffffffffffffffffff8616148061052957506105298533610a85565b61057e576040517f08c379a000000000000000000000000000000000000000000000000000000000815260040180806020018281038252602f81526020018061428b602f913960400191505060405180910390fd5b73ffffffffffffffffffffffffffffffffffffffff84166105ea576040517f08c379a00000000000000000000000000000000000000000000000000000000081526004018080602001828103825260308152602001806141cc6030913960400191505060405180910390fd5b6105f685858585611922565b610604858585855a86611c76565b5050505050565b610616838383611ee3565b505050565b60608151835114610677576040517f08c379a000000000000000000000000000000000000000000000000000000000815260040180806020018281038252602c81526020018061422c602c913960400191505060405180910390fd5b6060835167ffffffffffffffff8111801561069157600080fd5b506040519080825280602002602001820160405280156106bb578160200160208202803683370190505b50905060005b845181101561075f576000808683815181106106d957fe5b602002602001015173ffffffffffffffffffffffffffffffffffffffff1673ffffffffffffffffffffffffffffffffffffffff168152602001908152602001600020600085838151811061072957fe5b602002602001015181526020019081526020016000205482828151811061074c57fe5b60209081029190910101526001016106c1565b509392505050565b6104d581611f8e565b33600081815260016020908152604080832073ffffffffffffffffffffffffffffffffffffffff87168085529083529281902080547fffffffffffffffffffffffffffffffffffffffffffffffffffffffffffffff0016861515908117909155815190815290519293927f17307eab39ab6107e8899845ad3d59bd9653f200f220920489ca2b5937696c31929181900390910190a35050565b73ffffffffffffffffffffffffffffffffffffffff8516610856576040517f08c379a000000000000000000000000000000000000000000000000000000000815260040161018290613e65565b6060610860613074565b606061091389857fa3d4926e8cf8fe8e020cd29f514c256bc2eec62aa2337e415f1a33a4828af5a060001b8c8c8c60405160200161089e9190613aca565b604051602081830303815290604052805190602001208c6040516020016108c59190613aca565b604051602081830303815290604052805190602001208c6108e75760006108ea565b60015b6040516020016108ff96959493929190613c23565b604051602081830303815290604052611fa5565b905061092189898989611922565b8415610964578080602001905181019061093b9190613a7d565b809450819350505061095589898989866020015188611c76565b61095f8983612174565b610972565b610972898989895a86611c76565b505050505050505050565b6109898484848461241d565b50505050565b6106168383836124d2565b73ffffffffffffffffffffffffffffffffffffffff85166109e7576040517f08c379a000000000000000000000000000000000000000000000000000000000815260040161018290613cf1565b60606109f1613074565b6060610a2989857fce0b514b3931bdbe4d5d44e4f035afe7113767b7db71949271f6a62d9c60f558828c8c8c8c6108e75760006108ea565b9050610a3789898989612712565b8415610a6b5780806020019051810190610a519190613a7d565b809450819350505061095589898989866020015188612815565b610972898989895a86612815565b61098984848484612a06565b73ffffffffffffffffffffffffffffffffffffffff918216600090815260016020908152604080832093909416825291909152205460ff1690565b3373ffffffffffffffffffffffffffffffffffffffff86161480610ae95750610ae98533610a85565b610b3e576040517f08c379a000000000000000000000000000000000000000000000000000000000815260040180806020018281038252602a8152602001806140c6602a913960400191505060405180910390fd5b73ffffffffffffffffffffffffffffffffffffffff8416610baa576040517f08c379a000000000000000000000000000000000000000000000000000000000815260040180806020018281038252602b815260200180614064602b913960400191505060405180910390fd5b610bb685858585612712565b610604858585855a86612815565b6060610c2086837ff5d4c820494c8595de274c7ff619bead38aac4fbc3d143b5bf956aa4b84fa524828989610bfa576000610bfd565b60015b89610c09576000610c0c565b60015b6040516020016108ff959493929190613c64565b73ffffffffffffffffffffffffffffffffffffffff8781166000818152600160209081526040808320948b16808452949091529081902080547fffffffffffffffffffffffffffffffffffffffffffffffffffffffffffffff00168915151790555192935090917f17307eab39ab6107e8899845ad3d59bd9653f200f220920489ca2b5937696c3190610cb4908890613c18565b60405180910390a38215610cec57610cca613074565b81806020019051810190610cde9190613a4a565b9050610cea8782612174565b505b505050505050565b600080825111610d4f576040517f08c379a00000000000000000000000000000000000000000000000000000000081526004018080602001828103825260438152602001806142ba6043913960600191505060405180910390fd5b73ffffffffffffffffffffffffffffffffffffffff8516610dbb576040517f08c379a00000000000000000000000000000000000000000000000000000000081526004018080602001828103825260338152602001806142586033913960400191505060405180910390fd5b6000610dc683612c50565b60f81c905060058110610e24576040517f08c379a000000000000000000000000000000000000000000000000000000000815260040180806020018281038252603a815260200180614125603a913960400191505060405180910390fd5b60008160ff166005811115610e3557fe5b9050600080808080856005811115610e4957fe5b1415610ea0576040517f08c379a000000000000000000000000000000000000000000000000000000000815260040180806020018281038252603681526020018061415f6036913960400191505060405180910390fd5b6001856005811115610eae57fe5b1415610ff1578751606114610f0e576040517f08c379a00000000000000000000000000000000000000000000000000000000081526004018080602001828103825260378152602001806141956037913960400191505060405180910390fd5b610f19886000612d0d565b9250610f26886020612d0d565b915087604081518110610f3557fe5b602001015160f81c60f81b60f81c935060018a85858560405160008152602001604052604051808581526020018460ff1681526020018381526020018281526020019450505050506020604051602081039080840390855afa158015610f9f573d6000803e3d6000fd5b50506040517fffffffffffffffffffffffffffffffffffffffffffffffffffffffffffffffe0015173ffffffffffffffffffffffffffffffffffffffff8d811691161497506114cd9650505050505050565b6002856005811115610fff57fe5b141561114f57875160611461105f576040517f08c379a00000000000000000000000000000000000000000000000000000000081526004018080602001828103825260378152602001806141956037913960400191505060405180910390fd5b61106a886000612d0d565b9250611077886020612d0d565b91508760408151811061108657fe5b01602090810151604080517f19457468657265756d205369676e6564204d6573736167653a0a33320000000081850152603c8082018f905282518083039091018152605c82018084528151918601919091206000909152607c82018084525260f89290921c609c830181905260bc830187905260dc8301869052905190965060019260fc8084019391927fffffffffffffffffffffffffffffffffffffffffffffffffffffffffffffffe081019281900390910190855afa158015610f9f573d6000803e3d6000fd5b600385600581111561115d57fe5b141561131557604080517f20c13b0b000000000000000000000000000000000000000000000000000000008152600481019182528a5160448201528a5173ffffffffffffffffffffffffffffffffffffffff8e16926320c13b0b928d928d92918291602482019160640190602087019080838360005b838110156111eb5781810151838201526020016111d3565b50505050905090810190601f1680156112185780820380516001836020036101000a031916815260200191505b50838103825284518152845160209182019186019080838360005b8381101561124b578181015183820152602001611233565b50505050905090810190601f1680156112785780820380516001836020036101000a031916815260200191505b5094505050505060206040518083038186803b15801561129757600080fd5b505afa1580156112ab573d6000803e3d6000fd5b505050506040513d60208110156112c157600080fd5b50517fffffffff00000000000000000000000000000000000000000000000000000000167f20c13b0b000000000000000000000000000000000000000000000000000000001496506114cd95505050505050565b600485600581111561132357fe5b141561147c57604080517f1626ba7e000000000000000000000000000000000000000000000000000000008152600481018c8152602482019283528a5160448301528a5173ffffffffffffffffffffffffffffffffffffffff8f1693631626ba7e938f938e9390929160640190602085019080838360005b838110156113b357818101518382015260200161139b565b50505050905090810190601f1680156113e05780820380516001836020036101000a031916815260200191505b50935050505060206040518083038186803b1580156113fe57600080fd5b505afa158015611412573d6000803e3d6000fd5b505050506040513d602081101561142857600080fd5b50517fffffffff00000000000000000000000000000000000000000000000000000000167f1626ba7e000000000000000000000000000000000000000000000000000000001496506114cd95505050505050565b6040517f08c379a000000000000000000000000000000000000000000000000000000000815260040180806020018281038252603a815260200180614125603a913960400191505060405180910390fd5b949350505050565b60007fffffffff0000000000000000000000000000000000000000000000000000000082167f0e89341c00000000000000000000000000000000000000000000000000000000141561152957506001610374565b61037182612d75565b606081611573575060408051808201909152600181527f30000000000000000000000000000000000000000000000000000000000000006020820152610374565b818060005b821561158c57600101600a83049250611578565b60608167ffffffffffffffff811180156115a557600080fd5b506040519080825280601f01601f1916602001820160405280156115d0576020820181803683370190505b5090507fffffffffffffffffffffffffffffffffffffffffffffffffffffffffffffffff82015b831561165457600a840660300160f81b8282806001900393508151811061161a57fe5b60200101907effffffffffffffffffffffffffffffffffffffffffffffffffffffffffffff1916908160001a905350600a840493506115f7565b5095945050505050565b60038054604080516020601f60027fffffffffffffffffffffffffffffffffffffffffffffffffffffffffffffffff6101006001881615020190951694909404938401819004810282018101909252828152606093909290918301828280156117085780601f106116dd57610100808354040283529160200191611708565b820191906000526020600020905b8154815290600101906020018083116116eb57829003601f168201915b50505050509050606060005b8351811015610989578261173a85838151811061172d57fe5b6020026020010151611532565b6040516020018083805190602001908083835b6020831061178a57805182527fffffffffffffffffffffffffffffffffffffffffffffffffffffffffffffffe0909201916020918201910161174d565b51815160209384036101000a7fffffffffffffffffffffffffffffffffffffffffffffffffffffffffffffffff018019909216911617905285519190930192850191508083835b6020831061180e57805182527fffffffffffffffffffffffffffffffffffffffffffffffffffffffffffffffe090920191602091820191016117d1565b6001836020036101000a038019825116818451168082178552505050505050905001807f2e6a736f6e00000000000000000000000000000000000000000000000000000081525060050192505050604051602081830303815290604052915083818151811061187957fe5b60200260200101517f6bb7ff708619ba0610cba295a58592e0451dee2622938c8755667688daf3529b836040518080602001828103825283818151815260200191508051906020019080838360005b838110156118e05781810151838201526020016118c8565b50505050905090810190601f16801561190d5780820380516001836020036101000a031916815260200191505b509250505060405180910390a2600101611714565b805182511461197c576040517f08c379a00000000000000000000000000000000000000000000000000000000081526004018080602001828103825260358152602001806140f06035913960400191505060405180910390fd5b815160005b81811015611b6e57611a1183828151811061199857fe5b60200260200101516000808973ffffffffffffffffffffffffffffffffffffffff1673ffffffffffffffffffffffffffffffffffffffff16815260200190815260200160002060008785815181106119ec57fe5b6020026020010151815260200190815260200160002054612dd290919063ffffffff16565b6000808873ffffffffffffffffffffffffffffffffffffffff1673ffffffffffffffffffffffffffffffffffffffff1681526020019081526020016000206000868481518110611a5d57fe5b6020026020010151815260200190815260200160002081905550611aff838281518110611a8657fe5b60200260200101516000808873ffffffffffffffffffffffffffffffffffffffff1673ffffffffffffffffffffffffffffffffffffffff1681526020019081526020016000206000878581518110611ada57fe5b6020026020010151815260200190815260200160002054612e4990919063ffffffff16565b6000808773ffffffffffffffffffffffffffffffffffffffff1673ffffffffffffffffffffffffffffffffffffffff1681526020019081526020016000206000868481518110611b4b57fe5b602090810291909101810151825281019190915260400160002055600101611981565b508373ffffffffffffffffffffffffffffffffffffffff168573ffffffffffffffffffffffffffffffffffffffff163373ffffffffffffffffffffffffffffffffffffffff167f4a39dc06d4c0dbc64b70af90fd698a233a518aa5d07e595d983b8c0526c8f7fb8686604051808060200180602001838103835285818151815260200191508051906020019060200280838360005b83811015611c1b578181015183820152602001611c03565b50505050905001838103825284818151815260200191508051906020019060200280838360005b83811015611c5a578181015183820152602001611c42565b5050505090500194505050505060405180910390a45050505050565b611c958573ffffffffffffffffffffffffffffffffffffffff16612ec4565b15610cec5760008573ffffffffffffffffffffffffffffffffffffffff1663bc197c8184338a8989886040518763ffffffff1660e01b8152600401808673ffffffffffffffffffffffffffffffffffffffff1681526020018573ffffffffffffffffffffffffffffffffffffffff168152602001806020018060200180602001848103845287818151815260200191508051906020019060200280838360005b83811015611d4d578181015183820152602001611d35565b50505050905001848103835286818151815260200191508051906020019060200280838360005b83811015611d8c578181015183820152602001611d74565b50505050905001848103825285818151815260200191508051906020019080838360005b83811015611dc8578181015183820152602001611db0565b50505050905090810190601f168015611df55780820380516001836020036101000a031916815260200191505b5098505050505050505050602060405180830381600088803b158015611e1a57600080fd5b5087f1158015611e2e573d6000803e3d6000fd5b50505050506040513d6020811015611e4557600080fd5b505190507fffffffff0000000000000000000000000000000000000000000000000000000081167fbc197c810000000000000000000000000000000000000000000000000000000014610cea576040517f08c379a000000000000000000000000000000000000000000000000000000000815260040180806020018281038252603f81526020018061432d603f913960400191505060405180910390fd5b73ffffffffffffffffffffffffffffffffffffffff8316600090815260208181526040808320858452909152902054611f1c9082612dd2565b73ffffffffffffffffffffffffffffffffffffffff841660008181526020818152604080832087845282528083209490945583518681529081018590528351919333927fc3d58168c5ae7397731d063d5bbf3d657854427343f4c083240f7aacaa2d0f629281900390910190a4505050565b8051611fa19060039060208401906130b2565b5050565b60608083806020019051810190611fbc91906139c0565b73ffffffffffffffffffffffffffffffffffffffff871660009081526002602052604081205491945091925090611ff4836041612d0d565b905081811080159061200857508160640181105b61203e576040517f08c379a000000000000000000000000000000000000000000000000000000000815260040161018290613ec2565b600061207a8683878051906020012060405160200161205f93929190613b00565b60405160208183030381529060405280519060200120612efb565b9050606086838760405160200161209393929190613b27565b604080517fffffffffffffffffffffffffffffffffffffffffffffffffffffffffffffffe081840301815282825273ffffffffffffffffffffffffffffffffffffffff8c166000818152600260205292909220600187019081905590935090917fb861b7bdbe611a846ab271b8d2810391bc8b5a968f390c322438ecab66bccf599161211e91613f7c565b60405180910390a261213289838388610cf4565b612168576040517f08c379a000000000000000000000000000000000000000000000000000000000815260040161018290613d4e565b50505050509392505050565b60006121838260600151612c50565b60f81c9050600281106121c2576040517f08c379a000000000000000000000000000000000000000000000000000000000815260040161018290613f1f565b60008160ff1660028111156121d357fe5b835160408501519192506000918291829173ffffffffffffffffffffffffffffffffffffffff161561220957866040015161220b565b335b9250600085600281111561221b57fe5b141561231a578660600151806020019051810190612239919061331c565b909450915073ffffffffffffffffffffffffffffffffffffffff841630141561228a5761226888848484612712565b6122858884845a8560405180602001604052806000815250612815565b612315565b6040517ff242432a00000000000000000000000000000000000000000000000000000000815273ffffffffffffffffffffffffffffffffffffffff85169063f242432a906122e2908b90879087908790600401613b8f565b600060405180830381600087803b1580156122fc57600080fd5b505af1158015612310573d6000803e3d6000fd5b505050505b612413565b86606001518060200190518101906123329190613300565b6040517f23b872dd00000000000000000000000000000000000000000000000000000000815290945073ffffffffffffffffffffffffffffffffffffffff8516906323b872dd9061238b908b9087908690600401613b5e565b602060405180830381600087803b1580156123a557600080fd5b505af11580156123b9573d6000803e3d6000fd5b505050506040513d601f19601f820116820180604052508101906123dd9190613964565b612413576040517f08c379a000000000000000000000000000000000000000000000000000000000815260040161018290613e08565b5050505050505050565b73ffffffffffffffffffffffffffffffffffffffff84166000908152602081815260408083208684529091529020546124569083612e49565b73ffffffffffffffffffffffffffffffffffffffff8516600081815260208181526040808320888452825280832094909455835187815290810186905283519293919233927fc3d58168c5ae7397731d063d5bbf3d657854427343f4c083240f7aacaa2d0f62928290030190a461098960008585855a86612815565b81518151811461252d576040517f08c379a00000000000000000000000000000000000000000000000000000000081526004018080602001828103825260308152602001806141fc6030913960400191505060405180910390fd5b60005b8181101561260a5761259b83828151811061254757fe5b60200260200101516000808873ffffffffffffffffffffffffffffffffffffffff1673ffffffffffffffffffffffffffffffffffffffff16815260200190815260200160002060008785815181106119ec57fe5b6000808773ffffffffffffffffffffffffffffffffffffffff1673ffffffffffffffffffffffffffffffffffffffff16815260200190815260200160002060008684815181106125e757fe5b602090810291909101810151825281019190915260400160002055600101612530565b50600073ffffffffffffffffffffffffffffffffffffffff168473ffffffffffffffffffffffffffffffffffffffff163373ffffffffffffffffffffffffffffffffffffffff167f4a39dc06d4c0dbc64b70af90fd698a233a518aa5d07e595d983b8c0526c8f7fb8686604051808060200180602001838103835285818151815260200191508051906020019060200280838360005b838110156126b85781810151838201526020016126a0565b50505050905001838103825284818151815260200191508051906020019060200280838360005b838110156126f75781810151838201526020016126df565b5050505090500194505050505060405180910390a450505050565b73ffffffffffffffffffffffffffffffffffffffff841660009081526020818152604080832085845290915290205461274b9082612dd2565b73ffffffffffffffffffffffffffffffffffffffff8086166000908152602081815260408083208784528252808320949094559186168152808252828120858252909152205461279b9082612e49565b73ffffffffffffffffffffffffffffffffffffffff808516600081815260208181526040808320888452825291829020949094558051868152938401859052805191939288169233927fc3d58168c5ae7397731d063d5bbf3d657854427343f4c083240f7aacaa2d0f62929181900390910190a450505050565b6128348573ffffffffffffffffffffffffffffffffffffffff16612ec4565b15610cec5760008573ffffffffffffffffffffffffffffffffffffffff1663f23a6e6184338a8989886040518763ffffffff1660e01b8152600401808673ffffffffffffffffffffffffffffffffffffffff1681526020018573ffffffffffffffffffffffffffffffffffffffff16815260200184815260200183815260200180602001828103825283818151815260200191508051906020019080838360005b838110156128ed5781810151838201526020016128d5565b50505050905090810190601f16801561291a5780820380516001836020036101000a031916815260200191505b509650505050505050602060405180830381600088803b15801561293d57600080fd5b5087f1158015612951573d6000803e3d6000fd5b50505050506040513d602081101561296857600080fd5b505190507fffffffff0000000000000000000000000000000000000000000000000000000081167ff23a6e610000000000000000000000000000000000000000000000000000000014610cea576040517f08c379a000000000000000000000000000000000000000000000000000000000815260040180806020018281038252603a81526020018061436c603a913960400191505060405180910390fd5b8151835114612a60576040517f08c379a00000000000000000000000000000000000000000000000000000000081526004018080602001828103825260308152602001806142fd6030913960400191505060405180910390fd5b825160005b81811015612b3f57612ad0848281518110612a7c57fe5b60200260200101516000808973ffffffffffffffffffffffffffffffffffffffff1673ffffffffffffffffffffffffffffffffffffffff1681526020019081526020016000206000888581518110611ada57fe5b6000808873ffffffffffffffffffffffffffffffffffffffff1673ffffffffffffffffffffffffffffffffffffffff1681526020019081526020016000206000878481518110612b1c57fe5b602090810291909101810151825281019190915260400160002055600101612a65565b508473ffffffffffffffffffffffffffffffffffffffff16600073ffffffffffffffffffffffffffffffffffffffff163373ffffffffffffffffffffffffffffffffffffffff167f4a39dc06d4c0dbc64b70af90fd698a233a518aa5d07e595d983b8c0526c8f7fb8787604051808060200180602001838103835285818151815260200191508051906020019060200280838360005b83811015612bed578181015183820152602001612bd5565b50505050905001838103825284818151815260200191508051906020019060200280838360005b83811015612c2c578181015183820152602001612c14565b5050505090500194505050505060405180910390a461060460008686865a87611c76565b600080825111612cab576040517f08c379a000000000000000000000000000000000000000000000000000000000815260040180806020018281038252603781526020018061408f6037913960400191505060405180910390fd5b81600183510381518110612cbb57fe5b016020015182517fffffffffffffffffffffffffffffffffffffffffffffffffffffffffffffffff01909252507fff000000000000000000000000000000000000000000000000000000000000001690565b60008160200183511015612d6c576040517f08c379a000000000000000000000000000000000000000000000000000000000815260040180806020018281038252603c8152602001806143a6603c913960400191505060405180910390fd5b50016020015190565b60007fffffffff0000000000000000000000000000000000000000000000000000000082167fd9b67a26000000000000000000000000000000000000000000000000000000001415612dc957506001610374565b6103718261302a565b600082821115612e4357604080517f08c379a000000000000000000000000000000000000000000000000000000000815260206004820152601760248201527f536166654d617468237375623a20554e444552464c4f57000000000000000000604482015290519081900360640190fd5b50900390565b600082820183811015612ebd57604080517f08c379a000000000000000000000000000000000000000000000000000000000815260206004820152601660248201527f536166654d617468236164643a204f564552464c4f5700000000000000000000604482015290519081900360640190fd5b9392505050565b6000813f8015801590612ebd57507fc5d2460186f7233c927e7db2dcc703c0e500b653ca82273b7bfad8045d85a470141592915050565b604080518082018252600281527f1901000000000000000000000000000000000000000000000000000000000000602080830191825283517f035aff83d86937d35b32e04f0ddc6ff469290eef2f1b692d8a815c89404d47498183015230818601528451808203860181526060820190955284519490910193909320825160009491928692608001918291908083835b60208310612fc857805182527fffffffffffffffffffffffffffffffffffffffffffffffffffffffffffffffe09092019160209182019101612f8b565b51815160209384036101000a7fffffffffffffffffffffffffffffffffffffffffffffffffffffffffffffffff018019909216911617905292019485525083810192909252506040805180840383018152928101905281519101209392505050565b7fffffffff0000000000000000000000000000000000000000000000000000000081167f01ffc9a70000000000000000000000000000000000000000000000000000000014919050565b60405180608001604052806000815260200160008152602001600073ffffffffffffffffffffffffffffffffffffffff168152602001606081525090565b828054600181600116156101000203166002900490600052602060002090601f0160209004810192826130e8576000855561312e565b82601f1061310157805160ff191683800117855561312e565b8280016001018555821561312e579182015b8281111561312e578251825591602001919060010190613113565b5061313a92915061313e565b5090565b5b8082111561313a576000815560010161313f565b600082601f830112613163578081fd5b813561317661317182613fa9565b613f85565b81815291506020808301908481018184028601820187101561319757600080fd5b60005b848110156131b65781358452928201929082019060010161319a565b505050505092915050565b600082601f8301126131d1578081fd5b81356131df61317182613fc7565b91508082528360208285010111156131f657600080fd5b8060208401602084013760009082016020015292915050565b600082601f83011261321f578081fd5b815161322d61317182613fc7565b915080825283602082850101111561324457600080fd5b613255816020840160208601614007565b5092915050565b60006080828403121561326d578081fd5b6040516080810167ffffffffffffffff828210818311171561328b57fe5b816040528293508451835260208501516020840152604085015191506132b082614033565b81604084015260608501519150808211156132ca57600080fd5b506132d78582860161320f565b6060830152505092915050565b6000602082840312156132f5578081fd5b8135612ebd81614033565b600060208284031215613311578081fd5b8151612ebd81614033565b6000806040838503121561332e578081fd5b825161333981614033565b6020939093015192949293505050565b6000806040838503121561335b578182fd5b823561336681614033565b9150602083013561337681614033565b809150509250929050565b60008060008060008060c08789031215613399578182fd5b86356133a481614033565b955060208701356133b481614033565b9450604087013567ffffffffffffffff808211156133d0578384fd5b6133dc8a838b01613153565b955060608901359150808211156133f1578384fd5b6133fd8a838b01613153565b94506080890135915061340f82614055565b90925060a08801359080821115613424578283fd5b5061343189828a016131c1565b9150509295509295509295565b600080600080600060a08688031215613455578081fd5b853561346081614033565b9450602086013561347081614033565b9350604086013567ffffffffffffffff8082111561348c578283fd5b61349889838a01613153565b945060608801359150808211156134ad578283fd5b6134b989838a01613153565b935060808801359150808211156134ce578283fd5b506134db888289016131c1565b9150509295509295909350565b600080600080600060a086880312156134ff578283fd5b853561350a81614033565b9450602086013561351a81614033565b9350604086013561352a81614055565b9250606086013561353a81614055565b9150608086013567ffffffffffffffff811115613555578182fd5b6134db888289016131c1565b60008060008060008060c08789031215613579578384fd5b863561358481614033565b9550602087013561359481614033565b9450604087013593506060870135925060808701356135b281614055565b915060a087013567ffffffffffffffff8111156135cd578182fd5b61343189828a016131c1565b600080600080600060a086880312156135f0578283fd5b85356135fb81614033565b9450602086013561360b81614033565b93506040860135925060608601359150608086013567ffffffffffffffff811115613555578182fd5b600080600060608486031215613648578081fd5b833561365381614033565b9250602084013567ffffffffffffffff8082111561366f578283fd5b61367b87838801613153565b93506040860135915080821115613690578283fd5b5061369d86828701613153565b9150509250925092565b600080600080608085870312156136bc578182fd5b84356136c781614033565b9350602085013567ffffffffffffffff808211156136e3578384fd5b6136ef88838901613153565b94506040870135915080821115613704578384fd5b61371088838901613153565b93506060870135915080821115613725578283fd5b50613732878288016131c1565b91505092959194509250565b60008060408385031215613750578182fd5b823561375b81614033565b9150602083013561337681614055565b60008060008060808587031215613780578182fd5b843561378b81614033565b935060208501359250604085013567ffffffffffffffff808211156137ae578384fd5b613710888389016131c1565b600080604083850312156137cc578182fd5b82356137d781614033565b946020939093013593505050565b6000806000606084860312156137f9578081fd5b833561380481614033565b95602085013595506040909401359392505050565b6000806000806080858703121561382e578182fd5b843561383981614033565b93506020850135925060408501359150606085013567ffffffffffffffff811115613862578182fd5b613732878288016131c1565b60008060408385031215613880578182fd5b823567ffffffffffffffff80821115613897578384fd5b818501915085601f8301126138aa578384fd5b81356138b861317182613fa9565b80828252602080830192508086018a8283870289010111156138d8578889fd5b8896505b848710156139035780356138ef81614033565b8452600196909601959281019281016138dc565b50909650870135935050508082111561391a578283fd5b5061392785828601613153565b9150509250929050565b600060208284031215613942578081fd5b813567ffffffffffffffff811115613958578182fd5b6114cd84828501613153565b600060208284031215613975578081fd5b8151612ebd81614055565b600060208284031215613991578081fd5b81357fffffffff0000000000000000000000000000000000000000000000000000000081168114612ebd578182fd5b600080604083850312156139d2578182fd5b825167ffffffffffffffff808211156139e9578384fd5b6139f58683870161320f565b93506020850151915080821115613a0a578283fd5b506139278582860161320f565b600060208284031215613a28578081fd5b813567ffffffffffffffff811115613a3e578182fd5b6114cd848285016131c1565b600060208284031215613a5b578081fd5b815167ffffffffffffffff811115613a71578182fd5b6114cd8482850161325c565b60008060408385031215613a8f578182fd5b825167ffffffffffffffff80821115613aa6578384fd5b6139f58683870161325c565b600060208284031215613ac3578081fd5b5035919050565b815160009082906020808601845b83811015613af457815185529382019390820190600101613ad8565b50929695505050505050565b60008451613b12818460208901614007565b91909101928352506020820152604001919050565b60008451613b39818460208901614007565b82018481528351613b51816020808501908801614007565b0160200195945050505050565b73ffffffffffffffffffffffffffffffffffffffff9384168152919092166020820152604081019190915260600190565b73ffffffffffffffffffffffffffffffffffffffff94851681529290931660208301526040820152606081019190915260a06080820181905260009082015260c00190565b6020808252825182820181905260009190848201906040850190845b81811015613c0c57835183529284019291840191600101613bf0565b50909695505050505050565b901515815260200190565b95865273ffffffffffffffffffffffffffffffffffffffff94851660208701529290931660408501526060840152608083019190915260a082015260c00190565b94855273ffffffffffffffffffffffffffffffffffffffff93841660208601529190921660408401526060830191909152608082015260a00190565b6000602082528251806020840152613cbf816040850160208701614007565b601f017fffffffffffffffffffffffffffffffffffffffffffffffffffffffffffffffe0169190910160400192915050565b60208082526033908201527f455243313135354d657461236d657461536166655472616e7366657246726f6d60408201527f3a20494e56414c49445f524543495049454e5400000000000000000000000000606082015260800190565b60208082526033908201527f455243313135354d657461235f7369676e617475726556616c69646174696f6e60408201527f3a20494e56414c49445f5349474e415455524500000000000000000000000000606082015260800190565b60208082526023908201527f455243313135354d657461646174614d6f636b3a20494e56414c49445f4d455460408201527f484f440000000000000000000000000000000000000000000000000000000000606082015260800190565b60208082526032908201527f455243313135354d657461235f7472616e736665724761734665653a2045524360408201527f32305f5452414e534645525f4641494c45440000000000000000000000000000606082015260800190565b60208082526038908201527f455243313135354d657461236d6574615361666542617463685472616e73666560408201527f7246726f6d3a20494e56414c49445f524543495049454e540000000000000000606082015260800190565b6020808252602f908201527f455243313135354d657461235f7369676e617475726556616c69646174696f6e60408201527f3a20494e56414c49445f4e4f4e43450000000000000000000000000000000000606082015260800190565b6020808252602e908201527f455243313135354d657461235f7472616e736665724761734665653a20554e5360408201527f5550504f525445445f544f4b454e000000000000000000000000000000000000606082015260800190565b90815260200190565b60405181810167ffffffffffffffff81118282101715613fa157fe5b604052919050565b600067ffffffffffffffff821115613fbd57fe5b5060209081020190565b600067ffffffffffffffff821115613fdb57fe5b50601f017fffffffffffffffffffffffffffffffffffffffffffffffffffffffffffffffe01660200190565b60005b8381101561402257818101518382015260200161400a565b838111156109895750506000910152565b73ffffffffffffffffffffffffffffffffffffffff811681146104d557600080fd5b80151581146104d557600080fdfe4552433131353523736166655472616e7366657246726f6d3a20494e56414c49445f524543495049454e544c6962427974657323706f704c617374427974653a20475245415445525f5448414e5f5a45524f5f4c454e4754485f52455155495245444552433131353523736166655472616e7366657246726f6d3a20494e56414c49445f4f50455241544f5245524331313535235f7361666542617463685472616e7366657246726f6d3a20494e56414c49445f4152524159535f4c454e4754485369676e617475726556616c696461746f7223697356616c69645369676e61747572653a20554e535550504f525445445f5349474e41545552455369676e617475726556616c696461746f7223697356616c69645369676e61747572653a20494c4c4547414c5f5349474e41545552455369676e617475726556616c696461746f7223697356616c69645369676e61747572653a204c454e4754485f39375f524551554952454445524331313535237361666542617463685472616e7366657246726f6d3a20494e56414c49445f524543495049454e54455243313135354d696e744275726e2362617463684275726e3a20494e56414c49445f4152524159535f4c454e475448455243313135352362616c616e63654f6642617463683a20494e56414c49445f41525241595f4c454e4754485369676e617475726556616c696461746f7223697356616c69645369676e61747572653a20494e56414c49445f5349474e455245524331313535237361666542617463685472616e7366657246726f6d3a20494e56414c49445f4f50455241544f525369676e617475726556616c696461746f7223697356616c69645369676e61747572653a204c454e4754485f475245415445525f5448414e5f305f5245515549524544455243313135354d696e744275726e2362617463684d696e743a20494e56414c49445f4152524159535f4c454e47544845524331313535235f63616c6c6f6e45524331313535426174636852656365697665643a20494e56414c49445f4f4e5f524543454956455f4d45535341474545524331313535235f63616c6c6f6e4552433131353552656365697665643a20494e56414c49445f4f4e5f524543454956455f4d4553534147454c696242797465732372656164427974657333323a20475245415445525f4f525f455155414c5f544f5f33325f4c454e4754485f5245515549524544a2646970667358221220953733f37b2844c027a8776f6e6e249272ce82724e522fec0a3996e798fbec6c64736f6c63430007040033",
  "linkReferences": {},
  "deployedLinkReferences": {}
}