{
  "_format": "hh-sol-artifact-1",
  "contractName": "ERC1271WalletValidationMock",
  "sourceName": "contracts/mocks/ERC1271WalletValidationMock.sol",
  "abi": [
    {
      "inputs": [
        {
          "internalType": "bytes32",
          "name": "domain_hash_1155",
          "type": "bytes32"
        }
      ],
      "stateMutability": "nonpayable",
      "type": "constructor"
    },
    {
      "inputs": [],
      "name": "ERC1271_INVALID",
      "outputs": [
        {
          "internalType": "bytes4",
          "name": "",
          "type": "bytes4"
        }
      ],
      "stateMutability": "view",
      "type": "function"
    },
    {
      "inputs": [],
      "name": "ERC1271_MAGICVALUE_BYTES32",
      "outputs": [
        {
          "internalType": "bytes4",
          "name": "",
          "type": "bytes4"
        }
      ],
      "stateMutability": "view",
      "type": "function"
    },
    {
      "inputs": [],
      "name": "ERC1271_MAGIC_VAL",
      "outputs": [
        {
          "internalType": "bytes4",
          "name": "",
          "type": "bytes4"
        }
      ],
      "stateMutability": "view",
      "type": "function"
    },
    {
      "inputs": [
        {
          "internalType": "bytes32",
          "name": "_hash",
          "type": "bytes32"
        },
        {
          "internalType": "bytes",
          "name": "_signature",
          "type": "bytes"
        }
      ],
      "name": "isValidSignature",
      "outputs": [
        {
          "internalType": "bytes4",
          "name": "magicValue",
          "type": "bytes4"
        }
      ],
      "stateMutability": "view",
      "type": "function"
    },
    {
      "inputs": [
        {
          "internalType": "bytes",
          "name": "_data",
          "type": "bytes"
        },
        {
          "internalType": "bytes",
          "name": "_signature",
          "type": "bytes"
        }
      ],
      "name": "isValidSignature",
      "outputs": [
        {
          "internalType": "bytes4",
          "name": "magicValue",
          "type": "bytes4"
        }
      ],
      "stateMutability": "view",
      "type": "function"
    },
    {
      "inputs": [
        {
          "internalType": "address",
          "name": "_operator",
          "type": "address"
        },
        {
          "internalType": "address",
          "name": "_from",
          "type": "address"
        },
        {
          "internalType": "uint256[]",
          "name": "_ids",
          "type": "uint256[]"
        },
        {
          "internalType": "uint256[]",
          "name": "_values",
          "type": "uint256[]"
        },
        {
          "internalType": "bytes",
          "name": "_data",
          "type": "bytes"
        }
      ],
      "name": "onERC1155BatchReceived",
      "outputs": [
        {
          "internalType": "bytes4",
          "name": "",
          "type": "bytes4"
        }
      ],
      "stateMutability": "nonpayable",
      "type": "function"
    },
    {
      "inputs": [
        {
          "internalType": "address",
          "name": "_operator",
          "type": "address"
        },
        {
          "internalType": "address",
          "name": "_from",
          "type": "address"
        },
        {
          "internalType": "uint256",
          "name": "_id",
          "type": "uint256"
        },
        {
          "internalType": "uint256",
          "name": "_value",
          "type": "uint256"
        },
        {
          "internalType": "bytes",
          "name": "_data",
          "type": "bytes"
        }
      ],
      "name": "onERC1155Received",
      "outputs": [
        {
          "internalType": "bytes4",
          "name": "",
          "type": "bytes4"
        }
      ],
      "stateMutability": "nonpayable",
      "type": "function"
    },
    {
      "inputs": [],
      "name": "owner",
      "outputs": [
        {
          "internalType": "address",
          "name": "",
          "type": "address"
        }
      ],
      "stateMutability": "view",
      "type": "function"
    }
  ],
  "bytecode": "0x608060405234801561001057600080fd5b50604051610fac380380610fac8339818101604052602081101561003357600080fd5b5051600055600180546001600160a01b03191633179055610f53806100596000396000f3fe608060405234801561001057600080fd5b50600436106100885760003560e01c80638da5cb5b1161005b5780638da5cb5b1461020b578063a886100f1461023c578063bc197c8114610244578063f23a6e611461041857610088565b80630c0b5b8b1461008d5780631626ba7e146100ca57806320c13b0b146101415780632ec40aa414610203575b600080fd5b6100956104f0565b604080517fffffffff000000000000000000000000000000000000000000000000000000009092168252519081900360200190f35b610095600480360360408110156100e057600080fd5b8135919081019060408101602082013564010000000081111561010257600080fd5b82018360208201111561011457600080fd5b8035906020019184600183028401116401000000008311171561013657600080fd5b509092509050610514565b6100956004803603604081101561015757600080fd5b81019060208101813564010000000081111561017257600080fd5b82018360208201111561018457600080fd5b803590602001918460018302840111640100000000831117156101a657600080fd5b9193909290916020810190356401000000008111156101c457600080fd5b8201836020820111156101d657600080fd5b803590602001918460018302840111640100000000831117156101f857600080fd5b5090925090506106e7565b610095610ae2565b610213610b06565b6040805173ffffffffffffffffffffffffffffffffffffffff9092168252519081900360200190f35b610095610b22565b610095600480360360a081101561025a57600080fd5b73ffffffffffffffffffffffffffffffffffffffff823581169260208101359091169181019060608101604082013564010000000081111561029b57600080fd5b8201836020820111156102ad57600080fd5b803590602001918460208302840111640100000000831117156102cf57600080fd5b919080806020026020016040519081016040528093929190818152602001838360200280828437600092019190915250929594936020810193503591505064010000000081111561031f57600080fd5b82018360208201111561033157600080fd5b8035906020019184602083028401116401000000008311171561035357600080fd5b91908080602002602001604051908101604052809392919081815260200183836020028082843760009201919091525092959493602081019350359150506401000000008111156103a357600080fd5b8201836020820111156103b557600080fd5b803590602001918460018302840111640100000000831117156103d757600080fd5b91908080601f016020809104026020016040519081016040528093929190818152602001838380828437600092019190915250929550610b46945050505050565b610095600480360360a081101561042e57600080fd5b73ffffffffffffffffffffffffffffffffffffffff823581169260208101359091169160408201359160608101359181019060a08101608082013564010000000081111561047b57600080fd5b82018360208201111561048d57600080fd5b803590602001918460018302840111640100000000831117156104af57600080fd5b91908080601f016020809104026020016040519081016040528093929190818152602001838380828437600092019190915250929550610b70945050505050565b7f20c13b0b0000000000000000000000000000000000000000000000000000000081565b60008061055b600085858080601f0160208091040260200160405190810160405280939291908181526020018383808284376000920191909152509293925050610b9a9050565b905060006105a3602086868080601f0160208091040260200160405190810160405280939291908181526020018383808284376000920191909152509293925050610b9a9050565b90506000858560408181106105b457fe5b604080517f19457468657265756d205369676e6564204d6573736167653a0a333200000000602080830191909152603c8083018e905283518084039091018152605c8301808552815191830191909120600091829052607c840180865252959093013560f81c609c820181905260bc820189905260dc820188905291519195506001935060fc8082019392601f1981019281900390910190855afa158015610660573d6000803e3d6000fd5b5050604051601f19015160015490925073ffffffffffffffffffffffffffffffffffffffff80841691161490506106b7577fdeadbeef000000000000000000000000000000000000000000000000000000006106d9565b7f1626ba7e000000000000000000000000000000000000000000000000000000005b9450505050505b9392505050565b60008061072e600087878080601f0160208091040260200160405190810160405280939291908181526020018383808284376000920191909152509293925050610b9a9050565b905060006060807fce0b514b3931bdbe4d5d44e4f035afe7113767b7db71949271f6a62d9c60f5588414156108ed5761079f89898080601f0160208091040260200160405190810160405280939291908181526020018383808284376000920182905250925060e09150610c029050565b915060006107ae836060610b9a565b905060006107bd846080610b9a565b90506042821415806107cf5750606481115b1561080357507fdeadbeef000000000000000000000000000000000000000000000000000000009550610ada945050505050565b6108478b8b8080601f01602080910402602001604051908101604052809392919081815260200183838082843760009201919091525060e092508e9150610c029050565b92506108e48484805190602001206040516020018083805190602001908083835b602083106108875780518252601f199092019160209182019101610868565b51815160209384036101000a7fffffffffffffffffffffffffffffffffffffffffffffffffffffffffffffffff0180199092169116179052920193845250604080518085038152938201905282519201919091209150610d489050565b9450505061090b565b88886040518083838082843760405192018290039091209650505050505b6000610951600089898080601f0160208091040260200160405190810160405280939291908181526020018383808284376000920191909152509293925050610b9a9050565b9050600061099960208a8a8080601f0160208091040260200160405190810160405280939291908181526020018383808284376000920191909152509293925050610b9a9050565b90506000898960408181106109aa57fe5b604080517f19457468657265756d205369676e6564204d6573736167653a0a333200000000602080830191909152603c8083018d905283518084039091018152605c8301808552815191830191909120600091829052607c840180865252959093013560f81c609c820181905260bc820189905260dc820188905291519195506001935060fc8082019392601f1981019281900390910190855afa158015610a56573d6000803e3d6000fd5b5050604051601f19015160015490925073ffffffffffffffffffffffffffffffffffffffff8084169116149050610aad577fdeadbeef00000000000000000000000000000000000000000000000000000000610acf565b7f20c13b0b000000000000000000000000000000000000000000000000000000005b985050505050505050505b949350505050565b7f1626ba7e0000000000000000000000000000000000000000000000000000000081565b60015473ffffffffffffffffffffffffffffffffffffffff1681565b7fdeadbeef0000000000000000000000000000000000000000000000000000000081565b7fbc197c810000000000000000000000000000000000000000000000000000000095945050505050565b7ff23a6e610000000000000000000000000000000000000000000000000000000095945050505050565b60008160200183511015610bf9576040517f08c379a000000000000000000000000000000000000000000000000000000000815260040180806020018281038252603c815260200180610ee2603c913960400191505060405180910390fd5b50016020015190565b606081831115610c7357604080517f08c379a000000000000000000000000000000000000000000000000000000000815260206004820152601e60248201527f4552433132373157616c6c65744d6f636b23736c6963653a204572726f720000604482015290519081900360640190fd5b8351821115610ce357604080517f08c379a000000000000000000000000000000000000000000000000000000000815260206004820152601e60248201527f4552433132373157616c6c65744d6f636b23736c6963653a204572726f720000604482015290519081900360640190fd5b82820367ffffffffffffffff81118015610cfc57600080fd5b506040519080825280601f01601f191660200182016040528015610d27576020820181803683370190505b5090506106e0610d3682610e18565b84610d4087610e18565b018351610e1e565b60006040518060400160405280600281526020017f1901000000000000000000000000000000000000000000000000000000000000815250600054836040516020018084805190602001908083835b60208310610db65780518252601f199092019160209182019101610d97565b51815160209384036101000a7fffffffffffffffffffffffffffffffffffffffffffffffffffffffffffffffff018019909216911617905292019485525083810192909252506040805180840383018152928101905281519101209392505050565b60200190565b6020811015610e65578151835160208390036101000a7fffffffffffffffffffffffffffffffffffffffffffffffffffffffffffffffff0180199092169116178352610edc565b82821415610e7257610edc565b82821115610eac5760208103905080820181840181515b82851015610ea4578451865260209586019590940193610e89565b905250610edc565b60208103905080820181840183515b81861215610ed75782518252601f199283019290910190610ebb565b855250505b50505056fe4c696242797465732372656164427974657333323a20475245415445525f4f525f455155414c5f544f5f33325f4c454e4754485f5245515549524544a26469706673582212209af32e2304cd08da8f1d27c561bbcae74db95359647877fa37ddcbf0856b6eaf64736f6c63430007040033",
  "linkReferences": {},
  "deployedLinkReferences": {}
}