{
  "_format": "hh-sol-artifact-1",
  "contractName": "ERC1155MetaMintBurnMock",
  "sourceName": "contracts/mocks/ERC1155MetaMintBurnMock.sol",
  "abi": [
    {
      "anonymous": false,
      "inputs": [
        {
          "indexed": true,
          "internalType": "address",
          "name": "_owner",
          "type": "address"
        },
        {
          "indexed": true,
          "internalType": "address",
          "name": "_operator",
          "type": "address"
        },
        {
          "indexed": false,
          "internalType": "bool",
          "name": "_approved",
          "type": "bool"
        }
      ],
      "name": "ApprovalForAll",
      "type": "event"
    },
    {
      "anonymous": false,
      "inputs": [
        {
          "indexed": true,
          "internalType": "address",
          "name": "signer",
          "type": "address"
        },
        {
          "indexed": false,
          "internalType": "uint256",
          "name": "newNonce",
          "type": "uint256"
        }
      ],
      "name": "NonceChange",
      "type": "event"
    },
    {
      "anonymous": false,
      "inputs": [
        {
          "indexed": true,
          "internalType": "address",
          "name": "_operator",
          "type": "address"
        },
        {
          "indexed": true,
          "internalType": "address",
          "name": "_from",
          "type": "address"
        },
        {
          "indexed": true,
          "internalType": "address",
          "name": "_to",
          "type": "address"
        },
        {
          "indexed": false,
          "internalType": "uint256[]",
          "name": "_ids",
          "type": "uint256[]"
        },
        {
          "indexed": false,
          "internalType": "uint256[]",
          "name": "_amounts",
          "type": "uint256[]"
        }
      ],
      "name": "TransferBatch",
      "type": "event"
    },
    {
      "anonymous": false,
      "inputs": [
        {
          "indexed": true,
          "internalType": "address",
          "name": "_operator",
          "type": "address"
        },
        {
          "indexed": true,
          "internalType": "address",
          "name": "_from",
          "type": "address"
        },
        {
          "indexed": true,
          "internalType": "address",
          "name": "_to",
          "type": "address"
        },
        {
          "indexed": false,
          "internalType": "uint256",
          "name": "_id",
          "type": "uint256"
        },
        {
          "indexed": false,
          "internalType": "uint256",
          "name": "_amount",
          "type": "uint256"
        }
      ],
      "name": "TransferSingle",
      "type": "event"
    },
    {
      "anonymous": false,
      "inputs": [
        {
          "indexed": false,
          "internalType": "string",
          "name": "_uri",
          "type": "string"
        },
        {
          "indexed": true,
          "internalType": "uint256",
          "name": "_id",
          "type": "uint256"
        }
      ],
      "name": "URI",
      "type": "event"
    },
    {
      "stateMutability": "nonpayable",
      "type": "fallback"
    },
    {
      "inputs": [
        {
          "internalType": "address",
          "name": "_owner",
          "type": "address"
        },
        {
          "internalType": "uint256",
          "name": "_id",
          "type": "uint256"
        }
      ],
      "name": "balanceOf",
      "outputs": [
        {
          "internalType": "uint256",
          "name": "",
          "type": "uint256"
        }
      ],
      "stateMutability": "view",
      "type": "function"
    },
    {
      "inputs": [
        {
          "internalType": "address[]",
          "name": "_owners",
          "type": "address[]"
        },
        {
          "internalType": "uint256[]",
          "name": "_ids",
          "type": "uint256[]"
        }
      ],
      "name": "balanceOfBatch",
      "outputs": [
        {
          "internalType": "uint256[]",
          "name": "",
          "type": "uint256[]"
        }
      ],
      "stateMutability": "view",
      "type": "function"
    },
    {
      "inputs": [
        {
          "internalType": "address",
          "name": "_from",
          "type": "address"
        },
        {
          "internalType": "uint256[]",
          "name": "_ids",
          "type": "uint256[]"
        },
        {
          "internalType": "uint256[]",
          "name": "_values",
          "type": "uint256[]"
        }
      ],
      "name": "batchBurnMock",
      "outputs": [],
      "stateMutability": "nonpayable",
      "type": "function"
    },
    {
      "inputs": [
        {
          "internalType": "address",
          "name": "_to",
          "type": "address"
        },
        {
          "internalType": "uint256[]",
          "name": "_ids",
          "type": "uint256[]"
        },
        {
          "internalType": "uint256[]",
          "name": "_values",
          "type": "uint256[]"
        },
        {
          "internalType": "bytes",
          "name": "_data",
          "type": "bytes"
        }
      ],
      "name": "batchMintMock",
      "outputs": [],
      "stateMutability": "nonpayable",
      "type": "function"
    },
    {
      "inputs": [
        {
          "internalType": "address",
          "name": "_from",
          "type": "address"
        },
        {
          "internalType": "uint256",
          "name": "_id",
          "type": "uint256"
        },
        {
          "internalType": "uint256",
          "name": "_value",
          "type": "uint256"
        }
      ],
      "name": "burnMock",
      "outputs": [],
      "stateMutability": "nonpayable",
      "type": "function"
    },
    {
      "inputs": [
        {
          "internalType": "address",
          "name": "_signer",
          "type": "address"
        }
      ],
      "name": "getNonce",
      "outputs": [
        {
          "internalType": "uint256",
          "name": "nonce",
          "type": "uint256"
        }
      ],
      "stateMutability": "view",
      "type": "function"
    },
    {
      "inputs": [
        {
          "internalType": "address",
          "name": "_owner",
          "type": "address"
        },
        {
          "internalType": "address",
          "name": "_operator",
          "type": "address"
        }
      ],
      "name": "isApprovedForAll",
      "outputs": [
        {
          "internalType": "bool",
          "name": "isOperator",
          "type": "bool"
        }
      ],
      "stateMutability": "view",
      "type": "function"
    },
    {
      "inputs": [
        {
          "internalType": "address",
          "name": "_signerAddress",
          "type": "address"
        },
        {
          "internalType": "bytes32",
          "name": "_hash",
          "type": "bytes32"
        },
        {
          "internalType": "bytes",
          "name": "_data",
          "type": "bytes"
        },
        {
          "internalType": "bytes",
          "name": "_sig",
          "type": "bytes"
        }
      ],
      "name": "isValidSignature",
      "outputs": [
        {
          "internalType": "bool",
          "name": "isValid",
          "type": "bool"
        }
      ],
      "stateMutability": "view",
      "type": "function"
    },
    {
      "inputs": [
        {
          "internalType": "address",
          "name": "_from",
          "type": "address"
        },
        {
          "internalType": "address",
          "name": "_to",
          "type": "address"
        },
        {
          "internalType": "uint256[]",
          "name": "_ids",
          "type": "uint256[]"
        },
        {
          "internalType": "uint256[]",
          "name": "_amounts",
          "type": "uint256[]"
        },
        {
          "internalType": "bool",
          "name": "_isGasFee",
          "type": "bool"
        },
        {
          "internalType": "bytes",
          "name": "_data",
          "type": "bytes"
        }
      ],
      "name": "metaSafeBatchTransferFrom",
      "outputs": [],
      "stateMutability": "nonpayable",
      "type": "function"
    },
    {
      "inputs": [
        {
          "internalType": "address",
          "name": "_from",
          "type": "address"
        },
        {
          "internalType": "address",
          "name": "_to",
          "type": "address"
        },
        {
          "internalType": "uint256",
          "name": "_id",
          "type": "uint256"
        },
        {
          "internalType": "uint256",
          "name": "_amount",
          "type": "uint256"
        },
        {
          "internalType": "bool",
          "name": "_isGasFee",
          "type": "bool"
        },
        {
          "internalType": "bytes",
          "name": "_data",
          "type": "bytes"
        }
      ],
      "name": "metaSafeTransferFrom",
      "outputs": [],
      "stateMutability": "nonpayable",
      "type": "function"
    },
    {
      "inputs": [
        {
          "internalType": "address",
          "name": "_owner",
          "type": "address"
        },
        {
          "internalType": "address",
          "name": "_operator",
          "type": "address"
        },
        {
          "internalType": "bool",
          "name": "_approved",
          "type": "bool"
        },
        {
          "internalType": "bool",
          "name": "_isGasFee",
          "type": "bool"
        },
        {
          "internalType": "bytes",
          "name": "_data",
          "type": "bytes"
        }
      ],
      "name": "metaSetApprovalForAll",
      "outputs": [],
      "stateMutability": "nonpayable",
      "type": "function"
    },
    {
      "inputs": [
        {
          "internalType": "address",
          "name": "_to",
          "type": "address"
        },
        {
          "internalType": "uint256",
          "name": "_id",
          "type": "uint256"
        },
        {
          "internalType": "uint256",
          "name": "_value",
          "type": "uint256"
        },
        {
          "internalType": "bytes",
          "name": "_data",
          "type": "bytes"
        }
      ],
      "name": "mintMock",
      "outputs": [],
      "stateMutability": "nonpayable",
      "type": "function"
    },
    {
      "inputs": [
        {
          "internalType": "address",
          "name": "_from",
          "type": "address"
        },
        {
          "internalType": "address",
          "name": "_to",
          "type": "address"
        },
        {
          "internalType": "uint256[]",
          "name": "_ids",
          "type": "uint256[]"
        },
        {
          "internalType": "uint256[]",
          "name": "_amounts",
          "type": "uint256[]"
        },
        {
          "internalType": "bytes",
          "name": "_data",
          "type": "bytes"
        }
      ],
      "name": "safeBatchTransferFrom",
      "outputs": [],
      "stateMutability": "nonpayable",
      "type": "function"
    },
    {
      "inputs": [
        {
          "internalType": "address",
          "name": "_from",
          "type": "address"
        },
        {
          "internalType": "address",
          "name": "_to",
          "type": "address"
        },
        {
          "internalType": "uint256",
          "name": "_id",
          "type": "uint256"
        },
        {
          "internalType": "uint256",
          "name": "_amount",
          "type": "uint256"
        },
        {
          "internalType": "bytes",
          "name": "_data",
          "type": "bytes"
        }
      ],
      "name": "safeTransferFrom",
      "outputs": [],
      "stateMutability": "nonpayable",
      "type": "function"
    },
    {
      "inputs": [
        {
          "internalType": "address",
          "name": "_operator",
          "type": "address"
        },
        {
          "internalType": "bool",
          "name": "_approved",
          "type": "bool"
        }
      ],
      "name": "setApprovalForAll",
      "outputs": [],
      "stateMutability": "nonpayable",
      "type": "function"
    },
    {
      "inputs": [
        {
          "internalType": "bytes4",
          "name": "_interfaceID",
          "type": "bytes4"
        }
      ],
      "name": "supportsInterface",
      "outputs": [
        {
          "internalType": "bool",
          "name": "",
          "type": "bool"
        }
      ],
      "stateMutability": "pure",
      "type": "function"
    },
    {
      "inputs": [
        {
          "internalType": "uint256",
          "name": "_id",
          "type": "uint256"
        }
      ],
      "name": "uri",
      "outputs": [
        {
          "internalType": "string",
          "name": "",
          "type": "string"
        }
      ],
      "stateMutability": "view",
      "type": "function"
    }
  ],
  "bytecode": "0x608060405234801561001057600080fd5b50613fc7806100206000396000f3fe608060405234801561001057600080fd5b506004361061011a5760003560e01c8063a3d4926e116100b2578063d7a0ad9011610081578063f242432a11610066578063f242432a1461029e578063f5d4c820146102b1578063fa4e12d7146102c45761011a565b8063d7a0ad9014610278578063e985e9c51461028b5761011a565b8063a3d4926e1461022c578063a3f091f51461023f578063bd7a6c4114610252578063ce0b514b146102655761011a565b80632eb2c2d6116100ee5780632eb2c2d6146101d1578063437ecbe9146101e65780634e1273f4146101f9578063a22cb465146102195761011a565b8062fdd58e1461015557806301ffc9a71461017e5780630e89341c1461019e5780632d0335ab146101be575b6040517f08c379a000000000000000000000000000000000000000000000000000000000815260040161014c90613958565b60405180910390fd5b6101686101633660046133cd565b6102d7565b6040516101759190613b29565b60405180910390f35b61019161018c366004613560565b61030a565b60405161017591906137c5565b6101b16101ac36600461365f565b61031d565b604051610175919061384d565b6101686101cc366004612ef7565b610470565b6101e46101df366004613051565b610498565b005b6101e46101f43660046133f8565b6105a3565b61020c610207366004613481565b6105b3565b6040516101759190613781565b6101e4610227366004613351565b6106ff565b6101e461023a366004612f94565b610798565b6101e461024d36600461342c565b61090c565b6101e4610260366004613247565b61091e565b6101e4610273366004613174565b610929565b6101e46102863660046132ba565b610a08565b610191610299366004612f5c565b610a14565b6101e46102ac3660046131ec565b610a4f565b6101e46102bf3660046130fb565b610b53565b6101916102d236600461337e565b610c83565b73ffffffffffffffffffffffffffffffffffffffff91909116600090815260208181526040808320938352929052205490565b600061031582611464565b90505b919050565b6060600361032a836114c1565b60405160200180838054600181600116156101000203166002900480156103885780601f10610366576101008083540402835291820191610388565b820191906000526020600020905b815481529060010190602001808311610374575b5050825160208401908083835b602083106103d257805182527fffffffffffffffffffffffffffffffffffffffffffffffffffffffffffffffe09092019160209182019101610395565b5181516020939093036101000a7fffffffffffffffffffffffffffffffffffffffffffffffffffffffffffffffff01801990911692169190911790527f2e6a736f6e000000000000000000000000000000000000000000000000000000920191825250604080518083037fffffffffffffffffffffffffffffffffffffffffffffffffffffffffffffffe50181526005909201905295945050505050565b73ffffffffffffffffffffffffffffffffffffffff1660009081526002602052604090205490565b3373ffffffffffffffffffffffffffffffffffffffff861614806104c157506104c18533610a14565b610516576040517f08c379a000000000000000000000000000000000000000000000000000000000815260040180806020018281038252602f815260200180613e3b602f913960400191505060405180910390fd5b73ffffffffffffffffffffffffffffffffffffffff8416610582576040517f08c379a0000000000000000000000000000000000000000000000000000000008152600401808060200182810382526030815260200180613d7c6030913960400191505060405180910390fd5b61058e858585856115ed565b61059c858585855a86611941565b5050505050565b6105ae838383611bae565b505050565b6060815183511461060f576040517f08c379a000000000000000000000000000000000000000000000000000000000815260040180806020018281038252602c815260200180613ddc602c913960400191505060405180910390fd5b6060835167ffffffffffffffff8111801561062957600080fd5b50604051908082528060200260200182016040528015610653578160200160208202803683370190505b50905060005b84518110156106f75760008086838151811061067157fe5b602002602001015173ffffffffffffffffffffffffffffffffffffffff1673ffffffffffffffffffffffffffffffffffffffff16815260200190815260200160002060008583815181106106c157fe5b60200260200101518152602001908152602001600020548282815181106106e457fe5b6020908102919091010152600101610659565b509392505050565b33600081815260016020908152604080832073ffffffffffffffffffffffffffffffffffffffff87168085529083529281902080547fffffffffffffffffffffffffffffffffffffffffffffffffffffffffffffff0016861515908117909155815190815290519293927f17307eab39ab6107e8899845ad3d59bd9653f200f220920489ca2b5937696c31929181900390910190a35050565b73ffffffffffffffffffffffffffffffffffffffff85166107e5576040517f08c379a000000000000000000000000000000000000000000000000000000000815260040161014c90613a12565b60606107ef612d28565b60606108a289857fa3d4926e8cf8fe8e020cd29f514c256bc2eec62aa2337e415f1a33a4828af5a060001b8c8c8c60405160200161082d9190613677565b604051602081830303815290604052805190602001208c6040516020016108549190613677565b604051602081830303815290604052805190602001208c610876576000610879565b60015b60405160200161088e969594939291906137d0565b604051602081830303815290604052611c59565b90506108b0898989896115ed565b84156108f357808060200190518101906108ca919061362a565b80945081935050506108e489898989866020015188611941565b6108ee8983611e28565b610901565b610901898989895a86611941565b505050505050505050565b610918848484846120d1565b50505050565b6105ae838383612186565b73ffffffffffffffffffffffffffffffffffffffff8516610976576040517f08c379a000000000000000000000000000000000000000000000000000000000815260040161014c9061389e565b6060610980612d28565b60606109b889857fce0b514b3931bdbe4d5d44e4f035afe7113767b7db71949271f6a62d9c60f558828c8c8c8c610876576000610879565b90506109c6898989896123c6565b84156109fa57808060200190518101906109e0919061362a565b80945081935050506108e4898989898660200151886124c9565b610901898989895a866124c9565b610918848484846126ba565b73ffffffffffffffffffffffffffffffffffffffff918216600090815260016020908152604080832093909416825291909152205460ff1690565b3373ffffffffffffffffffffffffffffffffffffffff86161480610a785750610a788533610a14565b610acd576040517f08c379a000000000000000000000000000000000000000000000000000000000815260040180806020018281038252602a815260200180613c76602a913960400191505060405180910390fd5b73ffffffffffffffffffffffffffffffffffffffff8416610b39576040517f08c379a000000000000000000000000000000000000000000000000000000000815260040180806020018281038252602b815260200180613c14602b913960400191505060405180910390fd5b610b45858585856123c6565b61059c858585855a866124c9565b6060610baf86837ff5d4c820494c8595de274c7ff619bead38aac4fbc3d143b5bf956aa4b84fa524828989610b89576000610b8c565b60015b89610b98576000610b9b565b60015b60405160200161088e959493929190613811565b73ffffffffffffffffffffffffffffffffffffffff8781166000818152600160209081526040808320948b16808452949091529081902080547fffffffffffffffffffffffffffffffffffffffffffffffffffffffffffffff00168915151790555192935090917f17307eab39ab6107e8899845ad3d59bd9653f200f220920489ca2b5937696c3190610c439088906137c5565b60405180910390a38215610c7b57610c59612d28565b81806020019051810190610c6d91906135f7565b9050610c798782611e28565b505b505050505050565b600080825111610cde576040517f08c379a0000000000000000000000000000000000000000000000000000000008152600401808060200182810382526043815260200180613e6a6043913960600191505060405180910390fd5b73ffffffffffffffffffffffffffffffffffffffff8516610d4a576040517f08c379a0000000000000000000000000000000000000000000000000000000008152600401808060200182810382526033815260200180613e086033913960400191505060405180910390fd5b6000610d5583612904565b60f81c905060058110610db3576040517f08c379a000000000000000000000000000000000000000000000000000000000815260040180806020018281038252603a815260200180613cd5603a913960400191505060405180910390fd5b60008160ff166005811115610dc457fe5b9050600080808080856005811115610dd857fe5b1415610e2f576040517f08c379a0000000000000000000000000000000000000000000000000000000008152600401808060200182810382526036815260200180613d0f6036913960400191505060405180910390fd5b6001856005811115610e3d57fe5b1415610f80578751606114610e9d576040517f08c379a0000000000000000000000000000000000000000000000000000000008152600401808060200182810382526037815260200180613d456037913960400191505060405180910390fd5b610ea88860006129c1565b9250610eb58860206129c1565b915087604081518110610ec457fe5b602001015160f81c60f81b60f81c935060018a85858560405160008152602001604052604051808581526020018460ff1681526020018381526020018281526020019450505050506020604051602081039080840390855afa158015610f2e573d6000803e3d6000fd5b50506040517fffffffffffffffffffffffffffffffffffffffffffffffffffffffffffffffe0015173ffffffffffffffffffffffffffffffffffffffff8d8116911614975061145c9650505050505050565b6002856005811115610f8e57fe5b14156110de578751606114610fee576040517f08c379a0000000000000000000000000000000000000000000000000000000008152600401808060200182810382526037815260200180613d456037913960400191505060405180910390fd5b610ff98860006129c1565b92506110068860206129c1565b91508760408151811061101557fe5b01602090810151604080517f19457468657265756d205369676e6564204d6573736167653a0a33320000000081850152603c8082018f905282518083039091018152605c82018084528151918601919091206000909152607c82018084525260f89290921c609c830181905260bc830187905260dc8301869052905190965060019260fc8084019391927fffffffffffffffffffffffffffffffffffffffffffffffffffffffffffffffe081019281900390910190855afa158015610f2e573d6000803e3d6000fd5b60038560058111156110ec57fe5b14156112a457604080517f20c13b0b000000000000000000000000000000000000000000000000000000008152600481019182528a5160448201528a5173ffffffffffffffffffffffffffffffffffffffff8e16926320c13b0b928d928d92918291602482019160640190602087019080838360005b8381101561117a578181015183820152602001611162565b50505050905090810190601f1680156111a75780820380516001836020036101000a031916815260200191505b50838103825284518152845160209182019186019080838360005b838110156111da5781810151838201526020016111c2565b50505050905090810190601f1680156112075780820380516001836020036101000a031916815260200191505b5094505050505060206040518083038186803b15801561122657600080fd5b505afa15801561123a573d6000803e3d6000fd5b505050506040513d602081101561125057600080fd5b50517fffffffff00000000000000000000000000000000000000000000000000000000167f20c13b0b0000000000000000000000000000000000000000000000000000000014965061145c95505050505050565b60048560058111156112b257fe5b141561140b57604080517f1626ba7e000000000000000000000000000000000000000000000000000000008152600481018c8152602482019283528a5160448301528a5173ffffffffffffffffffffffffffffffffffffffff8f1693631626ba7e938f938e9390929160640190602085019080838360005b8381101561134257818101518382015260200161132a565b50505050905090810190601f16801561136f5780820380516001836020036101000a031916815260200191505b50935050505060206040518083038186803b15801561138d57600080fd5b505afa1580156113a1573d6000803e3d6000fd5b505050506040513d60208110156113b757600080fd5b50517fffffffff00000000000000000000000000000000000000000000000000000000167f1626ba7e0000000000000000000000000000000000000000000000000000000014965061145c95505050505050565b6040517f08c379a000000000000000000000000000000000000000000000000000000000815260040180806020018281038252603a815260200180613cd5603a913960400191505060405180910390fd5b949350505050565b60007fffffffff0000000000000000000000000000000000000000000000000000000082167f0e89341c0000000000000000000000000000000000000000000000000000000014156114b857506001610318565b61031582612a29565b606081611502575060408051808201909152600181527f30000000000000000000000000000000000000000000000000000000000000006020820152610318565b818060005b821561151b57600101600a83049250611507565b60608167ffffffffffffffff8111801561153457600080fd5b506040519080825280601f01601f19166020018201604052801561155f576020820181803683370190505b5090507fffffffffffffffffffffffffffffffffffffffffffffffffffffffffffffffff82015b83156115e357600a840660300160f81b828280600190039350815181106115a957fe5b60200101907effffffffffffffffffffffffffffffffffffffffffffffffffffffffffffff1916908160001a905350600a84049350611586565b5095945050505050565b8051825114611647576040517f08c379a0000000000000000000000000000000000000000000000000000000008152600401808060200182810382526035815260200180613ca06035913960400191505060405180910390fd5b815160005b81811015611839576116dc83828151811061166357fe5b60200260200101516000808973ffffffffffffffffffffffffffffffffffffffff1673ffffffffffffffffffffffffffffffffffffffff16815260200190815260200160002060008785815181106116b757fe5b6020026020010151815260200190815260200160002054612a8690919063ffffffff16565b6000808873ffffffffffffffffffffffffffffffffffffffff1673ffffffffffffffffffffffffffffffffffffffff168152602001908152602001600020600086848151811061172857fe5b60200260200101518152602001908152602001600020819055506117ca83828151811061175157fe5b60200260200101516000808873ffffffffffffffffffffffffffffffffffffffff1673ffffffffffffffffffffffffffffffffffffffff16815260200190815260200160002060008785815181106117a557fe5b6020026020010151815260200190815260200160002054612afd90919063ffffffff16565b6000808773ffffffffffffffffffffffffffffffffffffffff1673ffffffffffffffffffffffffffffffffffffffff168152602001908152602001600020600086848151811061181657fe5b60209081029190910181015182528101919091526040016000205560010161164c565b508373ffffffffffffffffffffffffffffffffffffffff168573ffffffffffffffffffffffffffffffffffffffff163373ffffffffffffffffffffffffffffffffffffffff167f4a39dc06d4c0dbc64b70af90fd698a233a518aa5d07e595d983b8c0526c8f7fb8686604051808060200180602001838103835285818151815260200191508051906020019060200280838360005b838110156118e65781810151838201526020016118ce565b50505050905001838103825284818151815260200191508051906020019060200280838360005b8381101561192557818101518382015260200161190d565b5050505090500194505050505060405180910390a45050505050565b6119608573ffffffffffffffffffffffffffffffffffffffff16612b78565b15610c7b5760008573ffffffffffffffffffffffffffffffffffffffff1663bc197c8184338a8989886040518763ffffffff1660e01b8152600401808673ffffffffffffffffffffffffffffffffffffffff1681526020018573ffffffffffffffffffffffffffffffffffffffff168152602001806020018060200180602001848103845287818151815260200191508051906020019060200280838360005b83811015611a18578181015183820152602001611a00565b50505050905001848103835286818151815260200191508051906020019060200280838360005b83811015611a57578181015183820152602001611a3f565b50505050905001848103825285818151815260200191508051906020019080838360005b83811015611a93578181015183820152602001611a7b565b50505050905090810190601f168015611ac05780820380516001836020036101000a031916815260200191505b5098505050505050505050602060405180830381600088803b158015611ae557600080fd5b5087f1158015611af9573d6000803e3d6000fd5b50505050506040513d6020811015611b1057600080fd5b505190507fffffffff0000000000000000000000000000000000000000000000000000000081167fbc197c810000000000000000000000000000000000000000000000000000000014610c79576040517f08c379a000000000000000000000000000000000000000000000000000000000815260040180806020018281038252603f815260200180613edd603f913960400191505060405180910390fd5b73ffffffffffffffffffffffffffffffffffffffff8316600090815260208181526040808320858452909152902054611be79082612a86565b73ffffffffffffffffffffffffffffffffffffffff841660008181526020818152604080832087845282528083209490945583518681529081018590528351919333927fc3d58168c5ae7397731d063d5bbf3d657854427343f4c083240f7aacaa2d0f629281900390910190a4505050565b60608083806020019051810190611c7091906135a0565b73ffffffffffffffffffffffffffffffffffffffff871660009081526002602052604081205491945091925090611ca88360416129c1565b9050818110801590611cbc57508160640181105b611cf2576040517f08c379a000000000000000000000000000000000000000000000000000000000815260040161014c90613a6f565b6000611d2e86838780519060200120604051602001611d13939291906136ad565b60405160208183030381529060405280519060200120612baf565b90506060868387604051602001611d47939291906136d4565b604080517fffffffffffffffffffffffffffffffffffffffffffffffffffffffffffffffe081840301815282825273ffffffffffffffffffffffffffffffffffffffff8c166000818152600260205292909220600187019081905590935090917fb861b7bdbe611a846ab271b8d2810391bc8b5a968f390c322438ecab66bccf5991611dd291613b29565b60405180910390a2611de689838388610c83565b611e1c576040517f08c379a000000000000000000000000000000000000000000000000000000000815260040161014c906138fb565b50505050509392505050565b6000611e378260600151612904565b60f81c905060028110611e76576040517f08c379a000000000000000000000000000000000000000000000000000000000815260040161014c90613acc565b60008160ff166002811115611e8757fe5b835160408501519192506000918291829173ffffffffffffffffffffffffffffffffffffffff1615611ebd578660400151611ebf565b335b92506000856002811115611ecf57fe5b1415611fce578660600151806020019051810190611eed9190612f2f565b909450915073ffffffffffffffffffffffffffffffffffffffff8416301415611f3e57611f1c888484846123c6565b611f398884845a85604051806020016040528060008152506124c9565b611fc9565b6040517ff242432a00000000000000000000000000000000000000000000000000000000815273ffffffffffffffffffffffffffffffffffffffff85169063f242432a90611f96908b9087908790879060040161373c565b600060405180830381600087803b158015611fb057600080fd5b505af1158015611fc4573d6000803e3d6000fd5b505050505b6120c7565b8660600151806020019051810190611fe69190612f13565b6040517f23b872dd00000000000000000000000000000000000000000000000000000000815290945073ffffffffffffffffffffffffffffffffffffffff8516906323b872dd9061203f908b908790869060040161370b565b602060405180830381600087803b15801561205957600080fd5b505af115801561206d573d6000803e3d6000fd5b505050506040513d601f19601f820116820180604052508101906120919190613544565b6120c7576040517f08c379a000000000000000000000000000000000000000000000000000000000815260040161014c906139b5565b5050505050505050565b73ffffffffffffffffffffffffffffffffffffffff841660009081526020818152604080832086845290915290205461210a9083612afd565b73ffffffffffffffffffffffffffffffffffffffff8516600081815260208181526040808320888452825280832094909455835187815290810186905283519293919233927fc3d58168c5ae7397731d063d5bbf3d657854427343f4c083240f7aacaa2d0f62928290030190a461091860008585855a866124c9565b8151815181146121e1576040517f08c379a0000000000000000000000000000000000000000000000000000000008152600401808060200182810382526030815260200180613dac6030913960400191505060405180910390fd5b60005b818110156122be5761224f8382815181106121fb57fe5b60200260200101516000808873ffffffffffffffffffffffffffffffffffffffff1673ffffffffffffffffffffffffffffffffffffffff16815260200190815260200160002060008785815181106116b757fe5b6000808773ffffffffffffffffffffffffffffffffffffffff1673ffffffffffffffffffffffffffffffffffffffff168152602001908152602001600020600086848151811061229b57fe5b6020908102919091018101518252810191909152604001600020556001016121e4565b50600073ffffffffffffffffffffffffffffffffffffffff168473ffffffffffffffffffffffffffffffffffffffff163373ffffffffffffffffffffffffffffffffffffffff167f4a39dc06d4c0dbc64b70af90fd698a233a518aa5d07e595d983b8c0526c8f7fb8686604051808060200180602001838103835285818151815260200191508051906020019060200280838360005b8381101561236c578181015183820152602001612354565b50505050905001838103825284818151815260200191508051906020019060200280838360005b838110156123ab578181015183820152602001612393565b5050505090500194505050505060405180910390a450505050565b73ffffffffffffffffffffffffffffffffffffffff84166000908152602081815260408083208584529091529020546123ff9082612a86565b73ffffffffffffffffffffffffffffffffffffffff8086166000908152602081815260408083208784528252808320949094559186168152808252828120858252909152205461244f9082612afd565b73ffffffffffffffffffffffffffffffffffffffff808516600081815260208181526040808320888452825291829020949094558051868152938401859052805191939288169233927fc3d58168c5ae7397731d063d5bbf3d657854427343f4c083240f7aacaa2d0f62929181900390910190a450505050565b6124e88573ffffffffffffffffffffffffffffffffffffffff16612b78565b15610c7b5760008573ffffffffffffffffffffffffffffffffffffffff1663f23a6e6184338a8989886040518763ffffffff1660e01b8152600401808673ffffffffffffffffffffffffffffffffffffffff1681526020018573ffffffffffffffffffffffffffffffffffffffff16815260200184815260200183815260200180602001828103825283818151815260200191508051906020019080838360005b838110156125a1578181015183820152602001612589565b50505050905090810190601f1680156125ce5780820380516001836020036101000a031916815260200191505b509650505050505050602060405180830381600088803b1580156125f157600080fd5b5087f1158015612605573d6000803e3d6000fd5b50505050506040513d602081101561261c57600080fd5b505190507fffffffff0000000000000000000000000000000000000000000000000000000081167ff23a6e610000000000000000000000000000000000000000000000000000000014610c79576040517f08c379a000000000000000000000000000000000000000000000000000000000815260040180806020018281038252603a815260200180613f1c603a913960400191505060405180910390fd5b8151835114612714576040517f08c379a0000000000000000000000000000000000000000000000000000000008152600401808060200182810382526030815260200180613ead6030913960400191505060405180910390fd5b825160005b818110156127f35761278484828151811061273057fe5b60200260200101516000808973ffffffffffffffffffffffffffffffffffffffff1673ffffffffffffffffffffffffffffffffffffffff16815260200190815260200160002060008885815181106117a557fe5b6000808873ffffffffffffffffffffffffffffffffffffffff1673ffffffffffffffffffffffffffffffffffffffff16815260200190815260200160002060008784815181106127d057fe5b602090810291909101810151825281019190915260400160002055600101612719565b508473ffffffffffffffffffffffffffffffffffffffff16600073ffffffffffffffffffffffffffffffffffffffff163373ffffffffffffffffffffffffffffffffffffffff167f4a39dc06d4c0dbc64b70af90fd698a233a518aa5d07e595d983b8c0526c8f7fb8787604051808060200180602001838103835285818151815260200191508051906020019060200280838360005b838110156128a1578181015183820152602001612889565b50505050905001838103825284818151815260200191508051906020019060200280838360005b838110156128e05781810151838201526020016128c8565b5050505090500194505050505060405180910390a461059c60008686865a87611941565b60008082511161295f576040517f08c379a0000000000000000000000000000000000000000000000000000000008152600401808060200182810382526037815260200180613c3f6037913960400191505060405180910390fd5b8160018351038151811061296f57fe5b016020015182517fffffffffffffffffffffffffffffffffffffffffffffffffffffffffffffffff01909252507fff000000000000000000000000000000000000000000000000000000000000001690565b60008160200183511015612a20576040517f08c379a000000000000000000000000000000000000000000000000000000000815260040180806020018281038252603c815260200180613f56603c913960400191505060405180910390fd5b50016020015190565b60007fffffffff0000000000000000000000000000000000000000000000000000000082167fd9b67a26000000000000000000000000000000000000000000000000000000001415612a7d57506001610318565b61031582612cde565b600082821115612af757604080517f08c379a000000000000000000000000000000000000000000000000000000000815260206004820152601760248201527f536166654d617468237375623a20554e444552464c4f57000000000000000000604482015290519081900360640190fd5b50900390565b600082820183811015612b7157604080517f08c379a000000000000000000000000000000000000000000000000000000000815260206004820152601660248201527f536166654d617468236164643a204f564552464c4f5700000000000000000000604482015290519081900360640190fd5b9392505050565b6000813f8015801590612b7157507fc5d2460186f7233c927e7db2dcc703c0e500b653ca82273b7bfad8045d85a470141592915050565b604080518082018252600281527f1901000000000000000000000000000000000000000000000000000000000000602080830191825283517f035aff83d86937d35b32e04f0ddc6ff469290eef2f1b692d8a815c89404d47498183015230818601528451808203860181526060820190955284519490910193909320825160009491928692608001918291908083835b60208310612c7c57805182527fffffffffffffffffffffffffffffffffffffffffffffffffffffffffffffffe09092019160209182019101612c3f565b51815160209384036101000a7fffffffffffffffffffffffffffffffffffffffffffffffffffffffffffffffff018019909216911617905292019485525083810192909252506040805180840383018152928101905281519101209392505050565b7fffffffff0000000000000000000000000000000000000000000000000000000081167f01ffc9a70000000000000000000000000000000000000000000000000000000014919050565b60405180608001604052806000815260200160008152602001600073ffffffffffffffffffffffffffffffffffffffff168152602001606081525090565b600082601f830112612d76578081fd5b8135612d89612d8482613b56565b613b32565b818152915060208083019084810181840286018201871015612daa57600080fd5b60005b84811015612dc957813584529282019290820190600101612dad565b505050505092915050565b600082601f830112612de4578081fd5b8135612df2612d8482613b74565b9150808252836020828501011115612e0957600080fd5b8060208401602084013760009082016020015292915050565b600082601f830112612e32578081fd5b8151612e40612d8482613b74565b9150808252836020828501011115612e5757600080fd5b612e68816020840160208601613bb4565b5092915050565b600060808284031215612e80578081fd5b6040516080810167ffffffffffffffff8282108183111715612e9e57fe5b81604052829350845183526020850151602084015260408501519150612ec382613be0565b8160408401526060850151915080821115612edd57600080fd5b50612eea85828601612e22565b6060830152505092915050565b600060208284031215612f08578081fd5b8135612b7181613be0565b600060208284031215612f24578081fd5b8151612b7181613be0565b60008060408385031215612f41578081fd5b8251612f4c81613be0565b6020939093015192949293505050565b60008060408385031215612f6e578182fd5b8235612f7981613be0565b91506020830135612f8981613be0565b809150509250929050565b60008060008060008060c08789031215612fac578182fd5b8635612fb781613be0565b95506020870135612fc781613be0565b9450604087013567ffffffffffffffff80821115612fe3578384fd5b612fef8a838b01612d66565b95506060890135915080821115613004578384fd5b6130108a838b01612d66565b94506080890135915061302282613c05565b90925060a08801359080821115613037578283fd5b5061304489828a01612dd4565b9150509295509295509295565b600080600080600060a08688031215613068578081fd5b853561307381613be0565b9450602086013561308381613be0565b9350604086013567ffffffffffffffff8082111561309f578283fd5b6130ab89838a01612d66565b945060608801359150808211156130c0578283fd5b6130cc89838a01612d66565b935060808801359150808211156130e1578283fd5b506130ee88828901612dd4565b9150509295509295909350565b600080600080600060a08688031215613112578081fd5b853561311d81613be0565b9450602086013561312d81613be0565b9350604086013561313d81613c05565b9250606086013561314d81613c05565b9150608086013567ffffffffffffffff811115613168578182fd5b6130ee88828901612dd4565b60008060008060008060c0878903121561318c578384fd5b863561319781613be0565b955060208701356131a781613be0565b9450604087013593506060870135925060808701356131c581613c05565b915060a087013567ffffffffffffffff8111156131e0578182fd5b61304489828a01612dd4565b600080600080600060a08688031215613203578283fd5b853561320e81613be0565b9450602086013561321e81613be0565b93506040860135925060608601359150608086013567ffffffffffffffff811115613168578182fd5b60008060006060848603121561325b578081fd5b833561326681613be0565b9250602084013567ffffffffffffffff80821115613282578283fd5b61328e87838801612d66565b935060408601359150808211156132a3578283fd5b506132b086828701612d66565b9150509250925092565b600080600080608085870312156132cf578182fd5b84356132da81613be0565b9350602085013567ffffffffffffffff808211156132f6578384fd5b61330288838901612d66565b94506040870135915080821115613317578384fd5b61332388838901612d66565b93506060870135915080821115613338578283fd5b5061334587828801612dd4565b91505092959194509250565b60008060408385031215613363578182fd5b823561336e81613be0565b91506020830135612f8981613c05565b60008060008060808587031215613393578182fd5b843561339e81613be0565b935060208501359250604085013567ffffffffffffffff808211156133c1578384fd5b61332388838901612dd4565b600080604083850312156133df578182fd5b82356133ea81613be0565b946020939093013593505050565b60008060006060848603121561340c578081fd5b833561341781613be0565b95602085013595506040909401359392505050565b60008060008060808587031215613441578182fd5b843561344c81613be0565b93506020850135925060408501359150606085013567ffffffffffffffff811115613475578182fd5b61334587828801612dd4565b60008060408385031215613493578182fd5b823567ffffffffffffffff808211156134aa578384fd5b818501915085601f8301126134bd578384fd5b81356134cb612d8482613b56565b80828252602080830192508086018a8283870289010111156134eb578889fd5b8896505b8487101561351657803561350281613be0565b8452600196909601959281019281016134ef565b50909650870135935050508082111561352d578283fd5b5061353a85828601612d66565b9150509250929050565b600060208284031215613555578081fd5b8151612b7181613c05565b600060208284031215613571578081fd5b81357fffffffff0000000000000000000000000000000000000000000000000000000081168114612b71578182fd5b600080604083850312156135b2578182fd5b825167ffffffffffffffff808211156135c9578384fd5b6135d586838701612e22565b935060208501519150808211156135ea578283fd5b5061353a85828601612e22565b600060208284031215613608578081fd5b815167ffffffffffffffff81111561361e578182fd5b61145c84828501612e6f565b6000806040838503121561363c578182fd5b825167ffffffffffffffff80821115613653578384fd5b6135d586838701612e6f565b600060208284031215613670578081fd5b5035919050565b815160009082906020808601845b838110156136a157815185529382019390820190600101613685565b50929695505050505050565b600084516136bf818460208901613bb4565b91909101928352506020820152604001919050565b600084516136e6818460208901613bb4565b820184815283516136fe816020808501908801613bb4565b0160200195945050505050565b73ffffffffffffffffffffffffffffffffffffffff9384168152919092166020820152604081019190915260600190565b73ffffffffffffffffffffffffffffffffffffffff94851681529290931660208301526040820152606081019190915260a06080820181905260009082015260c00190565b6020808252825182820181905260009190848201906040850190845b818110156137b95783518352928401929184019160010161379d565b50909695505050505050565b901515815260200190565b95865273ffffffffffffffffffffffffffffffffffffffff94851660208701529290931660408501526060840152608083019190915260a082015260c00190565b94855273ffffffffffffffffffffffffffffffffffffffff93841660208601529190921660408401526060830191909152608082015260a00190565b600060208252825180602084015261386c816040850160208701613bb4565b601f017fffffffffffffffffffffffffffffffffffffffffffffffffffffffffffffffe0169190910160400192915050565b60208082526033908201527f455243313135354d657461236d657461536166655472616e7366657246726f6d60408201527f3a20494e56414c49445f524543495049454e5400000000000000000000000000606082015260800190565b60208082526033908201527f455243313135354d657461235f7369676e617475726556616c69646174696f6e60408201527f3a20494e56414c49445f5349474e415455524500000000000000000000000000606082015260800190565b60208082526027908201527f455243313135354d6574614d696e744275726e4d6f636b3a20494e56414c494460408201527f5f4d4554484f4400000000000000000000000000000000000000000000000000606082015260800190565b60208082526032908201527f455243313135354d657461235f7472616e736665724761734665653a2045524360408201527f32305f5452414e534645525f4641494c45440000000000000000000000000000606082015260800190565b60208082526038908201527f455243313135354d657461236d6574615361666542617463685472616e73666560408201527f7246726f6d3a20494e56414c49445f524543495049454e540000000000000000606082015260800190565b6020808252602f908201527f455243313135354d657461235f7369676e617475726556616c69646174696f6e60408201527f3a20494e56414c49445f4e4f4e43450000000000000000000000000000000000606082015260800190565b6020808252602e908201527f455243313135354d657461235f7472616e736665724761734665653a20554e5360408201527f5550504f525445445f544f4b454e000000000000000000000000000000000000606082015260800190565b90815260200190565b60405181810167ffffffffffffffff81118282101715613b4e57fe5b604052919050565b600067ffffffffffffffff821115613b6a57fe5b5060209081020190565b600067ffffffffffffffff821115613b8857fe5b50601f017fffffffffffffffffffffffffffffffffffffffffffffffffffffffffffffffe01660200190565b60005b83811015613bcf578181015183820152602001613bb7565b838111156109185750506000910152565b73ffffffffffffffffffffffffffffffffffffffff81168114613c0257600080fd5b50565b8015158114613c0257600080fdfe4552433131353523736166655472616e7366657246726f6d3a20494e56414c49445f524543495049454e544c6962427974657323706f704c617374427974653a20475245415445525f5448414e5f5a45524f5f4c454e4754485f52455155495245444552433131353523736166655472616e7366657246726f6d3a20494e56414c49445f4f50455241544f5245524331313535235f7361666542617463685472616e7366657246726f6d3a20494e56414c49445f4152524159535f4c454e4754485369676e617475726556616c696461746f7223697356616c69645369676e61747572653a20554e535550504f525445445f5349474e41545552455369676e617475726556616c696461746f7223697356616c69645369676e61747572653a20494c4c4547414c5f5349474e41545552455369676e617475726556616c696461746f7223697356616c69645369676e61747572653a204c454e4754485f39375f524551554952454445524331313535237361666542617463685472616e7366657246726f6d3a20494e56414c49445f524543495049454e54455243313135354d696e744275726e2362617463684275726e3a20494e56414c49445f4152524159535f4c454e475448455243313135352362616c616e63654f6642617463683a20494e56414c49445f41525241595f4c454e4754485369676e617475726556616c696461746f7223697356616c69645369676e61747572653a20494e56414c49445f5349474e455245524331313535237361666542617463685472616e7366657246726f6d3a20494e56414c49445f4f50455241544f525369676e617475726556616c696461746f7223697356616c69645369676e61747572653a204c454e4754485f475245415445525f5448414e5f305f5245515549524544455243313135354d696e744275726e2362617463684d696e743a20494e56414c49445f4152524159535f4c454e47544845524331313535235f63616c6c6f6e45524331313535426174636852656365697665643a20494e56414c49445f4f4e5f524543454956455f4d45535341474545524331313535235f63616c6c6f6e4552433131353552656365697665643a20494e56414c49445f4f4e5f524543454956455f4d4553534147454c696242797465732372656164427974657333323a20475245415445525f4f525f455155414c5f544f5f33325f4c454e4754485f5245515549524544a26469706673582212204cd68b685973eff0a8e5f55279f127137e10a622c440c7fc301442e99e92dbfb64736f6c63430007040033",
  "linkReferences": {},
  "deployedLinkReferences": {}
}