{
  "_format": "hh-sol-artifact-1",
  "contractName": "ERC1155MetadataMock",
  "sourceName": "contracts/mocks/ERC1155MetadataMock.sol",
  "abi": [
    {
      "inputs": [
        {
          "internalType": "string",
          "name": "_name",
          "type": "string"
        },
        {
          "internalType": "string",
          "name": "_baseURI",
          "type": "string"
        }
      ],
      "stateMutability": "nonpayable",
      "type": "constructor"
    },
    {
      "anonymous": false,
      "inputs": [
        {
          "indexed": true,
          "internalType": "address",
          "name": "_owner",
          "type": "address"
        },
        {
          "indexed": true,
          "internalType": "address",
          "name": "_operator",
          "type": "address"
        },
        {
          "indexed": false,
          "internalType": "bool",
          "name": "_approved",
          "type": "bool"
        }
      ],
      "name": "ApprovalForAll",
      "type": "event"
    },
    {
      "anonymous": false,
      "inputs": [
        {
          "indexed": true,
          "internalType": "address",
          "name": "_operator",
          "type": "address"
        },
        {
          "indexed": true,
          "internalType": "address",
          "name": "_from",
          "type": "address"
        },
        {
          "indexed": true,
          "internalType": "address",
          "name": "_to",
          "type": "address"
        },
        {
          "indexed": false,
          "internalType": "uint256[]",
          "name": "_ids",
          "type": "uint256[]"
        },
        {
          "indexed": false,
          "internalType": "uint256[]",
          "name": "_amounts",
          "type": "uint256[]"
        }
      ],
      "name": "TransferBatch",
      "type": "event"
    },
    {
      "anonymous": false,
      "inputs": [
        {
          "indexed": true,
          "internalType": "address",
          "name": "_operator",
          "type": "address"
        },
        {
          "indexed": true,
          "internalType": "address",
          "name": "_from",
          "type": "address"
        },
        {
          "indexed": true,
          "internalType": "address",
          "name": "_to",
          "type": "address"
        },
        {
          "indexed": false,
          "internalType": "uint256",
          "name": "_id",
          "type": "uint256"
        },
        {
          "indexed": false,
          "internalType": "uint256",
          "name": "_amount",
          "type": "uint256"
        }
      ],
      "name": "TransferSingle",
      "type": "event"
    },
    {
      "anonymous": false,
      "inputs": [
        {
          "indexed": false,
          "internalType": "string",
          "name": "_uri",
          "type": "string"
        },
        {
          "indexed": true,
          "internalType": "uint256",
          "name": "_id",
          "type": "uint256"
        }
      ],
      "name": "URI",
      "type": "event"
    },
    {
      "stateMutability": "nonpayable",
      "type": "fallback"
    },
    {
      "inputs": [
        {
          "internalType": "address",
          "name": "_owner",
          "type": "address"
        },
        {
          "internalType": "uint256",
          "name": "_id",
          "type": "uint256"
        }
      ],
      "name": "balanceOf",
      "outputs": [
        {
          "internalType": "uint256",
          "name": "",
          "type": "uint256"
        }
      ],
      "stateMutability": "view",
      "type": "function"
    },
    {
      "inputs": [
        {
          "internalType": "address[]",
          "name": "_owners",
          "type": "address[]"
        },
        {
          "internalType": "uint256[]",
          "name": "_ids",
          "type": "uint256[]"
        }
      ],
      "name": "balanceOfBatch",
      "outputs": [
        {
          "internalType": "uint256[]",
          "name": "",
          "type": "uint256[]"
        }
      ],
      "stateMutability": "view",
      "type": "function"
    },
    {
      "inputs": [],
      "name": "baseURI",
      "outputs": [
        {
          "internalType": "string",
          "name": "",
          "type": "string"
        }
      ],
      "stateMutability": "view",
      "type": "function"
    },
    {
      "inputs": [
        {
          "internalType": "address",
          "name": "_owner",
          "type": "address"
        },
        {
          "internalType": "address",
          "name": "_operator",
          "type": "address"
        }
      ],
      "name": "isApprovedForAll",
      "outputs": [
        {
          "internalType": "bool",
          "name": "isOperator",
          "type": "bool"
        }
      ],
      "stateMutability": "view",
      "type": "function"
    },
    {
      "inputs": [
        {
          "internalType": "uint256[]",
          "name": "_tokenIDs",
          "type": "uint256[]"
        }
      ],
      "name": "logURIsMock",
      "outputs": [],
      "stateMutability": "nonpayable",
      "type": "function"
    },
    {
      "inputs": [],
      "name": "name",
      "outputs": [
        {
          "internalType": "string",
          "name": "",
          "type": "string"
        }
      ],
      "stateMutability": "view",
      "type": "function"
    },
    {
      "inputs": [
        {
          "internalType": "address",
          "name": "_from",
          "type": "address"
        },
        {
          "internalType": "address",
          "name": "_to",
          "type": "address"
        },
        {
          "internalType": "uint256[]",
          "name": "_ids",
          "type": "uint256[]"
        },
        {
          "internalType": "uint256[]",
          "name": "_amounts",
          "type": "uint256[]"
        },
        {
          "internalType": "bytes",
          "name": "_data",
          "type": "bytes"
        }
      ],
      "name": "safeBatchTransferFrom",
      "outputs": [],
      "stateMutability": "nonpayable",
      "type": "function"
    },
    {
      "inputs": [
        {
          "internalType": "address",
          "name": "_from",
          "type": "address"
        },
        {
          "internalType": "address",
          "name": "_to",
          "type": "address"
        },
        {
          "internalType": "uint256",
          "name": "_id",
          "type": "uint256"
        },
        {
          "internalType": "uint256",
          "name": "_amount",
          "type": "uint256"
        },
        {
          "internalType": "bytes",
          "name": "_data",
          "type": "bytes"
        }
      ],
      "name": "safeTransferFrom",
      "outputs": [],
      "stateMutability": "nonpayable",
      "type": "function"
    },
    {
      "inputs": [
        {
          "internalType": "address",
          "name": "_operator",
          "type": "address"
        },
        {
          "internalType": "bool",
          "name": "_approved",
          "type": "bool"
        }
      ],
      "name": "setApprovalForAll",
      "outputs": [],
      "stateMutability": "nonpayable",
      "type": "function"
    },
    {
      "inputs": [
        {
          "internalType": "string",
          "name": "_newBaseMetadataURI",
          "type": "string"
        }
      ],
      "name": "setBaseMetadataURI",
      "outputs": [],
      "stateMutability": "nonpayable",
      "type": "function"
    },
    {
      "inputs": [
        {
          "internalType": "bytes4",
          "name": "_interfaceID",
          "type": "bytes4"
        }
      ],
      "name": "supportsInterface",
      "outputs": [
        {
          "internalType": "bool",
          "name": "",
          "type": "bool"
        }
      ],
      "stateMutability": "pure",
      "type": "function"
    },
    {
      "inputs": [
        {
          "internalType": "uint256",
          "name": "_id",
          "type": "uint256"
        }
      ],
      "name": "uri",
      "outputs": [
        {
          "internalType": "string",
          "name": "",
          "type": "string"
        }
      ],
      "stateMutability": "view",
      "type": "function"
    }
  ],
  "bytecode": "0x60806040523480156200001157600080fd5b50604051620021fb380380620021fb833981016040819052620000349162000142565b818160036200004483826200023c565b5060026200005382826200023c565b505050505062000363565b634e487b7160e01b600052604160045260246000fd5b600082601f8301126200008657600080fd5b815167ffffffffffffffff80821115620000a457620000a46200005e565b604051601f83017fffffffffffffffffffffffffffffffffffffffffffffffffffffffffffffffe0908116603f01168101908282118183101715620000ed57620000ed6200005e565b816040528381526020925086838588010111156200010a57600080fd5b600091505b838210156200012e57858201830151818301840152908201906200010f565b600093810190920192909252949350505050565b600080604083850312156200015657600080fd5b825167ffffffffffffffff808211156200016f57600080fd5b6200017d8683870162000074565b935060208501519150808211156200019457600080fd5b50620001a38582860162000074565b9150509250929050565b600181811c90821680620001c257607f821691505b602082108103620001e357634e487b7160e01b600052602260045260246000fd5b50919050565b601f8211156200023757600081815260208120601f850160051c81016020861015620002125750805b601f850160051c820191505b8181101562000233578281556001016200021e565b5050505b505050565b815167ffffffffffffffff8111156200025957620002596200005e565b62000271816200026a8454620001ad565b84620001e9565b602080601f831160018114620002c75760008415620002905750858301515b7fffffffffffffffffffffffffffffffffffffffffffffffffffffffffffffffff600386901b1c1916600185901b17855562000233565b6000858152602081207fffffffffffffffffffffffffffffffffffffffffffffffffffffffffffffffe08616915b828110156200031657888601518255948401946001909101908401620002f5565b50858210156200035357878501517fffffffffffffffffffffffffffffffffffffffffffffffffffffffffffffffff600388901b60f8161c191681555b5050505050600190811b01905550565b611e8880620003736000396000f3fe608060405234801561001057600080fd5b50600436106100d35760003560e01c80634e1273f411610081578063a22cb4651161005b578063a22cb46514610234578063e985e9c514610247578063f242432a14610290576100d3565b80634e1273f4146101f95780636c0360eb146102195780637e518ec814610221576100d3565b80630e89341c116100b25780630e89341c146101be5780631ea430d4146101d15780632eb2c2d6146101e6576100d3565b8062fdd58e1461016057806301ffc9a71461018657806306fdde03146101a9575b6040517f08c379a000000000000000000000000000000000000000000000000000000000815260206004820152602360248201527f455243313135354d657461646174614d6f636b3a20494e56414c49445f4d455460448201527f484f44000000000000000000000000000000000000000000000000000000000060648201526084015b60405180910390fd5b61017361016e366004611395565b6102a3565b6040519081526020015b60405180910390f35b6101996101943660046113ed565b6102d9565b604051901515815260200161017d565b6101b16102e4565b60405161017d9190611478565b6101b16101cc36600461148b565b610372565b6101e46101df3660046115b1565b6103a6565b005b6101e46101f4366004611684565b6103b2565b61020c61020736600461172e565b610556565b60405161017d9190611829565b6101b16106f6565b6101e461022f36600461183c565b610703565b6101e4610242366004611885565b61070c565b6101996102553660046118c1565b73ffffffffffffffffffffffffffffffffffffffff918216600090815260016020908152604080832093909416825291909152205460ff1690565b6101e461029e3660046118f4565b6107a3565b73ffffffffffffffffffffffffffffffffffffffff82166000908152602081815260408083208484529091529020545b92915050565b60006102d382610940565b600380546102f190611959565b80601f016020809104026020016040519081016040528092919081815260200182805461031d90611959565b801561036a5780601f1061033f5761010080835404028352916020019161036a565b820191906000526020600020905b81548152906001019060200180831161034d57829003601f168201915b505050505081565b6060600261037f8361099c565b6040516020016103909291906119ac565b6040516020818303038152906040529050919050565b6103af81610ae9565b50565b3373ffffffffffffffffffffffffffffffffffffffff86161480610406575073ffffffffffffffffffffffffffffffffffffffff8516600090815260016020908152604080832033845290915290205460ff165b610492576040517f08c379a000000000000000000000000000000000000000000000000000000000815260206004820152602f60248201527f45524331313535237361666542617463685472616e7366657246726f6d3a204960448201527f4e56414c49445f4f50455241544f5200000000000000000000000000000000006064820152608401610157565b73ffffffffffffffffffffffffffffffffffffffff8416610535576040517f08c379a000000000000000000000000000000000000000000000000000000000815260206004820152603060248201527f45524331313535237361666542617463685472616e7366657246726f6d3a204960448201527f4e56414c49445f524543495049454e54000000000000000000000000000000006064820152608401610157565b61054185858585610c34565b61054f858585855a86610e99565b5050505050565b606081518351146105e9576040517f08c379a000000000000000000000000000000000000000000000000000000000815260206004820152602c60248201527f455243313135352362616c616e63654f6642617463683a20494e56414c49445f60448201527f41525241595f4c454e47544800000000000000000000000000000000000000006064820152608401610157565b6000835167ffffffffffffffff811115610605576106056114a4565b60405190808252806020026020018201604052801561062e578160200160208202803683370190505b50905060005b84518110156106ee5760008086838151811061065257610652611a79565b602002602001015173ffffffffffffffffffffffffffffffffffffffff1673ffffffffffffffffffffffffffffffffffffffff16815260200190815260200160002060008583815181106106a8576106a8611a79565b60200260200101518152602001908152602001600020548282815181106106d1576106d1611a79565b6020908102919091010152806106e681611ad7565b915050610634565b509392505050565b600280546102f190611959565b6103af81611022565b33600081815260016020908152604080832073ffffffffffffffffffffffffffffffffffffffff87168085529083529281902080547fffffffffffffffffffffffffffffffffffffffffffffffffffffffffffffff001686151590811790915590519081529192917f17307eab39ab6107e8899845ad3d59bd9653f200f220920489ca2b5937696c31910160405180910390a35050565b3373ffffffffffffffffffffffffffffffffffffffff861614806107f7575073ffffffffffffffffffffffffffffffffffffffff8516600090815260016020908152604080832033845290915290205460ff165b610883576040517f08c379a000000000000000000000000000000000000000000000000000000000815260206004820152602a60248201527f4552433131353523736166655472616e7366657246726f6d3a20494e56414c4960448201527f445f4f50455241544f52000000000000000000000000000000000000000000006064820152608401610157565b73ffffffffffffffffffffffffffffffffffffffff8416610926576040517f08c379a000000000000000000000000000000000000000000000000000000000815260206004820152602b60248201527f4552433131353523736166655472616e7366657246726f6d3a20494e56414c4960448201527f445f524543495049454e540000000000000000000000000000000000000000006064820152608401610157565b61093285858585611032565b61054f858585855a86611116565b60007ff176cbe4000000000000000000000000000000000000000000000000000000007fffffffff0000000000000000000000000000000000000000000000000000000083160161099357506001919050565b6102d382611295565b6060816000036109df57505060408051808201909152600181527f3000000000000000000000000000000000000000000000000000000000000000602082015290565b818060005b8215610a0a57806109f481611ad7565b9150610a039050600a84611b3e565b92506109e4565b60008167ffffffffffffffff811115610a2557610a256114a4565b6040519080825280601f01601f191660200182016040528015610a4f576020820181803683370190505b5090506000610a5f600184611b52565b90505b8315610adf57610a73600a85611b65565b610a7e906030611b79565b60f81b8282610a8c81611b8c565b935081518110610a9e57610a9e611a79565b60200101907effffffffffffffffffffffffffffffffffffffffffffffffffffffffffffff1916908160001a905350610ad8600a85611b3e565b9350610a62565b5095945050505050565b600060028054610af890611959565b80601f0160208091040260200160405190810160405280929190818152602001828054610b2490611959565b8015610b715780601f10610b4657610100808354040283529160200191610b71565b820191906000526020600020905b815481529060010190602001808311610b5457829003601f168201915b50505050509050606060005b8351811015610c2e5782610ba9858381518110610b9c57610b9c611a79565b602002602001015161099c565b604051602001610bba929190611bc1565b6040516020818303038152906040529150838181518110610bdd57610bdd611a79565b60200260200101517f6bb7ff708619ba0610cba295a58592e0451dee2622938c8755667688daf3529b83604051610c149190611478565b60405180910390a280610c2681611ad7565b915050610b7d565b50505050565b8051825114610cc5576040517f08c379a000000000000000000000000000000000000000000000000000000000815260206004820152603560248201527f45524331313535235f7361666542617463685472616e7366657246726f6d3a2060448201527f494e56414c49445f4152524159535f4c454e47544800000000000000000000006064820152608401610157565b815160005b81811015610e1357828181518110610ce457610ce4611a79565b60200260200101516000808873ffffffffffffffffffffffffffffffffffffffff1673ffffffffffffffffffffffffffffffffffffffff1681526020019081526020016000206000868481518110610d3e57610d3e611a79565b602002602001015181526020019081526020016000206000828254610d639190611b52565b92505081905550828181518110610d7c57610d7c611a79565b60200260200101516000808773ffffffffffffffffffffffffffffffffffffffff1673ffffffffffffffffffffffffffffffffffffffff1681526020019081526020016000206000868481518110610dd657610dd6611a79565b602002602001015181526020019081526020016000206000828254610dfb9190611b79565b90915550819050610e0b81611ad7565b915050610cca565b508373ffffffffffffffffffffffffffffffffffffffff168573ffffffffffffffffffffffffffffffffffffffff163373ffffffffffffffffffffffffffffffffffffffff167f4a39dc06d4c0dbc64b70af90fd698a233a518aa5d07e595d983b8c0526c8f7fb8686604051610e8a929190611be7565b60405180910390a45050505050565b610eb88573ffffffffffffffffffffffffffffffffffffffff16611332565b1561101a5760008573ffffffffffffffffffffffffffffffffffffffff1663bc197c8184338a8989886040518763ffffffff1660e01b8152600401610f01959493929190611c15565b60206040518083038160008887f1158015610f20573d6000803e3d6000fd5b50505050506040513d601f19601f82011682018060405250810190610f459190611c80565b90507fffffffff0000000000000000000000000000000000000000000000000000000081167fbc197c810000000000000000000000000000000000000000000000000000000014611018576040517f08c379a000000000000000000000000000000000000000000000000000000000815260206004820152603f60248201527f45524331313535235f63616c6c6f6e455243313135354261746368526563656960448201527f7665643a20494e56414c49445f4f4e5f524543454956455f4d455353414745006064820152608401610157565b505b505050505050565b600261102e8282611ce8565b5050565b73ffffffffffffffffffffffffffffffffffffffff841660009081526020818152604080832085845290915281208054839290611070908490611b52565b909155505073ffffffffffffffffffffffffffffffffffffffff8316600090815260208181526040808320858452909152812080548392906110b3908490611b79565b9091555050604080518381526020810183905273ffffffffffffffffffffffffffffffffffffffff808616929087169133917fc3d58168c5ae7397731d063d5bbf3d657854427343f4c083240f7aacaa2d0f62910160405180910390a450505050565b6111358573ffffffffffffffffffffffffffffffffffffffff16611332565b1561101a5760008573ffffffffffffffffffffffffffffffffffffffff1663f23a6e6184338a8989886040518763ffffffff1660e01b815260040161117e959493929190611e02565b60206040518083038160008887f115801561119d573d6000803e3d6000fd5b50505050506040513d601f19601f820116820180604052508101906111c29190611c80565b90507fffffffff0000000000000000000000000000000000000000000000000000000081167ff23a6e610000000000000000000000000000000000000000000000000000000014611018576040517f08c379a000000000000000000000000000000000000000000000000000000000815260206004820152603a60248201527f45524331313535235f63616c6c6f6e4552433131353552656365697665643a2060448201527f494e56414c49445f4f4e5f524543454956455f4d4553534147450000000000006064820152608401610157565b60007f264985da000000000000000000000000000000000000000000000000000000007fffffffff000000000000000000000000000000000000000000000000000000008316016112e857506001919050565b7f01ffc9a7000000000000000000000000000000000000000000000000000000007fffffffff000000000000000000000000000000000000000000000000000000008316146102d3565b6000813f801580159061136557507fc5d2460186f7233c927e7db2dcc703c0e500b653ca82273b7bfad8045d85a4708114155b9392505050565b803573ffffffffffffffffffffffffffffffffffffffff8116811461139057600080fd5b919050565b600080604083850312156113a857600080fd5b6113b18361136c565b946020939093013593505050565b7fffffffff00000000000000000000000000000000000000000000000000000000811681146103af57600080fd5b6000602082840312156113ff57600080fd5b8135611365816113bf565b60005b8381101561142557818101518382015260200161140d565b50506000910152565b6000815180845261144681602086016020860161140a565b601f017fffffffffffffffffffffffffffffffffffffffffffffffffffffffffffffffe0169290920160200192915050565b602081526000611365602083018461142e565b60006020828403121561149d57600080fd5b5035919050565b7f4e487b7100000000000000000000000000000000000000000000000000000000600052604160045260246000fd5b604051601f82017fffffffffffffffffffffffffffffffffffffffffffffffffffffffffffffffe016810167ffffffffffffffff8111828210171561151a5761151a6114a4565b604052919050565b600067ffffffffffffffff82111561153c5761153c6114a4565b5060051b60200190565b600082601f83011261155757600080fd5b8135602061156c61156783611522565b6114d3565b82815260059290921b8401810191818101908684111561158b57600080fd5b8286015b848110156115a6578035835291830191830161158f565b509695505050505050565b6000602082840312156115c357600080fd5b813567ffffffffffffffff8111156115da57600080fd5b6115e684828501611546565b949350505050565b600067ffffffffffffffff831115611608576116086114a4565b61163960207fffffffffffffffffffffffffffffffffffffffffffffffffffffffffffffffe0601f860116016114d3565b905082815283838301111561164d57600080fd5b828260208301376000602084830101529392505050565b600082601f83011261167557600080fd5b611365838335602085016115ee565b600080600080600060a0868803121561169c57600080fd5b6116a58661136c565b94506116b36020870161136c565b9350604086013567ffffffffffffffff808211156116d057600080fd5b6116dc89838a01611546565b945060608801359150808211156116f257600080fd5b6116fe89838a01611546565b9350608088013591508082111561171457600080fd5b5061172188828901611664565b9150509295509295909350565b6000806040838503121561174157600080fd5b823567ffffffffffffffff8082111561175957600080fd5b818501915085601f83011261176d57600080fd5b8135602061177d61156783611522565b82815260059290921b8401810191818101908984111561179c57600080fd5b948201945b838610156117c1576117b28661136c565b825294820194908201906117a1565b965050860135925050808211156117d757600080fd5b506117e485828601611546565b9150509250929050565b600081518084526020808501945080840160005b8381101561181e57815187529582019590820190600101611802565b509495945050505050565b60208152600061136560208301846117ee565b60006020828403121561184e57600080fd5b813567ffffffffffffffff81111561186557600080fd5b8201601f8101841361187657600080fd5b6115e6848235602084016115ee565b6000806040838503121561189857600080fd5b6118a18361136c565b9150602083013580151581146118b657600080fd5b809150509250929050565b600080604083850312156118d457600080fd5b6118dd8361136c565b91506118eb6020840161136c565b90509250929050565b600080600080600060a0868803121561190c57600080fd5b6119158661136c565b94506119236020870161136c565b93506040860135925060608601359150608086013567ffffffffffffffff81111561194d57600080fd5b61172188828901611664565b600181811c9082168061196d57607f821691505b6020821081036119a6577f4e487b7100000000000000000000000000000000000000000000000000000000600052602260045260246000fd5b50919050565b60008084546119ba81611959565b600182811680156119d25760018114611a0557611a34565b7fffffffffffffffffffffffffffffffffffffffffffffffffffffffffffffff0084168752821515830287019450611a34565b8860005260208060002060005b85811015611a2b5781548a820152908401908201611a12565b50505082870194505b505050508351611a4881836020880161140a565b7f2e6a736f6e0000000000000000000000000000000000000000000000000000009101908152600501949350505050565b7f4e487b7100000000000000000000000000000000000000000000000000000000600052603260045260246000fd5b7f4e487b7100000000000000000000000000000000000000000000000000000000600052601160045260246000fd5b60007fffffffffffffffffffffffffffffffffffffffffffffffffffffffffffffffff8203611b0857611b08611aa8565b5060010190565b7f4e487b7100000000000000000000000000000000000000000000000000000000600052601260045260246000fd5b600082611b4d57611b4d611b0f565b500490565b818103818111156102d3576102d3611aa8565b600082611b7457611b74611b0f565b500690565b808201808211156102d3576102d3611aa8565b600081611b9b57611b9b611aa8565b507fffffffffffffffffffffffffffffffffffffffffffffffffffffffffffffffff0190565b60008351611bd381846020880161140a565b835190830190611a4881836020880161140a565b604081526000611bfa60408301856117ee565b8281036020840152611c0c81856117ee565b95945050505050565b600073ffffffffffffffffffffffffffffffffffffffff808816835280871660208401525060a06040830152611c4e60a08301866117ee565b8281036060840152611c6081866117ee565b90508281036080840152611c74818561142e565b98975050505050505050565b600060208284031215611c9257600080fd5b8151611365816113bf565b601f821115611ce357600081815260208120601f850160051c81016020861015611cc45750805b601f850160051c820191505b8181101561101a57828155600101611cd0565b505050565b815167ffffffffffffffff811115611d0257611d026114a4565b611d1681611d108454611959565b84611c9d565b602080601f831160018114611d695760008415611d335750858301515b7fffffffffffffffffffffffffffffffffffffffffffffffffffffffffffffffff600386901b1c1916600185901b17855561101a565b6000858152602081207fffffffffffffffffffffffffffffffffffffffffffffffffffffffffffffffe08616915b82811015611db657888601518255948401946001909101908401611d97565b5085821015611df257878501517fffffffffffffffffffffffffffffffffffffffffffffffffffffffffffffffff600388901b60f8161c191681555b5050505050600190811b01905550565b600073ffffffffffffffffffffffffffffffffffffffff808816835280871660208401525084604083015283606083015260a06080830152611e4760a083018461142e565b97965050505050505056fea264697066735822122061c2a00678cf36a87ff0dcf2c7b11a883887e332e718dd829d80ba92de442d6964736f6c63430008120033",
  "linkReferences": {},
  "deployedLinkReferences": {}
}