{
  "_format": "hh-sol-artifact-1",
  "contractName": "ERC1155MetadataMock",
  "sourceName": "contracts/mocks/ERC1155MetadataMock.sol",
  "abi": [
    {
      "inputs": [
        {
          "internalType": "string",
          "name": "_name",
          "type": "string"
        },
        {
          "internalType": "string",
          "name": "_baseURI",
          "type": "string"
        }
      ],
      "stateMutability": "nonpayable",
      "type": "constructor"
    },
    {
      "anonymous": false,
      "inputs": [
        {
          "indexed": true,
          "internalType": "address",
          "name": "_owner",
          "type": "address"
        },
        {
          "indexed": true,
          "internalType": "address",
          "name": "_operator",
          "type": "address"
        },
        {
          "indexed": false,
          "internalType": "bool",
          "name": "_approved",
          "type": "bool"
        }
      ],
      "name": "ApprovalForAll",
      "type": "event"
    },
    {
      "anonymous": false,
      "inputs": [
        {
          "indexed": true,
          "internalType": "address",
          "name": "_operator",
          "type": "address"
        },
        {
          "indexed": true,
          "internalType": "address",
          "name": "_from",
          "type": "address"
        },
        {
          "indexed": true,
          "internalType": "address",
          "name": "_to",
          "type": "address"
        },
        {
          "indexed": false,
          "internalType": "uint256[]",
          "name": "_ids",
          "type": "uint256[]"
        },
        {
          "indexed": false,
          "internalType": "uint256[]",
          "name": "_amounts",
          "type": "uint256[]"
        }
      ],
      "name": "TransferBatch",
      "type": "event"
    },
    {
      "anonymous": false,
      "inputs": [
        {
          "indexed": true,
          "internalType": "address",
          "name": "_operator",
          "type": "address"
        },
        {
          "indexed": true,
          "internalType": "address",
          "name": "_from",
          "type": "address"
        },
        {
          "indexed": true,
          "internalType": "address",
          "name": "_to",
          "type": "address"
        },
        {
          "indexed": false,
          "internalType": "uint256",
          "name": "_id",
          "type": "uint256"
        },
        {
          "indexed": false,
          "internalType": "uint256",
          "name": "_amount",
          "type": "uint256"
        }
      ],
      "name": "TransferSingle",
      "type": "event"
    },
    {
      "anonymous": false,
      "inputs": [
        {
          "indexed": false,
          "internalType": "string",
          "name": "_uri",
          "type": "string"
        },
        {
          "indexed": true,
          "internalType": "uint256",
          "name": "_id",
          "type": "uint256"
        }
      ],
      "name": "URI",
      "type": "event"
    },
    {
      "stateMutability": "nonpayable",
      "type": "fallback"
    },
    {
      "inputs": [
        {
          "internalType": "address",
          "name": "_owner",
          "type": "address"
        },
        {
          "internalType": "uint256",
          "name": "_id",
          "type": "uint256"
        }
      ],
      "name": "balanceOf",
      "outputs": [
        {
          "internalType": "uint256",
          "name": "",
          "type": "uint256"
        }
      ],
      "stateMutability": "view",
      "type": "function"
    },
    {
      "inputs": [
        {
          "internalType": "address[]",
          "name": "_owners",
          "type": "address[]"
        },
        {
          "internalType": "uint256[]",
          "name": "_ids",
          "type": "uint256[]"
        }
      ],
      "name": "balanceOfBatch",
      "outputs": [
        {
          "internalType": "uint256[]",
          "name": "",
          "type": "uint256[]"
        }
      ],
      "stateMutability": "view",
      "type": "function"
    },
    {
      "inputs": [],
      "name": "baseURI",
      "outputs": [
        {
          "internalType": "string",
          "name": "",
          "type": "string"
        }
      ],
      "stateMutability": "view",
      "type": "function"
    },
    {
      "inputs": [
        {
          "internalType": "address",
          "name": "_owner",
          "type": "address"
        },
        {
          "internalType": "address",
          "name": "_operator",
          "type": "address"
        }
      ],
      "name": "isApprovedForAll",
      "outputs": [
        {
          "internalType": "bool",
          "name": "isOperator",
          "type": "bool"
        }
      ],
      "stateMutability": "view",
      "type": "function"
    },
    {
      "inputs": [
        {
          "internalType": "uint256[]",
          "name": "_tokenIDs",
          "type": "uint256[]"
        }
      ],
      "name": "logURIsMock",
      "outputs": [],
      "stateMutability": "nonpayable",
      "type": "function"
    },
    {
      "inputs": [],
      "name": "name",
      "outputs": [
        {
          "internalType": "string",
          "name": "",
          "type": "string"
        }
      ],
      "stateMutability": "view",
      "type": "function"
    },
    {
      "inputs": [
        {
          "internalType": "address",
          "name": "_from",
          "type": "address"
        },
        {
          "internalType": "address",
          "name": "_to",
          "type": "address"
        },
        {
          "internalType": "uint256[]",
          "name": "_ids",
          "type": "uint256[]"
        },
        {
          "internalType": "uint256[]",
          "name": "_amounts",
          "type": "uint256[]"
        },
        {
          "internalType": "bytes",
          "name": "_data",
          "type": "bytes"
        }
      ],
      "name": "safeBatchTransferFrom",
      "outputs": [],
      "stateMutability": "nonpayable",
      "type": "function"
    },
    {
      "inputs": [
        {
          "internalType": "address",
          "name": "_from",
          "type": "address"
        },
        {
          "internalType": "address",
          "name": "_to",
          "type": "address"
        },
        {
          "internalType": "uint256",
          "name": "_id",
          "type": "uint256"
        },
        {
          "internalType": "uint256",
          "name": "_amount",
          "type": "uint256"
        },
        {
          "internalType": "bytes",
          "name": "_data",
          "type": "bytes"
        }
      ],
      "name": "safeTransferFrom",
      "outputs": [],
      "stateMutability": "nonpayable",
      "type": "function"
    },
    {
      "inputs": [
        {
          "internalType": "address",
          "name": "_operator",
          "type": "address"
        },
        {
          "internalType": "bool",
          "name": "_approved",
          "type": "bool"
        }
      ],
      "name": "setApprovalForAll",
      "outputs": [],
      "stateMutability": "nonpayable",
      "type": "function"
    },
    {
      "inputs": [
        {
          "internalType": "string",
          "name": "_newBaseMetadataURI",
          "type": "string"
        }
      ],
      "name": "setBaseMetadataURI",
      "outputs": [],
      "stateMutability": "nonpayable",
      "type": "function"
    },
    {
      "inputs": [
        {
          "internalType": "bytes4",
          "name": "_interfaceID",
          "type": "bytes4"
        }
      ],
      "name": "supportsInterface",
      "outputs": [
        {
          "internalType": "bool",
          "name": "",
          "type": "bool"
        }
      ],
      "stateMutability": "pure",
      "type": "function"
    },
    {
      "inputs": [
        {
          "internalType": "uint256",
          "name": "_id",
          "type": "uint256"
        }
      ],
      "name": "uri",
      "outputs": [
        {
          "internalType": "string",
          "name": "",
          "type": "string"
        }
      ],
      "stateMutability": "view",
      "type": "function"
    }
  ],
  "bytecode": "0x60806040523480156200001157600080fd5b506040516200226d3803806200226d8339810160408190526200003491620001dc565b8151829082906200004d9060039060208501906200006e565b508051620000639060029060208401906200006e565b505050505062000244565b828054600181600116156101000203166002900490600052602060002090601f016020900481019282620000a65760008555620000f1565b82601f10620000c157805160ff1916838001178555620000f1565b82800160010185558215620000f1579182015b82811115620000f1578251825591602001919060010190620000d4565b50620000ff92915062000103565b5090565b5b80821115620000ff576000815560010162000104565b600082601f8301126200012b578081fd5b815167ffffffffffffffff808211156200014157fe5b6040516020601f84017fffffffffffffffffffffffffffffffffffffffffffffffffffffffffffffffe0168201810183811183821017156200017f57fe5b806040525081945083825286818588010111156200019c57600080fd5b600092505b83831015620001c05785830181015182840182015291820191620001a1565b83831115620001d25760008185840101525b5050505092915050565b60008060408385031215620001ef578182fd5b825167ffffffffffffffff8082111562000207578384fd5b62000215868387016200011a565b935060208501519150808211156200022b578283fd5b506200023a858286016200011a565b9150509250929050565b61201980620002546000396000f3fe608060405234801561001057600080fd5b50600436106100d35760003560e01c80634e1273f411610081578063a22cb4651161005b578063a22cb465146101e2578063e985e9c5146101f5578063f242432a14610208576100d3565b80634e1273f4146101a75780636c0360eb146101c75780637e518ec8146101cf576100d3565b80630e89341c116100b25780630e89341c1461016c5780631ea430d41461017f5780632eb2c2d614610194576100d3565b8062fdd58e1461010e57806301ffc9a71461013757806306fdde0314610157575b6040517f08c379a000000000000000000000000000000000000000000000000000000000815260040161010590611dad565b60405180910390fd5b61012161011c366004611b3d565b61021b565b60405161012e9190611e0a565b60405180910390f35b61014a610145366004611c62565b61024e565b60405161012e9190611d31565b61015f610261565b60405161012e9190611d3c565b61015f61017a366004611cd5565b61030d565b61019261018d366004611c27565b610460565b005b6101926101a23660046119fa565b61046c565b6101ba6101b5366004611b66565b610577565b60405161012e9190611ced565b61015f6106c3565b6101926101dd366004611ca2565b610739565b6101926101f0366004611b03565b610742565b61014a6102033660046119c8565b6107db565b610192610216366004611aa0565b610816565b73ffffffffffffffffffffffffffffffffffffffff91909116600090815260208181526040808320938352929052205490565b60006102598261091a565b90505b919050565b6003805460408051602060026001851615610100027fffffffffffffffffffffffffffffffffffffffffffffffffffffffffffffffff0190941693909304601f810184900484028201840190925281815292918301828280156103055780601f106102da57610100808354040283529160200191610305565b820191906000526020600020905b8154815290600101906020018083116102e857829003601f168201915b505050505081565b6060600261031a83610977565b60405160200180838054600181600116156101000203166002900480156103785780601f10610356576101008083540402835291820191610378565b820191906000526020600020905b815481529060010190602001808311610364575b5050825160208401908083835b602083106103c257805182527fffffffffffffffffffffffffffffffffffffffffffffffffffffffffffffffe09092019160209182019101610385565b5181516020939093036101000a7fffffffffffffffffffffffffffffffffffffffffffffffffffffffffffffffff01801990911692169190911790527f2e6a736f6e000000000000000000000000000000000000000000000000000000920191825250604080518083037fffffffffffffffffffffffffffffffffffffffffffffffffffffffffffffffe50181526005909201905295945050505050565b61046981610aa3565b50565b3373ffffffffffffffffffffffffffffffffffffffff86161480610495575061049585336107db565b6104ea576040517f08c379a000000000000000000000000000000000000000000000000000000000815260040180806020018281038252602f815260200180611f3c602f913960400191505060405180910390fd5b73ffffffffffffffffffffffffffffffffffffffff8416610556576040517f08c379a0000000000000000000000000000000000000000000000000000000008152600401808060200182810382526030815260200180611ee06030913960400191505060405180910390fd5b61056285858585610d6a565b610570858585855a866110be565b5050505050565b606081518351146105d3576040517f08c379a000000000000000000000000000000000000000000000000000000000815260040180806020018281038252602c815260200180611f10602c913960400191505060405180910390fd5b6060835167ffffffffffffffff811180156105ed57600080fd5b50604051908082528060200260200182016040528015610617578160200160208202803683370190505b50905060005b84518110156106bb5760008086838151811061063557fe5b602002602001015173ffffffffffffffffffffffffffffffffffffffff1673ffffffffffffffffffffffffffffffffffffffff168152602001908152602001600020600085838151811061068557fe5b60200260200101518152602001908152602001600020548282815181106106a857fe5b602090810291909101015260010161061d565b509392505050565b600280546040805160206001841615610100027fffffffffffffffffffffffffffffffffffffffffffffffffffffffffffffffff01909316849004601f810184900484028201840190925281815292918301828280156103055780601f106102da57610100808354040283529160200191610305565b61046981611335565b33600081815260016020908152604080832073ffffffffffffffffffffffffffffffffffffffff87168085529083529281902080547fffffffffffffffffffffffffffffffffffffffffffffffffffffffffffffff0016861515908117909155815190815290519293927f17307eab39ab6107e8899845ad3d59bd9653f200f220920489ca2b5937696c31929181900390910190a35050565b73ffffffffffffffffffffffffffffffffffffffff918216600090815260016020908152604080832093909416825291909152205460ff1690565b3373ffffffffffffffffffffffffffffffffffffffff8616148061083f575061083f85336107db565b610894576040517f08c379a000000000000000000000000000000000000000000000000000000000815260040180806020018281038252602a815260200180611e81602a913960400191505060405180910390fd5b73ffffffffffffffffffffffffffffffffffffffff8416610900576040517f08c379a000000000000000000000000000000000000000000000000000000000815260040180806020018281038252602b815260200180611e56602b913960400191505060405180910390fd5b61090c8585858561134c565b610570858585855a8661144f565b60007fffffffff0000000000000000000000000000000000000000000000000000000082167f0e89341c00000000000000000000000000000000000000000000000000000000141561096e5750600161025c565b61025982611640565b6060816109b8575060408051808201909152600181527f3000000000000000000000000000000000000000000000000000000000000000602082015261025c565b818060005b82156109d157600101600a830492506109bd565b60608167ffffffffffffffff811180156109ea57600080fd5b506040519080825280601f01601f191660200182016040528015610a15576020820181803683370190505b5090507fffffffffffffffffffffffffffffffffffffffffffffffffffffffffffffffff82015b8315610a9957600a840660300160f81b82828060019003935081518110610a5f57fe5b60200101907effffffffffffffffffffffffffffffffffffffffffffffffffffffffffffff1916908160001a905350600a84049350610a3c565b5095945050505050565b60028054604080516020601f7fffffffffffffffffffffffffffffffffffffffffffffffffffffffffffffffff6101006001871615020190941685900493840181900481028201810190925282815260609390929091830182828015610b4a5780601f10610b1f57610100808354040283529160200191610b4a565b820191906000526020600020905b815481529060010190602001808311610b2d57829003601f168201915b50505050509050606060005b8351811015610d645782610b7c858381518110610b6f57fe5b6020026020010151610977565b6040516020018083805190602001908083835b60208310610bcc57805182527fffffffffffffffffffffffffffffffffffffffffffffffffffffffffffffffe09092019160209182019101610b8f565b51815160209384036101000a7fffffffffffffffffffffffffffffffffffffffffffffffffffffffffffffffff018019909216911617905285519190930192850191508083835b60208310610c5057805182527fffffffffffffffffffffffffffffffffffffffffffffffffffffffffffffffe09092019160209182019101610c13565b6001836020036101000a038019825116818451168082178552505050505050905001807f2e6a736f6e000000000000000000000000000000000000000000000000000000815250600501925050506040516020818303038152906040529150838181518110610cbb57fe5b60200260200101517f6bb7ff708619ba0610cba295a58592e0451dee2622938c8755667688daf3529b836040518080602001828103825283818151815260200191508051906020019080838360005b83811015610d22578181015183820152602001610d0a565b50505050905090810190601f168015610d4f5780820380516001836020036101000a031916815260200191505b509250505060405180910390a2600101610b56565b50505050565b8051825114610dc4576040517f08c379a0000000000000000000000000000000000000000000000000000000008152600401808060200182810382526035815260200180611eab6035913960400191505060405180910390fd5b815160005b81811015610fb657610e59838281518110610de057fe5b60200260200101516000808973ffffffffffffffffffffffffffffffffffffffff1673ffffffffffffffffffffffffffffffffffffffff1681526020019081526020016000206000878581518110610e3457fe5b602002602001015181526020019081526020016000205461169d90919063ffffffff16565b6000808873ffffffffffffffffffffffffffffffffffffffff1673ffffffffffffffffffffffffffffffffffffffff1681526020019081526020016000206000868481518110610ea557fe5b6020026020010151815260200190815260200160002081905550610f47838281518110610ece57fe5b60200260200101516000808873ffffffffffffffffffffffffffffffffffffffff1673ffffffffffffffffffffffffffffffffffffffff1681526020019081526020016000206000878581518110610f2257fe5b602002602001015181526020019081526020016000205461171490919063ffffffff16565b6000808773ffffffffffffffffffffffffffffffffffffffff1673ffffffffffffffffffffffffffffffffffffffff1681526020019081526020016000206000868481518110610f9357fe5b602090810291909101810151825281019190915260400160002055600101610dc9565b508373ffffffffffffffffffffffffffffffffffffffff168573ffffffffffffffffffffffffffffffffffffffff163373ffffffffffffffffffffffffffffffffffffffff167f4a39dc06d4c0dbc64b70af90fd698a233a518aa5d07e595d983b8c0526c8f7fb8686604051808060200180602001838103835285818151815260200191508051906020019060200280838360005b8381101561106357818101518382015260200161104b565b50505050905001838103825284818151815260200191508051906020019060200280838360005b838110156110a257818101518382015260200161108a565b5050505090500194505050505060405180910390a45050505050565b6110dd8573ffffffffffffffffffffffffffffffffffffffff1661178f565b1561132d5760008573ffffffffffffffffffffffffffffffffffffffff1663bc197c8184338a8989886040518763ffffffff1660e01b8152600401808673ffffffffffffffffffffffffffffffffffffffff1681526020018573ffffffffffffffffffffffffffffffffffffffff168152602001806020018060200180602001848103845287818151815260200191508051906020019060200280838360005b8381101561119557818101518382015260200161117d565b50505050905001848103835286818151815260200191508051906020019060200280838360005b838110156111d45781810151838201526020016111bc565b50505050905001848103825285818151815260200191508051906020019080838360005b838110156112105781810151838201526020016111f8565b50505050905090810190601f16801561123d5780820380516001836020036101000a031916815260200191505b5098505050505050505050602060405180830381600088803b15801561126257600080fd5b5087f1158015611276573d6000803e3d6000fd5b50505050506040513d602081101561128d57600080fd5b505190507fffffffff0000000000000000000000000000000000000000000000000000000081167fbc197c81000000000000000000000000000000000000000000000000000000001461132b576040517f08c379a000000000000000000000000000000000000000000000000000000000815260040180806020018281038252603f815260200180611f6b603f913960400191505060405180910390fd5b505b505050505050565b8051611348906002906020840190611810565b5050565b73ffffffffffffffffffffffffffffffffffffffff8416600090815260208181526040808320858452909152902054611385908261169d565b73ffffffffffffffffffffffffffffffffffffffff808616600090815260208181526040808320878452825280832094909455918616815280825282812085825290915220546113d59082611714565b73ffffffffffffffffffffffffffffffffffffffff808516600081815260208181526040808320888452825291829020949094558051868152938401859052805191939288169233927fc3d58168c5ae7397731d063d5bbf3d657854427343f4c083240f7aacaa2d0f62929181900390910190a450505050565b61146e8573ffffffffffffffffffffffffffffffffffffffff1661178f565b1561132d5760008573ffffffffffffffffffffffffffffffffffffffff1663f23a6e6184338a8989886040518763ffffffff1660e01b8152600401808673ffffffffffffffffffffffffffffffffffffffff1681526020018573ffffffffffffffffffffffffffffffffffffffff16815260200184815260200183815260200180602001828103825283818151815260200191508051906020019080838360005b8381101561152757818101518382015260200161150f565b50505050905090810190601f1680156115545780820380516001836020036101000a031916815260200191505b509650505050505050602060405180830381600088803b15801561157757600080fd5b5087f115801561158b573d6000803e3d6000fd5b50505050506040513d60208110156115a257600080fd5b505190507fffffffff0000000000000000000000000000000000000000000000000000000081167ff23a6e61000000000000000000000000000000000000000000000000000000001461132b576040517f08c379a000000000000000000000000000000000000000000000000000000000815260040180806020018281038252603a815260200180611faa603a913960400191505060405180910390fd5b60007fffffffff0000000000000000000000000000000000000000000000000000000082167fd9b67a260000000000000000000000000000000000000000000000000000000014156116945750600161025c565b610259826117c6565b60008282111561170e57604080517f08c379a000000000000000000000000000000000000000000000000000000000815260206004820152601760248201527f536166654d617468237375623a20554e444552464c4f57000000000000000000604482015290519081900360640190fd5b50900390565b60008282018381101561178857604080517f08c379a000000000000000000000000000000000000000000000000000000000815260206004820152601660248201527f536166654d617468236164643a204f564552464c4f5700000000000000000000604482015290519081900360640190fd5b9392505050565b6000813f801580159061178857507fc5d2460186f7233c927e7db2dcc703c0e500b653ca82273b7bfad8045d85a470141592915050565b7fffffffff0000000000000000000000000000000000000000000000000000000081167f01ffc9a70000000000000000000000000000000000000000000000000000000014919050565b828054600181600116156101000203166002900490600052602060002090601f016020900481019282611846576000855561188c565b82601f1061185f57805160ff191683800117855561188c565b8280016001018555821561188c579182015b8281111561188c578251825591602001919060010190611871565b5061189892915061189c565b5090565b5b80821115611898576000815560010161189d565b803573ffffffffffffffffffffffffffffffffffffffff8116811461025c57600080fd5b600082601f8301126118e5578081fd5b81356118f86118f382611e37565b611e13565b81815291506020808301908481018184028601820187101561191957600080fd5b60005b848110156119385781358452928201929082019060010161191c565b505050505092915050565b600082601f830112611953578081fd5b813567ffffffffffffffff81111561196757fe5b61199860207fffffffffffffffffffffffffffffffffffffffffffffffffffffffffffffffe0601f84011601611e13565b91508082528360208285010111156119af57600080fd5b8060208401602084013760009082016020015292915050565b600080604083850312156119da578182fd5b6119e3836118b1565b91506119f1602084016118b1565b90509250929050565b600080600080600060a08688031215611a11578081fd5b611a1a866118b1565b9450611a28602087016118b1565b9350604086013567ffffffffffffffff80821115611a44578283fd5b611a5089838a016118d5565b94506060880135915080821115611a65578283fd5b611a7189838a016118d5565b93506080880135915080821115611a86578283fd5b50611a9388828901611943565b9150509295509295909350565b600080600080600060a08688031215611ab7578081fd5b611ac0866118b1565b9450611ace602087016118b1565b93506040860135925060608601359150608086013567ffffffffffffffff811115611af7578182fd5b611a9388828901611943565b60008060408385031215611b15578182fd5b611b1e836118b1565b915060208301358015158114611b32578182fd5b809150509250929050565b60008060408385031215611b4f578182fd5b611b58836118b1565b946020939093013593505050565b60008060408385031215611b78578182fd5b823567ffffffffffffffff80821115611b8f578384fd5b818501915085601f830112611ba2578384fd5b8135611bb06118f382611e37565b80828252602080830192508086018a828387028901011115611bd0578889fd5b8896505b84871015611bf957611be5816118b1565b845260019690960195928101928101611bd4565b509096508701359350505080821115611c10578283fd5b50611c1d858286016118d5565b9150509250929050565b600060208284031215611c38578081fd5b813567ffffffffffffffff811115611c4e578182fd5b611c5a848285016118d5565b949350505050565b600060208284031215611c73578081fd5b81357fffffffff0000000000000000000000000000000000000000000000000000000081168114611788578182fd5b600060208284031215611cb3578081fd5b813567ffffffffffffffff811115611cc9578182fd5b611c5a84828501611943565b600060208284031215611ce6578081fd5b5035919050565b6020808252825182820181905260009190848201906040850190845b81811015611d2557835183529284019291840191600101611d09565b50909695505050505050565b901515815260200190565b6000602080835283518082850152825b81811015611d6857858101830151858201604001528201611d4c565b81811115611d795783604083870101525b50601f017fffffffffffffffffffffffffffffffffffffffffffffffffffffffffffffffe016929092016040019392505050565b60208082526023908201527f455243313135354d657461646174614d6f636b3a20494e56414c49445f4d455460408201527f484f440000000000000000000000000000000000000000000000000000000000606082015260800190565b90815260200190565b60405181810167ffffffffffffffff81118282101715611e2f57fe5b604052919050565b600067ffffffffffffffff821115611e4b57fe5b506020908102019056fe4552433131353523736166655472616e7366657246726f6d3a20494e56414c49445f524543495049454e544552433131353523736166655472616e7366657246726f6d3a20494e56414c49445f4f50455241544f5245524331313535235f7361666542617463685472616e7366657246726f6d3a20494e56414c49445f4152524159535f4c454e47544845524331313535237361666542617463685472616e7366657246726f6d3a20494e56414c49445f524543495049454e54455243313135352362616c616e63654f6642617463683a20494e56414c49445f41525241595f4c454e47544845524331313535237361666542617463685472616e7366657246726f6d3a20494e56414c49445f4f50455241544f5245524331313535235f63616c6c6f6e45524331313535426174636852656365697665643a20494e56414c49445f4f4e5f524543454956455f4d45535341474545524331313535235f63616c6c6f6e4552433131353552656365697665643a20494e56414c49445f4f4e5f524543454956455f4d455353414745a26469706673582212206acf14916287dcf68036e71958bb6100555ba2097d10d0fbb7720841796a077d64736f6c63430007040033",
  "linkReferences": {},
  "deployedLinkReferences": {}
}