{
  "_format": "hh-sol-artifact-1",
  "contractName": "ERC2981GlobalMock",
  "sourceName": "contracts/mocks/ERC2981GlobalMock.sol",
  "abi": [
    {
      "inputs": [
        {
          "internalType": "string",
          "name": "_name",
          "type": "string"
        },
        {
          "internalType": "string",
          "name": "_baseURI",
          "type": "string"
        }
      ],
      "stateMutability": "nonpayable",
      "type": "constructor"
    },
    {
      "anonymous": false,
      "inputs": [
        {
          "indexed": true,
          "internalType": "address",
          "name": "_owner",
          "type": "address"
        },
        {
          "indexed": true,
          "internalType": "address",
          "name": "_operator",
          "type": "address"
        },
        {
          "indexed": false,
          "internalType": "bool",
          "name": "_approved",
          "type": "bool"
        }
      ],
      "name": "ApprovalForAll",
      "type": "event"
    },
    {
      "anonymous": false,
      "inputs": [
        {
          "indexed": true,
          "internalType": "address",
          "name": "_operator",
          "type": "address"
        },
        {
          "indexed": true,
          "internalType": "address",
          "name": "_from",
          "type": "address"
        },
        {
          "indexed": true,
          "internalType": "address",
          "name": "_to",
          "type": "address"
        },
        {
          "indexed": false,
          "internalType": "uint256[]",
          "name": "_ids",
          "type": "uint256[]"
        },
        {
          "indexed": false,
          "internalType": "uint256[]",
          "name": "_amounts",
          "type": "uint256[]"
        }
      ],
      "name": "TransferBatch",
      "type": "event"
    },
    {
      "anonymous": false,
      "inputs": [
        {
          "indexed": true,
          "internalType": "address",
          "name": "_operator",
          "type": "address"
        },
        {
          "indexed": true,
          "internalType": "address",
          "name": "_from",
          "type": "address"
        },
        {
          "indexed": true,
          "internalType": "address",
          "name": "_to",
          "type": "address"
        },
        {
          "indexed": false,
          "internalType": "uint256",
          "name": "_id",
          "type": "uint256"
        },
        {
          "indexed": false,
          "internalType": "uint256",
          "name": "_amount",
          "type": "uint256"
        }
      ],
      "name": "TransferSingle",
      "type": "event"
    },
    {
      "anonymous": false,
      "inputs": [
        {
          "indexed": false,
          "internalType": "string",
          "name": "_uri",
          "type": "string"
        },
        {
          "indexed": true,
          "internalType": "uint256",
          "name": "_id",
          "type": "uint256"
        }
      ],
      "name": "URI",
      "type": "event"
    },
    {
      "stateMutability": "nonpayable",
      "type": "fallback"
    },
    {
      "inputs": [
        {
          "internalType": "address",
          "name": "_owner",
          "type": "address"
        },
        {
          "internalType": "uint256",
          "name": "_id",
          "type": "uint256"
        }
      ],
      "name": "balanceOf",
      "outputs": [
        {
          "internalType": "uint256",
          "name": "",
          "type": "uint256"
        }
      ],
      "stateMutability": "view",
      "type": "function"
    },
    {
      "inputs": [
        {
          "internalType": "address[]",
          "name": "_owners",
          "type": "address[]"
        },
        {
          "internalType": "uint256[]",
          "name": "_ids",
          "type": "uint256[]"
        }
      ],
      "name": "balanceOfBatch",
      "outputs": [
        {
          "internalType": "uint256[]",
          "name": "",
          "type": "uint256[]"
        }
      ],
      "stateMutability": "view",
      "type": "function"
    },
    {
      "inputs": [],
      "name": "baseURI",
      "outputs": [
        {
          "internalType": "string",
          "name": "",
          "type": "string"
        }
      ],
      "stateMutability": "view",
      "type": "function"
    },
    {
      "inputs": [
        {
          "internalType": "address",
          "name": "_from",
          "type": "address"
        },
        {
          "internalType": "uint256[]",
          "name": "_ids",
          "type": "uint256[]"
        },
        {
          "internalType": "uint256[]",
          "name": "_values",
          "type": "uint256[]"
        }
      ],
      "name": "batchBurnMock",
      "outputs": [],
      "stateMutability": "nonpayable",
      "type": "function"
    },
    {
      "inputs": [
        {
          "internalType": "address",
          "name": "_to",
          "type": "address"
        },
        {
          "internalType": "uint256[]",
          "name": "_ids",
          "type": "uint256[]"
        },
        {
          "internalType": "uint256[]",
          "name": "_values",
          "type": "uint256[]"
        },
        {
          "internalType": "bytes",
          "name": "_data",
          "type": "bytes"
        }
      ],
      "name": "batchMintMock",
      "outputs": [],
      "stateMutability": "nonpayable",
      "type": "function"
    },
    {
      "inputs": [
        {
          "internalType": "address",
          "name": "_from",
          "type": "address"
        },
        {
          "internalType": "uint256",
          "name": "_id",
          "type": "uint256"
        },
        {
          "internalType": "uint256",
          "name": "_value",
          "type": "uint256"
        }
      ],
      "name": "burnMock",
      "outputs": [],
      "stateMutability": "nonpayable",
      "type": "function"
    },
    {
      "inputs": [],
      "name": "globalRoyaltyInfo",
      "outputs": [
        {
          "internalType": "address",
          "name": "receiver",
          "type": "address"
        },
        {
          "internalType": "uint256",
          "name": "feeBasisPoints",
          "type": "uint256"
        }
      ],
      "stateMutability": "view",
      "type": "function"
    },
    {
      "inputs": [
        {
          "internalType": "address",
          "name": "_owner",
          "type": "address"
        },
        {
          "internalType": "address",
          "name": "_operator",
          "type": "address"
        }
      ],
      "name": "isApprovedForAll",
      "outputs": [
        {
          "internalType": "bool",
          "name": "isOperator",
          "type": "bool"
        }
      ],
      "stateMutability": "view",
      "type": "function"
    },
    {
      "inputs": [
        {
          "internalType": "address",
          "name": "_to",
          "type": "address"
        },
        {
          "internalType": "uint256",
          "name": "_id",
          "type": "uint256"
        },
        {
          "internalType": "uint256",
          "name": "_value",
          "type": "uint256"
        },
        {
          "internalType": "bytes",
          "name": "_data",
          "type": "bytes"
        }
      ],
      "name": "mintMock",
      "outputs": [],
      "stateMutability": "nonpayable",
      "type": "function"
    },
    {
      "inputs": [],
      "name": "name",
      "outputs": [
        {
          "internalType": "string",
          "name": "",
          "type": "string"
        }
      ],
      "stateMutability": "view",
      "type": "function"
    },
    {
      "inputs": [
        {
          "internalType": "uint256",
          "name": "",
          "type": "uint256"
        },
        {
          "internalType": "uint256",
          "name": "_saleCost",
          "type": "uint256"
        }
      ],
      "name": "royaltyInfo",
      "outputs": [
        {
          "internalType": "address",
          "name": "receiver",
          "type": "address"
        },
        {
          "internalType": "uint256",
          "name": "royaltyAmount",
          "type": "uint256"
        }
      ],
      "stateMutability": "view",
      "type": "function"
    },
    {
      "inputs": [
        {
          "internalType": "address",
          "name": "_from",
          "type": "address"
        },
        {
          "internalType": "address",
          "name": "_to",
          "type": "address"
        },
        {
          "internalType": "uint256[]",
          "name": "_ids",
          "type": "uint256[]"
        },
        {
          "internalType": "uint256[]",
          "name": "_amounts",
          "type": "uint256[]"
        },
        {
          "internalType": "bytes",
          "name": "_data",
          "type": "bytes"
        }
      ],
      "name": "safeBatchTransferFrom",
      "outputs": [],
      "stateMutability": "nonpayable",
      "type": "function"
    },
    {
      "inputs": [
        {
          "internalType": "address",
          "name": "_from",
          "type": "address"
        },
        {
          "internalType": "address",
          "name": "_to",
          "type": "address"
        },
        {
          "internalType": "uint256",
          "name": "_id",
          "type": "uint256"
        },
        {
          "internalType": "uint256",
          "name": "_amount",
          "type": "uint256"
        },
        {
          "internalType": "bytes",
          "name": "_data",
          "type": "bytes"
        }
      ],
      "name": "safeTransferFrom",
      "outputs": [],
      "stateMutability": "nonpayable",
      "type": "function"
    },
    {
      "inputs": [
        {
          "internalType": "address",
          "name": "_operator",
          "type": "address"
        },
        {
          "internalType": "bool",
          "name": "_approved",
          "type": "bool"
        }
      ],
      "name": "setApprovalForAll",
      "outputs": [],
      "stateMutability": "nonpayable",
      "type": "function"
    },
    {
      "inputs": [
        {
          "internalType": "address",
          "name": "_recipient",
          "type": "address"
        },
        {
          "internalType": "uint256",
          "name": "_royaltyBasisPoints",
          "type": "uint256"
        }
      ],
      "name": "setGlobalRoyaltyInfo",
      "outputs": [],
      "stateMutability": "nonpayable",
      "type": "function"
    },
    {
      "inputs": [
        {
          "internalType": "bytes4",
          "name": "_interfaceID",
          "type": "bytes4"
        }
      ],
      "name": "supportsInterface",
      "outputs": [
        {
          "internalType": "bool",
          "name": "",
          "type": "bool"
        }
      ],
      "stateMutability": "pure",
      "type": "function"
    },
    {
      "inputs": [
        {
          "internalType": "uint256",
          "name": "_id",
          "type": "uint256"
        }
      ],
      "name": "uri",
      "outputs": [
        {
          "internalType": "string",
          "name": "",
          "type": "string"
        }
      ],
      "stateMutability": "view",
      "type": "function"
    }
  ],
  "bytecode": "0x60806040523480156200001157600080fd5b5060405162002daf38038062002daf833981810160405260408110156200003757600080fd5b81019080805160405193929190846401000000008211156200005857600080fd5b9083019060208201858111156200006e57600080fd5b82516401000000008111828201881017156200008957600080fd5b82525081516020918201929091019080838360005b83811015620000b85781810151838201526020016200009e565b50505050905090810190601f168015620000e65780820380516001836020036101000a031916815260200191505b50604052602001805160405193929190846401000000008211156200010a57600080fd5b9083019060208201858111156200012057600080fd5b82516401000000008111828201881017156200013b57600080fd5b82525081516020918201929091019080838360005b838110156200016a57818101518382015260200162000150565b50505050905090810190601f168015620001985780820380516001836020036101000a031916815260200191505b50604052505050818181818160039080519060200190620001bb929190620001de565b508051620001d1906002906020840190620001de565b505050505050506200028a565b828054600181600116156101000203166002900490600052602060002090601f01602090048101928262000216576000855562000261565b82601f106200023157805160ff191683800117855562000261565b8280016001018555821562000261579182015b828111156200026157825182559160200191906001019062000244565b506200026f92915062000273565b5090565b5b808211156200026f576000815560010162000274565b612b15806200029a6000396000f3fe608060405234801561001057600080fd5b506004361061011a5760003560e01c80636c0360eb116100b2578063bd7a6c4111610081578063d7a0ad9011610066578063d7a0ad9014610903578063e985e9c514610ace578063f242432a14610b095761011a565b8063bd7a6c41146107b7578063c9823cc6146108fb5761011a565b80636c0360eb1461066c57806393cfa68214610674578063a22cb465146106ad578063a3f091f5146106e85761011a565b80632a55205a116100ee5780632a55205a1461028d5780632eb2c2d6146102e0578063437ecbe9146104b65780634e1273f4146104f55761011a565b8062fdd58e1461015557806301ffc9a7146101a057806306fdde03146101f35780630e89341c14610270575b6040517f08c379a000000000000000000000000000000000000000000000000000000000815260040161014c9061282a565b60405180910390fd5b61018e6004803603604081101561016b57600080fd5b5073ffffffffffffffffffffffffffffffffffffffff8135169060200135610be1565b60408051918252519081900360200190f35b6101df600480360360208110156101b657600080fd5b50357fffffffff0000000000000000000000000000000000000000000000000000000016610c17565b604080519115158252519081900360200190f35b6101fb610c2a565b6040805160208082528351818301528351919283929083019185019080838360005b8381101561023557818101518382015260200161021d565b50505050905090810190601f1680156102625780820380516001836020036101000a031916815260200191505b509250505060405180910390f35b6101fb6004803603602081101561028657600080fd5b5035610cd6565b6102b0600480360360408110156102a357600080fd5b5080359060200135610e29565b6040805173ffffffffffffffffffffffffffffffffffffffff909316835260208301919091528051918290030190f35b6104b4600480360360a08110156102f657600080fd5b73ffffffffffffffffffffffffffffffffffffffff823581169260208101359091169181019060608101604082013564010000000081111561033757600080fd5b82018360208201111561034957600080fd5b8035906020019184602083028401116401000000008311171561036b57600080fd5b91908080602002602001604051908101604052809392919081815260200183836020028082843760009201919091525092959493602081019350359150506401000000008111156103bb57600080fd5b8201836020820111156103cd57600080fd5b803590602001918460208302840111640100000000831117156103ef57600080fd5b919080806020026020016040519081016040528093929190818152602001838360200280828437600092019190915250929594936020810193503591505064010000000081111561043f57600080fd5b82018360208201111561045157600080fd5b8035906020019184600183028401116401000000008311171561047357600080fd5b91908080601f016020809104026020016040519081016040528093929190818152602001838380828437600092019190915250929550610e8a945050505050565b005b6104b4600480360360608110156104cc57600080fd5b5073ffffffffffffffffffffffffffffffffffffffff8135169060208101359060400135610f95565b61061c6004803603604081101561050b57600080fd5b81019060208101813564010000000081111561052657600080fd5b82018360208201111561053857600080fd5b8035906020019184602083028401116401000000008311171561055a57600080fd5b91908080602002602001604051908101604052809392919081815260200183836020028082843760009201919091525092959493602081019350359150506401000000008111156105aa57600080fd5b8201836020820111156105bc57600080fd5b803590602001918460208302840111640100000000831117156105de57600080fd5b919080806020026020016040519081016040528093929190818152602001838360200280828437600092019190915250929550610fa5945050505050565b60408051602080825283518183015283519192839290830191858101910280838360005b83811015610658578181015183820152602001610640565b505050509050019250505060405180910390f35b6101fb6110f1565b6104b46004803603604081101561068a57600080fd5b5073ffffffffffffffffffffffffffffffffffffffff8135169060200135611167565b6104b4600480360360408110156106c357600080fd5b5073ffffffffffffffffffffffffffffffffffffffff81351690602001351515611175565b6104b4600480360360808110156106fe57600080fd5b73ffffffffffffffffffffffffffffffffffffffff823516916020810135916040820135919081019060808101606082013564010000000081111561074257600080fd5b82018360208201111561075457600080fd5b8035906020019184600183028401116401000000008311171561077657600080fd5b91908080601f01602080910402602001604051908101604052809392919081815260200183838082843760009201919091525092955061120e945050505050565b6104b4600480360360608110156107cd57600080fd5b73ffffffffffffffffffffffffffffffffffffffff823516919081019060408101602082013564010000000081111561080557600080fd5b82018360208201111561081757600080fd5b8035906020019184602083028401116401000000008311171561083957600080fd5b919080806020026020016040519081016040528093929190818152602001838360200280828437600092019190915250929594936020810193503591505064010000000081111561088957600080fd5b82018360208201111561089b57600080fd5b803590602001918460208302840111640100000000831117156108bd57600080fd5b919080806020026020016040519081016040528093929190818152602001838360200280828437600092019190915250929550611220945050505050565b6102b061122b565b6104b46004803603608081101561091957600080fd5b73ffffffffffffffffffffffffffffffffffffffff823516919081019060408101602082013564010000000081111561095157600080fd5b82018360208201111561096357600080fd5b8035906020019184602083028401116401000000008311171561098557600080fd5b91908080602002602001604051908101604052809392919081815260200183836020028082843760009201919091525092959493602081019350359150506401000000008111156109d557600080fd5b8201836020820111156109e757600080fd5b80359060200191846020830284011164010000000083111715610a0957600080fd5b9190808060200260200160405190810160405280939291908181526020018383602002808284376000920191909152509295949360208101935035915050640100000000811115610a5957600080fd5b820183602082011115610a6b57600080fd5b80359060200191846001830284011164010000000083111715610a8d57600080fd5b91908080601f01602080910402602001604051908101604052809392919081815260200183838082843760009201919091525092955061124d945050505050565b6101df60048036036040811015610ae457600080fd5b5073ffffffffffffffffffffffffffffffffffffffff81358116916020013516611259565b6104b4600480360360a0811015610b1f57600080fd5b73ffffffffffffffffffffffffffffffffffffffff823581169260208101359091169160408201359160608101359181019060a081016080820135640100000000811115610b6c57600080fd5b820183602082011115610b7e57600080fd5b80359060200191846001830284011164010000000083111715610ba057600080fd5b91908080601f016020809104026020016040519081016040528093929190818152602001838380828437600092019190915250929550611294945050505050565b73ffffffffffffffffffffffffffffffffffffffff82166000908152602081815260408083208484529091529020545b92915050565b6000610c2282611398565b90505b919050565b6003805460408051602060026001851615610100027fffffffffffffffffffffffffffffffffffffffffffffffffffffffffffffffff0190941693909304601f81018490048402820184019092528181529291830182828015610cce5780601f10610ca357610100808354040283529160200191610cce565b820191906000526020600020905b815481529060010190602001808311610cb157829003601f168201915b505050505081565b60606002610ce3836113f5565b6040516020018083805460018160011615610100020316600290048015610d415780601f10610d1f576101008083540402835291820191610d41565b820191906000526020600020905b815481529060010190602001808311610d2d575b5050825160208401908083835b60208310610d8b57805182527fffffffffffffffffffffffffffffffffffffffffffffffffffffffffffffffe09092019160209182019101610d4e565b5181516020939093036101000a7fffffffffffffffffffffffffffffffffffffffffffffffffffffffffffffffff01801990911692169190911790527f2e6a736f6e000000000000000000000000000000000000000000000000000000920191825250604080518083037fffffffffffffffffffffffffffffffffffffffffffffffffffffffffffffffe50181526005909201905295945050505050565b600080610e34612813565b506040805180820190915260045473ffffffffffffffffffffffffffffffffffffffff1680825260055460208301819052610e7e906103e890610e78908890611521565b906115b1565b92509250509250929050565b3373ffffffffffffffffffffffffffffffffffffffff86161480610eb35750610eb38533611259565b610f08576040517f08c379a000000000000000000000000000000000000000000000000000000000815260040180806020018281038252602f815260200180612a08602f913960400191505060405180910390fd5b73ffffffffffffffffffffffffffffffffffffffff8416610f74576040517f08c379a00000000000000000000000000000000000000000000000000000000081526004018080602001828103825260308152602001806129126030913960400191505060405180910390fd5b610f8085858585611635565b610f8e858585855a86611989565b5050505050565b610fa0838383611c00565b505050565b60608151835114611001576040517f08c379a000000000000000000000000000000000000000000000000000000000815260040180806020018281038252602c8152602001806129a3602c913960400191505060405180910390fd5b6060835167ffffffffffffffff8111801561101b57600080fd5b50604051908082528060200260200182016040528015611045578160200160208202803683370190505b50905060005b84518110156110e95760008086838151811061106357fe5b602002602001015173ffffffffffffffffffffffffffffffffffffffff1673ffffffffffffffffffffffffffffffffffffffff16815260200190815260200160002060008583815181106110b357fe5b60200260200101518152602001908152602001600020548282815181106110d657fe5b602090810291909101015260010161104b565b509392505050565b600280546040805160206001841615610100027fffffffffffffffffffffffffffffffffffffffffffffffffffffffffffffffff01909316849004601f81018490048402820184019092528181529291830182828015610cce5780601f10610ca357610100808354040283529160200191610cce565b6111718282611cab565b5050565b33600081815260016020908152604080832073ffffffffffffffffffffffffffffffffffffffff87168085529083529281902080547fffffffffffffffffffffffffffffffffffffffffffffffffffffffffffffff0016861515908117909155815190815290519293927f17307eab39ab6107e8899845ad3d59bd9653f200f220920489ca2b5937696c31929181900390910190a35050565b61121a84848484611dbd565b50505050565b610fa0838383611e72565b60045460055473ffffffffffffffffffffffffffffffffffffffff9091169082565b61121a848484846120b2565b73ffffffffffffffffffffffffffffffffffffffff918216600090815260016020908152604080832093909416825291909152205460ff1690565b3373ffffffffffffffffffffffffffffffffffffffff861614806112bd57506112bd8533611259565b611312576040517f08c379a000000000000000000000000000000000000000000000000000000000815260040180806020018281038252602a8152602001806128b3602a913960400191505060405180910390fd5b73ffffffffffffffffffffffffffffffffffffffff841661137e576040517f08c379a000000000000000000000000000000000000000000000000000000000815260040180806020018281038252602b815260200180612888602b913960400191505060405180910390fd5b61138a858585856122fc565b610f8e858585855a866123ff565b60007fffffffff0000000000000000000000000000000000000000000000000000000082167f2a55205a0000000000000000000000000000000000000000000000000000000014156113ec57506001610c25565b610c22826125f0565b606081611436575060408051808201909152600181527f30000000000000000000000000000000000000000000000000000000000000006020820152610c25565b818060005b821561144f57600101600a8304925061143b565b60608167ffffffffffffffff8111801561146857600080fd5b506040519080825280601f01601f191660200182016040528015611493576020820181803683370190505b5090507fffffffffffffffffffffffffffffffffffffffffffffffffffffffffffffffff82015b831561151757600a840660300160f81b828280600190039350815181106114dd57fe5b60200101907effffffffffffffffffffffffffffffffffffffffffffffffffffffffffffff1916908160001a905350600a840493506114ba565b5095945050505050565b60008261153057506000610c11565b8282028284828161153d57fe5b04146115aa57604080517f08c379a000000000000000000000000000000000000000000000000000000000815260206004820152601660248201527f536166654d617468236d756c3a204f564552464c4f5700000000000000000000604482015290519081900360640190fd5b9392505050565b600080821161162157604080517f08c379a000000000000000000000000000000000000000000000000000000000815260206004820152601e60248201527f536166654d617468236469763a204449564953494f4e5f42595f5a45524f0000604482015290519081900360640190fd5b600082848161162c57fe5b04949350505050565b805182511461168f576040517f08c379a00000000000000000000000000000000000000000000000000000000081526004018080602001828103825260358152602001806128dd6035913960400191505060405180910390fd5b815160005b81811015611881576117248382815181106116ab57fe5b60200260200101516000808973ffffffffffffffffffffffffffffffffffffffff1673ffffffffffffffffffffffffffffffffffffffff16815260200190815260200160002060008785815181106116ff57fe5b60200260200101518152602001908152602001600020546125fb90919063ffffffff16565b6000808873ffffffffffffffffffffffffffffffffffffffff1673ffffffffffffffffffffffffffffffffffffffff168152602001908152602001600020600086848151811061177057fe5b602002602001015181526020019081526020016000208190555061181283828151811061179957fe5b60200260200101516000808873ffffffffffffffffffffffffffffffffffffffff1673ffffffffffffffffffffffffffffffffffffffff16815260200190815260200160002060008785815181106117ed57fe5b602002602001015181526020019081526020016000205461267290919063ffffffff16565b6000808773ffffffffffffffffffffffffffffffffffffffff1673ffffffffffffffffffffffffffffffffffffffff168152602001908152602001600020600086848151811061185e57fe5b602090810291909101810151825281019190915260400160002055600101611694565b508373ffffffffffffffffffffffffffffffffffffffff168573ffffffffffffffffffffffffffffffffffffffff163373ffffffffffffffffffffffffffffffffffffffff167f4a39dc06d4c0dbc64b70af90fd698a233a518aa5d07e595d983b8c0526c8f7fb8686604051808060200180602001838103835285818151815260200191508051906020019060200280838360005b8381101561192e578181015183820152602001611916565b50505050905001838103825284818151815260200191508051906020019060200280838360005b8381101561196d578181015183820152602001611955565b5050505090500194505050505060405180910390a45050505050565b6119a88573ffffffffffffffffffffffffffffffffffffffff166126e6565b15611bf85760008573ffffffffffffffffffffffffffffffffffffffff1663bc197c8184338a8989886040518763ffffffff1660e01b8152600401808673ffffffffffffffffffffffffffffffffffffffff1681526020018573ffffffffffffffffffffffffffffffffffffffff168152602001806020018060200180602001848103845287818151815260200191508051906020019060200280838360005b83811015611a60578181015183820152602001611a48565b50505050905001848103835286818151815260200191508051906020019060200280838360005b83811015611a9f578181015183820152602001611a87565b50505050905001848103825285818151815260200191508051906020019080838360005b83811015611adb578181015183820152602001611ac3565b50505050905090810190601f168015611b085780820380516001836020036101000a031916815260200191505b5098505050505050505050602060405180830381600088803b158015611b2d57600080fd5b5087f1158015611b41573d6000803e3d6000fd5b50505050506040513d6020811015611b5857600080fd5b505190507fffffffff0000000000000000000000000000000000000000000000000000000081167fbc197c810000000000000000000000000000000000000000000000000000000014611bf6576040517f08c379a000000000000000000000000000000000000000000000000000000000815260040180806020018281038252603f815260200180612a67603f913960400191505060405180910390fd5b505b505050505050565b73ffffffffffffffffffffffffffffffffffffffff8316600090815260208181526040808320858452909152902054611c3990826125fb565b73ffffffffffffffffffffffffffffffffffffffff841660008181526020818152604080832087845282528083209490945583518681529081018590528351919333927fc3d58168c5ae7397731d063d5bbf3d657854427343f4c083240f7aacaa2d0f629281900390910190a4505050565b73ffffffffffffffffffffffffffffffffffffffff8216611d17576040517f08c379a00000000000000000000000000000000000000000000000000000000081526004018080602001828103825260318152602001806129726031913960400191505060405180910390fd5b6103e8811115611d72576040517f08c379a00000000000000000000000000000000000000000000000000000000081526004018080602001828103825260398152602001806129cf6039913960400191505060405180910390fd5b600480547fffffffffffffffffffffffff00000000000000000000000000000000000000001673ffffffffffffffffffffffffffffffffffffffff9390931692909217909155600555565b73ffffffffffffffffffffffffffffffffffffffff8416600090815260208181526040808320868452909152902054611df69083612672565b73ffffffffffffffffffffffffffffffffffffffff8516600081815260208181526040808320888452825280832094909455835187815290810186905283519293919233927fc3d58168c5ae7397731d063d5bbf3d657854427343f4c083240f7aacaa2d0f62928290030190a461121a60008585855a866123ff565b815181518114611ecd576040517f08c379a00000000000000000000000000000000000000000000000000000000081526004018080602001828103825260308152602001806129426030913960400191505060405180910390fd5b60005b81811015611faa57611f3b838281518110611ee757fe5b60200260200101516000808873ffffffffffffffffffffffffffffffffffffffff1673ffffffffffffffffffffffffffffffffffffffff16815260200190815260200160002060008785815181106116ff57fe5b6000808773ffffffffffffffffffffffffffffffffffffffff1673ffffffffffffffffffffffffffffffffffffffff1681526020019081526020016000206000868481518110611f8757fe5b602090810291909101810151825281019190915260400160002055600101611ed0565b50600073ffffffffffffffffffffffffffffffffffffffff168473ffffffffffffffffffffffffffffffffffffffff163373ffffffffffffffffffffffffffffffffffffffff167f4a39dc06d4c0dbc64b70af90fd698a233a518aa5d07e595d983b8c0526c8f7fb8686604051808060200180602001838103835285818151815260200191508051906020019060200280838360005b83811015612058578181015183820152602001612040565b50505050905001838103825284818151815260200191508051906020019060200280838360005b8381101561209757818101518382015260200161207f565b5050505090500194505050505060405180910390a450505050565b815183511461210c576040517f08c379a0000000000000000000000000000000000000000000000000000000008152600401808060200182810382526030815260200180612a376030913960400191505060405180910390fd5b825160005b818110156121eb5761217c84828151811061212857fe5b60200260200101516000808973ffffffffffffffffffffffffffffffffffffffff1673ffffffffffffffffffffffffffffffffffffffff16815260200190815260200160002060008885815181106117ed57fe5b6000808873ffffffffffffffffffffffffffffffffffffffff1673ffffffffffffffffffffffffffffffffffffffff16815260200190815260200160002060008784815181106121c857fe5b602090810291909101810151825281019190915260400160002055600101612111565b508473ffffffffffffffffffffffffffffffffffffffff16600073ffffffffffffffffffffffffffffffffffffffff163373ffffffffffffffffffffffffffffffffffffffff167f4a39dc06d4c0dbc64b70af90fd698a233a518aa5d07e595d983b8c0526c8f7fb8787604051808060200180602001838103835285818151815260200191508051906020019060200280838360005b83811015612299578181015183820152602001612281565b50505050905001838103825284818151815260200191508051906020019060200280838360005b838110156122d85781810151838201526020016122c0565b5050505090500194505050505060405180910390a4610f8e60008686865a87611989565b73ffffffffffffffffffffffffffffffffffffffff841660009081526020818152604080832085845290915290205461233590826125fb565b73ffffffffffffffffffffffffffffffffffffffff808616600090815260208181526040808320878452825280832094909455918616815280825282812085825290915220546123859082612672565b73ffffffffffffffffffffffffffffffffffffffff808516600081815260208181526040808320888452825291829020949094558051868152938401859052805191939288169233927fc3d58168c5ae7397731d063d5bbf3d657854427343f4c083240f7aacaa2d0f62929181900390910190a450505050565b61241e8573ffffffffffffffffffffffffffffffffffffffff166126e6565b15611bf85760008573ffffffffffffffffffffffffffffffffffffffff1663f23a6e6184338a8989886040518763ffffffff1660e01b8152600401808673ffffffffffffffffffffffffffffffffffffffff1681526020018573ffffffffffffffffffffffffffffffffffffffff16815260200184815260200183815260200180602001828103825283818151815260200191508051906020019080838360005b838110156124d75781810151838201526020016124bf565b50505050905090810190601f1680156125045780820380516001836020036101000a031916815260200191505b509650505050505050602060405180830381600088803b15801561252757600080fd5b5087f115801561253b573d6000803e3d6000fd5b50505050506040513d602081101561255257600080fd5b505190507fffffffff0000000000000000000000000000000000000000000000000000000081167ff23a6e610000000000000000000000000000000000000000000000000000000014611bf6576040517f08c379a000000000000000000000000000000000000000000000000000000000815260040180806020018281038252603a815260200180612aa6603a913960400191505060405180910390fd5b6000610c228261271d565b60008282111561266c57604080517f08c379a000000000000000000000000000000000000000000000000000000000815260206004820152601760248201527f536166654d617468237375623a20554e444552464c4f57000000000000000000604482015290519081900360640190fd5b50900390565b6000828201838110156115aa57604080517f08c379a000000000000000000000000000000000000000000000000000000000815260206004820152601660248201527f536166654d617468236164643a204f564552464c4f5700000000000000000000604482015290519081900360640190fd5b6000813f80158015906115aa57507fc5d2460186f7233c927e7db2dcc703c0e500b653ca82273b7bfad8045d85a470141592915050565b60007fffffffff0000000000000000000000000000000000000000000000000000000082167f0e89341c00000000000000000000000000000000000000000000000000000000141561277157506001610c25565b610c228260007fffffffff0000000000000000000000000000000000000000000000000000000082167fd9b67a260000000000000000000000000000000000000000000000000000000014156127c957506001610c25565b7f01ffc9a7000000000000000000000000000000000000000000000000000000007fffffffff00000000000000000000000000000000000000000000000000000000831614610c22565b604080518082019091526000808252602082015290565b60208082526027908201527f455243313135354d6574614d696e744275726e4d6f636b3a20494e56414c494460408201527f5f4d4554484f440000000000000000000000000000000000000000000000000060608201526080019056fe4552433131353523736166655472616e7366657246726f6d3a20494e56414c49445f524543495049454e544552433131353523736166655472616e7366657246726f6d3a20494e56414c49445f4f50455241544f5245524331313535235f7361666542617463685472616e7366657246726f6d3a20494e56414c49445f4152524159535f4c454e47544845524331313535237361666542617463685472616e7366657246726f6d3a20494e56414c49445f524543495049454e54455243313135354d696e744275726e2362617463684275726e3a20494e56414c49445f4152524159535f4c454e47544845524332393831476c6f62616c235f736574476c6f62616c526f79616c74793a20524543495049454e545f49535f307830455243313135352362616c616e63654f6642617463683a20494e56414c49445f41525241595f4c454e47544845524332393831476c6f62616c235f736574476c6f62616c526f79616c74793a204645455f49535f41424f56455f3130305f50455243454e5445524331313535237361666542617463685472616e7366657246726f6d3a20494e56414c49445f4f50455241544f52455243313135354d696e744275726e2362617463684d696e743a20494e56414c49445f4152524159535f4c454e47544845524331313535235f63616c6c6f6e45524331313535426174636852656365697665643a20494e56414c49445f4f4e5f524543454956455f4d45535341474545524331313535235f63616c6c6f6e4552433131353552656365697665643a20494e56414c49445f4f4e5f524543454956455f4d455353414745a2646970667358221220ceacbcdce353ae53948aa9b972423089875d1f569d105a9e37edc2a23df2421264736f6c63430007040033",
  "linkReferences": {},
  "deployedLinkReferences": {}
}