{
  "_format": "hh-sol-artifact-1",
  "contractName": "ERC2981GlobalMock",
  "sourceName": "contracts/mocks/ERC2981GlobalMock.sol",
  "abi": [
    {
      "inputs": [
        {
          "internalType": "string",
          "name": "_name",
          "type": "string"
        },
        {
          "internalType": "string",
          "name": "_baseURI",
          "type": "string"
        }
      ],
      "stateMutability": "nonpayable",
      "type": "constructor"
    },
    {
      "anonymous": false,
      "inputs": [
        {
          "indexed": true,
          "internalType": "address",
          "name": "_owner",
          "type": "address"
        },
        {
          "indexed": true,
          "internalType": "address",
          "name": "_operator",
          "type": "address"
        },
        {
          "indexed": false,
          "internalType": "bool",
          "name": "_approved",
          "type": "bool"
        }
      ],
      "name": "ApprovalForAll",
      "type": "event"
    },
    {
      "anonymous": false,
      "inputs": [
        {
          "indexed": true,
          "internalType": "address",
          "name": "_operator",
          "type": "address"
        },
        {
          "indexed": true,
          "internalType": "address",
          "name": "_from",
          "type": "address"
        },
        {
          "indexed": true,
          "internalType": "address",
          "name": "_to",
          "type": "address"
        },
        {
          "indexed": false,
          "internalType": "uint256[]",
          "name": "_ids",
          "type": "uint256[]"
        },
        {
          "indexed": false,
          "internalType": "uint256[]",
          "name": "_amounts",
          "type": "uint256[]"
        }
      ],
      "name": "TransferBatch",
      "type": "event"
    },
    {
      "anonymous": false,
      "inputs": [
        {
          "indexed": true,
          "internalType": "address",
          "name": "_operator",
          "type": "address"
        },
        {
          "indexed": true,
          "internalType": "address",
          "name": "_from",
          "type": "address"
        },
        {
          "indexed": true,
          "internalType": "address",
          "name": "_to",
          "type": "address"
        },
        {
          "indexed": false,
          "internalType": "uint256",
          "name": "_id",
          "type": "uint256"
        },
        {
          "indexed": false,
          "internalType": "uint256",
          "name": "_amount",
          "type": "uint256"
        }
      ],
      "name": "TransferSingle",
      "type": "event"
    },
    {
      "anonymous": false,
      "inputs": [
        {
          "indexed": false,
          "internalType": "string",
          "name": "_uri",
          "type": "string"
        },
        {
          "indexed": true,
          "internalType": "uint256",
          "name": "_id",
          "type": "uint256"
        }
      ],
      "name": "URI",
      "type": "event"
    },
    {
      "stateMutability": "nonpayable",
      "type": "fallback"
    },
    {
      "inputs": [
        {
          "internalType": "address",
          "name": "_owner",
          "type": "address"
        },
        {
          "internalType": "uint256",
          "name": "_id",
          "type": "uint256"
        }
      ],
      "name": "balanceOf",
      "outputs": [
        {
          "internalType": "uint256",
          "name": "",
          "type": "uint256"
        }
      ],
      "stateMutability": "view",
      "type": "function"
    },
    {
      "inputs": [
        {
          "internalType": "address[]",
          "name": "_owners",
          "type": "address[]"
        },
        {
          "internalType": "uint256[]",
          "name": "_ids",
          "type": "uint256[]"
        }
      ],
      "name": "balanceOfBatch",
      "outputs": [
        {
          "internalType": "uint256[]",
          "name": "",
          "type": "uint256[]"
        }
      ],
      "stateMutability": "view",
      "type": "function"
    },
    {
      "inputs": [],
      "name": "baseURI",
      "outputs": [
        {
          "internalType": "string",
          "name": "",
          "type": "string"
        }
      ],
      "stateMutability": "view",
      "type": "function"
    },
    {
      "inputs": [
        {
          "internalType": "address",
          "name": "_from",
          "type": "address"
        },
        {
          "internalType": "uint256[]",
          "name": "_ids",
          "type": "uint256[]"
        },
        {
          "internalType": "uint256[]",
          "name": "_values",
          "type": "uint256[]"
        }
      ],
      "name": "batchBurnMock",
      "outputs": [],
      "stateMutability": "nonpayable",
      "type": "function"
    },
    {
      "inputs": [
        {
          "internalType": "address",
          "name": "_to",
          "type": "address"
        },
        {
          "internalType": "uint256[]",
          "name": "_ids",
          "type": "uint256[]"
        },
        {
          "internalType": "uint256[]",
          "name": "_values",
          "type": "uint256[]"
        },
        {
          "internalType": "bytes",
          "name": "_data",
          "type": "bytes"
        }
      ],
      "name": "batchMintMock",
      "outputs": [],
      "stateMutability": "nonpayable",
      "type": "function"
    },
    {
      "inputs": [
        {
          "internalType": "address",
          "name": "_from",
          "type": "address"
        },
        {
          "internalType": "uint256",
          "name": "_id",
          "type": "uint256"
        },
        {
          "internalType": "uint256",
          "name": "_value",
          "type": "uint256"
        }
      ],
      "name": "burnMock",
      "outputs": [],
      "stateMutability": "nonpayable",
      "type": "function"
    },
    {
      "inputs": [],
      "name": "globalRoyaltyInfo",
      "outputs": [
        {
          "internalType": "address",
          "name": "receiver",
          "type": "address"
        },
        {
          "internalType": "uint256",
          "name": "feeBasisPoints",
          "type": "uint256"
        }
      ],
      "stateMutability": "view",
      "type": "function"
    },
    {
      "inputs": [
        {
          "internalType": "address",
          "name": "_owner",
          "type": "address"
        },
        {
          "internalType": "address",
          "name": "_operator",
          "type": "address"
        }
      ],
      "name": "isApprovedForAll",
      "outputs": [
        {
          "internalType": "bool",
          "name": "isOperator",
          "type": "bool"
        }
      ],
      "stateMutability": "view",
      "type": "function"
    },
    {
      "inputs": [
        {
          "internalType": "address",
          "name": "_to",
          "type": "address"
        },
        {
          "internalType": "uint256",
          "name": "_id",
          "type": "uint256"
        },
        {
          "internalType": "uint256",
          "name": "_value",
          "type": "uint256"
        },
        {
          "internalType": "bytes",
          "name": "_data",
          "type": "bytes"
        }
      ],
      "name": "mintMock",
      "outputs": [],
      "stateMutability": "nonpayable",
      "type": "function"
    },
    {
      "inputs": [],
      "name": "name",
      "outputs": [
        {
          "internalType": "string",
          "name": "",
          "type": "string"
        }
      ],
      "stateMutability": "view",
      "type": "function"
    },
    {
      "inputs": [
        {
          "internalType": "uint256",
          "name": "",
          "type": "uint256"
        },
        {
          "internalType": "uint256",
          "name": "_saleCost",
          "type": "uint256"
        }
      ],
      "name": "royaltyInfo",
      "outputs": [
        {
          "internalType": "address",
          "name": "receiver",
          "type": "address"
        },
        {
          "internalType": "uint256",
          "name": "royaltyAmount",
          "type": "uint256"
        }
      ],
      "stateMutability": "view",
      "type": "function"
    },
    {
      "inputs": [
        {
          "internalType": "address",
          "name": "_from",
          "type": "address"
        },
        {
          "internalType": "address",
          "name": "_to",
          "type": "address"
        },
        {
          "internalType": "uint256[]",
          "name": "_ids",
          "type": "uint256[]"
        },
        {
          "internalType": "uint256[]",
          "name": "_amounts",
          "type": "uint256[]"
        },
        {
          "internalType": "bytes",
          "name": "_data",
          "type": "bytes"
        }
      ],
      "name": "safeBatchTransferFrom",
      "outputs": [],
      "stateMutability": "nonpayable",
      "type": "function"
    },
    {
      "inputs": [
        {
          "internalType": "address",
          "name": "_from",
          "type": "address"
        },
        {
          "internalType": "address",
          "name": "_to",
          "type": "address"
        },
        {
          "internalType": "uint256",
          "name": "_id",
          "type": "uint256"
        },
        {
          "internalType": "uint256",
          "name": "_amount",
          "type": "uint256"
        },
        {
          "internalType": "bytes",
          "name": "_data",
          "type": "bytes"
        }
      ],
      "name": "safeTransferFrom",
      "outputs": [],
      "stateMutability": "nonpayable",
      "type": "function"
    },
    {
      "inputs": [
        {
          "internalType": "address",
          "name": "_operator",
          "type": "address"
        },
        {
          "internalType": "bool",
          "name": "_approved",
          "type": "bool"
        }
      ],
      "name": "setApprovalForAll",
      "outputs": [],
      "stateMutability": "nonpayable",
      "type": "function"
    },
    {
      "inputs": [
        {
          "internalType": "address",
          "name": "_recipient",
          "type": "address"
        },
        {
          "internalType": "uint256",
          "name": "_royaltyBasisPoints",
          "type": "uint256"
        }
      ],
      "name": "setGlobalRoyaltyInfo",
      "outputs": [],
      "stateMutability": "nonpayable",
      "type": "function"
    },
    {
      "inputs": [
        {
          "internalType": "bytes4",
          "name": "_interfaceID",
          "type": "bytes4"
        }
      ],
      "name": "supportsInterface",
      "outputs": [
        {
          "internalType": "bool",
          "name": "",
          "type": "bool"
        }
      ],
      "stateMutability": "pure",
      "type": "function"
    },
    {
      "inputs": [
        {
          "internalType": "uint256",
          "name": "_id",
          "type": "uint256"
        }
      ],
      "name": "uri",
      "outputs": [
        {
          "internalType": "string",
          "name": "",
          "type": "string"
        }
      ],
      "stateMutability": "view",
      "type": "function"
    }
  ],
  "bytecode": "0x60806040523480156200001157600080fd5b50604051620028e0380380620028e0833981016040819052620000349162000146565b81818181600362000046838262000240565b50600262000055828262000240565b5050505050505062000367565b634e487b7160e01b600052604160045260246000fd5b600082601f8301126200008a57600080fd5b815167ffffffffffffffff80821115620000a857620000a862000062565b604051601f83017fffffffffffffffffffffffffffffffffffffffffffffffffffffffffffffffe0908116603f01168101908282118183101715620000f157620000f162000062565b816040528381526020925086838588010111156200010e57600080fd5b600091505b8382101562000132578582018301518183018401529082019062000113565b600093810190920192909252949350505050565b600080604083850312156200015a57600080fd5b825167ffffffffffffffff808211156200017357600080fd5b620001818683870162000078565b935060208501519150808211156200019857600080fd5b50620001a78582860162000078565b9150509250929050565b600181811c90821680620001c657607f821691505b602082108103620001e757634e487b7160e01b600052602260045260246000fd5b50919050565b601f8211156200023b57600081815260208120601f850160051c81016020861015620002165750805b601f850160051c820191505b81811015620002375782815560010162000222565b5050505b505050565b815167ffffffffffffffff8111156200025d576200025d62000062565b62000275816200026e8454620001b1565b84620001ed565b602080601f831160018114620002cb5760008415620002945750858301515b7fffffffffffffffffffffffffffffffffffffffffffffffffffffffffffffffff600386901b1c1916600185901b17855562000237565b6000858152602081207fffffffffffffffffffffffffffffffffffffffffffffffffffffffffffffffe08616915b828110156200031a57888601518255948401946001909101908401620002f9565b50858210156200035757878501517fffffffffffffffffffffffffffffffffffffffffffffffffffffffffffffffff600388901b60f8161c191681555b5050505050600190811b01905550565b61256980620003776000396000f3fe608060405234801561001057600080fd5b506004361061011a5760003560e01c80636c0360eb116100b2578063bd7a6c4111610081578063d7a0ad9011610066578063d7a0ad9014610317578063e985e9c51461032a578063f242432a146103735761011a565b8063bd7a6c41146102e0578063c9823cc6146102f35761011a565b80636c0360eb1461029f57806393cfa682146102a7578063a22cb465146102ba578063a3f091f5146102cd5761011a565b80632a55205a116100ee5780632a55205a146102185780632eb2c2d614610257578063437ecbe91461026c5780634e1273f41461027f5761011a565b8062fdd58e146101a757806301ffc9a7146101cd57806306fdde03146101f05780630e89341c14610205575b6040517f08c379a000000000000000000000000000000000000000000000000000000000815260206004820152602360248201527f455243313135354d696e744275726e4d6f636b3a20494e56414c49445f4d455460448201527f484f44000000000000000000000000000000000000000000000000000000000060648201526084015b60405180910390fd5b6101ba6101b5366004611a6b565b610386565b6040519081526020015b60405180910390f35b6101e06101db366004611ac6565b6103bc565b60405190151581526020016101c4565b6101f86103c7565b6040516101c49190611b51565b6101f8610213366004611b64565b610455565b61022b610226366004611b7d565b610489565b6040805173ffffffffffffffffffffffffffffffffffffffff90931683526020830191909152016101c4565b61026a610265366004611d3a565b6104e4565b005b61026a61027a366004611de4565b610688565b61029261028d366004611e17565b610698565b6040516101c49190611f12565b6101f8610838565b61026a6102b5366004611a6b565b610845565b61026a6102c8366004611f25565b610853565b61026a6102db366004611f61565b6108ea565b61026a6102ee366004611fc2565b6108fc565b60045460055461022b9173ffffffffffffffffffffffffffffffffffffffff169082565b61026a610325366004612036565b610907565b6101e06103383660046120c3565b73ffffffffffffffffffffffffffffffffffffffff918216600090815260016020908152604080832093909416825291909152205460ff1690565b61026a6103813660046120f6565b610913565b73ffffffffffffffffffffffffffffffffffffffff82166000908152602081815260408083208484529091529020545b92915050565b60006103b682610ab0565b600380546103d49061215b565b80601f01602080910402602001604051908101604052809291908181526020018280546104009061215b565b801561044d5780601f106104225761010080835404028352916020019161044d565b820191906000526020600020905b81548152906001019060200180831161043057829003601f168201915b505050505081565b6060600261046283610b0c565b6040516020016104739291906121ca565b6040516020818303038152906040529050919050565b6040805180820190915260045473ffffffffffffffffffffffffffffffffffffffff1680825260055460208301819052600092839290916103e8906104ce9087612306565b6104d8919061234c565b92509250509250929050565b3373ffffffffffffffffffffffffffffffffffffffff86161480610538575073ffffffffffffffffffffffffffffffffffffffff8516600090815260016020908152604080832033845290915290205460ff165b6105c4576040517f08c379a000000000000000000000000000000000000000000000000000000000815260206004820152602f60248201527f45524331313535237361666542617463685472616e7366657246726f6d3a204960448201527f4e56414c49445f4f50455241544f520000000000000000000000000000000000606482015260840161019e565b73ffffffffffffffffffffffffffffffffffffffff8416610667576040517f08c379a000000000000000000000000000000000000000000000000000000000815260206004820152603060248201527f45524331313535237361666542617463685472616e7366657246726f6d3a204960448201527f4e56414c49445f524543495049454e5400000000000000000000000000000000606482015260840161019e565b61067385858585610c59565b610681858585855a86610ebe565b5050505050565b610693838383611047565b505050565b6060815183511461072b576040517f08c379a000000000000000000000000000000000000000000000000000000000815260206004820152602c60248201527f455243313135352362616c616e63654f6642617463683a20494e56414c49445f60448201527f41525241595f4c454e4754480000000000000000000000000000000000000000606482015260840161019e565b6000835167ffffffffffffffff81111561074757610747611b9f565b604051908082528060200260200182016040528015610770578160200160208202803683370190505b50905060005b84518110156108305760008086838151811061079457610794612360565b602002602001015173ffffffffffffffffffffffffffffffffffffffff1673ffffffffffffffffffffffffffffffffffffffff16815260200190815260200160002060008583815181106107ea576107ea612360565b602002602001015181526020019081526020016000205482828151811061081357610813612360565b6020908102919091010152806108288161238f565b915050610776565b509392505050565b600280546103d49061215b565b61084f82826110e5565b5050565b33600081815260016020908152604080832073ffffffffffffffffffffffffffffffffffffffff87168085529083529281902080547fffffffffffffffffffffffffffffffffffffffffffffffffffffffffffffff001686151590811790915590519081529192917f17307eab39ab6107e8899845ad3d59bd9653f200f220920489ca2b5937696c31910160405180910390a35050565b6108f684848484611265565b50505050565b61069383838361130d565b6108f6848484846114d9565b3373ffffffffffffffffffffffffffffffffffffffff86161480610967575073ffffffffffffffffffffffffffffffffffffffff8516600090815260016020908152604080832033845290915290205460ff165b6109f3576040517f08c379a000000000000000000000000000000000000000000000000000000000815260206004820152602a60248201527f4552433131353523736166655472616e7366657246726f6d3a20494e56414c4960448201527f445f4f50455241544f5200000000000000000000000000000000000000000000606482015260840161019e565b73ffffffffffffffffffffffffffffffffffffffff8416610a96576040517f08c379a000000000000000000000000000000000000000000000000000000000815260206004820152602b60248201527f4552433131353523736166655472616e7366657246726f6d3a20494e56414c4960448201527f445f524543495049454e54000000000000000000000000000000000000000000606482015260840161019e565b610aa2858585856116af565b610681858585855a8661178a565b60007fd5aadfa6000000000000000000000000000000000000000000000000000000007fffffffff00000000000000000000000000000000000000000000000000000000831601610b0357506001919050565b6103b682611909565b606081600003610b4f57505060408051808201909152600181527f3000000000000000000000000000000000000000000000000000000000000000602082015290565b818060005b8215610b7a5780610b648161238f565b9150610b739050600a8461234c565b9250610b54565b60008167ffffffffffffffff811115610b9557610b95611b9f565b6040519080825280601f01601f191660200182016040528015610bbf576020820181803683370190505b5090506000610bcf6001846123c7565b90505b8315610c4f57610be3600a856123da565b610bee9060306123ee565b60f81b8282610bfc81612401565b935081518110610c0e57610c0e612360565b60200101907effffffffffffffffffffffffffffffffffffffffffffffffffffffffffffff1916908160001a905350610c48600a8561234c565b9350610bd2565b5095945050505050565b8051825114610cea576040517f08c379a000000000000000000000000000000000000000000000000000000000815260206004820152603560248201527f45524331313535235f7361666542617463685472616e7366657246726f6d3a2060448201527f494e56414c49445f4152524159535f4c454e4754480000000000000000000000606482015260840161019e565b815160005b81811015610e3857828181518110610d0957610d09612360565b60200260200101516000808873ffffffffffffffffffffffffffffffffffffffff1673ffffffffffffffffffffffffffffffffffffffff1681526020019081526020016000206000868481518110610d6357610d63612360565b602002602001015181526020019081526020016000206000828254610d8891906123c7565b92505081905550828181518110610da157610da1612360565b60200260200101516000808773ffffffffffffffffffffffffffffffffffffffff1673ffffffffffffffffffffffffffffffffffffffff1681526020019081526020016000206000868481518110610dfb57610dfb612360565b602002602001015181526020019081526020016000206000828254610e2091906123ee565b90915550819050610e308161238f565b915050610cef565b508373ffffffffffffffffffffffffffffffffffffffff168573ffffffffffffffffffffffffffffffffffffffff163373ffffffffffffffffffffffffffffffffffffffff167f4a39dc06d4c0dbc64b70af90fd698a233a518aa5d07e595d983b8c0526c8f7fb8686604051610eaf929190612436565b60405180910390a45050505050565b610edd8573ffffffffffffffffffffffffffffffffffffffff16611914565b1561103f5760008573ffffffffffffffffffffffffffffffffffffffff1663bc197c8184338a8989886040518763ffffffff1660e01b8152600401610f2695949392919061245b565b60206040518083038160008887f1158015610f45573d6000803e3d6000fd5b50505050506040513d601f19601f82011682018060405250810190610f6a91906124c6565b90507fffffffff0000000000000000000000000000000000000000000000000000000081167fbc197c81000000000000000000000000000000000000000000000000000000001461103d576040517f08c379a000000000000000000000000000000000000000000000000000000000815260206004820152603f60248201527f45524331313535235f63616c6c6f6e455243313135354261746368526563656960448201527f7665643a20494e56414c49445f4f4e5f524543454956455f4d45535341474500606482015260840161019e565b505b505050505050565b73ffffffffffffffffffffffffffffffffffffffff8316600090815260208181526040808320858452909152812080548392906110859084906123c7565b9091555050604080518381526020810183905260009173ffffffffffffffffffffffffffffffffffffffff86169133917fc3d58168c5ae7397731d063d5bbf3d657854427343f4c083240f7aacaa2d0f62910160405180910390a4505050565b73ffffffffffffffffffffffffffffffffffffffff8216611188576040517f08c379a000000000000000000000000000000000000000000000000000000000815260206004820152603160248201527f45524332393831476c6f62616c235f736574476c6f62616c526f79616c74793a60448201527f20524543495049454e545f49535f307830000000000000000000000000000000606482015260840161019e565b6103e881111561121a576040517f08c379a000000000000000000000000000000000000000000000000000000000815260206004820152603960248201527f45524332393831476c6f62616c235f736574476c6f62616c526f79616c74793a60448201527f204645455f49535f41424f56455f3130305f50455243454e5400000000000000606482015260840161019e565b600480547fffffffffffffffffffffffff00000000000000000000000000000000000000001673ffffffffffffffffffffffffffffffffffffffff9390931692909217909155600555565b73ffffffffffffffffffffffffffffffffffffffff8416600090815260208181526040808320868452909152812080548492906112a39084906123ee565b9091555050604080518481526020810184905273ffffffffffffffffffffffffffffffffffffffff86169160009133917fc3d58168c5ae7397731d063d5bbf3d657854427343f4c083240f7aacaa2d0f62910160405180910390a46108f660008585855a8661178a565b81518151811461139f576040517f08c379a000000000000000000000000000000000000000000000000000000000815260206004820152603060248201527f455243313135354d696e744275726e2362617463684275726e3a20494e56414c60448201527f49445f4152524159535f4c454e47544800000000000000000000000000000000606482015260840161019e565b60005b81811015611453578281815181106113bc576113bc612360565b60200260200101516000808773ffffffffffffffffffffffffffffffffffffffff1673ffffffffffffffffffffffffffffffffffffffff168152602001908152602001600020600086848151811061141657611416612360565b60200260200101518152602001908152602001600020600082825461143b91906123c7565b9091555081905061144b8161238f565b9150506113a2565b50600073ffffffffffffffffffffffffffffffffffffffff168473ffffffffffffffffffffffffffffffffffffffff163373ffffffffffffffffffffffffffffffffffffffff167f4a39dc06d4c0dbc64b70af90fd698a233a518aa5d07e595d983b8c0526c8f7fb86866040516114cb929190612436565b60405180910390a450505050565b815183511461156a576040517f08c379a000000000000000000000000000000000000000000000000000000000815260206004820152603060248201527f455243313135354d696e744275726e2362617463684d696e743a20494e56414c60448201527f49445f4152524159535f4c454e47544800000000000000000000000000000000606482015260840161019e565b825160005b818110156116205783818151811061158957611589612360565b60200260200101516000808873ffffffffffffffffffffffffffffffffffffffff1673ffffffffffffffffffffffffffffffffffffffff16815260200190815260200160002060008784815181106115e3576115e3612360565b60200260200101518152602001908152602001600020600082825461160891906123ee565b909155508190506116188161238f565b91505061156f565b508473ffffffffffffffffffffffffffffffffffffffff16600073ffffffffffffffffffffffffffffffffffffffff163373ffffffffffffffffffffffffffffffffffffffff167f4a39dc06d4c0dbc64b70af90fd698a233a518aa5d07e595d983b8c0526c8f7fb8787604051611698929190612436565b60405180910390a461068160008686865a87610ebe565b73ffffffffffffffffffffffffffffffffffffffff8416600090815260208181526040808320858452909152812080548392906116ed9084906123c7565b909155505073ffffffffffffffffffffffffffffffffffffffff8316600090815260208181526040808320858452909152812080548392906117309084906123ee565b9091555050604080518381526020810183905273ffffffffffffffffffffffffffffffffffffffff808616929087169133917fc3d58168c5ae7397731d063d5bbf3d657854427343f4c083240f7aacaa2d0f6291016114cb565b6117a98573ffffffffffffffffffffffffffffffffffffffff16611914565b1561103f5760008573ffffffffffffffffffffffffffffffffffffffff1663f23a6e6184338a8989886040518763ffffffff1660e01b81526004016117f29594939291906124e3565b60206040518083038160008887f1158015611811573d6000803e3d6000fd5b50505050506040513d601f19601f8201168201806040525081019061183691906124c6565b90507fffffffff0000000000000000000000000000000000000000000000000000000081167ff23a6e61000000000000000000000000000000000000000000000000000000001461103d576040517f08c379a000000000000000000000000000000000000000000000000000000000815260206004820152603a60248201527f45524331313535235f63616c6c6f6e4552433131353552656365697665643a2060448201527f494e56414c49445f4f4e5f524543454956455f4d455353414745000000000000606482015260840161019e565b60006103b68261194e565b6000813f801580159061194757507fc5d2460186f7233c927e7db2dcc703c0e500b653ca82273b7bfad8045d85a4708114155b9392505050565b60007ff176cbe4000000000000000000000000000000000000000000000000000000007fffffffff000000000000000000000000000000000000000000000000000000008316016119a157506001919050565b6103b68260007f264985da000000000000000000000000000000000000000000000000000000007fffffffff000000000000000000000000000000000000000000000000000000008316016119f857506001919050565b7f01ffc9a7000000000000000000000000000000000000000000000000000000007fffffffff000000000000000000000000000000000000000000000000000000008316146103b6565b803573ffffffffffffffffffffffffffffffffffffffff81168114611a6657600080fd5b919050565b60008060408385031215611a7e57600080fd5b611a8783611a42565b946020939093013593505050565b7fffffffff0000000000000000000000000000000000000000000000000000000081168114611ac357600080fd5b50565b600060208284031215611ad857600080fd5b813561194781611a95565b60005b83811015611afe578181015183820152602001611ae6565b50506000910152565b60008151808452611b1f816020860160208601611ae3565b601f017fffffffffffffffffffffffffffffffffffffffffffffffffffffffffffffffe0169290920160200192915050565b6020815260006119476020830184611b07565b600060208284031215611b7657600080fd5b5035919050565b60008060408385031215611b9057600080fd5b50508035926020909101359150565b7f4e487b7100000000000000000000000000000000000000000000000000000000600052604160045260246000fd5b604051601f82017fffffffffffffffffffffffffffffffffffffffffffffffffffffffffffffffe016810167ffffffffffffffff81118282101715611c1557611c15611b9f565b604052919050565b600067ffffffffffffffff821115611c3757611c37611b9f565b5060051b60200190565b600082601f830112611c5257600080fd5b81356020611c67611c6283611c1d565b611bce565b82815260059290921b84018101918181019086841115611c8657600080fd5b8286015b84811015611ca15780358352918301918301611c8a565b509695505050505050565b600082601f830112611cbd57600080fd5b813567ffffffffffffffff811115611cd757611cd7611b9f565b611d0860207fffffffffffffffffffffffffffffffffffffffffffffffffffffffffffffffe0601f84011601611bce565b818152846020838601011115611d1d57600080fd5b816020850160208301376000918101602001919091529392505050565b600080600080600060a08688031215611d5257600080fd5b611d5b86611a42565b9450611d6960208701611a42565b9350604086013567ffffffffffffffff80821115611d8657600080fd5b611d9289838a01611c41565b94506060880135915080821115611da857600080fd5b611db489838a01611c41565b93506080880135915080821115611dca57600080fd5b50611dd788828901611cac565b9150509295509295909350565b600080600060608486031215611df957600080fd5b611e0284611a42565b95602085013595506040909401359392505050565b60008060408385031215611e2a57600080fd5b823567ffffffffffffffff80821115611e4257600080fd5b818501915085601f830112611e5657600080fd5b81356020611e66611c6283611c1d565b82815260059290921b84018101918181019089841115611e8557600080fd5b948201945b83861015611eaa57611e9b86611a42565b82529482019490820190611e8a565b96505086013592505080821115611ec057600080fd5b50611ecd85828601611c41565b9150509250929050565b600081518084526020808501945080840160005b83811015611f0757815187529582019590820190600101611eeb565b509495945050505050565b6020815260006119476020830184611ed7565b60008060408385031215611f3857600080fd5b611f4183611a42565b915060208301358015158114611f5657600080fd5b809150509250929050565b60008060008060808587031215611f7757600080fd5b611f8085611a42565b93506020850135925060408501359150606085013567ffffffffffffffff811115611faa57600080fd5b611fb687828801611cac565b91505092959194509250565b600080600060608486031215611fd757600080fd5b611fe084611a42565b9250602084013567ffffffffffffffff80821115611ffd57600080fd5b61200987838801611c41565b9350604086013591508082111561201f57600080fd5b5061202c86828701611c41565b9150509250925092565b6000806000806080858703121561204c57600080fd5b61205585611a42565b9350602085013567ffffffffffffffff8082111561207257600080fd5b61207e88838901611c41565b9450604087013591508082111561209457600080fd5b6120a088838901611c41565b935060608701359150808211156120b657600080fd5b50611fb687828801611cac565b600080604083850312156120d657600080fd5b6120df83611a42565b91506120ed60208401611a42565b90509250929050565b600080600080600060a0868803121561210e57600080fd5b61211786611a42565b945061212560208701611a42565b93506040860135925060608601359150608086013567ffffffffffffffff81111561214f57600080fd5b611dd788828901611cac565b600181811c9082168061216f57607f821691505b6020821081036121a8577f4e487b7100000000000000000000000000000000000000000000000000000000600052602260045260246000fd5b50919050565b600081516121c0818560208601611ae3565b9290920192915050565b600080845481600182811c9150808316806121e657607f831692505b6020808410820361221e577f4e487b710000000000000000000000000000000000000000000000000000000086526022600452602486fd5b818015612232576001811461226557612292565b7fffffffffffffffffffffffffffffffffffffffffffffffffffffffffffffff0086168952841515850289019650612292565b60008b81526020902060005b8681101561228a5781548b820152908501908301612271565b505084890196505b5050505050506122ce6122a582866121ae565b7f2e6a736f6e000000000000000000000000000000000000000000000000000000815260050190565b95945050505050565b7f4e487b7100000000000000000000000000000000000000000000000000000000600052601160045260246000fd5b80820281158282048414176103b6576103b66122d7565b7f4e487b7100000000000000000000000000000000000000000000000000000000600052601260045260246000fd5b60008261235b5761235b61231d565b500490565b7f4e487b7100000000000000000000000000000000000000000000000000000000600052603260045260246000fd5b60007fffffffffffffffffffffffffffffffffffffffffffffffffffffffffffffffff82036123c0576123c06122d7565b5060010190565b818103818111156103b6576103b66122d7565b6000826123e9576123e961231d565b500690565b808201808211156103b6576103b66122d7565b600081612410576124106122d7565b507fffffffffffffffffffffffffffffffffffffffffffffffffffffffffffffffff0190565b6040815260006124496040830185611ed7565b82810360208401526122ce8185611ed7565b600073ffffffffffffffffffffffffffffffffffffffff808816835280871660208401525060a0604083015261249460a0830186611ed7565b82810360608401526124a68186611ed7565b905082810360808401526124ba8185611b07565b98975050505050505050565b6000602082840312156124d857600080fd5b815161194781611a95565b600073ffffffffffffffffffffffffffffffffffffffff808816835280871660208401525084604083015283606083015260a0608083015261252860a0830184611b07565b97965050505050505056fea2646970667358221220009291eafed75deb6cbec74ed9365565c5101f4f2b0e55439c62845754b6576364736f6c63430008120033",
  "linkReferences": {},
  "deployedLinkReferences": {}
}