{
  "_format": "hh-sol-artifact-1",
  "contractName": "ERC1155MetaPackedBalance",
  "sourceName": "contracts/tokens/ERC1155PackedBalance/ERC1155MetaPackedBalance.sol",
  "abi": [
    {
      "anonymous": false,
      "inputs": [
        {
          "indexed": true,
          "internalType": "address",
          "name": "_owner",
          "type": "address"
        },
        {
          "indexed": true,
          "internalType": "address",
          "name": "_operator",
          "type": "address"
        },
        {
          "indexed": false,
          "internalType": "bool",
          "name": "_approved",
          "type": "bool"
        }
      ],
      "name": "ApprovalForAll",
      "type": "event"
    },
    {
      "anonymous": false,
      "inputs": [
        {
          "indexed": true,
          "internalType": "address",
          "name": "signer",
          "type": "address"
        },
        {
          "indexed": false,
          "internalType": "uint256",
          "name": "newNonce",
          "type": "uint256"
        }
      ],
      "name": "NonceChange",
      "type": "event"
    },
    {
      "anonymous": false,
      "inputs": [
        {
          "indexed": true,
          "internalType": "address",
          "name": "_operator",
          "type": "address"
        },
        {
          "indexed": true,
          "internalType": "address",
          "name": "_from",
          "type": "address"
        },
        {
          "indexed": true,
          "internalType": "address",
          "name": "_to",
          "type": "address"
        },
        {
          "indexed": false,
          "internalType": "uint256[]",
          "name": "_ids",
          "type": "uint256[]"
        },
        {
          "indexed": false,
          "internalType": "uint256[]",
          "name": "_amounts",
          "type": "uint256[]"
        }
      ],
      "name": "TransferBatch",
      "type": "event"
    },
    {
      "anonymous": false,
      "inputs": [
        {
          "indexed": true,
          "internalType": "address",
          "name": "_operator",
          "type": "address"
        },
        {
          "indexed": true,
          "internalType": "address",
          "name": "_from",
          "type": "address"
        },
        {
          "indexed": true,
          "internalType": "address",
          "name": "_to",
          "type": "address"
        },
        {
          "indexed": false,
          "internalType": "uint256",
          "name": "_id",
          "type": "uint256"
        },
        {
          "indexed": false,
          "internalType": "uint256",
          "name": "_amount",
          "type": "uint256"
        }
      ],
      "name": "TransferSingle",
      "type": "event"
    },
    {
      "inputs": [
        {
          "internalType": "address",
          "name": "_owner",
          "type": "address"
        },
        {
          "internalType": "uint256",
          "name": "_id",
          "type": "uint256"
        }
      ],
      "name": "balanceOf",
      "outputs": [
        {
          "internalType": "uint256",
          "name": "",
          "type": "uint256"
        }
      ],
      "stateMutability": "view",
      "type": "function"
    },
    {
      "inputs": [
        {
          "internalType": "address[]",
          "name": "_owners",
          "type": "address[]"
        },
        {
          "internalType": "uint256[]",
          "name": "_ids",
          "type": "uint256[]"
        }
      ],
      "name": "balanceOfBatch",
      "outputs": [
        {
          "internalType": "uint256[]",
          "name": "",
          "type": "uint256[]"
        }
      ],
      "stateMutability": "view",
      "type": "function"
    },
    {
      "inputs": [
        {
          "internalType": "uint256",
          "name": "_id",
          "type": "uint256"
        }
      ],
      "name": "getIDBinIndex",
      "outputs": [
        {
          "internalType": "uint256",
          "name": "bin",
          "type": "uint256"
        },
        {
          "internalType": "uint256",
          "name": "index",
          "type": "uint256"
        }
      ],
      "stateMutability": "pure",
      "type": "function"
    },
    {
      "inputs": [
        {
          "internalType": "address",
          "name": "_signer",
          "type": "address"
        }
      ],
      "name": "getNonce",
      "outputs": [
        {
          "internalType": "uint256",
          "name": "nonce",
          "type": "uint256"
        }
      ],
      "stateMutability": "view",
      "type": "function"
    },
    {
      "inputs": [
        {
          "internalType": "uint256",
          "name": "_binValues",
          "type": "uint256"
        },
        {
          "internalType": "uint256",
          "name": "_index",
          "type": "uint256"
        }
      ],
      "name": "getValueInBin",
      "outputs": [
        {
          "internalType": "uint256",
          "name": "",
          "type": "uint256"
        }
      ],
      "stateMutability": "pure",
      "type": "function"
    },
    {
      "inputs": [
        {
          "internalType": "address",
          "name": "_owner",
          "type": "address"
        },
        {
          "internalType": "address",
          "name": "_operator",
          "type": "address"
        }
      ],
      "name": "isApprovedForAll",
      "outputs": [
        {
          "internalType": "bool",
          "name": "isOperator",
          "type": "bool"
        }
      ],
      "stateMutability": "view",
      "type": "function"
    },
    {
      "inputs": [
        {
          "internalType": "address",
          "name": "_signerAddress",
          "type": "address"
        },
        {
          "internalType": "bytes32",
          "name": "_hash",
          "type": "bytes32"
        },
        {
          "internalType": "bytes",
          "name": "_data",
          "type": "bytes"
        },
        {
          "internalType": "bytes",
          "name": "_sig",
          "type": "bytes"
        }
      ],
      "name": "isValidSignature",
      "outputs": [
        {
          "internalType": "bool",
          "name": "isValid",
          "type": "bool"
        }
      ],
      "stateMutability": "view",
      "type": "function"
    },
    {
      "inputs": [
        {
          "internalType": "address",
          "name": "_from",
          "type": "address"
        },
        {
          "internalType": "address",
          "name": "_to",
          "type": "address"
        },
        {
          "internalType": "uint256[]",
          "name": "_ids",
          "type": "uint256[]"
        },
        {
          "internalType": "uint256[]",
          "name": "_amounts",
          "type": "uint256[]"
        },
        {
          "internalType": "bool",
          "name": "_isGasFee",
          "type": "bool"
        },
        {
          "internalType": "bytes",
          "name": "_data",
          "type": "bytes"
        }
      ],
      "name": "metaSafeBatchTransferFrom",
      "outputs": [],
      "stateMutability": "nonpayable",
      "type": "function"
    },
    {
      "inputs": [
        {
          "internalType": "address",
          "name": "_from",
          "type": "address"
        },
        {
          "internalType": "address",
          "name": "_to",
          "type": "address"
        },
        {
          "internalType": "uint256",
          "name": "_id",
          "type": "uint256"
        },
        {
          "internalType": "uint256",
          "name": "_amount",
          "type": "uint256"
        },
        {
          "internalType": "bool",
          "name": "_isGasFee",
          "type": "bool"
        },
        {
          "internalType": "bytes",
          "name": "_data",
          "type": "bytes"
        }
      ],
      "name": "metaSafeTransferFrom",
      "outputs": [],
      "stateMutability": "nonpayable",
      "type": "function"
    },
    {
      "inputs": [
        {
          "internalType": "address",
          "name": "_owner",
          "type": "address"
        },
        {
          "internalType": "address",
          "name": "_operator",
          "type": "address"
        },
        {
          "internalType": "bool",
          "name": "_approved",
          "type": "bool"
        },
        {
          "internalType": "bool",
          "name": "_isGasFee",
          "type": "bool"
        },
        {
          "internalType": "bytes",
          "name": "_data",
          "type": "bytes"
        }
      ],
      "name": "metaSetApprovalForAll",
      "outputs": [],
      "stateMutability": "nonpayable",
      "type": "function"
    },
    {
      "inputs": [
        {
          "internalType": "address",
          "name": "_from",
          "type": "address"
        },
        {
          "internalType": "address",
          "name": "_to",
          "type": "address"
        },
        {
          "internalType": "uint256[]",
          "name": "_ids",
          "type": "uint256[]"
        },
        {
          "internalType": "uint256[]",
          "name": "_amounts",
          "type": "uint256[]"
        },
        {
          "internalType": "bytes",
          "name": "_data",
          "type": "bytes"
        }
      ],
      "name": "safeBatchTransferFrom",
      "outputs": [],
      "stateMutability": "nonpayable",
      "type": "function"
    },
    {
      "inputs": [
        {
          "internalType": "address",
          "name": "_from",
          "type": "address"
        },
        {
          "internalType": "address",
          "name": "_to",
          "type": "address"
        },
        {
          "internalType": "uint256",
          "name": "_id",
          "type": "uint256"
        },
        {
          "internalType": "uint256",
          "name": "_amount",
          "type": "uint256"
        },
        {
          "internalType": "bytes",
          "name": "_data",
          "type": "bytes"
        }
      ],
      "name": "safeTransferFrom",
      "outputs": [],
      "stateMutability": "nonpayable",
      "type": "function"
    },
    {
      "inputs": [
        {
          "internalType": "address",
          "name": "_operator",
          "type": "address"
        },
        {
          "internalType": "bool",
          "name": "_approved",
          "type": "bool"
        }
      ],
      "name": "setApprovalForAll",
      "outputs": [],
      "stateMutability": "nonpayable",
      "type": "function"
    },
    {
      "inputs": [
        {
          "internalType": "bytes4",
          "name": "_interfaceID",
          "type": "bytes4"
        }
      ],
      "name": "supportsInterface",
      "outputs": [
        {
          "internalType": "bool",
          "name": "",
          "type": "bool"
        }
      ],
      "stateMutability": "pure",
      "type": "function"
    }
  ],
  "bytecode": "0x608060405234801561001057600080fd5b506138d1806100206000396000f3fe608060405234801561001057600080fd5b50600436106100e95760003560e01c8063ce0b514b1161008c578063eaec5f8111610066578063eaec5f81146101ec578063f242432a146101ff578063f5d4c82014610212578063fa4e12d714610225576100e9565b8063ce0b514b146101a5578063db90e83c146101b8578063e985e9c5146101d9576100e9565b80632eb2c2d6116100c85780632eb2c2d61461014a5780634e1273f41461015f578063a22cb4651461017f578063a3d4926e14610192576100e9565b8062fdd58e146100ee57806301ffc9a7146101175780632d0335ab14610137575b600080fd5b6101016100fc366004612ccb565b610238565b60405161010e9190613339565b60405180910390f35b61012a610125366004612dd5565b61028d565b60405161010e919061305b565b6101016101453660046128d1565b6102f2565b61015d610158366004612a2b565b61031a565b005b61017261016d366004612cf6565b610425565b60405161010e9190613017565b61015d61018d366004612c21565b6106a4565b61015d6101a036600461296e565b61073d565b61015d6101b3366004612b4e565b6108ba565b6101cb6101c6366004612ed4565b610999565b60405161010e929190613342565b61012a6101e7366004612936565b6109a6565b6101016101fa366004612eec565b6109e1565b61015d61020d366004612bc6565b6109f4565b61015d610220366004612ad5565b610af8565b61012a610233366004612c4e565b610c28565b600080600061024684610999565b73ffffffffffffffffffffffffffffffffffffffff8716600090815260208181526040808320858452909152902054919350915061028490826109e1565b95945050505050565b60007fffffffff0000000000000000000000000000000000000000000000000000000082167fd9b67a260000000000000000000000000000000000000000000000000000000014156102e1575060016102ed565b6102ea82611409565b90505b919050565b73ffffffffffffffffffffffffffffffffffffffff1660009081526002602052604090205490565b3373ffffffffffffffffffffffffffffffffffffffff86161480610343575061034385336109a6565b610398576040517f08c379a000000000000000000000000000000000000000000000000000000000815260040180806020018281038252603c815260200180613682603c913960400191505060405180910390fd5b73ffffffffffffffffffffffffffffffffffffffff8416610404576040517f08c379a000000000000000000000000000000000000000000000000000000000815260040180806020018281038252603d81526020018061346f603d913960400191505060405180910390fd5b61041085858585611453565b61041e858585855a86611860565b5050505050565b81518151606091908114610484576040517f08c379a00000000000000000000000000000000000000000000000000000000081526004018080602001828103825260398152602001806134366039913960400191505060405180910390fd5b6000806104a48560008151811061049757fe5b6020026020010151610999565b915091506000806000886000815181106104ba57fe5b602002602001015173ffffffffffffffffffffffffffffffffffffffff1673ffffffffffffffffffffffffffffffffffffffff1681526020019081526020016000206000848152602001908152602001600020549050600083905060608567ffffffffffffffff8111801561052e57600080fd5b50604051908082528060200260200182016040528015610558578160200160208202803683370190505b50905061056583856109e1565b8160008151811061057257fe5b602090810291909101015260015b868110156106975761059789828151811061049757fe5b9096509450828614158061060057508981815181106105b257fe5b602002602001015173ffffffffffffffffffffffffffffffffffffffff168a60018303815181106105df57fe5b602002602001015173ffffffffffffffffffffffffffffffffffffffff1614155b1561066e576000808b838151811061061457fe5b602002602001015173ffffffffffffffffffffffffffffffffffffffff1673ffffffffffffffffffffffffffffffffffffffff16815260200190815260200160002060008781526020019081526020016000205493508592505b61067884866109e1565b82828151811061068457fe5b6020908102919091010152600101610580565b5098975050505050505050565b33600081815260016020908152604080832073ffffffffffffffffffffffffffffffffffffffff87168085529083529281902080547fffffffffffffffffffffffffffffffffffffffffffffffffffffffffffffff0016861515908117909155815190815290519293927f17307eab39ab6107e8899845ad3d59bd9653f200f220920489ca2b5937696c31929181900390910190a35050565b73ffffffffffffffffffffffffffffffffffffffff8516610793576040517f08c379a000000000000000000000000000000000000000000000000000000000815260040161078a90613259565b60405180910390fd5b606061079d612702565b606061085089857fa3d4926e8cf8fe8e020cd29f514c256bc2eec62aa2337e415f1a33a4828af5a060001b8c8c8c6040516020016107db9190612f0d565b604051602081830303815290604052805190602001208c6040516020016108029190612f0d565b604051602081830303815290604052805190602001208c610824576000610827565b60015b60405160200161083c96959493929190613066565b604051602081830303815290604052611acd565b905061085e89898989611453565b84156108a157808060200190518101906108789190612e9f565b809450819350505061089289898989866020015188611860565b61089c8983611c9c565b6108af565b6108af898989895a86611860565b505050505050505050565b73ffffffffffffffffffffffffffffffffffffffff8516610907576040517f08c379a000000000000000000000000000000000000000000000000000000000815260040161078a906131fb565b6060610911612702565b606061094989857fce0b514b3931bdbe4d5d44e4f035afe7113767b7db71949271f6a62d9c60f558828c8c8c8c610824576000610827565b905061095789898989611f45565b841561098b57808060200190518101906109719190612e9f565b809450819350505061089289898989866020015188611fe9565b6108af898989895a86611fe9565b6008810491600790911690565b73ffffffffffffffffffffffffffffffffffffffff918216600090815260016020908152604080832093909416825291909152205460ff1690565b6020810282901c63ffffffff1692915050565b3373ffffffffffffffffffffffffffffffffffffffff86161480610a1d5750610a1d85336109a6565b610a72576040517f08c379a00000000000000000000000000000000000000000000000000000000081526004018080602001828103825260378152602001806135506037913960400191505060405180910390fd5b73ffffffffffffffffffffffffffffffffffffffff8416610ade576040517f08c379a00000000000000000000000000000000000000000000000000000000081526004018080602001828103825260388152602001806137b16038913960400191505060405180910390fd5b610aea85858585611f45565b61041e858585855a86611fe9565b6060610b5486837ff5d4c820494c8595de274c7ff619bead38aac4fbc3d143b5bf956aa4b84fa524828989610b2e576000610b31565b60015b89610b3d576000610b40565b60015b60405160200161083c9594939291906130a7565b73ffffffffffffffffffffffffffffffffffffffff8781166000818152600160209081526040808320948b16808452949091529081902080547fffffffffffffffffffffffffffffffffffffffffffffffffffffffffffffff00168915151790555192935090917f17307eab39ab6107e8899845ad3d59bd9653f200f220920489ca2b5937696c3190610be890889061305b565b60405180910390a38215610c2057610bfe612702565b81806020019051810190610c129190612e6c565b9050610c1e8782611c9c565b505b505050505050565b600080825111610c83576040517f08c379a000000000000000000000000000000000000000000000000000000000815260040180806020018281038252604381526020018061376e6043913960600191505060405180910390fd5b73ffffffffffffffffffffffffffffffffffffffff8516610cef576040517f08c379a00000000000000000000000000000000000000000000000000000000081526004018080602001828103825260338152602001806136f46033913960400191505060405180910390fd5b6000610cfa836121da565b60f81c905060058110610d58576040517f08c379a000000000000000000000000000000000000000000000000000000000815260040180806020018281038252603a815260200180613516603a913960400191505060405180910390fd5b60008160ff166005811115610d6957fe5b9050600080808080856005811115610d7d57fe5b1415610dd4576040517f08c379a00000000000000000000000000000000000000000000000000000000081526004018080602001828103825260368152602001806135876036913960400191505060405180910390fd5b6001856005811115610de257fe5b1415610f25578751606114610e42576040517f08c379a000000000000000000000000000000000000000000000000000000000815260040180806020018281038252603781526020018061364b6037913960400191505060405180910390fd5b610e4d886000612297565b9250610e5a886020612297565b915087604081518110610e6957fe5b602001015160f81c60f81b60f81c935060018a85858560405160008152602001604052604051808581526020018460ff1681526020018381526020018281526020019450505050506020604051602081039080840390855afa158015610ed3573d6000803e3d6000fd5b50506040517fffffffffffffffffffffffffffffffffffffffffffffffffffffffffffffffe0015173ffffffffffffffffffffffffffffffffffffffff8d811691161497506114019650505050505050565b6002856005811115610f3357fe5b1415611083578751606114610f93576040517f08c379a000000000000000000000000000000000000000000000000000000000815260040180806020018281038252603781526020018061364b6037913960400191505060405180910390fd5b610f9e886000612297565b9250610fab886020612297565b915087604081518110610fba57fe5b01602090810151604080517f19457468657265756d205369676e6564204d6573736167653a0a33320000000081850152603c8082018f905282518083039091018152605c82018084528151918601919091206000909152607c82018084525260f89290921c609c830181905260bc830187905260dc8301869052905190965060019260fc8084019391927fffffffffffffffffffffffffffffffffffffffffffffffffffffffffffffffe081019281900390910190855afa158015610ed3573d6000803e3d6000fd5b600385600581111561109157fe5b141561124957604080517f20c13b0b000000000000000000000000000000000000000000000000000000008152600481019182528a5160448201528a5173ffffffffffffffffffffffffffffffffffffffff8e16926320c13b0b928d928d92918291602482019160640190602087019080838360005b8381101561111f578181015183820152602001611107565b50505050905090810190601f16801561114c5780820380516001836020036101000a031916815260200191505b50838103825284518152845160209182019186019080838360005b8381101561117f578181015183820152602001611167565b50505050905090810190601f1680156111ac5780820380516001836020036101000a031916815260200191505b5094505050505060206040518083038186803b1580156111cb57600080fd5b505afa1580156111df573d6000803e3d6000fd5b505050506040513d60208110156111f557600080fd5b50517fffffffff00000000000000000000000000000000000000000000000000000000167f20c13b0b0000000000000000000000000000000000000000000000000000000014965061140195505050505050565b600485600581111561125757fe5b14156113b057604080517f1626ba7e000000000000000000000000000000000000000000000000000000008152600481018c8152602482019283528a5160448301528a5173ffffffffffffffffffffffffffffffffffffffff8f1693631626ba7e938f938e9390929160640190602085019080838360005b838110156112e75781810151838201526020016112cf565b50505050905090810190601f1680156113145780820380516001836020036101000a031916815260200191505b50935050505060206040518083038186803b15801561133257600080fd5b505afa158015611346573d6000803e3d6000fd5b505050506040513d602081101561135c57600080fd5b50517fffffffff00000000000000000000000000000000000000000000000000000000167f1626ba7e0000000000000000000000000000000000000000000000000000000014965061140195505050505050565b6040517f08c379a000000000000000000000000000000000000000000000000000000000815260040180806020018281038252603a815260200180613516603a913960400191505060405180910390fd5b949350505050565b7fffffffff0000000000000000000000000000000000000000000000000000000081167f01ffc9a70000000000000000000000000000000000000000000000000000000014919050565b8151815181146114ae576040517f08c379a00000000000000000000000000000000000000000000000000000000081526004018080602001828103825260428152602001806135bd6042913960600191505060405180910390fd5b8373ffffffffffffffffffffffffffffffffffffffff168573ffffffffffffffffffffffffffffffffffffffff16141580156114ea5750600081115b156116bc576000806115028560008151811061049757fe5b73ffffffffffffffffffffffffffffffffffffffff891660009081526020818152604080832085845290915281205487519395509193509161155a919084908890859061154b57fe5b602002602001015160016122ff565b73ffffffffffffffffffffffffffffffffffffffff8816600090815260208181526040808320878452909152812054875192935090916115b091908590899085906115a157fe5b602002602001015160006122ff565b90508360015b8681101561166a576115cd89828151811061049757fe5b909650945081861461163c5773ffffffffffffffffffffffffffffffffffffffff8b811660009081526020818152604080832086845280835281842098909855928d16825281815282822094825284815282822095909555878152948452808520549290935291909220549084905b61164d84868a848151811061154b57fe5b935061166083868a84815181106115a157fe5b92506001016115b6565b505073ffffffffffffffffffffffffffffffffffffffff808a16600090815260208181526040808320888452825280832095909555918a16815280825283812095815294905292209190915550611759565b60005b81811015611757578281815181106116d357fe5b60200260200101516116f8878684815181106116eb57fe5b6020026020010151610238565b101561174f576040517f08c379a00000000000000000000000000000000000000000000000000000000081526004018080602001828103825260368152602001806136be6036913960400191505060405180910390fd5b6001016116bf565b505b8373ffffffffffffffffffffffffffffffffffffffff168573ffffffffffffffffffffffffffffffffffffffff163373ffffffffffffffffffffffffffffffffffffffff167f4a39dc06d4c0dbc64b70af90fd698a233a518aa5d07e595d983b8c0526c8f7fb8686604051808060200180602001838103835285818151815260200191508051906020019060200280838360005b838110156118055781810151838201526020016117ed565b50505050905001838103825284818151815260200191508051906020019060200280838360005b8381101561184457818101518382015260200161182c565b5050505090500194505050505060405180910390a45050505050565b61187f8573ffffffffffffffffffffffffffffffffffffffff16612512565b15610c205760008573ffffffffffffffffffffffffffffffffffffffff1663bc197c8184338a8989886040518763ffffffff1660e01b8152600401808673ffffffffffffffffffffffffffffffffffffffff1681526020018573ffffffffffffffffffffffffffffffffffffffff168152602001806020018060200180602001848103845287818151815260200191508051906020019060200280838360005b8381101561193757818101518382015260200161191f565b50505050905001848103835286818151815260200191508051906020019060200280838360005b8381101561197657818101518382015260200161195e565b50505050905001848103825285818151815260200191508051906020019080838360005b838110156119b257818101518382015260200161199a565b50505050905090810190601f1680156119df5780820380516001836020036101000a031916815260200191505b5098505050505050505050602060405180830381600088803b158015611a0457600080fd5b5087f1158015611a18573d6000803e3d6000fd5b50505050506040513d6020811015611a2f57600080fd5b505190507fffffffff0000000000000000000000000000000000000000000000000000000081167fbc197c810000000000000000000000000000000000000000000000000000000014610c1e576040517f08c379a000000000000000000000000000000000000000000000000000000000815260040180806020018281038252604c8152602001806135ff604c913960600191505060405180910390fd5b60608083806020019051810190611ae49190612e15565b73ffffffffffffffffffffffffffffffffffffffff871660009081526002602052604081205491945091925090611b1c836041612297565b9050818110801590611b3057508160640181105b611b66576040517f08c379a000000000000000000000000000000000000000000000000000000000815260040161078a90613140565b6000611ba286838780519060200120604051602001611b8793929190612f43565b6040516020818303038152906040528051906020012061254c565b90506060868387604051602001611bbb93929190612f6a565b604080517fffffffffffffffffffffffffffffffffffffffffffffffffffffffffffffffe081840301815282825273ffffffffffffffffffffffffffffffffffffffff8c166000818152600260205292909220600187019081905590935090917fb861b7bdbe611a846ab271b8d2810391bc8b5a968f390c322438ecab66bccf5991611c4691613339565b60405180910390a2611c5a89838388610c28565b611c90576040517f08c379a000000000000000000000000000000000000000000000000000000000815260040161078a9061319d565b50505050509392505050565b6000611cab82606001516121da565b60f81c905060028110611cea576040517f08c379a000000000000000000000000000000000000000000000000000000000815260040161078a906132dc565b60008160ff166002811115611cfb57fe5b835160408501519192506000918291829173ffffffffffffffffffffffffffffffffffffffff1615611d31578660400151611d33565b335b92506000856002811115611d4357fe5b1415611e42578660600151806020019051810190611d619190612909565b909450915073ffffffffffffffffffffffffffffffffffffffff8416301415611db257611d9088848484611f45565b611dad8884845a8560405180602001604052806000815250611fe9565b611e3d565b6040517ff242432a00000000000000000000000000000000000000000000000000000000815273ffffffffffffffffffffffffffffffffffffffff85169063f242432a90611e0a908b90879087908790600401612fd2565b600060405180830381600087803b158015611e2457600080fd5b505af1158015611e38573d6000803e3d6000fd5b505050505b611f3b565b8660600151806020019051810190611e5a91906128ed565b6040517f23b872dd00000000000000000000000000000000000000000000000000000000815290945073ffffffffffffffffffffffffffffffffffffffff8516906323b872dd90611eb3908b9087908690600401612fa1565b602060405180830381600087803b158015611ecd57600080fd5b505af1158015611ee1573d6000803e3d6000fd5b505050506040513d601f19601f82011682018060405250810190611f059190612db9565b611f3b576040517f08c379a000000000000000000000000000000000000000000000000000000000815260040161078a906130e3565b5050505050505050565b611f52848383600161267b565b611f5f838383600061267b565b8273ffffffffffffffffffffffffffffffffffffffff168473ffffffffffffffffffffffffffffffffffffffff163373ffffffffffffffffffffffffffffffffffffffff167fc3d58168c5ae7397731d063d5bbf3d657854427343f4c083240f7aacaa2d0f628585604051808381526020018281526020019250505060405180910390a450505050565b6120088573ffffffffffffffffffffffffffffffffffffffff16612512565b15610c205760008573ffffffffffffffffffffffffffffffffffffffff1663f23a6e6184338a8989886040518763ffffffff1660e01b8152600401808673ffffffffffffffffffffffffffffffffffffffff1681526020018573ffffffffffffffffffffffffffffffffffffffff16815260200184815260200183815260200180602001828103825283818151815260200191508051906020019080838360005b838110156120c15781810151838201526020016120a9565b50505050905090810190601f1680156120ee5780820380516001836020036101000a031916815260200191505b509650505050505050602060405180830381600088803b15801561211157600080fd5b5087f1158015612125573d6000803e3d6000fd5b50505050506040513d602081101561213c57600080fd5b505190507fffffffff0000000000000000000000000000000000000000000000000000000081167ff23a6e610000000000000000000000000000000000000000000000000000000014610c1e576040517f08c379a00000000000000000000000000000000000000000000000000000000081526004018080602001828103825260478152602001806137276047913960600191505060405180910390fd5b600080825111612235576040517f08c379a00000000000000000000000000000000000000000000000000000000081526004018080602001828103825260378152602001806134ac6037913960400191505060405180910390fd5b8160018351038151811061224557fe5b016020015182517fffffffffffffffffffffffffffffffffffffffffffffffffffffffffffffffff01909252507fff000000000000000000000000000000000000000000000000000000000000001690565b600081602001835110156122f6576040517f08c379a000000000000000000000000000000000000000000000000000000000815260040180806020018281038252603c8152602001806137e9603c913960400191505060405180910390fd5b50016020015190565b60006020840263ffffffff8284600181111561231757fe5b14156123e55784821b870192508683101561237d576040517f08c379a000000000000000000000000000000000000000000000000000000000815260040180806020018281038252603281526020018061386a6032913960400191505060405180910390fd5b64010000000087831c82168601106123e0576040517f08c379a000000000000000000000000000000000000000000000000000000000815260040180806020018281038252603281526020018061386a6032913960400191505060405180910390fd5b612508565b60018460018111156123f357fe5b14156124b75784821b8703925086831115612459576040517f08c379a00000000000000000000000000000000000000000000000000000000081526004018080602001828103825260338152602001806134e36033913960400191505060405180910390fd5b84818389901c1610156123e0576040517f08c379a00000000000000000000000000000000000000000000000000000000081526004018080602001828103825260338152602001806134e36033913960400191505060405180910390fd5b6040517f08c379a00000000000000000000000000000000000000000000000000000000081526004018080602001828103825260458152602001806138256045913960600191505060405180910390fd5b5050949350505050565b6000813f801580159061254557507fc5d2460186f7233c927e7db2dcc703c0e500b653ca82273b7bfad8045d85a4708114155b9392505050565b604080518082018252600281527f1901000000000000000000000000000000000000000000000000000000000000602080830191825283517f035aff83d86937d35b32e04f0ddc6ff469290eef2f1b692d8a815c89404d47498183015230818601528451808203860181526060820190955284519490910193909320825160009491928692608001918291908083835b6020831061261957805182527fffffffffffffffffffffffffffffffffffffffffffffffffffffffffffffffe090920191602091820191016125dc565b51815160209384036101000a7fffffffffffffffffffffffffffffffffffffffffffffffffffffffffffffffff018019909216911617905292019485525083810192909252506040805180840383018152928101905281519101209392505050565b60008061268785610999565b73ffffffffffffffffffffffffffffffffffffffff881660009081526020818152604080832085845290915290205491935091506126c7908286866122ff565b73ffffffffffffffffffffffffffffffffffffffff909616600090815260208181526040808320948352939052919091209490945550505050565b60405180608001604052806000815260200160008152602001600073ffffffffffffffffffffffffffffffffffffffff168152602001606081525090565b600082601f830112612750578081fd5b813561276361275e82613374565b613350565b81815291506020808301908481018184028601820187101561278457600080fd5b60005b848110156127a357813584529282019290820190600101612787565b505050505092915050565b600082601f8301126127be578081fd5b81356127cc61275e82613392565b91508082528360208285010111156127e357600080fd5b8060208401602084013760009082016020015292915050565b600082601f83011261280c578081fd5b815161281a61275e82613392565b915080825283602082850101111561283157600080fd5b6128428160208401602086016133d2565b5092915050565b60006080828403121561285a578081fd5b6040516080810167ffffffffffffffff828210818311171561287857fe5b8160405282935084518352602085015160208401526040850151915061289d82613402565b81604084015260608501519150808211156128b757600080fd5b506128c4858286016127fc565b6060830152505092915050565b6000602082840312156128e2578081fd5b813561254581613402565b6000602082840312156128fe578081fd5b815161254581613402565b6000806040838503121561291b578081fd5b825161292681613402565b6020939093015192949293505050565b60008060408385031215612948578182fd5b823561295381613402565b9150602083013561296381613402565b809150509250929050565b60008060008060008060c08789031215612986578182fd5b863561299181613402565b955060208701356129a181613402565b9450604087013567ffffffffffffffff808211156129bd578384fd5b6129c98a838b01612740565b955060608901359150808211156129de578384fd5b6129ea8a838b01612740565b9450608089013591506129fc82613427565b90925060a08801359080821115612a11578283fd5b50612a1e89828a016127ae565b9150509295509295509295565b600080600080600060a08688031215612a42578081fd5b8535612a4d81613402565b94506020860135612a5d81613402565b9350604086013567ffffffffffffffff80821115612a79578283fd5b612a8589838a01612740565b94506060880135915080821115612a9a578283fd5b612aa689838a01612740565b93506080880135915080821115612abb578283fd5b50612ac8888289016127ae565b9150509295509295909350565b600080600080600060a08688031215612aec578081fd5b8535612af781613402565b94506020860135612b0781613402565b93506040860135612b1781613427565b92506060860135612b2781613427565b9150608086013567ffffffffffffffff811115612b42578182fd5b612ac8888289016127ae565b60008060008060008060c08789031215612b66578384fd5b8635612b7181613402565b95506020870135612b8181613402565b945060408701359350606087013592506080870135612b9f81613427565b915060a087013567ffffffffffffffff811115612bba578182fd5b612a1e89828a016127ae565b600080600080600060a08688031215612bdd578283fd5b8535612be881613402565b94506020860135612bf881613402565b93506040860135925060608601359150608086013567ffffffffffffffff811115612b42578182fd5b60008060408385031215612c33578182fd5b8235612c3e81613402565b9150602083013561296381613427565b60008060008060808587031215612c63578182fd5b8435612c6e81613402565b935060208501359250604085013567ffffffffffffffff80821115612c91578384fd5b612c9d888389016127ae565b93506060870135915080821115612cb2578283fd5b50612cbf878288016127ae565b91505092959194509250565b60008060408385031215612cdd578182fd5b8235612ce881613402565b946020939093013593505050565b60008060408385031215612d08578182fd5b823567ffffffffffffffff80821115612d1f578384fd5b818501915085601f830112612d32578384fd5b8135612d4061275e82613374565b80828252602080830192508086018a828387028901011115612d60578889fd5b8896505b84871015612d8b578035612d7781613402565b845260019690960195928101928101612d64565b509096508701359350505080821115612da2578283fd5b50612daf85828601612740565b9150509250929050565b600060208284031215612dca578081fd5b815161254581613427565b600060208284031215612de6578081fd5b81357fffffffff0000000000000000000000000000000000000000000000000000000081168114612545578182fd5b60008060408385031215612e27578182fd5b825167ffffffffffffffff80821115612e3e578384fd5b612e4a868387016127fc565b93506020850151915080821115612e5f578283fd5b50612daf858286016127fc565b600060208284031215612e7d578081fd5b815167ffffffffffffffff811115612e93578182fd5b61140184828501612849565b60008060408385031215612eb1578182fd5b825167ffffffffffffffff80821115612ec8578384fd5b612e4a86838701612849565b600060208284031215612ee5578081fd5b5035919050565b60008060408385031215612efe578182fd5b50508035926020909101359150565b815160009082906020808601845b83811015612f3757815185529382019390820190600101612f1b565b50929695505050505050565b60008451612f558184602089016133d2565b91909101928352506020820152604001919050565b60008451612f7c8184602089016133d2565b82018481528351612f948160208085019088016133d2565b0160200195945050505050565b73ffffffffffffffffffffffffffffffffffffffff9384168152919092166020820152604081019190915260600190565b73ffffffffffffffffffffffffffffffffffffffff94851681529290931660208301526040820152606081019190915260a06080820181905260009082015260c00190565b6020808252825182820181905260009190848201906040850190845b8181101561304f57835183529284019291840191600101613033565b50909695505050505050565b901515815260200190565b95865273ffffffffffffffffffffffffffffffffffffffff94851660208701529290931660408501526060840152608083019190915260a082015260c00190565b94855273ffffffffffffffffffffffffffffffffffffffff93841660208601529190921660408401526060830191909152608082015260a00190565b6020808252603f908201527f455243313135354d6574615061636b656442616c616e6365235f7472616e736660408201527f65724761734665653a2045524332305f5452414e534645525f4641494c454400606082015260800190565b6020808252603c908201527f455243313135354d6574615061636b656442616c616e6365235f7369676e617460408201527f75726556616c69646174696f6e3a20494e56414c49445f4e4f4e434500000000606082015260800190565b602080825260409082018190527f455243313135354d6574615061636b656442616c616e6365235f7369676e6174908201527f75726556616c69646174696f6e3a20494e56414c49445f5349474e4154555245606082015260800190565b602080825260409082018190527f455243313135354d6574615061636b656442616c616e6365236d657461536166908201527f655472616e7366657246726f6d3a20494e56414c49445f524543495049454e54606082015260800190565b60208082526045908201527f455243313135354d6574615061636b656442616c616e6365236d65746153616660408201527f6542617463685472616e7366657246726f6d3a20494e56414c49445f5245434960608201527f5049454e54000000000000000000000000000000000000000000000000000000608082015260a00190565b6020808252603b908201527f455243313135354d6574615061636b656442616c616e6365235f7472616e736660408201527f65724761734665653a20554e535550504f525445445f544f4b454e0000000000606082015260800190565b90815260200190565b918252602082015260400190565b60405181810167ffffffffffffffff8111828210171561336c57fe5b604052919050565b600067ffffffffffffffff82111561338857fe5b5060209081020190565b600067ffffffffffffffff8211156133a657fe5b50601f017fffffffffffffffffffffffffffffffffffffffffffffffffffffffffffffffe01660200190565b60005b838110156133ed5781810151838201526020016133d5565b838111156133fc576000848401525b50505050565b73ffffffffffffffffffffffffffffffffffffffff8116811461342457600080fd5b50565b801515811461342457600080fdfe455243313135355061636b656442616c616e63652362616c616e63654f6642617463683a20494e56414c49445f41525241595f4c454e475448455243313135355061636b656442616c616e6365237361666542617463685472616e7366657246726f6d3a20494e56414c49445f524543495049454e544c6962427974657323706f704c617374427974653a20475245415445525f5448414e5f5a45524f5f4c454e4754485f5245515549524544455243313135355061636b656442616c616e6365235f7669657755706461746542696e56616c75653a20554e444552464c4f575369676e617475726556616c696461746f7223697356616c69645369676e61747572653a20554e535550504f525445445f5349474e4154555245455243313135355061636b656442616c616e636523736166655472616e7366657246726f6d3a20494e56414c49445f4f50455241544f525369676e617475726556616c696461746f7223697356616c69645369676e61747572653a20494c4c4547414c5f5349474e4154555245455243313135355061636b656442616c616e6365235f7361666542617463685472616e7366657246726f6d3a20494e56414c49445f4152524159535f4c454e475448455243313135355061636b656442616c616e6365235f63616c6c6f6e45524331313535426174636852656365697665643a20494e56414c49445f4f4e5f524543454956455f4d4553534147455369676e617475726556616c696461746f7223697356616c69645369676e61747572653a204c454e4754485f39375f5245515549524544455243313135355061636b656442616c616e6365237361666542617463685472616e7366657246726f6d3a20494e56414c49445f4f50455241544f52455243313135355061636b656442616c616e6365235f7361666542617463685472616e7366657246726f6d3a20554e444552464c4f575369676e617475726556616c696461746f7223697356616c69645369676e61747572653a20494e56414c49445f5349474e4552455243313135355061636b656442616c616e6365235f63616c6c6f6e4552433131353552656365697665643a20494e56414c49445f4f4e5f524543454956455f4d4553534147455369676e617475726556616c696461746f7223697356616c69645369676e61747572653a204c454e4754485f475245415445525f5448414e5f305f5245515549524544455243313135355061636b656442616c616e636523736166655472616e7366657246726f6d3a20494e56414c49445f524543495049454e544c696242797465732372656164427974657333323a20475245415445525f4f525f455155414c5f544f5f33325f4c454e4754485f5245515549524544455243313135355061636b656442616c616e6365235f7669657755706461746542696e56616c75653a20494e56414c49445f42494e5f57524954455f4f5045524154494f4e455243313135355061636b656442616c616e6365235f7669657755706461746542696e56616c75653a204f564552464c4f57a26469706673582212207733d2cd2f2b431bc5ec9179b7e957d7521c8e3e679085b131e37a908548a07b64736f6c63430007040033",
  "linkReferences": {},
  "deployedLinkReferences": {}
}