{
  "_format": "hh-sol-artifact-1",
  "contractName": "ERC1155MintBurnPackedBalanceMock",
  "sourceName": "contracts/mocks/ERC1155MintBurnPackedBalanceMock.sol",
  "abi": [
    {
      "inputs": [
        {
          "internalType": "string",
          "name": "_name",
          "type": "string"
        },
        {
          "internalType": "string",
          "name": "_baseURI",
          "type": "string"
        }
      ],
      "stateMutability": "nonpayable",
      "type": "constructor"
    },
    {
      "anonymous": false,
      "inputs": [
        {
          "indexed": true,
          "internalType": "address",
          "name": "_owner",
          "type": "address"
        },
        {
          "indexed": true,
          "internalType": "address",
          "name": "_operator",
          "type": "address"
        },
        {
          "indexed": false,
          "internalType": "bool",
          "name": "_approved",
          "type": "bool"
        }
      ],
      "name": "ApprovalForAll",
      "type": "event"
    },
    {
      "anonymous": false,
      "inputs": [
        {
          "indexed": true,
          "internalType": "address",
          "name": "_operator",
          "type": "address"
        },
        {
          "indexed": true,
          "internalType": "address",
          "name": "_from",
          "type": "address"
        },
        {
          "indexed": true,
          "internalType": "address",
          "name": "_to",
          "type": "address"
        },
        {
          "indexed": false,
          "internalType": "uint256[]",
          "name": "_ids",
          "type": "uint256[]"
        },
        {
          "indexed": false,
          "internalType": "uint256[]",
          "name": "_amounts",
          "type": "uint256[]"
        }
      ],
      "name": "TransferBatch",
      "type": "event"
    },
    {
      "anonymous": false,
      "inputs": [
        {
          "indexed": true,
          "internalType": "address",
          "name": "_operator",
          "type": "address"
        },
        {
          "indexed": true,
          "internalType": "address",
          "name": "_from",
          "type": "address"
        },
        {
          "indexed": true,
          "internalType": "address",
          "name": "_to",
          "type": "address"
        },
        {
          "indexed": false,
          "internalType": "uint256",
          "name": "_id",
          "type": "uint256"
        },
        {
          "indexed": false,
          "internalType": "uint256",
          "name": "_amount",
          "type": "uint256"
        }
      ],
      "name": "TransferSingle",
      "type": "event"
    },
    {
      "anonymous": false,
      "inputs": [
        {
          "indexed": false,
          "internalType": "string",
          "name": "_uri",
          "type": "string"
        },
        {
          "indexed": true,
          "internalType": "uint256",
          "name": "_id",
          "type": "uint256"
        }
      ],
      "name": "URI",
      "type": "event"
    },
    {
      "stateMutability": "nonpayable",
      "type": "fallback"
    },
    {
      "inputs": [
        {
          "internalType": "address",
          "name": "_owner",
          "type": "address"
        },
        {
          "internalType": "uint256",
          "name": "_id",
          "type": "uint256"
        }
      ],
      "name": "balanceOf",
      "outputs": [
        {
          "internalType": "uint256",
          "name": "",
          "type": "uint256"
        }
      ],
      "stateMutability": "view",
      "type": "function"
    },
    {
      "inputs": [
        {
          "internalType": "address[]",
          "name": "_owners",
          "type": "address[]"
        },
        {
          "internalType": "uint256[]",
          "name": "_ids",
          "type": "uint256[]"
        }
      ],
      "name": "balanceOfBatch",
      "outputs": [
        {
          "internalType": "uint256[]",
          "name": "",
          "type": "uint256[]"
        }
      ],
      "stateMutability": "view",
      "type": "function"
    },
    {
      "inputs": [],
      "name": "baseURI",
      "outputs": [
        {
          "internalType": "string",
          "name": "",
          "type": "string"
        }
      ],
      "stateMutability": "view",
      "type": "function"
    },
    {
      "inputs": [
        {
          "internalType": "address",
          "name": "_from",
          "type": "address"
        },
        {
          "internalType": "uint256[]",
          "name": "_ids",
          "type": "uint256[]"
        },
        {
          "internalType": "uint256[]",
          "name": "_values",
          "type": "uint256[]"
        }
      ],
      "name": "batchBurnMock",
      "outputs": [],
      "stateMutability": "nonpayable",
      "type": "function"
    },
    {
      "inputs": [
        {
          "internalType": "address",
          "name": "_to",
          "type": "address"
        },
        {
          "internalType": "uint256[]",
          "name": "_ids",
          "type": "uint256[]"
        },
        {
          "internalType": "uint256[]",
          "name": "_values",
          "type": "uint256[]"
        },
        {
          "internalType": "bytes",
          "name": "_data",
          "type": "bytes"
        }
      ],
      "name": "batchMintMock",
      "outputs": [],
      "stateMutability": "nonpayable",
      "type": "function"
    },
    {
      "inputs": [
        {
          "internalType": "address",
          "name": "_from",
          "type": "address"
        },
        {
          "internalType": "uint256",
          "name": "_id",
          "type": "uint256"
        },
        {
          "internalType": "uint256",
          "name": "_value",
          "type": "uint256"
        }
      ],
      "name": "burnMock",
      "outputs": [],
      "stateMutability": "nonpayable",
      "type": "function"
    },
    {
      "inputs": [
        {
          "internalType": "uint256",
          "name": "_id",
          "type": "uint256"
        }
      ],
      "name": "getIDBinIndex",
      "outputs": [
        {
          "internalType": "uint256",
          "name": "bin",
          "type": "uint256"
        },
        {
          "internalType": "uint256",
          "name": "index",
          "type": "uint256"
        }
      ],
      "stateMutability": "pure",
      "type": "function"
    },
    {
      "inputs": [
        {
          "internalType": "uint256",
          "name": "_binValues",
          "type": "uint256"
        },
        {
          "internalType": "uint256",
          "name": "_index",
          "type": "uint256"
        }
      ],
      "name": "getValueInBin",
      "outputs": [
        {
          "internalType": "uint256",
          "name": "",
          "type": "uint256"
        }
      ],
      "stateMutability": "pure",
      "type": "function"
    },
    {
      "inputs": [
        {
          "internalType": "address",
          "name": "_owner",
          "type": "address"
        },
        {
          "internalType": "address",
          "name": "_operator",
          "type": "address"
        }
      ],
      "name": "isApprovedForAll",
      "outputs": [
        {
          "internalType": "bool",
          "name": "isOperator",
          "type": "bool"
        }
      ],
      "stateMutability": "view",
      "type": "function"
    },
    {
      "inputs": [
        {
          "internalType": "address",
          "name": "_to",
          "type": "address"
        },
        {
          "internalType": "uint256",
          "name": "_id",
          "type": "uint256"
        },
        {
          "internalType": "uint256",
          "name": "_value",
          "type": "uint256"
        },
        {
          "internalType": "bytes",
          "name": "_data",
          "type": "bytes"
        }
      ],
      "name": "mintMock",
      "outputs": [],
      "stateMutability": "nonpayable",
      "type": "function"
    },
    {
      "inputs": [],
      "name": "name",
      "outputs": [
        {
          "internalType": "string",
          "name": "",
          "type": "string"
        }
      ],
      "stateMutability": "view",
      "type": "function"
    },
    {
      "inputs": [
        {
          "internalType": "address",
          "name": "_from",
          "type": "address"
        },
        {
          "internalType": "address",
          "name": "_to",
          "type": "address"
        },
        {
          "internalType": "uint256[]",
          "name": "_ids",
          "type": "uint256[]"
        },
        {
          "internalType": "uint256[]",
          "name": "_amounts",
          "type": "uint256[]"
        },
        {
          "internalType": "bytes",
          "name": "_data",
          "type": "bytes"
        }
      ],
      "name": "safeBatchTransferFrom",
      "outputs": [],
      "stateMutability": "nonpayable",
      "type": "function"
    },
    {
      "inputs": [
        {
          "internalType": "address",
          "name": "_from",
          "type": "address"
        },
        {
          "internalType": "address",
          "name": "_to",
          "type": "address"
        },
        {
          "internalType": "uint256",
          "name": "_id",
          "type": "uint256"
        },
        {
          "internalType": "uint256",
          "name": "_amount",
          "type": "uint256"
        },
        {
          "internalType": "bytes",
          "name": "_data",
          "type": "bytes"
        }
      ],
      "name": "safeTransferFrom",
      "outputs": [],
      "stateMutability": "nonpayable",
      "type": "function"
    },
    {
      "inputs": [
        {
          "internalType": "address",
          "name": "_operator",
          "type": "address"
        },
        {
          "internalType": "bool",
          "name": "_approved",
          "type": "bool"
        }
      ],
      "name": "setApprovalForAll",
      "outputs": [],
      "stateMutability": "nonpayable",
      "type": "function"
    },
    {
      "inputs": [
        {
          "internalType": "bytes4",
          "name": "_interfaceID",
          "type": "bytes4"
        }
      ],
      "name": "supportsInterface",
      "outputs": [
        {
          "internalType": "bool",
          "name": "",
          "type": "bool"
        }
      ],
      "stateMutability": "pure",
      "type": "function"
    },
    {
      "inputs": [
        {
          "internalType": "uint256",
          "name": "_id",
          "type": "uint256"
        }
      ],
      "name": "uri",
      "outputs": [
        {
          "internalType": "string",
          "name": "",
          "type": "string"
        }
      ],
      "stateMutability": "view",
      "type": "function"
    }
  ],
  "bytecode": "0x60806040523480156200001157600080fd5b5060405162002f3038038062002f30833981016040819052620000349162000142565b818160036200004483826200023c565b5060026200005382826200023c565b505050505062000363565b634e487b7160e01b600052604160045260246000fd5b600082601f8301126200008657600080fd5b815167ffffffffffffffff80821115620000a457620000a46200005e565b604051601f83017fffffffffffffffffffffffffffffffffffffffffffffffffffffffffffffffe0908116603f01168101908282118183101715620000ed57620000ed6200005e565b816040528381526020925086838588010111156200010a57600080fd5b600091505b838210156200012e57858201830151818301840152908201906200010f565b600093810190920192909252949350505050565b600080604083850312156200015657600080fd5b825167ffffffffffffffff808211156200016f57600080fd5b6200017d8683870162000074565b935060208501519150808211156200019457600080fd5b50620001a38582860162000074565b9150509250929050565b600181811c90821680620001c257607f821691505b602082108103620001e357634e487b7160e01b600052602260045260246000fd5b50919050565b601f8211156200023757600081815260208120601f850160051c81016020861015620002125750805b601f850160051c820191505b8181101562000233578281556001016200021e565b5050505b505050565b815167ffffffffffffffff8111156200025957620002596200005e565b62000271816200026a8454620001ad565b84620001e9565b602080601f831160018114620002c75760008415620002905750858301515b7fffffffffffffffffffffffffffffffffffffffffffffffffffffffffffffffff600386901b1c1916600185901b17855562000233565b6000858152602081207fffffffffffffffffffffffffffffffffffffffffffffffffffffffffffffffe08616915b828110156200031657888601518255948401946001909101908401620002f5565b50858210156200035357878501517fffffffffffffffffffffffffffffffffffffffffffffffffffffffffffffffff600388901b60f8161c191681555b5050505050600190811b01905550565b612bbd80620003736000396000f3fe608060405234801561001057600080fd5b50600436106100ff5760003560e01c8063a22cb46511610097578063db90e83c11610066578063db90e83c14610299578063e985e9c5146102c1578063eaec5f811461030a578063f242432a1461031d576100ff565b8063a22cb4651461024d578063a3f091f514610260578063bd7a6c4114610273578063d7a0ad9014610286576100ff565b80632eb2c2d6116100d35780632eb2c2d6146101fd578063437ecbe9146102125780634e1273f4146102255780636c0360eb14610245576100ff565b8062fdd58e1461018c57806301ffc9a7146101b257806306fdde03146101d55780630e89341c146101ea575b6040517f08c379a000000000000000000000000000000000000000000000000000000000815260206004820152603460248201527f455243313135354d6574614d696e744275726e5061636b656442616c616e636560448201527f4d6f636b3a20494e56414c49445f4d4554484f4400000000000000000000000060648201526084015b60405180910390fd5b61019f61019a366004611f64565b610330565b6040519081526020015b60405180910390f35b6101c56101c0366004611fbf565b610387565b60405190151581526020016101a9565b6101dd610392565b6040516101a9919061204a565b6101dd6101f836600461205d565b610420565b61021061020b366004612211565b610454565b005b6102106102203660046122bb565b6105f8565b6102386102333660046122ee565b610608565b6040516101a991906123e9565b6101dd610902565b61021061025b3660046123fc565b61090f565b61021061026e366004612438565b6109a6565b610210610281366004612499565b6109b8565b61021061029436600461250d565b6109c3565b6102ac6102a736600461205d565b6109cf565b604080519283526020830191909152016101a9565b6101c56102cf36600461259a565b73ffffffffffffffffffffffffffffffffffffffff918216600090815260016020908152604080832093909416825291909152205460ff1690565b61019f6103183660046125cd565b610a09565b61021061032b3660046125ef565b610a37565b600080600061033e846109cf565b73ffffffffffffffffffffffffffffffffffffffff8716600090815260208181526040808320858452909152902054919350915061037c9082610a09565b925050505b92915050565b600061038182610bd4565b6003805461039f90612654565b80601f01602080910402602001604051908101604052809291908181526020018280546103cb90612654565b80156104185780601f106103ed57610100808354040283529160200191610418565b820191906000526020600020905b8154815290600101906020018083116103fb57829003601f168201915b505050505081565b6060600261042d83610c30565b60405160200161043e9291906126c3565b6040516020818303038152906040529050919050565b3373ffffffffffffffffffffffffffffffffffffffff861614806104a8575073ffffffffffffffffffffffffffffffffffffffff8516600090815260016020908152604080832033845290915290205460ff165b610534576040517f08c379a000000000000000000000000000000000000000000000000000000000815260206004820152603c60248201527f455243313135355061636b656442616c616e636523736166654261746368547260448201527f616e7366657246726f6d3a20494e56414c49445f4f50455241544f52000000006064820152608401610183565b73ffffffffffffffffffffffffffffffffffffffff84166105d7576040517f08c379a000000000000000000000000000000000000000000000000000000000815260206004820152603d60248201527f455243313135355061636b656442616c616e636523736166654261746368547260448201527f616e7366657246726f6d3a20494e56414c49445f524543495049454e540000006064820152608401610183565b6105e385858585610d7d565b6105f1858585855a866111e0565b5050505050565b61060383838361138f565b505050565b8151815160609190811461069e576040517f08c379a000000000000000000000000000000000000000000000000000000000815260206004820152603960248201527f455243313135355061636b656442616c616e63652362616c616e63654f66426160448201527f7463683a20494e56414c49445f41525241595f4c454e475448000000000000006064820152608401610183565b6000806106c4856000815181106106b7576106b76127d0565b60200260200101516109cf565b915091506000806000886000815181106106e0576106e06127d0565b602002602001015173ffffffffffffffffffffffffffffffffffffffff1673ffffffffffffffffffffffffffffffffffffffff1681526020019081526020016000206000848152602001908152602001600020549050600083905060008567ffffffffffffffff81111561075657610756612076565b60405190808252806020026020018201604052801561077f578160200160208202803683370190505b50905061078c8385610a09565b8160008151811061079f5761079f6127d0565b602090810291909101015260015b868110156108f5576107ca8982815181106106b7576106b76127d0565b9096509450828614158061084857508981815181106107eb576107eb6127d0565b602002602001015173ffffffffffffffffffffffffffffffffffffffff168a600183610817919061282e565b81518110610827576108276127d0565b602002602001015173ffffffffffffffffffffffffffffffffffffffff1614155b156108bc576000808b8381518110610862576108626127d0565b602002602001015173ffffffffffffffffffffffffffffffffffffffff1673ffffffffffffffffffffffffffffffffffffffff16815260200190815260200160002060008781526020019081526020016000205493508592505b6108c68486610a09565b8282815181106108d8576108d86127d0565b6020908102919091010152806108ed81612841565b9150506107ad565b5098975050505050505050565b6002805461039f90612654565b33600081815260016020908152604080832073ffffffffffffffffffffffffffffffffffffffff87168085529083529281902080547fffffffffffffffffffffffffffffffffffffffffffffffffffffffffffffff001686151590811790915590519081529192917f17307eab39ab6107e8899845ad3d59bd9653f200f220920489ca2b5937696c31910160405180910390a35050565b6109b2848484846113f7565b50505050565b610603838383611469565b6109b2848484846115dd565b6000806109df60206101006128a8565b6109e990846128a8565b91506109f860206101006128a8565b610a0290846128bc565b9050915091565b600080610a1c600164010000000061282e565b90506000610a2b8460206128d0565b9490941c169392505050565b3373ffffffffffffffffffffffffffffffffffffffff86161480610a8b575073ffffffffffffffffffffffffffffffffffffffff8516600090815260016020908152604080832033845290915290205460ff165b610b17576040517f08c379a000000000000000000000000000000000000000000000000000000000815260206004820152603760248201527f455243313135355061636b656442616c616e636523736166655472616e73666560448201527f7246726f6d3a20494e56414c49445f4f50455241544f520000000000000000006064820152608401610183565b73ffffffffffffffffffffffffffffffffffffffff8416610bba576040517f08c379a000000000000000000000000000000000000000000000000000000000815260206004820152603860248201527f455243313135355061636b656442616c616e636523736166655472616e73666560448201527f7246726f6d3a20494e56414c49445f524543495049454e5400000000000000006064820152608401610183565b610bc68585858561183e565b6105f1858585855a866118ad565b60007ff176cbe4000000000000000000000000000000000000000000000000000000007fffffffff00000000000000000000000000000000000000000000000000000000831601610c2757506001919050565b61038182611a52565b606081600003610c7357505060408051808201909152600181527f3000000000000000000000000000000000000000000000000000000000000000602082015290565b818060005b8215610c9e5780610c8881612841565b9150610c979050600a846128a8565b9250610c78565b60008167ffffffffffffffff811115610cb957610cb9612076565b6040519080825280601f01601f191660200182016040528015610ce3576020820181803683370190505b5090506000610cf360018461282e565b90505b8315610d7357610d07600a856128bc565b610d129060306128e7565b60f81b8282610d20816128fa565b935081518110610d3257610d326127d0565b60200101907effffffffffffffffffffffffffffffffffffffffffffffffffffffffffffff1916908160001a905350610d6c600a856128a8565b9350610cf6565b5095945050505050565b815181518114610e35576040517f08c379a000000000000000000000000000000000000000000000000000000000815260206004820152604260248201527f455243313135355061636b656442616c616e6365235f7361666542617463685460448201527f72616e7366657246726f6d3a20494e56414c49445f4152524159535f4c454e4760648201527f5448000000000000000000000000000000000000000000000000000000000000608482015260a401610183565b8373ffffffffffffffffffffffffffffffffffffffff168573ffffffffffffffffffffffffffffffffffffffff1614158015610e715750600081115b1561107157600080610e8f856000815181106106b7576106b76127d0565b73ffffffffffffffffffffffffffffffffffffffff8916600090815260208181526040808320858452909152812054875193955091935091610eed9190849088908590610ede57610ede6127d0565b60200260200101516001611aef565b73ffffffffffffffffffffffffffffffffffffffff881660009081526020818152604080832087845290915281205487519293509091610f499190859089908590610f3a57610f3a6127d0565b60200260200101516000611aef565b90508360015b8681101561101f57610f6c8982815181106106b7576106b76127d0565b9096509450818614610fdb5773ffffffffffffffffffffffffffffffffffffffff8b811660009081526020818152604080832086845280835281842098909855928d16825281815282822094825284815282822095909555878152948452808520549290935291909220549084905b610ff284868a8481518110610ede57610ede6127d0565b935061100b83868a8481518110610f3a57610f3a6127d0565b92508061101781612841565b915050610f4f565b505073ffffffffffffffffffffffffffffffffffffffff808a16600090815260208181526040808320888452825280832095909555918a1681528082528381209581529490529220919091555061115b565b60005b818110156111595782818151811061108e5761108e6127d0565b60200260200101516110b9878684815181106110ac576110ac6127d0565b6020026020010151610330565b1015611147576040517f08c379a000000000000000000000000000000000000000000000000000000000815260206004820152603660248201527f455243313135355061636b656442616c616e6365235f7361666542617463685460448201527f72616e7366657246726f6d3a20554e444552464c4f57000000000000000000006064820152608401610183565b8061115181612841565b915050611074565b505b8373ffffffffffffffffffffffffffffffffffffffff168573ffffffffffffffffffffffffffffffffffffffff163373ffffffffffffffffffffffffffffffffffffffff167f4a39dc06d4c0dbc64b70af90fd698a233a518aa5d07e595d983b8c0526c8f7fb86866040516111d192919061292f565b60405180910390a45050505050565b6111ff8573ffffffffffffffffffffffffffffffffffffffff16611e7a565b156113875760008573ffffffffffffffffffffffffffffffffffffffff1663bc197c8184338a8989886040518763ffffffff1660e01b8152600401611248959493929190612954565b60206040518083038160008887f1158015611267573d6000803e3d6000fd5b50505050506040513d601f19601f8201168201806040525081019061128c91906129bf565b90507fffffffff0000000000000000000000000000000000000000000000000000000081167fbc197c810000000000000000000000000000000000000000000000000000000014611385576040517f08c379a000000000000000000000000000000000000000000000000000000000815260206004820152604c60248201527f455243313135355061636b656442616c616e6365235f63616c6c6f6e4552433160448201527f313535426174636852656365697665643a20494e56414c49445f4f4e5f52454360648201527f454956455f4d4553534147450000000000000000000000000000000000000000608482015260a401610183565b505b505050505050565b61139c8383836001611eb4565b604080518381526020810183905260009173ffffffffffffffffffffffffffffffffffffffff86169133917fc3d58168c5ae7397731d063d5bbf3d657854427343f4c083240f7aacaa2d0f62910160405180910390a4505050565b6114048484846000611eb4565b604080518481526020810184905273ffffffffffffffffffffffffffffffffffffffff86169160009133917fc3d58168c5ae7397731d063d5bbf3d657854427343f4c083240f7aacaa2d0f62910160405180910390a46109b260008585855a866118ad565b8151815181146114fb576040517f08c379a000000000000000000000000000000000000000000000000000000000815260206004820152603d60248201527f455243313135354d696e744275726e5061636b656442616c616e63652362617460448201527f63684275726e3a20494e56414c49445f4152524159535f4c454e4754480000006064820152608401610183565b60005b81811015611557576115458585838151811061151c5761151c6127d0565b6020026020010151858481518110611536576115366127d0565b60200260200101516001611eb4565b8061154f81612841565b9150506114fe565b50600073ffffffffffffffffffffffffffffffffffffffff168473ffffffffffffffffffffffffffffffffffffffff163373ffffffffffffffffffffffffffffffffffffffff167f4a39dc06d4c0dbc64b70af90fd698a233a518aa5d07e595d983b8c0526c8f7fb86866040516115cf92919061292f565b60405180910390a450505050565b815183511461166e576040517f08c379a000000000000000000000000000000000000000000000000000000000815260206004820152603e60248201527f455243313135354d696e744275726e5061636b656442616c616e6365235f626160448201527f7463684d696e743a20494e56414c49445f4152524159535f4c454e47544800006064820152608401610183565b8251156117b05760008061168e856000815181106106b7576106b76127d0565b73ffffffffffffffffffffffffffffffffffffffff88166000908152602081815260408083208584529091528120548751939550919350916116dd9190849088908590610f3a57610f3a6127d0565b86519091508360015b82811015611777576117038982815181106106b7576106b76127d0565b909650945081861461174c5773ffffffffffffffffffffffffffffffffffffffff8a16600090815260208181526040808320948352939052828120949094558584529220549184905b61176384868a8481518110610f3a57610f3a6127d0565b93508061176f81612841565b9150506116e6565b50505073ffffffffffffffffffffffffffffffffffffffff87166000908152602081815260408083209583529490529290922091909155505b8373ffffffffffffffffffffffffffffffffffffffff16600073ffffffffffffffffffffffffffffffffffffffff163373ffffffffffffffffffffffffffffffffffffffff167f4a39dc06d4c0dbc64b70af90fd698a233a518aa5d07e595d983b8c0526c8f7fb868660405161182792919061292f565b60405180910390a46109b260008585855a866111e0565b61184b8483836001611eb4565b6118588383836000611eb4565b604080518381526020810183905273ffffffffffffffffffffffffffffffffffffffff808616929087169133917fc3d58168c5ae7397731d063d5bbf3d657854427343f4c083240f7aacaa2d0f6291016115cf565b6118cc8573ffffffffffffffffffffffffffffffffffffffff16611e7a565b156113875760008573ffffffffffffffffffffffffffffffffffffffff1663f23a6e6184338a8989886040518763ffffffff1660e01b81526004016119159594939291906129dc565b60206040518083038160008887f1158015611934573d6000803e3d6000fd5b50505050506040513d601f19601f8201168201806040525081019061195991906129bf565b90507fffffffff0000000000000000000000000000000000000000000000000000000081167ff23a6e610000000000000000000000000000000000000000000000000000000014611385576040517f08c379a000000000000000000000000000000000000000000000000000000000815260206004820152604760248201527f455243313135355061636b656442616c616e6365235f63616c6c6f6e4552433160448201527f31353552656365697665643a20494e56414c49445f4f4e5f524543454956455f60648201527f4d45535341474500000000000000000000000000000000000000000000000000608482015260a401610183565b60007f264985da000000000000000000000000000000000000000000000000000000007fffffffff00000000000000000000000000000000000000000000000000000000831601611aa557506001919050565b7f01ffc9a7000000000000000000000000000000000000000000000000000000007fffffffff00000000000000000000000000000000000000000000000000000000831614610381565b600080611afd8560206128d0565b90506000611b11600164010000000061282e565b90506000846001811115611b2757611b27612a2c565b03611c7657611b3885831b886128e7565b925086831015611bca576040517f08c379a000000000000000000000000000000000000000000000000000000000815260206004820152603260248201527f455243313135355061636b656442616c616e6365235f7669657755706461746560448201527f42696e56616c75653a204f564552464c4f5700000000000000000000000000006064820152608401610183565b611bd660206002612b7b565b611be48689851c84166128e7565b10611c71576040517f08c379a000000000000000000000000000000000000000000000000000000000815260206004820152603260248201527f455243313135355061636b656442616c616e6365235f7669657755706461746560448201527f42696e56616c75653a204f564552464c4f5700000000000000000000000000006064820152608401610183565b611e70565b6001846001811115611c8a57611c8a612a2c565b03611dc257611c9b85831b8861282e565b925086831115611d2d576040517f08c379a000000000000000000000000000000000000000000000000000000000815260206004820152603360248201527f455243313135355061636b656442616c616e6365235f7669657755706461746560448201527f42696e56616c75653a20554e444552464c4f57000000000000000000000000006064820152608401610183565b84818389901c161015611c71576040517f08c379a000000000000000000000000000000000000000000000000000000000815260206004820152603360248201527f455243313135355061636b656442616c616e6365235f7669657755706461746560448201527f42696e56616c75653a20554e444552464c4f57000000000000000000000000006064820152608401610183565b6040517f08c379a000000000000000000000000000000000000000000000000000000000815260206004820152604560248201527f455243313135355061636b656442616c616e6365235f7669657755706461746560448201527f42696e56616c75653a20494e56414c49445f42494e5f57524954455f4f50455260648201527f4154494f4e000000000000000000000000000000000000000000000000000000608482015260a401610183565b5050949350505050565b6000813f8015801590611ead57507fc5d2460186f7233c927e7db2dcc703c0e500b653ca82273b7bfad8045d85a4708114155b9392505050565b600080611ec0856109cf565b73ffffffffffffffffffffffffffffffffffffffff88166000908152602081815260408083208584529091529020549193509150611f0090828686611aef565b73ffffffffffffffffffffffffffffffffffffffff909616600090815260208181526040808320948352939052919091209490945550505050565b803573ffffffffffffffffffffffffffffffffffffffff81168114611f5f57600080fd5b919050565b60008060408385031215611f7757600080fd5b611f8083611f3b565b946020939093013593505050565b7fffffffff0000000000000000000000000000000000000000000000000000000081168114611fbc57600080fd5b50565b600060208284031215611fd157600080fd5b8135611ead81611f8e565b60005b83811015611ff7578181015183820152602001611fdf565b50506000910152565b60008151808452612018816020860160208601611fdc565b601f017fffffffffffffffffffffffffffffffffffffffffffffffffffffffffffffffe0169290920160200192915050565b602081526000611ead6020830184612000565b60006020828403121561206f57600080fd5b5035919050565b7f4e487b7100000000000000000000000000000000000000000000000000000000600052604160045260246000fd5b604051601f82017fffffffffffffffffffffffffffffffffffffffffffffffffffffffffffffffe016810167ffffffffffffffff811182821017156120ec576120ec612076565b604052919050565b600067ffffffffffffffff82111561210e5761210e612076565b5060051b60200190565b600082601f83011261212957600080fd5b8135602061213e612139836120f4565b6120a5565b82815260059290921b8401810191818101908684111561215d57600080fd5b8286015b848110156121785780358352918301918301612161565b509695505050505050565b600082601f83011261219457600080fd5b813567ffffffffffffffff8111156121ae576121ae612076565b6121df60207fffffffffffffffffffffffffffffffffffffffffffffffffffffffffffffffe0601f840116016120a5565b8181528460208386010111156121f457600080fd5b816020850160208301376000918101602001919091529392505050565b600080600080600060a0868803121561222957600080fd5b61223286611f3b565b945061224060208701611f3b565b9350604086013567ffffffffffffffff8082111561225d57600080fd5b61226989838a01612118565b9450606088013591508082111561227f57600080fd5b61228b89838a01612118565b935060808801359150808211156122a157600080fd5b506122ae88828901612183565b9150509295509295909350565b6000806000606084860312156122d057600080fd5b6122d984611f3b565b95602085013595506040909401359392505050565b6000806040838503121561230157600080fd5b823567ffffffffffffffff8082111561231957600080fd5b818501915085601f83011261232d57600080fd5b8135602061233d612139836120f4565b82815260059290921b8401810191818101908984111561235c57600080fd5b948201945b838610156123815761237286611f3b565b82529482019490820190612361565b9650508601359250508082111561239757600080fd5b506123a485828601612118565b9150509250929050565b600081518084526020808501945080840160005b838110156123de578151875295820195908201906001016123c2565b509495945050505050565b602081526000611ead60208301846123ae565b6000806040838503121561240f57600080fd5b61241883611f3b565b91506020830135801515811461242d57600080fd5b809150509250929050565b6000806000806080858703121561244e57600080fd5b61245785611f3b565b93506020850135925060408501359150606085013567ffffffffffffffff81111561248157600080fd5b61248d87828801612183565b91505092959194509250565b6000806000606084860312156124ae57600080fd5b6124b784611f3b565b9250602084013567ffffffffffffffff808211156124d457600080fd5b6124e087838801612118565b935060408601359150808211156124f657600080fd5b5061250386828701612118565b9150509250925092565b6000806000806080858703121561252357600080fd5b61252c85611f3b565b9350602085013567ffffffffffffffff8082111561254957600080fd5b61255588838901612118565b9450604087013591508082111561256b57600080fd5b61257788838901612118565b9350606087013591508082111561258d57600080fd5b5061248d87828801612183565b600080604083850312156125ad57600080fd5b6125b683611f3b565b91506125c460208401611f3b565b90509250929050565b600080604083850312156125e057600080fd5b50508035926020909101359150565b600080600080600060a0868803121561260757600080fd5b61261086611f3b565b945061261e60208701611f3b565b93506040860135925060608601359150608086013567ffffffffffffffff81111561264857600080fd5b6122ae88828901612183565b600181811c9082168061266857607f821691505b6020821081036126a1577f4e487b7100000000000000000000000000000000000000000000000000000000600052602260045260246000fd5b50919050565b600081516126b9818560208601611fdc565b9290920192915050565b600080845481600182811c9150808316806126df57607f831692505b60208084108203612717577f4e487b710000000000000000000000000000000000000000000000000000000086526022600452602486fd5b81801561272b576001811461275e5761278b565b7fffffffffffffffffffffffffffffffffffffffffffffffffffffffffffffff008616895284151585028901965061278b565b60008b81526020902060005b868110156127835781548b82015290850190830161276a565b505084890196505b5050505050506127c761279e82866126a7565b7f2e6a736f6e000000000000000000000000000000000000000000000000000000815260050190565b95945050505050565b7f4e487b7100000000000000000000000000000000000000000000000000000000600052603260045260246000fd5b7f4e487b7100000000000000000000000000000000000000000000000000000000600052601160045260246000fd5b81810381811115610381576103816127ff565b60007fffffffffffffffffffffffffffffffffffffffffffffffffffffffffffffffff8203612872576128726127ff565b5060010190565b7f4e487b7100000000000000000000000000000000000000000000000000000000600052601260045260246000fd5b6000826128b7576128b7612879565b500490565b6000826128cb576128cb612879565b500690565b8082028115828204841417610381576103816127ff565b80820180821115610381576103816127ff565b600081612909576129096127ff565b507fffffffffffffffffffffffffffffffffffffffffffffffffffffffffffffffff0190565b60408152600061294260408301856123ae565b82810360208401526127c781856123ae565b600073ffffffffffffffffffffffffffffffffffffffff808816835280871660208401525060a0604083015261298d60a08301866123ae565b828103606084015261299f81866123ae565b905082810360808401526129b38185612000565b98975050505050505050565b6000602082840312156129d157600080fd5b8151611ead81611f8e565b600073ffffffffffffffffffffffffffffffffffffffff808816835280871660208401525084604083015283606083015260a06080830152612a2160a0830184612000565b979650505050505050565b7f4e487b7100000000000000000000000000000000000000000000000000000000600052602160045260246000fd5b600181815b80851115612ab457817fffffffffffffffffffffffffffffffffffffffffffffffffffffffffffffffff04821115612a9a57612a9a6127ff565b80851615612aa757918102915b93841c9390800290612a60565b509250929050565b600082612acb57506001610381565b81612ad857506000610381565b8160018114612aee5760028114612af857612b14565b6001915050610381565b60ff841115612b0957612b096127ff565b50506001821b610381565b5060208310610133831016604e8410600b8410161715612b37575081810a610381565b612b418383612a5b565b807fffffffffffffffffffffffffffffffffffffffffffffffffffffffffffffffff04821115612b7357612b736127ff565b029392505050565b6000611ead8383612abc56fea2646970667358221220b581cb67c70c326dc06e203330d5ccf0ef974c8a27555cd9a3aa62673405026664736f6c63430008120033",
  "linkReferences": {},
  "deployedLinkReferences": {}
}