{
  "_format": "hh-sol-artifact-1",
  "contractName": "ERC1155MintBurn",
  "sourceName": "contracts/tokens/ERC1155/ERC1155MintBurn.sol",
  "abi": [
    {
      "anonymous": false,
      "inputs": [
        {
          "indexed": true,
          "internalType": "address",
          "name": "_owner",
          "type": "address"
        },
        {
          "indexed": true,
          "internalType": "address",
          "name": "_operator",
          "type": "address"
        },
        {
          "indexed": false,
          "internalType": "bool",
          "name": "_approved",
          "type": "bool"
        }
      ],
      "name": "ApprovalForAll",
      "type": "event"
    },
    {
      "anonymous": false,
      "inputs": [
        {
          "indexed": true,
          "internalType": "address",
          "name": "_operator",
          "type": "address"
        },
        {
          "indexed": true,
          "internalType": "address",
          "name": "_from",
          "type": "address"
        },
        {
          "indexed": true,
          "internalType": "address",
          "name": "_to",
          "type": "address"
        },
        {
          "indexed": false,
          "internalType": "uint256[]",
          "name": "_ids",
          "type": "uint256[]"
        },
        {
          "indexed": false,
          "internalType": "uint256[]",
          "name": "_amounts",
          "type": "uint256[]"
        }
      ],
      "name": "TransferBatch",
      "type": "event"
    },
    {
      "anonymous": false,
      "inputs": [
        {
          "indexed": true,
          "internalType": "address",
          "name": "_operator",
          "type": "address"
        },
        {
          "indexed": true,
          "internalType": "address",
          "name": "_from",
          "type": "address"
        },
        {
          "indexed": true,
          "internalType": "address",
          "name": "_to",
          "type": "address"
        },
        {
          "indexed": false,
          "internalType": "uint256",
          "name": "_id",
          "type": "uint256"
        },
        {
          "indexed": false,
          "internalType": "uint256",
          "name": "_amount",
          "type": "uint256"
        }
      ],
      "name": "TransferSingle",
      "type": "event"
    },
    {
      "inputs": [
        {
          "internalType": "address",
          "name": "_owner",
          "type": "address"
        },
        {
          "internalType": "uint256",
          "name": "_id",
          "type": "uint256"
        }
      ],
      "name": "balanceOf",
      "outputs": [
        {
          "internalType": "uint256",
          "name": "",
          "type": "uint256"
        }
      ],
      "stateMutability": "view",
      "type": "function"
    },
    {
      "inputs": [
        {
          "internalType": "address[]",
          "name": "_owners",
          "type": "address[]"
        },
        {
          "internalType": "uint256[]",
          "name": "_ids",
          "type": "uint256[]"
        }
      ],
      "name": "balanceOfBatch",
      "outputs": [
        {
          "internalType": "uint256[]",
          "name": "",
          "type": "uint256[]"
        }
      ],
      "stateMutability": "view",
      "type": "function"
    },
    {
      "inputs": [
        {
          "internalType": "address",
          "name": "_owner",
          "type": "address"
        },
        {
          "internalType": "address",
          "name": "_operator",
          "type": "address"
        }
      ],
      "name": "isApprovedForAll",
      "outputs": [
        {
          "internalType": "bool",
          "name": "isOperator",
          "type": "bool"
        }
      ],
      "stateMutability": "view",
      "type": "function"
    },
    {
      "inputs": [
        {
          "internalType": "address",
          "name": "_from",
          "type": "address"
        },
        {
          "internalType": "address",
          "name": "_to",
          "type": "address"
        },
        {
          "internalType": "uint256[]",
          "name": "_ids",
          "type": "uint256[]"
        },
        {
          "internalType": "uint256[]",
          "name": "_amounts",
          "type": "uint256[]"
        },
        {
          "internalType": "bytes",
          "name": "_data",
          "type": "bytes"
        }
      ],
      "name": "safeBatchTransferFrom",
      "outputs": [],
      "stateMutability": "nonpayable",
      "type": "function"
    },
    {
      "inputs": [
        {
          "internalType": "address",
          "name": "_from",
          "type": "address"
        },
        {
          "internalType": "address",
          "name": "_to",
          "type": "address"
        },
        {
          "internalType": "uint256",
          "name": "_id",
          "type": "uint256"
        },
        {
          "internalType": "uint256",
          "name": "_amount",
          "type": "uint256"
        },
        {
          "internalType": "bytes",
          "name": "_data",
          "type": "bytes"
        }
      ],
      "name": "safeTransferFrom",
      "outputs": [],
      "stateMutability": "nonpayable",
      "type": "function"
    },
    {
      "inputs": [
        {
          "internalType": "address",
          "name": "_operator",
          "type": "address"
        },
        {
          "internalType": "bool",
          "name": "_approved",
          "type": "bool"
        }
      ],
      "name": "setApprovalForAll",
      "outputs": [],
      "stateMutability": "nonpayable",
      "type": "function"
    },
    {
      "inputs": [
        {
          "internalType": "bytes4",
          "name": "_interfaceID",
          "type": "bytes4"
        }
      ],
      "name": "supportsInterface",
      "outputs": [
        {
          "internalType": "bool",
          "name": "",
          "type": "bool"
        }
      ],
      "stateMutability": "pure",
      "type": "function"
    }
  ],
  "bytecode": "0x608060405234801561001057600080fd5b5061156d806100206000396000f3fe608060405234801561001057600080fd5b506004361061007c5760003560e01c80634e1273f41161005b5780634e1273f4146100df578063a22cb465146100ff578063e985e9c514610112578063f242432a1461015b57600080fd5b8062fdd58e1461008157806301ffc9a7146100a75780632eb2c2d6146100ca575b600080fd5b61009461008f366004610e72565b61016e565b6040519081526020015b60405180910390f35b6100ba6100b5366004610ecd565b6101a4565b604051901515815260200161009e565b6100dd6100d8366004611085565b610241565b005b6100f26100ed36600461112f565b6103ea565b60405161009e919061122a565b6100dd61010d36600461123d565b61058a565b6100ba610120366004611279565b73ffffffffffffffffffffffffffffffffffffffff918216600090815260016020908152604080832093909416825291909152205460ff1690565b6100dd6101693660046112ac565b610621565b73ffffffffffffffffffffffffffffffffffffffff82166000908152602081815260408083208484529091529020545b92915050565b60007f264985da000000000000000000000000000000000000000000000000000000007fffffffff000000000000000000000000000000000000000000000000000000008316016101f757506001919050565b7f01ffc9a7000000000000000000000000000000000000000000000000000000007fffffffff0000000000000000000000000000000000000000000000000000000083161461019e565b3373ffffffffffffffffffffffffffffffffffffffff86161480610295575073ffffffffffffffffffffffffffffffffffffffff8516600090815260016020908152604080832033845290915290205460ff165b610326576040517f08c379a000000000000000000000000000000000000000000000000000000000815260206004820152602f60248201527f45524331313535237361666542617463685472616e7366657246726f6d3a204960448201527f4e56414c49445f4f50455241544f52000000000000000000000000000000000060648201526084015b60405180910390fd5b73ffffffffffffffffffffffffffffffffffffffff84166103c9576040517f08c379a000000000000000000000000000000000000000000000000000000000815260206004820152603060248201527f45524331313535237361666542617463685472616e7366657246726f6d3a204960448201527f4e56414c49445f524543495049454e5400000000000000000000000000000000606482015260840161031d565b6103d5858585856107be565b6103e3858585855a86610a23565b5050505050565b6060815183511461047d576040517f08c379a000000000000000000000000000000000000000000000000000000000815260206004820152602c60248201527f455243313135352362616c616e63654f6642617463683a20494e56414c49445f60448201527f41525241595f4c454e4754480000000000000000000000000000000000000000606482015260840161031d565b6000835167ffffffffffffffff81111561049957610499610eea565b6040519080825280602002602001820160405280156104c2578160200160208202803683370190505b50905060005b8451811015610582576000808683815181106104e6576104e6611311565b602002602001015173ffffffffffffffffffffffffffffffffffffffff1673ffffffffffffffffffffffffffffffffffffffff168152602001908152602001600020600085838151811061053c5761053c611311565b602002602001015181526020019081526020016000205482828151811061056557610565611311565b60209081029190910101528061057a8161136f565b9150506104c8565b509392505050565b33600081815260016020908152604080832073ffffffffffffffffffffffffffffffffffffffff87168085529083529281902080547fffffffffffffffffffffffffffffffffffffffffffffffffffffffffffffff001686151590811790915590519081529192917f17307eab39ab6107e8899845ad3d59bd9653f200f220920489ca2b5937696c31910160405180910390a35050565b3373ffffffffffffffffffffffffffffffffffffffff86161480610675575073ffffffffffffffffffffffffffffffffffffffff8516600090815260016020908152604080832033845290915290205460ff165b610701576040517f08c379a000000000000000000000000000000000000000000000000000000000815260206004820152602a60248201527f4552433131353523736166655472616e7366657246726f6d3a20494e56414c4960448201527f445f4f50455241544f5200000000000000000000000000000000000000000000606482015260840161031d565b73ffffffffffffffffffffffffffffffffffffffff84166107a4576040517f08c379a000000000000000000000000000000000000000000000000000000000815260206004820152602b60248201527f4552433131353523736166655472616e7366657246726f6d3a20494e56414c4960448201527f445f524543495049454e54000000000000000000000000000000000000000000606482015260840161031d565b6107b085858585610bac565b6103e3858585855a86610c90565b805182511461084f576040517f08c379a000000000000000000000000000000000000000000000000000000000815260206004820152603560248201527f45524331313535235f7361666542617463685472616e7366657246726f6d3a2060448201527f494e56414c49445f4152524159535f4c454e4754480000000000000000000000606482015260840161031d565b815160005b8181101561099d5782818151811061086e5761086e611311565b60200260200101516000808873ffffffffffffffffffffffffffffffffffffffff1673ffffffffffffffffffffffffffffffffffffffff16815260200190815260200160002060008684815181106108c8576108c8611311565b6020026020010151815260200190815260200160002060008282546108ed91906113a7565b9250508190555082818151811061090657610906611311565b60200260200101516000808773ffffffffffffffffffffffffffffffffffffffff1673ffffffffffffffffffffffffffffffffffffffff168152602001908152602001600020600086848151811061096057610960611311565b60200260200101518152602001908152602001600020600082825461098591906113ba565b909155508190506109958161136f565b915050610854565b508373ffffffffffffffffffffffffffffffffffffffff168573ffffffffffffffffffffffffffffffffffffffff163373ffffffffffffffffffffffffffffffffffffffff167f4a39dc06d4c0dbc64b70af90fd698a233a518aa5d07e595d983b8c0526c8f7fb8686604051610a149291906113cd565b60405180910390a45050505050565b610a428573ffffffffffffffffffffffffffffffffffffffff16610e0f565b15610ba45760008573ffffffffffffffffffffffffffffffffffffffff1663bc197c8184338a8989886040518763ffffffff1660e01b8152600401610a8b95949392919061145f565b60206040518083038160008887f1158015610aaa573d6000803e3d6000fd5b50505050506040513d601f19601f82011682018060405250810190610acf91906114ca565b90507fffffffff0000000000000000000000000000000000000000000000000000000081167fbc197c810000000000000000000000000000000000000000000000000000000014610ba2576040517f08c379a000000000000000000000000000000000000000000000000000000000815260206004820152603f60248201527f45524331313535235f63616c6c6f6e455243313135354261746368526563656960448201527f7665643a20494e56414c49445f4f4e5f524543454956455f4d45535341474500606482015260840161031d565b505b505050505050565b73ffffffffffffffffffffffffffffffffffffffff841660009081526020818152604080832085845290915281208054839290610bea9084906113a7565b909155505073ffffffffffffffffffffffffffffffffffffffff831660009081526020818152604080832085845290915281208054839290610c2d9084906113ba565b9091555050604080518381526020810183905273ffffffffffffffffffffffffffffffffffffffff808616929087169133917fc3d58168c5ae7397731d063d5bbf3d657854427343f4c083240f7aacaa2d0f62910160405180910390a450505050565b610caf8573ffffffffffffffffffffffffffffffffffffffff16610e0f565b15610ba45760008573ffffffffffffffffffffffffffffffffffffffff1663f23a6e6184338a8989886040518763ffffffff1660e01b8152600401610cf89594939291906114e7565b60206040518083038160008887f1158015610d17573d6000803e3d6000fd5b50505050506040513d601f19601f82011682018060405250810190610d3c91906114ca565b90507fffffffff0000000000000000000000000000000000000000000000000000000081167ff23a6e610000000000000000000000000000000000000000000000000000000014610ba2576040517f08c379a000000000000000000000000000000000000000000000000000000000815260206004820152603a60248201527f45524331313535235f63616c6c6f6e4552433131353552656365697665643a2060448201527f494e56414c49445f4f4e5f524543454956455f4d455353414745000000000000606482015260840161031d565b6000813f8015801590610e4257507fc5d2460186f7233c927e7db2dcc703c0e500b653ca82273b7bfad8045d85a4708114155b9392505050565b803573ffffffffffffffffffffffffffffffffffffffff81168114610e6d57600080fd5b919050565b60008060408385031215610e8557600080fd5b610e8e83610e49565b946020939093013593505050565b7fffffffff0000000000000000000000000000000000000000000000000000000081168114610eca57600080fd5b50565b600060208284031215610edf57600080fd5b8135610e4281610e9c565b7f4e487b7100000000000000000000000000000000000000000000000000000000600052604160045260246000fd5b604051601f82017fffffffffffffffffffffffffffffffffffffffffffffffffffffffffffffffe016810167ffffffffffffffff81118282101715610f6057610f60610eea565b604052919050565b600067ffffffffffffffff821115610f8257610f82610eea565b5060051b60200190565b600082601f830112610f9d57600080fd5b81356020610fb2610fad83610f68565b610f19565b82815260059290921b84018101918181019086841115610fd157600080fd5b8286015b84811015610fec5780358352918301918301610fd5565b509695505050505050565b600082601f83011261100857600080fd5b813567ffffffffffffffff81111561102257611022610eea565b61105360207fffffffffffffffffffffffffffffffffffffffffffffffffffffffffffffffe0601f84011601610f19565b81815284602083860101111561106857600080fd5b816020850160208301376000918101602001919091529392505050565b600080600080600060a0868803121561109d57600080fd5b6110a686610e49565b94506110b460208701610e49565b9350604086013567ffffffffffffffff808211156110d157600080fd5b6110dd89838a01610f8c565b945060608801359150808211156110f357600080fd5b6110ff89838a01610f8c565b9350608088013591508082111561111557600080fd5b5061112288828901610ff7565b9150509295509295909350565b6000806040838503121561114257600080fd5b823567ffffffffffffffff8082111561115a57600080fd5b818501915085601f83011261116e57600080fd5b8135602061117e610fad83610f68565b82815260059290921b8401810191818101908984111561119d57600080fd5b948201945b838610156111c2576111b386610e49565b825294820194908201906111a2565b965050860135925050808211156111d857600080fd5b506111e585828601610f8c565b9150509250929050565b600081518084526020808501945080840160005b8381101561121f57815187529582019590820190600101611203565b509495945050505050565b602081526000610e4260208301846111ef565b6000806040838503121561125057600080fd5b61125983610e49565b91506020830135801515811461126e57600080fd5b809150509250929050565b6000806040838503121561128c57600080fd5b61129583610e49565b91506112a360208401610e49565b90509250929050565b600080600080600060a086880312156112c457600080fd5b6112cd86610e49565b94506112db60208701610e49565b93506040860135925060608601359150608086013567ffffffffffffffff81111561130557600080fd5b61112288828901610ff7565b7f4e487b7100000000000000000000000000000000000000000000000000000000600052603260045260246000fd5b7f4e487b7100000000000000000000000000000000000000000000000000000000600052601160045260246000fd5b60007fffffffffffffffffffffffffffffffffffffffffffffffffffffffffffffffff82036113a0576113a0611340565b5060010190565b8181038181111561019e5761019e611340565b8082018082111561019e5761019e611340565b6040815260006113e060408301856111ef565b82810360208401526113f281856111ef565b95945050505050565b6000815180845260005b8181101561142157602081850181015186830182015201611405565b5060006020828601015260207fffffffffffffffffffffffffffffffffffffffffffffffffffffffffffffffe0601f83011685010191505092915050565b600073ffffffffffffffffffffffffffffffffffffffff808816835280871660208401525060a0604083015261149860a08301866111ef565b82810360608401526114aa81866111ef565b905082810360808401526114be81856113fb565b98975050505050505050565b6000602082840312156114dc57600080fd5b8151610e4281610e9c565b600073ffffffffffffffffffffffffffffffffffffffff808816835280871660208401525084604083015283606083015260a0608083015261152c60a08301846113fb565b97965050505050505056fea264697066735822122020597f19c5a20751f4d5a95cb5e6ea1e5cf23bc5b695c7c8d92f82f19c57bd7e64736f6c63430008120033",
  "linkReferences": {},
  "deployedLinkReferences": {}
}